:020000040800F2
:10000000900400209D0100086B120008BD1100083B
:1000100069120008A902000831150008000000005C
:100020000000000000000000000000006F12000847
:10003000B9020008000000006D12000871120008EB
:10004000B7010008B7010008B7010008B7010008B0
:10005000B7010008B7010008B7010008B7010008A0
:10006000B7010008B7010008B7010008B701000890
:10007000B7010008B7010008B7010008B701000880
:10008000B7010008B7010008B7010008B701000870
:10009000AD020008B7010008B7010008B701000869
:1000A000B7010008B7010008B7010008B701000850
:1000B000B7010008B7010008B7010008B701000840
:1000C000B7010008B7010008B7010008B701000830
:1000D000B701000825150008B7010008B70100089E
:1000E000B7010008B7010008B7010008B701000810
:1000F000B7010008B7010008B7010008B701000800
:10010000B7010008B7010008B7010008B7010008EF
:10011000B7010008B7010008B7010008B7010008DF
:10012000B7010008B7010008B7010008B7010008CF
:10013000B7010008B7010008B7010008B7010008BF
:10014000B7010008B7010008B7010008B7010008AF
:10015000B7010008B7010008B7010008B70100089F
:10016000B7010008B7010008B7010008B70100088F
:10017000B7010008B7010008B7010008000000003F
:10018000B7010008B7010008DFF80CD000F07AF8DA
:10019000004800473D1B00089004002006488047A7
:1001A00006480047FEE7FEE7FEE7FEE7FEE7FEE75C
:1001B000FEE7FEE7FEE7FEE775120008890100088A
:1001C0002DE9F05F0546002092469B46884606468C
:1001D000814640241BE0284641464746224600F01F
:1001E00041F853465A46C01A914110D31146184659
:1001F000224600F028F82D1A67EB01084F462246E8
:100200000120002100F01FF817EB00094E41201ECD
:10021000A4F10104DFDC484631462A464346BDE8E6
:10022000F09FD2B201E000F8012B491EFBD27047CB
:100230000022F6E710B513460A4604461946FFF7B2
:10024000F0FF204610BD202A04DB203A00FA02F11C
:10025000002070479140C2F1200320FA03F31943B4
:1002600090407047202A04DB203A21FA02F0002156
:10027000704721FA02F3D040C2F1200291400843B6
:1002800019467047064C074D06E0E06840F0010350
:1002900094E8070098471034AC42F6D3FFF778FF94
:1002A000C81B0008E81B0008FEE70000014800F03A
:1002B00078B900001C000020704772B6FEE790F885
:1002C0002020012A07D0022A05D0416A41F480216A
:1002D000416201207047006842690A434261002080
:1002E0007047F0B590F820500468A468012D05D03F
:1002F000022D03D0416A41F480214DE014F0406F9B
:1003000001D1E50045D5C4F301640125A5401D6078
:100310008D684FF4C0739DB1CE6835434E6845EA91
:10032000C605066803EB0417F5514FF4C27507685C
:1003300005EB04150E697E51097D012905D009E000
:100340000E88CD6845EA4655EBE701684E5946F4FC
:1003500080764E511179D2F805504FF4C67641EAB5
:100360000521056806EB0416A9511178D2F8012081
:100370004FF4C47541EA0221026805EB041551519E
:10038000006803EB0411425842F001024250002081
:10039000F0BD416A41F4001141620120F0BD00004E
:1003A00010B590F82020012A07D0022A05D0416A12
:1003B00041F480214162012010BD3B48D0F8002269
:1003C00042F00102C0F80022D0F8002222F47C5250
:1003D000C0F80022D0F800224B6A42EA0322C0F89B
:1003E00000220A7D02F01F0301229A40D0F81C323D
:1003F0009343C0F81C32CB69B3B9D0F80C329343A5
:10040000C0F80C328C894B6864F31F434C6900EBD5
:10041000C404C4F840320C890B6864F31F434C6970
:1004200000EBC404C4F84432CB69012B16D1D0F8D8
:100430000C321343C0F80C320C884B6864F31F4332
:100440004C6900EBC404C4F840320C89CB6864F3F7
:100450001F434C6900EBC404C4F844328B69002B81
:10046000D0F804320ED01343C0F804320B69002BCD
:10047000D0F8143208D01343C0F81432096A0129A5
:1004800004D008E09343EFE79343F5E7D0F81C125C
:100490001143C0F81C12D0F8001221F00101C0F87D
:1004A0000012002010BD000000640040704770B5CD
:1004B00090F82040012C05D0022C03D0416A41F471
:1004C000802128E0046809B32469A40720D04FF4F0
:1004D000D874056804EB01142D5915F004059560D6
:1004E00005682D591AD0ED08556005682C5904F09F
:1004F0000204D4604FF4DA74056804EB01142E5939
:1005000006F00F06082E0CD308250DE0E468DCE7A2
:10051000416A41F400114162012070BD6D0D15600A
:10052000E3E72D5905F00F05156105682D59C5F351
:100530000725956105682C59240C54614FF4DC7231
:10054000046802EB0112A4581C700468A458240A21
:100550005C700468A458240C9C700468A258120EA5
:10056000DA704FF4DE72046802EB0112A4581C71B9
:100570000468A458240A5C710468A458240C9C7173
:100580000468A258120EDA71006829B1016941F0BD
:1005900020010161002070BDC16841F02001C160EF
:1005A000F8E72DE9F05F0546006800244669D0F8B9
:1005B00004908768D0F80CB0D0F810A0D0F818805C
:1005C000F10748D0F90714D001218160B80703D59D
:1005D000284600F030FA0CE0780702D54FF40064AA
:1005E00007E0380702D54FF4805402E0284600F0B7
:1005F00021FAF80516D529684FF480708860B8058F
:1006000003D5284600F019FA0CE0780502D544F429
:10061000005407E0380502D544F4804402E028463F
:1006200000F00AFAF80316D529684FF48030886084
:10063000B80303D5284600F002FA0CE0780302D58F
:1006400044F4004407E0380302D544F4803402E067
:10065000284600F0F3F9300707D55FEACB6004D5F0
:100660002968102044F40074C86070074FF0080730
:1006700007D55FEA0B7004D52868C760284600F0EC
:1006800059F9B00706D52868C068800702D0284607
:1006900000F052F9700607D55FEACA6004D52968F0
:1006A000102044F480640861B00607D55FEA0A7040
:1006B00004D528680761284600F08CF9F00606D5B5
:1006C00028680069800702D0284600F084F9B0034A
:1006D00008D55FEAC96005D529681020486028461A
:1006E00000F07AF9F00307D55FEA097004D52868AD
:1006F0004760284600F0A4F9300446D55FEA497007
:1007000040D5F00504D55FEAC87001D044F001047B
:10071000B00504D55FEA887001D544F00204700585
:1007200004D55FEA487001D544F00404300529D5AA
:1007300018F0700F26D008F07000402815D006DCA5
:10074000102809D020280AD0302816D10AE05028D5
:100750000ED0602811D10EE044F008040DE044F002
:1007600010040AE044F0200407E044F0400404E0F0
:1007700044F0800401E044F480742868816921F029
:1007800070018161296804204860002C05D0686AE6
:10079000204368622846FFF789FEBDE8F09F70B5E8
:1007A000040003D094F8200010B104E0012070BDD3
:1007B000204600F081F82068016841F001010160E5
:1007C00000F0A4FA0546052604E000F09FFA401B5D
:1007D0000A2811D820684068C007F6D02068016850
:1007E00021F00201016000F091FA05460BE000F0F3
:1007F0008DFA401B0A2806D9606A40F40030606216
:1008000084F82060D2E7206840688007EFD4207E1B
:100810000128206801683DD021F080010160607EE0
:1008200001282068016838D021F040010160A07ED5
:1008300001282068016833D021F020010160E07EAA
:100840000128206801682ED041F010010160207F4E
:1008500001282068016829D021F008010160607F2B
:1008600001282068016824D021F004010160D4E946
:1008700002010843D4E90412114308436168491E88
:1008800008432168C86100206062012084F82000CC
:10089000002070BD41F08001C0E741F04001C5E794
:1008A00041F02001CAE721F01001CFE741F0080133
:1008B000D4E741F00401D9E710B586B0044614210D
:1008C0006846FFF7B5FC18492068884229D11748C7
:1008D0000021026842F000720260006800F00070BF
:1008E000059012481038026842F001020260006868
:1008F00000F0010005904FF4C05000900220CDE9B7
:10090000010103200390092004906946084800F083
:1009100005F900221146142000F014FA142000F00A
:1009200003FA06B010BD00000064004040380240E9
:10093000000002407047000030B589B007AB6A463E
:100940000021FFF7B4FD08B10BA010E012A0049A3B
:10095000009900F0EFFD002407AD04E0295D1AA026
:1009600000F0E8FD641C0498A042F7D818A000F03D
:10097000E1FD09B030BD00004572726F72207265F2
:1009800063656976696E672043414E206D657373B8
:100990006167650D0A0000005265636569766564EC
:1009A0002043414E206D6573736167653A20494469
:1009B0003D307825582C20444C433D25642C204460
:1009C0006174613D000000002530325820000000B5
:1009D0000D0A0000704770477047000070B504466C
:1009E00090F82000012804D0606A40F40020606282
:1009F00018E0022084F820002068016821F001013D
:100A0000016000F083F905460EE000BF00F07EF9BA
:100A1000401B0A2808D9606A40F400306062052053
:100A200084F82000012070BD20684068C007EDD127
:100A3000606270BD7047704770477047704770477D
:100A400070472DE9F0410446876D00F05FF90646D6
:100A500094F835000025022806D08020606584F8CF
:100A600034500120BDE8F0812068016821F01601B2
:100A700001602068416921F080014161206C08B962
:100A8000A06C20B12068016821F008010160206895
:100A9000016821F0010101600CE000F037F9801BD2
:100AA000052807D920206065032084F8350084F8E4
:100AB0003450D7E720680068C007EED194F85C1086
:100AC0003F208840B860012084F8350084F8345015
:100AD0000020C7E790F83510022903D08021416536
:100AE00001207047052180F835100068016821F069
:100AF000010101600020704770B5044600F006F95E
:100B00000546601C02D004480078044400F0FEF85A
:100B1000401BA042FAD370BD080000202DE9F84F19
:100B2000DFF8BCA10022012503264FF00F090AF1CE
:100B3000040BAAF1040E00BF0B6805FA02F423406F
:100B4000A34270D10F7907F00307012F01D0022FC4
:100B500016D187684FEA420806FA08FC27EA0C0714
:100B6000D1F80CC00CFA08FC4CEA070CC0F808C01D
:100B70004768A7430C79C4F3001494403C43446095
:100B80000C79E443A4070AD0C4684FEA420C06FA81
:100B90000CF7BC438F6807FA0CF72743C7600C7942
:100BA00004F00304022C12D1D40800EB840CDCF80E
:100BB00020405707FF0E09FA07F824EA0804D1F885
:100BC000108008FA07F848EA0408CCF82080046886
:100BD0004FEA420C06FA0CF7BC430F7907F0030703
:100BE00007FA0CF7274307604C6814F4403F70D0B5
:100BF0003C4C276847F480472760246822F00307AD
:100C000004F480440094384C07EB040CDCF80848EA
:100C100097074FEA177809FA08F7BC43334FB842F1
:100C200002D1002724E054E0314FB84201D101271E
:100C30001EE0304FB84201D1022719E02E4FB842D2
:100C400001D1032714E02D4FB84201D104270FE052
:100C50002B4FB84201D105270AE02A4FB84201D1F3
:100C6000062705E0284FB84201D1072700E00827F2
:100C700007FA08F72743CCF80878DAF80040574617
:100C8000D1F804C09C435FEACC2C00D51C433C60E7
:100C9000DBF800405F46D1F804C09C435FEA8C2C2F
:100CA00000D51C433C60DEF800407746D1F804C014
:100CB0009C435FEA8C3C00D51C433C60084F083FD6
:100CC0003C68D1F804C09C435FEACC3C00D51C438F
:100CD0003C60521C102AFFF42FAFBDE8F88F0000D3
:100CE000083C01404438024000300140000002400E
:100CF0000004024000080240000C024000100240C4
:100D00000014024000180240001C024001488068A4
:100D100070470000080000200248816802781144F2
:100D20008160704708000020002809DB00F01F02E6
:100D3000012191404009800000F1E020C0F800113D
:100D400070470000F0B40E4B1B680C46C3F302233F
:100D5000C3F10705042D00D90425191D072901D267
:100D6000002300E0DB1E012606FA05F1491E2140A2
:100D700099409E40761E16403143F0BC00F0EABB1D
:100D80000CED00E00448054900680968044AC1F315
:100D90008221515CC840704714000020083802408E
:100DA000C01B00080448054900680968044AC1F3EB
:100DB0004231515CC840704714000020083802409E
:100DC000C01B000870477047F8B501680446086802
:100DD000CA684B6910F00F0F4FF0000559D003F0AF
:100DE000010602F49077374365D0C10705D0D105DD
:100DF00003D5616C41F001016164410705D5D90754
:100E000003D0616C41F002016164810705D5D90707
:100E100003D0616C41F004016164010707D502F061
:100E20002001314303D0616C41F008016164616CC1
:100E300000293AD0800604D5900602D5204600F05D
:100E400050FA20684069616CC0F38010090700D433
:100E500060B3204600F01EFA20684069400621D5A4
:100E60002068143050E8001F21F0400140E80012D3
:100E7000002AF5D1E06BA8B16E490165E06BFFF780
:100E800029FE002811D0E06B016D01B0BDE8F040F3
:100E9000084783060FD593060DD52046BDE8F840D8
:100EA00000F01FBA2046FFF78EFFF8BD2046FFF77F
:100EB0008AFF6564F8BD266B2023012E7DD1C6060E
:100EC0007BD5D60679D508684868009048694FF008
:100ED0000206400641D5E16B086840680004000C3A
:100EE000E8D0A28D8242E5D9E085C869B0F5807F5F
:100EF0002DD020680C3050E8001F21F4807140E8AC
:100F00000012002AF5D12068143050E8001F21F0AB
:100F1000010140E80012002AF5D12068143050E8A1
:100F2000001F21F0400140E80012002AF5D184F8AA
:100F30004230256320680C3050E8001F21F010017A
:100F400040E80012002AF5D1E06BFFF77AFD6663F6
:100F5000A08DE18D401A81B22AE0A08DE18D401A6A
:100F600081B2E08D0028A5D00029A3D022680C32E0
:100F700052E8000F20F4907042E80007002FF5D1EE
:100F80002068143050E8002F22F0010240E80027CA
:100F9000002FF5D184F84230256320680C3050E8EA
:100FA000002F22F0100240E80023002BF5D16663E9
:100FB0002046FFF707FFF8BDFFE705062BD515060E
:100FC00029D594F841002128F5D1A068B0F5805FBB
:100FD00001D12069B0B1206A411C216221680078EA
:100FE0004860E08C401E0004000CE084E3D12068DF
:100FF000C16821F08001C1602068C16841F04001F2
:10100000C160D8E7206A0088C0F308004860206A01
:10101000801C2062E5E74006CDD55006CBD5CA68D6
:10102000204622F04002CA6084F8413000F0C5F842
:10103000C1E700008512000870B5040004D094F8E0
:101040004100002510B106E0012070BD84F8405039
:10105000204600F023F8242084F841002068C1686D
:1010600021F40051C160204600F09CF9206801691C
:1010700021F4904101612068416921F02A01416118
:101080002068C16841F40051C1606564202084F883
:10109000410084F842006563002070BD10B586B041
:1010A000044614216846FFF7C3F8184920688842AF
:1010B00029D117480021026842F01002026000683E
:1010C00000F01000059012481438026842F0010246
:1010D0000260006800F0010005904FF4C0600090CD
:1010E0000220CDE901010320039007200490694606
:1010F0000848FFF713FD002211462520FFF722FEC6
:101100002520FFF711FE06B010BD000000100140C1
:10111000443802400000024070472DE9F84304467D
:1011200090F84100984616460D46202802D002202D
:10113000BDE8F88385B17EB100206064212084F889
:101140004100FFF7E3FDA6848146E684A0682027DE
:10115000B0F5805F02D003E00120E9E7206910B11B
:101160002E4600250EE000260CE08021204600F0EF
:101170009FF9A8B9C6B116F8010B21684860E08C48
:10118000401EE084E08C4B464FF00002CDF800801A
:101190000028EAD14FF04001204600F089F940B123
:1011A00084F841700320C3E735F8020BC0F3080050
:1011B000E3E784F841700020BAE77047FEE70000DB
:1011C0000F4810B50D4901600C21416000214FF41A
:1011D00040328160C0E903124FF48012426101760F
:1011E00041768176C17601774177FFF7D8FA0028FA
:1011F00003D0BDE81040FFF760B810BD00640040A8
:101200001C000020094808B5016841F08001016018
:10121000016801F080010091016841F00101016065
:10122000006800F00100009008BD00003038024066
:101230000C4810B50A4901604FF4E13141600021CA
:1012400081600C22C160C0E904128161C161FFF7B5
:10125000F3FE002803D0BDE81040FFF72EB810BD04
:101260000010014044000020FEE7FEE77047704791
:10127000FFF752BD0248016841F4700101607047F8
:1012800088ED00E010B5806B0021C185C184FFF7B7
:101290009AFD10BD01680C3151E8002F22F49072C4
:1012A00041E80023002BF5D10168143151E8002FEB
:1012B00022F0010241E80023002BF5D1016B012946
:1012C00009D101680C3151E8002F22F0100241E8E9
:1012D0000023002BF5D1202180F84210002101636A
:1012E000704708B590F84210222901D0022008BDAD
:1012F00082684FF480539A4201D1016921B1816A19
:101300009A421BD04AB10AE00268816A5268C2F36D
:1013100008020A80816A891C08E0026972B10268C9
:10132000526802F07F020A70816A491C8162C18D95
:10133000491E0904090CC18503D01BE002685268EC
:10134000F1E70168CA6822F02002CA600168CA6831
:1013500022F48072CA6001684A6922F001024A617F
:10136000202180F8421000214163026B012A03D042
:10137000FFF7D2FE002008BD016301680C3151E87F
:10138000002F22F0100241E80023002BF5D1016864
:101390000A68D20602D50A6849680091818DFFF774
:1013A00011FDE7E770B5044600680169E26821F4C1
:1013B0004051114301612169A068E26908436169F4
:1013C000114308432168CA6849F20C639A430243F7
:1013D000CA6020684169A26921F4407111434161EA
:1013E00031492068884202D03049884202D1FFF753
:1013F000D9FC01E0FFF7C6FCE2690023192164254E
:101400003226B2F5004F626828D0A0FB0101930F8D
:101410009200FEF7D5FE0146B0FBF5F06FF0180222
:10142000504301EB800006EB0010B0FBF5F000F03C
:10143000F002B1FBF5F002EB0012B1FBF5F06FF03A
:101440001803584301EB800006EB0010B0FBF5F0E9
:1014500000F00F0021681044886070BDA0FB0101FE
:1014600092185B41FEF7ACFE0146B0FBF5F00201BD
:10147000B1FBF5F06FF01803584301EB800006EB69
:10148000C000B0FBF5F000F0F80002EB4002B1FB49
:10149000F5F0584301EB800006EBC000B0FBF5F01F
:1014A00000F00700D6E700000010014000140140E2
:1014B0002DE9F843984617460D460446089E24E059
:1014C000701C22D0FFF722FCA0EB0800B0421AD813
:1014D000CEB12068C168490717D5802D15D0402DA1
:1014E00013D00168C94309070FD40168002540687B
:1014F00000902046FFF7CEFE0820606484F840503C
:101500000120BDE8F8830320FBE72068006835EA86
:10151000000004D00020B842D2D00020F1E7012022
:10152000F9E700000148FFF74FBC0000440000202D
:10153000FEE700000FB4054B10B503A9044A02985A
:1015400000F028F810BC5DF814FB0000251B000813
:10155000180000200907090E002804DB00F1E02034
:1015600080F80014704700F00F0000F1E02080F8D0
:10157000141D704702E008C8121F08C1002AFAD1E2
:1015800070477047002001E001C1121F002AFBD103
:10159000704700002DE9FF4F8DB00F46054600262D
:1015A00006E025280BD0DDE90F1290476D1C761C54
:1015B00028780028F5D111B03046BDE8F08F00241E
:1015C000A246A1460122EC4900E0044315F8013F80
:1015D000203B02FA03F00842F7D128782A2810D0DD
:1015E0006FF02F022878A0F13001092914D80AEBF6
:1015F0008A0102EB410144F0020400EB010A6D1C78
:10160000F0E701CF5FEA000A03D544F40054CAF1C1
:10161000000A44F002046D1C28782E2817D115F812
:10162000010F44F004042A280ED06FF02F0228780E
:10163000A0F1300109290AD809EB890102EB410127
:1016400000EB01096D1CF2E757F8049B6D1C28782C
:101650006C280FD006DC4C2817D068280DD06A28DB
:1016600014D104E0742810D07A280FD10DE044F48E
:1016700000140AE044F4801401E044F44014697852
:10168000814202D104F580146D1C6D1C2A786E2AEB
:101690001FD00CDC632A31D004DC002A8BD0582AFE
:1016A00011D1A3E0642A68D0692A0CD165E0732ABD
:1016B0002ED004DC6F2A73D0702A04D19BE0752AE7
:1016C0006FD0782A6ED01046DDE90F129047761C55
:1016D00050E1C4F30250022806D0032809D00428A0
:1016E00001CF09D0066045E101CFF117C0E90061E3
:1016F00040E101CF06803DE106703BE117F8040BA5
:101700008DF8000000208DF80100EB46012003E079
:1017100057F804BB4FF0FF3061074FF0000102D4CF
:101720000DE008F10101884649450FDA8045F8DBF4
:101730001BF808100029F4D108E008F101018846DF
:101740008142FADB1BF808100029F6D1DDE90F23EE
:10175000AAEB08008146214600F036F9304400EB40
:10176000080604E0DDE90F121BF8010B9047B8F101
:101770000108F7D221464846F7E00A21C4F3025394
:101780004FF0000B0891022B04D001CFC117032B9F
:1017900009D00AE0FF1D27F00707F7E8020108E07B
:1017A00032E01FE020E000B2C117042B01D140B2AB
:1017B000C117031E71F1000307DA4FF0000CD0EBE4
:1017C0000C006CEB01012D2302E0230504D52B2333
:1017D0008DF82430012303E0E30701D02023F7E74D
:1017E000984658E00A2110E010210EE010204FF03A
:1017F000000B08900CE010214FF0000B44F00404A3
:101800004FF00809089103E008214FF0000B089100
:10181000C4F30253022B04D001CF0021032B06D0C6
:1018200006E0FF1D27F00707F7E8020103E080B29A
:10183000042B00D1C0B24FF0000823072BD5702A2B
:1018400007D0DDF820C08CF0100C5CEA0B0C05D042
:101850000EE040238DF82430012308E050EA010314
:1018600006D030238DF824308DF8252002239846A9
:10187000DDF820C08CF0080C5CEA0B0C0BD150EAB0
:10188000010301D1630706D530238DF824304FF0D2
:101890000108A9F10109582A04D038A20B9208AA1C
:1018A0000A920BE03AA2F9E75B46089AFEF788FC39
:1018B0000B9B9B5C0A9A521E0A92137050EA01021B
:1018C000F2D10A98ADEB000000F1200B600702D5C1
:1018D00024F4803401E04FF00109D94502DDA9EB81
:1018E0000B0000E0002000EB0B0141440890AAEB44
:1018F000010AE00306D4DDE90F232146504600F03B
:1019000063F806444FF0000908E009A911F809003E
:10191000DDE90F12904709F10109761CC145F4DB9E
:10192000E0030CD5DDE90F232146504600F04CF8CA
:10193000064404E0DDE90F1230209047761C089938
:10194000481E08900029F5DC08E00A980A990078FA
:10195000491C0A91DDE90F129047761CBBF100018A
:10196000ABF1010BF1DC21465046DDE90F2300F01D
:1019700019F806446D1C1BE609280100303132338A
:1019800034353637383961626364656600000000BB
:1019900030313233343536373839414243444546A5
:1019A000000000002DE9F041044600251E461746C0
:1019B000880404D405E039462020B0476D1C641E1D
:1019C000F9D52846BDE8F0812DE9F041044600250F
:1019D0001E469046C80301D5302700E02027880422
:1019E00004D505E041463846B0476D1C641EF9D564
:1019F0002846BDE8F081000000B58BB0282168467C
:101A0000FEF716FC00200121CDE9060108910590A2
:101A10000490009001900290039069460748FEF7F9
:101A2000BFFC28B106A0FFF785FD01200BB000BD6B
:101A30000BA0FFF77FFD0020F8E700001C0000204E
:101A40004572726F7220636F6E6669677572696E38
:101A5000672043414E2066696C7465720D0A000070
:101A600043414E2066696C74657220636F6E6669CF
:101A70006775726564207375636365737366756CEF
:101A80006C790D0A0000000070B58AB000240E9E2B
:101A90000DF10C0C2546089409948CE86100CDE901
:101AA00001128DF8184008A803E0195D0155641C67
:101AB000E4B2B442F9D3024607AB01A90748FEF7E6
:101AC00010FC28B106A0FFF735FD01200AB070BD5B
:101AD0000AA00799FFF72EFD0020F7E71C00002061
:101AE0004572726F722073656E64696E6720434140
:101AF0004E206D6573736167650D0A0043414E208A
:101B00006D65737361676520616464656420746FDB
:101B1000205478206D61696C626F7820256C750D9A
:101B20000A00000013B54FF6FF7301226946024810
:101B3000FFF7F3FA00981CBD4400002008B5FFF73A
:101B400061FBFFF775FBFFF73BFB1048FEF746FF15
:101B5000FFF752FF02210D48FEF7B1FB0C4C0125A7
:101B600040F223164FF47A7720780022401C207030
:101B7000074B314610460095FFF786FF217805A0F8
:101B8000FFF7D8FC3846FEF7B7FFEDE71C00002052
:101B90000000002053656E742043414E206D657334
:101BA000736167653A2049443D30783132332C20E7
:101BB000446174613D3078253032580D0A000000D0
:101BC0000000000001020304E81B000800000020E0
:101BD0001C00000074150008041C00081C000020F4
:101BE00074040000841500080000000000000000DC
:101BF0000100000010000000000000000024F400BC
:041C000000000000E0
:040000050800018965
:00000001FF
