:020000040800F2
:1000000000000220052A00081D2200081F22000807
:1000100021220008232200082522000800000000F9
:10002000000000000000000000000000272200087F
:1000300029220008000000002B2200082D220008C1
:10004000552A0008552A0008552A0008552A000894
:10005000552A0008552A0008552A0008552A000884
:10006000552A0008552A0008552A0008552A000874
:10007000552A0008552A0008552A0008552A000864
:10008000552A0008552A0008552A0008352200087C
:100090004522000855220008552A0008552A000864
:1000A000552A0008552A0008552A0008552A000834
:1000B000552A0008552A0008552A0008552A000824
:1000C000552A0008552A0008552A0008552A000814
:1000D000552A000865220008552A0008A5220008B4
:1000E000552A0008552A0008552A0008552A0008F4
:1000F000552A0008552A0008552A0008552A0008E4
:10010000552A0008552A0008552A0008552A0008D3
:10011000552A0008552A0008552A0008552A0008C3
:10012000552A0008552A0008552A0008552A0008B3
:10013000552A0008552A0008552A0008552A0008A3
:10014000552A0008552A0008552A0008552A000893
:10015000552A0008552A0008552A0008552A000883
:10016000552A0008552A0008552A0008552A000873
:10017000552A0008552A0008552A000800000000EA
:08018000552A0008552A000869
:1001C00081F0004102E000BF83F0004330B54FEA08
:1001D00041044FEA430594EA050F08BF90EA020F75
:1001E0001FBF54EA000C55EA020C7FEA645C7FEA08
:1001F000655C00F0E2804FEA5454D4EB5555B8BF2B
:100200006D420CDD2C4480EA020281EA030382EA9B
:10021000000083EA010180EA020281EA0303362D2D
:1002200088BF30BD11F0004F4FEA01314FF4801C00
:100230004CEA113102D0404261EB410113F0004F12
:100240004FEA03334CEA133302D0524263EB4303C9
:1002500094EA050F00F0A780A4F10104D5F1200E67
:100260000DDB02FA0EFC22FA05F2801841F10001C2
:1002700003FA0EF2801843FA05F359410EE0A5F196
:1002800020050EF1200E012A03FA0EFC28BF4CF0C7
:10029000020C43FA05F3C01851EBE37101F000457D
:1002A00007D54FF0000EDCF1000C7EEB00006EEB8A
:1002B0000101B1F5801F1BD3B1F5001F0CD3490814
:1002C0005FEA30004FEA3C0C04F101044FEA44526B
:1002D00012F5800F80F09A80BCF1004F08BF5FEAF2
:1002E000500C50F1000041EB045141EA050130BDD2
:1002F0005FEA4C0C404141EB0101013C28BFB1F5E4
:10030000801FE9D291F0000F04BF01460020B1FA2E
:1003100081F308BF2033A3F10B03B3F120020CDA01
:100320000C3208DD02F1140CC2F10C0201FA0CF0DF
:1003300021FA02F10CE002F11402D8BFC2F1200C44
:1003400001FA02F120FA0CFCDCBF41EA0C019040FA
:10035000E41AA2BF01EB0451294330BD6FEA040443
:100360001F3C1CDA0C340EDC04F11404C4F120022E
:1003700020FA04F001FA02F340EA030021FA04F340
:1003800045EA030130BDC4F10C04C4F1200220FA97
:1003900002F001FA04F340EA0300294630BD21FAD5
:1003A00004F0294630BD94F0000F83F4801306BF9B
:1003B00081F480110134013D4EE77FEA645C18BF8F
:1003C0007FEA655C29D094EA050F08BF90EA020F26
:1003D00005D054EA000C04BF1946104630BD91EA1E
:1003E000030F1EBF0021002030BD5FEA545C05D121
:1003F0004000494128BF41F0004130BD14F5800460
:100400003CBF01F5801130BD01F0004545F0FE41D3
:1004100041F470014FF0000030BD7FEA645C1ABF08
:10042000194610467FEA655C1CBF0B46024650EA3F
:10043000013406BF52EA033591EA030F41F400216B
:1004400030BD00BF90F0000F04BF0021704730B5F1
:100450004FF4806404F132044FF000054FF00001C6
:1004600050E700BF90F0000F04BF0021704730B587
:100470004FF4806404F1320410F0004548BF40425C
:100480004FF000013EE700BF42004FEAE2014FEAB1
:1004900031014FEA02701FBF12F07F4393F07F4F8C
:1004A00081F06051704732F07F4208BF704793F08F
:1004B0007F4F04BF41F40021704730B54FF46074A2
:1004C00001F0004521F000411CE700BF50EA0102A5
:1004D00008BF704730B54FF000050AE050EA01024E
:1004E00008BF704730B511F0004502D5404261EBBE
:1004F00041014FF4806404F132045FEA915C3FF4FF
:10050000D8AE4FF003025FEADC0C18BF03325FEA9B
:10051000DC0C18BF033202EBDC02C2F1200300FA4C
:1005200003FC20FA02F001FA03FE40EA0E0021FA71
:1005300002F11444BDE600BF80F0004002E000BFBD
:1005400081F0004142001FBF5FEA410392EA030FBE
:100550007FEA226C7FEA236C6AD04FEA1262D2EB08
:100560001363C1BFD218414048404140B8BF5B420D
:10057000192B88BF704710F0004F40F4000020F0A6
:100580007F4018BF404211F0004F41F4000121F0BC
:100590007F4118BF494292EA030F3FD0A2F1010206
:1005A00041FA03FC10EB0C00C3F1200301FA03F144
:1005B00000F0004302D5494260EB4000B0F5000F67
:1005C00013D3B0F1807F06D340084FEA310102F126
:1005D0000102FE2A51D2B1F1004F40EBC25008BFD8
:1005E00020F0010040EA03007047490040EB0000A2
:1005F000013A28BFB0F5000FEDD2B0FA80FCACF1A3
:10060000080CB2EB0C0200FA0CF0AABF00EBC250CF
:1006100052421843BCBFD0401843704792F0000FBD
:1006200081F4000106BF80F400000132013BB5E710
:100630004FEA41037FEA226C18BF7FEA236C21D086
:1006400092EA030F04D092F0000F08BF08467047EB
:1006500090EA010F1CBF0020704712F07F4F04D1B9
:10066000400028BF40F00040704712F100723CBFCC
:1006700000F50000704700F0004343F0FE4040F4F6
:10068000000070477FEA226216BF08467FEA2363B4
:100690000146420206BF5FEA412390EA010F40F49F
:1006A000800070474FF0000304E000BF10F00043EB
:1006B00048BF40425FEA000C08BF704743F09643D2
:1006C00001464FF000001CE050EA010208BF7047ED
:1006D0004FF000030AE000BF50EA010208BF704774
:1006E00011F0004302D5404261EB41015FEA010C89
:1006F00002BF84460146002043F0B64308BFA3F181
:100700008053A3F50003BCFA8CF2083AA3EBC25362
:1007100010DB01FA02FC634400FA02FCC2F1200281
:10072000BCF1004F20FA02F243EB020008BF20F0B8
:100730000100704702F1200201FA02FCC2F120021E
:1007400050EA4C0021FA02F243EB020008BF20EA13
:10075000DC7070474FF0FF0C1CEAD0521EBF1CEA41
:10076000D15392EA0C0F93EA0C0F6FD01A4480EA2F
:10077000010C400218BF5FEA41211ED04FF0006318
:1007800043EA501043EA5111A0FB01310CF0004044
:10079000B1F5000F3EBF490041EAD3715B0040EA6A
:1007A000010062F17F02FD2A1DD8B3F1004F40EB3A
:1007B000C25008BF20F00100704790F0000F0CF00D
:1007C000004C08BF49024CEA502040EA51207F3AD1
:1007D000C2BFD2F1FF0340EAC250704740F40000AC
:1007E0004FF00003013A5DDC12F1190FDCBF00F09D
:1007F00000407047C2F10002410021FA02F1C2F14B
:10080000200200FA02FC5FEA310040F1000053EAE6
:100810004C0308BF20EADC70704792F0000F00F034
:10082000004C02BF400010F4000F013AF9D040EA3A
:100830000C0093F0000F01F0004C02BF490011F4CE
:10084000000F013BF9D041EA0C018FE70CEAD153CC
:1008500092EA0C0F18BF93EA0C0F0AD030F0004C4C
:1008600018BF31F0004CD8D180EA010000F0004000
:10087000704790F0000F17BF90F0004F084691F0BE
:10088000000F91F0004F14D092EA0C0F01D14202F8
:100890000FD193EA0C0F03D14B0218BF084608D1C1
:1008A00080EA010000F0004040F0FE4040F400000B
:1008B000704740F0FE4040F4400070474FF0FF0C9E
:1008C0001CEAD0521EBF1CEAD15392EA0C0F93EAE5
:1008D0000C0F69D0A2EB030280EA010C49024FEA37
:1008E000402037D04FF0805343EA111143EA1013F0
:1008F0000CF000408B4238BF5B0042F17D024FF4A8
:10090000000C8B4224BF5B1A40EA0C00B3EB510F82
:1009100024BFA3EB510340EA5C00B3EB910F24BF6B
:10092000A3EB910340EA9C00B3EBD10F24BFA3EBF0
:10093000D10340EADC001B0118BF5FEA1C1CE0D1B8
:10094000FD2A3FF650AF8B4240EBC25008BF20F06B
:10095000010070470CF0004C4CEA50207F32C2BFBF
:10096000D2F1FF0340EAC250704740F400004FF05C
:100970000003013A37E792F0000F00F0004C02BF8D
:10098000400010F4000F013AF9D040EA0C0093F057
:10099000000F01F0004C02BF490011F4000F013BB1
:1009A000F9D041EA0C0195E70CEAD15392EA0C0F19
:1009B00008D142027FF47DAF93EA0C0F7FF470AF51
:1009C000084676E793EA0C0F04D14B023FF44CAF94
:1009D00008466EE730F0004C18BF31F0004CCAD129
:1009E00030F000427FF45CAF31F000437FF43CAF65
:1009F0005FE700BF4FF0FF3C06E000BF4FF0010C87
:100A000002E000BF4FF0010C4DF804CD4FEA400268
:100A10004FEA41037FEA226C18BF7FEA236C11D0B2
:100A200001B052EA530C18BF90EA010F58BFB2EB65
:100A3000030088BFC81738BF6FEAE17018BF40F0E5
:100A4000010070477FEA226C02D15FEA402C05D199
:100A50007FEA236CE4D15FEA412CE1D05DF8040B1E
:100A6000704700BF844608466146FFE70FB5FFF7B1
:100A7000C9FF002848BF10F1000F0FBD4DF808ED69
:100A8000FFF7F4FF0CBF012000205DF808FB00BF5A
:100A90004DF808EDFFF7EAFF34BF012000205DF8B4
:100AA00008FB00BF4DF808EDFFF7E0FF94BF012001
:100AB00000205DF808FB00BF4DF808EDFFF7D2FFFE
:100AC00094BF012000205DF808FB00BF4DF808ED41
:100AD000FFF7C8FF34BF012000205DF808FB00BF0E
:100AE0004FEA4002B2F1FE4F0FD34FF09E03B3EB3B
:100AF00012620DD94FEA002343F0004310F0004F7B
:100B000023FA02F018BF404270474FF000007047D0
:100B100012F1610F01D1420205D110F0004008BF6F
:100B20006FF0004070474FF00000704753B94AB96A
:100B3000002908BF00281CBF4FF0FF314FF0FF30E5
:100B400000F00CB8ADF1080C6DE904CE03F08CFC9C
:100B5000DDF804E0DDE9022304B07047704700BF10
:100B60000000000000000000000000000000000085
:100B70000000000000000000000000000000000075
:100B800030B490F800F020F007016FF0000C10F086
:100B9000070491F820F040F048804FF000046FF017
:100BA0000700D1E9002391F840F000F1080082FA33
:100BB0004CF2A4FA8CF283FA4CF3A2FA8CF34BBBFE
:100BC000D1E9022382FA4CF200F10800A4FA8CF277
:100BD00083FA4CF3A2FA8CF3E3B9D1E9042382FA45
:100BE0004CF200F10800A4FA8CF283FA4CF3A2FA5A
:100BF0008CF37BB9D1E9062301F1200182FA4CF292
:100C000000F10800A4FA8CF283FA4CF3A2FA8CF3F8
:100C1000002BC6D0002A04BF04301A4612BAB2FA1A
:100C200082F200EBD20030BC7047D1E9002304F01F
:100C30000305C4F100004FEAC50514F0040F91F854
:100C400040F00CFA05F562EA05021CBF63EA0503F1
:100C500062464FF00004AAE7000000000000000018
:100C600001F0FF01102A2BDB10F0070F08D010F85D
:100C7000013B013A8B422DD010F0070F42B3F6D161
:100C8000F0B441EA012141EA014122F007047FF07A
:100C900000070023F0E80256083C85EA010586EAD1
:100CA000010685FA47F5A3FA87F586FA47F6A5FA0D
:100CB00087F68EB9EED1F0BC01F0FF0102F0070219
:100CC00032B110F8013B013A83EA010313B1F8D1C4
:100CD0000020704701387047002D06BF35460338A5
:100CE000073815F0010F07D1013015F4807F02BFDE
:100CF000013015F4C03F0130F0BC0138704700BF2F
:100D0000844641EA000313F003036DD1403A41D316
:100D100051F8043B40F8043B51F8043B40F8043BD5
:100D200051F8043B40F8043B51F8043B40F8043BC5
:100D300051F8043B40F8043B51F8043B40F8043BB5
:100D400051F8043B40F8043B51F8043B40F8043BA5
:100D500051F8043B40F8043B51F8043B40F8043B95
:100D600051F8043B40F8043B51F8043B40F8043B85
:100D700051F8043B40F8043B51F8043B40F8043B75
:100D800051F8043B40F8043B51F8043B40F8043B65
:100D9000403ABDD2303211D351F8043B40F8043B05
:100DA00051F8043B40F8043B51F8043B40F8043B45
:100DB00051F8043B40F8043B103AEDD20C3205D315
:100DC00051F8043B40F8043B043AF9D2043208D00D
:100DD000D2071CBF11F8013B00F8013B01D30B887F
:100DE00003806046704700BF082A13D38B078DD05D
:100DF00010F003038AD0C3F10403D21ADB071CBF2F
:100E000011F8013B00F8013B80D331F8023B20F898
:100E1000023B7BE7043AD9D3013A11F8013B00F8D1
:100E2000013BF9D20B7803704B7843708B78837059
:100E30006046704770B54FF0FF0C4CF4E06C1CEA54
:100E400011541DBF1CEA135594EA0C0F95EA0C0FC0
:100E500000F0DEF82C4481EA030621EA4C5123EA33
:100E60004C5350EA013518BF52EA033541F4801162
:100E700043F4801338D0A0FB02CE4FF00005E1FB15
:100E800002E506F00042E0FB03E54FF00006E1FB5F
:100E900003569CF0000F18BF4EF0010EA4F1FF04A2
:100EA000B6F5007F64F5407404D25FEA4E0E6D41E2
:100EB00046EB060642EAC62141EA55514FEAC520F3
:100EC00040EA5E504FEACE2EB4F1FD0C88BFBCF56F
:100ED000E06F1ED8BEF1004F08BF5FEA500E50F120
:100EE000000041EB045170BD06F0004646EA0101E6
:100EF00040EA020081EA0301B4EB5C04C2BFD4EB18
:100F00000C0541EA045170BD41F480114FF0000E10
:100F1000013C00F3AB8014F1360FDEBF002001F07E
:100F2000004170BDC4F10004203C35DA0C341BDCF8
:100F300004F11404C4F1200500FA05F320FA04F0CA
:100F400001FA05F240EA020001F0004221F00041FE
:100F500010EBD37021FA04F642EB06015EEA430E71
:100F600008BF20EAD37070BDC4F10C04C4F12005A1
:100F700000FA04F320FA05F001FA04F240EA020054
:100F800001F0004110EBD37041F100015EEA430E25
:100F900008BF20EAD37070BDC4F1200500FA05F245
:100FA0004EEA020E20FA04F301FA05F243EA0203C4
:100FB00021FA04F001F0004121FA04F220EA0200D3
:100FC00000EBD3705EEA430E08BF20EAD37070BD19
:100FD00094F0000F0FD101F00046400041EB0101F9
:100FE00011F4801F08BF013CF7D041EA060195F0DB
:100FF000000F18BF704703F00046520043EB030395
:1010000013F4801F08BF013DF7D043EA0603704781
:1010100094EA0C0F0CEA135518BF95EA0C0F0CD08C
:1010200050EA410618BF52EA4306D1D181EA0301D2
:1010300001F000414FF0000070BD50EA410606BFCC
:101040001046194652EA430619D094EA0C0F02D111
:1010500050EA013613D195EA0C0F05D152EA033656
:101060001CBF104619460AD181EA030101F0004174
:1010700041F0FE4141F470014FF0000070BD41F0BD
:10108000FE4141F4780170BD70B54FF0FF0C4CF497
:10109000E06C1CEA11541DBF1CEA135594EA0C0FB6
:1010A00095EA0C0F00F0A7F8A4EB050481EA030E03
:1010B00052EA03354FEA013100F088804FEA0333EA
:1010C0004FF0805545EA131343EA12634FEA0222B8
:1010D00045EA111545EA10654FEA00260EF0004179
:1010E0009D4208BF964244F1FD0404F5407402D2CB
:1010F0005B084FEA3202B61A65EB03055B084FEA5C
:1011000032024FF480104FF4002CB6EB020E75EB58
:10111000030E22BFB61A754640EA0C005B084FEA80
:101120003202B6EB020E75EB030E22BFB61A7546FD
:1011300040EA5C005B084FEA3202B6EB020E75EB48
:10114000030E22BFB61A754640EA9C005B084FEAC0
:101150003202B6EB020E75EB030E22BFB61A7546CD
:1011600040EADC0055EA060E18D04FEA051545EABC
:1011700016754FEA06164FEAC30343EA52734FEA65
:10118000C2025FEA1C1CC0D111F4801F0BD141EADE
:1011900000014FF000004FF0004CB6E711F4801F43
:1011A00004BF01430020B4F1FD0C88BFBCF5E06F23
:1011B0003FF6AFAEB5EB030C04BFB6EB020C5FEA33
:1011C000500C50F1000041EB045170BD0EF0004E88
:1011D0004EEA113114EB5C04C2BFD4EB0C0541EABA
:1011E000045170BD41F480114FF0000E013C90E6B7
:1011F00045EA060E8DE60CEA135594EA0C0F08BF7B
:1012000095EA0C0F3FF43BAF94EA0C0F0AD150EA79
:1012100001347FF434AF95EA0C0F7FF425AF10460C
:1012200019462CE795EA0C0F06D152EA03353FF434
:10123000FDAE1046194622E750EA410618BF52EAB1
:1012400043067FF4C5AE50EA41047FF40DAF52EA85
:1012500043057FF4EBAE12E74FF0FF3C06E000BF22
:101260004FF0010C02E000BF4FF0010C4DF804CD2F
:101270004FEA410C7FEA6C5C4FEA430C18BF7FEAEF
:101280006C5C1BD001B050EA410C0CBF52EA430C1D
:1012900091EA030F02BF90EA020F0020704710F19D
:1012A000000F91EA030F58BF994208BF90422CBF2C
:1012B000D8176FEAE37040F0010070474FEA410C25
:1012C0007FEA6C5C02D150EA013C07D14FEA430C43
:1012D0007FEA6C5CD6D152EA033CD3D05DF8040BB4
:1012E000704700BF8446104662468C4619466346E6
:1012F00000E000BF01B5FFF7B7FF002848BF10F1BD
:10130000000F01BD4DF808EDFFF7F4FF0CBF012001
:1013100000205DF808FB00BF4DF808EDFFF7EAFF7D
:1013200034BF012000205DF808FB00BF4DF808ED38
:10133000FFF7E0FF94BF012000205DF808FB00BF2D
:101340004DF808EDFFF7CEFF94BF012000205DF8B7
:1013500008FB00BF4DF808EDFFF7C4FF34BF0120C4
:1013600000205DF808FB00BF4FEA410C7FEA6C5C8F
:1013700002D150EA013C0AD14FEA430C7FEA6C5C8F
:1013800002D152EA033C02D14FF0000070474FF007
:10139000010070474FEA410212F5001215D211D533
:1013A0006FF47873B3EB625212D94FEAC12343F062
:1013B000004343EA505311F0004F23FA02F018BFE4
:1013C000404270474FF00000704750EA013005D1AD
:1013D00011F0004008BF6FF0004070474FF0000070
:1013E000704700BF0348044B834202D0034B03B154
:1013F00018477047FC060020FC0600200000000093
:101400000548064B1B1AD90F01EBA301491002D066
:10141000034B03B118477047FC060020FC06002070
:101420000000000010B5064C237843B9FFF7DAFF3F
:10143000044B13B10448AFF300800123237010BDA7
:10144000FC06002000000000ECA7000808B5054BD2
:101450001BB105490548AFF30080BDE80840FFF720
:10146000CFBF00BF0000000000070020ECA700086D
:1014700008B50D480D4B03600323436000238360D0
:10148000C3604FF4002202614FF4401242610376C0
:1014900043768376C3760377437701F043FB00B945
:1014A00008BD00F01DF9FBE73C0700200064004088
:1014B00010B588B000230393049305930693079314
:1014C0000268214B9A4201D008B010BD002401945B
:1014D00003F5EA331A6C42F000721A641A6C02F0D7
:1014E00000720192019A02941A6B42F001021A638F
:1014F0001B6B03F001030293029B4FF4C053039351
:1015000002230493032306930923079303A90F4897
:1015100001F0C4FF22462146132001F039FF1320B9
:1015200001F046FF22462146142001F031FF14202D
:1015300001F03EFF22462146152001F029FF15202B
:1015400001F036FFC0E700BF006400400000024029
:101550000268264B9A4200D0704770B50446244B6F
:10156000244A002101F0C5FC50BB224B1D68A5F2A6
:101570000125032D23D8204B2C2202FB05339B6A27
:10158000312B20D929461D4803F0BCF91A4B2C22D7
:1015900002FB05339B6A322B1CD021462C20164BB4
:1015A00000FB053000F098FC134B2C2202FB0533A6
:1015B0009A6A01329A622946114803F0A3F970BD74
:1015C00000F08EF8D1E721460B4B02FB053000F00E
:1015D00035FCD7E7084E02FB05662146304600F091
:1015E0007BFC7369B2899B1A7361DDE7006400407C
:1015F0001807002020070020D40A002008A80008AF
:1016000024A8000800B58BB000230693012207929E
:10161000009301930293039304930E23059308927E
:10162000694601F025FB0BB05DF804FB30B58BB0CB
:1016300000240594069407940894099401941E4B81
:101640001A6B42F020021A631A6B02F02002019218
:10165000019A02941A6B42F080021A631A6B02F02C
:1016600080020292029A03941A6B42F002021A63F9
:101670001A6B02F002020392039A04941A6B42F06E
:1016800001021A631B6B03F001030493049B0B4DCF
:1016900022464FF40071284601F0FAFF4FF4007320
:1016A0000593012306930794089405A9284601F0A1
:1016B000F5FE0BB030BD00BF003802400014024000
:1016C00000B583B001904FF6FF73012201A90348D2
:1016D00002F063FC019803B05DF804FB200C0020CD
:1016E00072B6FEE700B595B03022002108A803F0DD
:1016F000BBF9002303930493059306930793019387
:101700001F4A116C41F080511164126C02F080523A
:101710000192019A02931B4A116841F480411160C1
:10172000126802F480420292029A02220892012177
:101730000B9110210C910E920F9308231093A82364
:10174000119312920423139308A801F0A7FF98B9EC
:101750000F23039302230493002305934FF4A05314
:1017600006934FF480530793052103A802F0E6F98E
:1017700020B915B05DF804FBFFF7B2FFFFF7B0FF2B
:1017800000380240007000402DE9804889B0AE4B1F
:10179000079301F087F9FFF7A5FFFFF747FFFFF772
:1017A00067FE01F017F801F02FF84FF48072A74997
:1017B000A74802F046FEA74C2046FFF723FF20462D
:1017C00001F0F4FA08B1FFF78BFF0321A14801F003
:1017D00045FC08B1FFF784FF9F4B04AC93E807007A
:1017E00084E807004FF0FF330B2221469B4802F0AC
:1017F000D4FB9B4803F0E8F89A4B00221A7011E0E2
:1018000005EB450C984F07EBCC06984C0FCC47F8EE
:101810003C007160B260F36003CC306171610135EE
:10182000904B1D708F4B1D78032DE9D900221A7043
:1018300034E06C258C4C00EB400304EBC3039A6846
:1018400002925B68019300EB400354F8333000933D
:101850004FF4FA634FF4FA520321854E05FB006002
:1018600000F0A6FC7F4E307800EB400304EBC3038E
:101870005A6902921B69019300EB400304EBC30415
:10188000E36800934FF480431A460321794C05FB2B
:10189000004000F08DFC337801333370714B1878C1
:1018A0000328C6D9744B754ADA609A605A601A6088
:1018B000734A0023D360936053601360714AD3600E
:1018C00093605360136065E26E4B1C689E68DF682E
:1018D0005868FFF705F905B22046FFF701F904B291
:1018E0003846FFF7FDF800B201903046FFF7F8F8F0
:1018F00000B200902B4622464FF40071554800F08C
:101900003BFB4CE2574B00221A7044E042429342A8
:1019100061DA301AFEF7CAFE5B4B18605A4B1F683B
:101920003046FEF7C3FE01466C26524D3A4606FB92
:10193000045000F078FB4B4C2178544802F0E2FF51
:1019400023784B4A06FB03222C2101FB03F3504969
:10195000CF5ED06BFEF798FD02460B4600974D48D0
:1019600002F0D0FF237806FB0353D86AFEF78CFD04
:1019700002460B46484802F0C5FF237806FB035396
:10198000D86BFEF781FD02460B46444802F0BAFFD1
:10199000237801332370334B1C78012C1ED8384B2D
:1019A00053F824502846FFF79BF883B22C2204FBFF
:1019B00002F237498E5EB2B29B1A1BB2384A1380CC
:1019C000384AB2F900008342A0DD3044FEF76EFED3
:1019D0002D4B1860A2E72C4B1D609FE7254CE56B53
:1019E000D4F81471D4F88081D4F8A800FFF778F8FF
:1019F00006B22846FFF774F805B24046FFF770F8C4
:101A000000B201903846FFF76BF800B20090334601
:101A10002A464FF400710F4800F0AEFA114B1D78C2
:101A20006C2303FB0544E06BFFF75AF802B229462A
:101A30001D4802F067FF1D4802F0C6FFB4E1094BE4
:101A400000221A70B5E000BF03FCFC03B40C0020B8
:101A5000200C00203C07002020AA0008680C002071
:101A60003CA80008CC0A0020BC0B00200800002085
:101A70006C0700201C090020AC0B00200000FA4479
:101A80009C0B00208C0B0020680700204CA800084D
:101A9000D40A002068A800088CA80008A0A80008A4
:101AA0006407002000000020C8A80008E8A800087B
:101AB000DFF80C924FF02C0A0AFB0493DFF8048243
:101AC00058F824705869FEF7F1FD01466C257E4EEA
:101AD0003A4605FB046000F0A6FA7C4C21787C486D
:101AE00002F010FF277858F82700FEF7CDFC0246D9
:101AF0000B460AFB079779690091764802F002FFCE
:101B0000237805FB0363D86AFEF7BEFC02460B464A
:101B1000714802F0F7FE237805FB0363D86BFEF7EC
:101B2000B3FC02460B466D4802F0ECFE94F80080D0
:101B30000AFB08F305FB08F806EB0802D2F83CB0F4
:101B400039F90300FEF7B2FD0146654F5A4607EB2F
:101B5000080000F068FA2178624802F0D3FE23788A
:101B600005FB03660AFB03F339F90380F06BFEF70C
:101B70008BFC02460B46CDF800805B4802F0C2FEAB
:101B8000237805FB0373D86AFEF77EFC02460B46FA
:101B9000564802F0B7FE237805FB0377F86BFEF793
:101BA00073FC02460B46524802F0ACFE2378013328
:101BB0002370464B1C78012C7FF67AAF484CE56BBE
:101BC000D4F81471D4F88081D4F8A800FEF788FF07
:101BD00006B22846FEF784FF05B24046FEF780FFB6
:101BE00000B201903846FEF77BFF00B2009033460A
:101BF0002A464FF400713F4800F0BEF9334B1D7880
:101C00006C2303FB0544E06BFEF76AFF02B2294632
:101C1000394802F077FE394802F0D6FEC9E02B4E73
:101C200037786C25364CA368029363680193236868
:101C300000934FF4FA634FF4FA520321224805FB54
:101C4000070000F0B5FA36786369029323690193BF
:101C5000E36800934FF480431A460321204805FBB4
:101C6000060000F0A5FA274B00221A70A6E0174ED6
:101C700037786C25224C236A0293E3690193A369A8
:101C800000934FF4FA634FF4FA5203210E4805FB18
:101C9000070000F08DFA3678E36A0293A36A019395
:101CA000636A00934FF480431A4603210C4805FBF6
:101CB000060000F07DFA134B00221A7083E000BF8B
:101CC000D40A0020AC0B00206C070020CC0A0020B6
:101CD000F8A8000818A9000840A9000858A9000899
:101CE0001C0900204CA8000868A800088CA800085F
:101CF000A0A800083C070020C8A8000880A9000888
:101D0000BC0B0020890B00203C4A13680133136090
:101D1000052000F0F3FE3A4B19783A4802F0F2FD44
:101D2000394B1868FEF7B0FB02460B46374802F005
:101D3000E9FD374B1868FEF7A7FB02460B4635480E
:101D400002F0E0FD344B1868FEF79EFB02460B469E
:101D5000324802F0D7FD324CE06BFEF7C1FE05B20F
:101D6000D4F8A800FEF7BCFE06B2D4F81401FEF7C2
:101D7000B7FE07B2D4F88001FEF7B2FE00B20090C1
:101D80003B4632462946274802F0BCFD4FF47A70A4
:101D900000F0B4FE1A4B1B78022B3FF495AD184BA4
:101DA0001B78012B3FF4AEAD154B1B78002B3FF495
:101DB00046AE1D4B1B78002B7FF431AF1B4B1B78BD
:101DC000002B7FF454AF0D4B1B6813F0030F9BD116
:101DD00000F02EFB00F05CFB00F0A2FB00F0E6FB45
:101DE000134B1869FEF750FB02460B46114949692F
:101DF0000091114802F086FD86E700BFD00A00205E
:101E00001C0C0020A8A90008AC0B0020BCA90008ED
:101E10009C0B0020D4A900088C0B0020E8A9000826
:101E20001C090020FCA90008890B0020880B002059
:101E3000BC0B0020D40A002094A9000810B58AB079
:101E40000446084601AB03AA002101F052F808B18C
:101E50000AB010BD9DF804209DF8053043EA022326
:101E60002381A381064BE31A9B10064903FB01F172
:101E7000054802F047FDA189044802F043FDE7E769
:101E8000D40A0020A38B2EBA2CAA000854AA00085A
:101E900010B504460F4802F097FD228963899A42E3
:101EA00013D202F50051C91AD31A81EAE17CACEBD6
:101EB000E17C83EAE370A0EBE370844500DA0B4633
:101EC000616919446161628110BDA2F50051C91AAE
:101ED000D31AEAE768AA000810B58AB00446084693
:101EE00001AB03AA002101F004F810B100200AB0F0
:101EF00010BD238963819DF804209DF8053043EAD5
:101F0000022323819DF806209DF8073043EA02232F
:101F10001BB2638023809DF808209DF8093043EAB6
:101F200002231BB20F4A82FB0312DB17A3EB6203EF
:101F3000A3809DF80A30A3712046FFF7A9FF0A4B42
:101F4000E31A9B10094903FB01F1094802F0DAFC8E
:101F50006369B4F900202189064802F0D3FC9DF89A
:101F60001C00C4E767666666D40A0020A38B2EBAFD
:101F700084AA0008ACAA000830B58BB0BDF938C0FF
:101F8000BDF93C4003910021059106910825079574
:101F90008DF8201042FA05F18DF804108DF8052017
:101FA00043FA05F28DF806208DF807309DF9393097
:101FB0008DF808308DF809C09DF93D308DF80A3054
:101FC0008DF80B4009AB01AA03A900F01DFF18B161
:101FD000012420460BB030BD0446024802F0F4FC58
:101FE000F7E700BFD8AA00080366C2658165009BB9
:101FF0000360019B4360029B836070470160426005
:102000008360704738B505460C460068FEF75EFDF4
:1020100000B12C6004F1004421462868FEF738FD29
:1020200000B12C6038BDF8B50446104621626261EB
:10203000FEF786FA0546E062266D00213046FEF77F
:102040001DFD60B900212846FEF740FD00282ED076
:1020500029463046FEF71CFD002840F0A480666D3E
:1020600000213046FEF70AFD58B900212846FEF748
:102070002DFDF8B129463046FEF728FD002840F036
:102080009480A36D032B18D0042B4AD0A36A6362FB
:10209000E36AA362E369A361236AE3612369E360FE
:1020A00063692361A36D032B7BD0A06CF8BD05F1A0
:1020B0000041CEE705F10041DDE721682846FEF743
:1020C00049FB2063666B61682846FEF743FB0146C7
:1020D0003046FEF737FA6063A668A16A2846FEF725
:1020E0002FFA01463046FEF735FBA063206EFEF75F
:1020F000D9FA014604F13400FFF784FF616B206BCD
:10210000FEF720FAA16BFEF71DFAE063E06DFEF723
:10211000C9FA014604F13C00FFF774FFE36B236446
:10212000B4E72768A66A31462846FEF709FA014651
:102130003846FEF70FFB206361682846FEF70AFB6E
:102140006063A76831463046FEF7FCF90146284631
:10215000FEF7F6F9616AFEF7F5F901463846FEF733
:10216000F9FAA063206EFEF79DFA014604F13400EF
:10217000FFF748FF616B206BFEF7E4F9A16BFEF7F8
:10218000E1F96064E16CFEF7DDF9A064E06DFEF753
:1021900089FA014604F14800FFF734FFA36CE364B9
:1021A00074E7E06B82E7002080E700207EE7000014
:1021B00010B584B0094C4466094C8466DDF820C033
:1021C000CDF808C0DDF81CC0CDF804C0DDF818C09B
:1021D000CDF800C0FFF708FF04B010BDE91F0008EC
:1021E000FD1F000882B0002100910B4B5A6C42F495
:1021F00080425A645A6C02F480420092009A019123
:102200001A6C42F080521A641B6C03F080530193E5
:10221000019B02B0704700BF00380240FEE7FEE7B6
:10222000FEE7FEE7FEE770477047704708B500F02D
:1022300053FC08BD08B5024800F02EFF08BD00BFE2
:102240003C07002008B5024800F026FF08BD00BF8B
:102250003C07002008B5024800F01EFF08BD00BF83
:102260003C07002010B50D4801F088FF00240B4802
:1022700002F0C6F8202805D00134B4F5003FF6D3AB
:10228000002400E0002401220549044802F0D9F8A6
:1022900018B10134B4F5003FF5D310BD680C00202F
:1022A000B40D002010B50D4801F068FF00240B4864
:1022B00002F0A6F8202805D00134B4F5003FF6D38B
:1022C000002400E0002401220549044802F0B9F886
:1022D00018B10134B4F5003FF5D310BD200C002037
:1022E000B00C00200120704708B502F063FC1623F3
:1022F00003604FF0FF3008BD08B54FF0FF31FFF726
:10230000F3FFFEE770B50C461646002506E0AFF376
:102310000080214601F8010B01350C46B542F6DB81
:10232000304670BD70B50C461646002504E014F822
:10233000010BFFF7C5F90135B542F8DB304670BD3A
:102340004FF0FF3070474FF400534B600020704750
:10235000012070470020704710B503460C4A0D4914
:102360000D48006840B10C4800680344521A93427B
:1023700006D8094A136010BD0748084C0460F2E70C
:1023800002F018FC0C2303604FF0FF30F3E700BFAE
:102390000000022000040000840B0020D010002068
:1023A000704710B588B00023019302930393049300
:1023B000059306938DF81C30142A36D8AA238DF87D
:1023C0000430FF238DF805308DF806008DF80720C6
:1023D000002307E0CC5C03F12400684400F81C4CA7
:1023E0000133DBB29342F5D300230BE09DF81C10C0
:1023F00003F12000684410F81C0C01448DF81C10F7
:102400000133DBB2D11C9942F0DA002408E004F178
:1024100020036B4413F81C0C00F0EAFA0134E4B218
:10242000182CF4D9002008B010BD0120FBE70000F3
:1024300010B586B00024019402940394049405948A
:10244000124B5A69ADF804201214ADF80620B3F906
:102450000020ADF80820B3F90420ADF80A201A6C6A
:102460001114ADF80C10ADF80E20B3F92C20ADF816
:102470001020B3F93030ADF81230102201A901203C
:10248000FFF78FFF204606B010BD00BFD40A002022
:102490002DE9F04186B00024019402940394049441
:1024A00005941B4B93F80080ADF80480194F3868F1
:1024B000FEF716FBADF806000014ADF80800164E46
:1024C0003068FEF70DFBADF80A00144D2868FEF7E2
:1024D00007FBADF80C00ADF80E807868FEF700FB46
:1024E000ADF810000014ADF812007068FEF7F8FAAD
:1024F000ADF814006868FEF7F3FAADF81600142280
:1025000001A90320FFF74DFF204606B0BDE8F0818A
:102510001C0C0020AC0B00209C0B00208C0B00201E
:1025200030B587B000240194029403940494059478
:102530001C4D1D492868FEF70DF9FEF7D1FAADF8DC
:10254000040019496868FEF705F9FEF7C9FAADF805
:1025500006001549A868FEF7FDF8FEF7C1FAADF8C8
:1025600008001149E868FEF7F5F8FEF7B9FAADF88A
:102570000A000D492869FEF7EDF8FEF7B1FAADF84B
:102580000C0009496869FEF7E5F8FEF7A9FAADF80D
:102590000E000C2201A90520FFF703FF204607B01B
:1025A00030BD00BFBC0B002000007A4430B587B0BE
:1025B0000024019402940394049405941C4D1D4935
:1025C000A869FEF7C7F8FEF78BFAADF804001949C1
:1025D000E869FEF7BFF8FEF783FAADF80600154983
:1025E000286AFEF7B7F8FEF77BFAADF80800114944
:1025F000686AFEF7AFF8FEF773FAADF80A000D4906
:10260000A86AFEF7A7F8FEF76BFAADF80C000949C7
:10261000E86AFEF79FF8FEF763FAADF80E000C22A9
:1026200001A90620FFF7BDFE204607B030BD00BF60
:10263000BC0B002000007A442DE9F0410446837869
:10264000012B08D0A378022B46D0A378032B00F0EF
:102650008180BDE8F0814079237943EA0020FEF7CC
:1026600025F85449FEF72AF9534D2860E079A379FB
:1026700043EA0020FEF71AF84E49FEF71FF968609A
:10268000607A237A43EA0020FEF710F84949FEF702
:1026900015F9A860E07AA37A43EA0020FEF706F86D
:1026A0004449FEF70BF9E860607B237B43EA002096
:1026B000FDF7FCFF3F49FEF701F92861E07BA37BB2
:1026C00043EA0020FDF7F2FF3A49FEF7F7F86861A8
:1026D0003A4B01221A70B5E76079237943EA00206A
:1026E000FDF7E4FF3349FEF7E9F8334DA861E079DF
:1026F000A37943EA0020FDF7D9FF2E49FEF7DEF863
:10270000E861607A237A43EA0020FDF7CFFF294988
:10271000FEF7D4F82862E07AA37A43EA0020FDF7B6
:10272000C5FF2449FEF7CAF86862607B237B43EA51
:102730000020FDF7BBFF1F49FEF7C0F8A862E07B51
:10274000A37B43EA0020FDF7B1FF1A49FEF7B6F874
:10275000E8627AE722791A4B1A70627A237A1B04AC
:1027600043EA0263E27943EA0223A0791843FDF7C2
:102770009DFF0646DFF84C80C8F80000E37AA07A97
:1027800040EA032000B2FDF791FF05460E4F386086
:10279000637B207B40EA032000B2FDF787FF0B4BF1
:1027A0001860C8F804607D605860094802F0AAF813
:1027B0004FE700BF00007A44BC0B0020890B0020CB
:1027C0001C0C0020AC0B00209C0B00208C0B00206C
:1027D000F4AA000808B50A480A4B03604FF4E13335
:1027E000436000238360C36003610C224261836104
:1027F000C36101F0A2FB00B908BDFEF771FFFBE762
:10280000680C00200010014008B50A480A4B03601C
:102810004FF4E133436000238360C36003610C2203
:1028200042618361C36101F088FB00B908BDFEF716
:1028300057FFFBE7200C00200048004010B58AB08D
:102840000023059306930793089309930368304A7E
:10285000934204D02F4A93422DD00AB010BD0024D9
:1028600001942D4B5A6C42F010025A645A6C02F0DB
:1028700010020192019A02941A6B42F001021A634B
:102880001B6B03F001030293029B4FF4C06305939B
:1028900002230693032308930723099305A91F48DE
:1028A00000F0FCFD22462146252000F071FD252088
:1028B00000F07EFDD1E700240394174B1A6C42F41C
:1028C00080221A641A6C02F480220392039A049400
:1028D0001A6B42F002021A631B6B03F002030493AB
:1028E000049B4FF44063059302230693032308934C
:1028F0000723099305A90A4800F0D0FD2246214686
:10290000272000F045FD272000F052FDA5E700BF7D
:102910000010014000480040003802400000024022
:102920000004024010B584B004460268264B9A4267
:1029300005D02268254B9A4210D004B010BD244B1C
:10294000EC460FCBACE807008CF800304FF0FF33BB
:102950000C2269461F4801F020FBEAE71E4B1B884A
:102960001E4A12781E49CA540BB9AA2A14D1012B47
:1029700016D001339BB2184A1380B3F5807F02D979
:10298000134600221A80144B1B88192BD5D11448EA
:10299000FFF752FE00230DE0124802F015F8CCE7D5
:1029A000552AE6D0104802F00FF8C6E70C4A00217D
:1029B000D1540133182BF9DD0C4802F005F8064B11
:1029C00000221A80B9E700BF001001400048004013
:1029D0003CAB0008680C0020B20C0020B00C0020BA
:1029E000B40C00200CAB000818AB000824AB0008A6
:1029F000034B1B6813F0400FFAD0014B586070472F
:102A000000480040DFF834D0FFF7CAFC0C480D49FD
:102A10000D4A002302E0D458C4500433C4188C4239
:102A2000F9D30A4A0A4C002301E013600432A2429F
:102A3000FBD302F0C5F8FEF7A7FE704700000220A6
:102A400000000020FC06002060AF0008FC0600200B
:102A5000D0100020FEE7000010B504460E4B1A7897
:102A60004FF47A73B3FBF2F30C4A1068B0FBF3F047
:102A700000F0A2FC68B90F2C01D901200AE0002265
:102A800021464FF0FF3000F083FC054B1C60002016
:102A900000E0012010BD00BF200000200400002045
:102AA0002400002008B50B4B1A6842F400721A602B
:102AB0001A6842F480621A601A6842F480721A60DE
:102AC000032000F053FC0F20FFF7C6FFFFF78AFB3F
:102AD000002008BD003C0240034A1168034B1B78EC
:102AE0000B441360704700BFB80D00202000002089
:102AF000014B1868704700BFB80D002038B5044678
:102B0000FFF7F6FF0546B4F1FF3F02D0044B1B78F8
:102B10001C44FFF7EDFF401BA042FAD338BD00BFB5
:102B200020000020002800F0A18038B5044690F86D
:102B30002030D3B12268136843F001031360FFF71C
:102B4000D7FF054623685A6812F0010F10D1FFF72E
:102B5000CFFF401B0A28F5D9636A43F40033636250
:102B6000052384F82030012038BDFEF7A1FCE1E701
:102B70001A6822F002021A60FFF7BAFF05462368BE
:102B80005A6812F0020F0DD0FFF7B2FF401B0A285F
:102B9000F5D9636A43F400336362052384F8203077
:102BA0000120E1E7227E012A3DD01A6822F080024E
:102BB0001A60637E012B3BD02268136823F0400328
:102BC0001360A37E012B39D02268136823F0200301
:102BD0001360E37E012B37D02268136843F01003A3
:102BE0001360237F012B35D02268136823F008037C
:102BF0001360637F012B33D02268136823F0040332
:102C00001360A368E26813432269134362691343A4
:102C10006268013A21681343CB610020606201239E
:102C200084F82030A0E71A6842F080021A60C0E7FA
:102C30002268136843F040031360C2E722681368F8
:102C400043F020031360C4E72268136823F01003E5
:102C50001360C6E72268136843F008031360C8E7EF
:102C60002268136843F004031360CAE70120704729
:102C700090F82030013BDBB2012B05D9436A43F4C5
:102C8000802343620120704710B5474BD3F80022E0
:102C900042F00102C3F80022D3F8002222F47C5251
:102CA000C3F80022D3F80022486A42EA0022C3F89F
:102CB00000224A6902F01F02012000FA02F2D3F852
:102CC0001C026FEA020C20EA0200C3F81C02CB6966
:102CD000CBB9354BD3F80C020CEA0000C3F80C0258
:102CE0008C884869D1F80CE044EA0E44483043F837
:102CF00030408C68088840EA04404C6904F1480E72
:102D000003EBCE035860CB69012B1ED08B69002BDF
:102D100035D12548D0F804320CEA0303C0F8043258
:102D20000B699BBB2048D0F814320CEA0303C0F8AF
:102D300014320B6A012B30D01B4AD2F8003223F038
:102D40000103C2F80032002010BD174BD3F80C026B
:102D50001043C3F80C028C884869D1F800E044EABB
:102D60000E44483043F8304088894C69D1F808E077
:102D700040EA0E40483403EBC4035860C6E70A48F3
:102D8000D0F804321343C0F80432C9E70648D0F83B
:102D900014321343C0F81432CBE70349D1F81C3284
:102DA0001343C1F81C32C7E70064004070B5044605
:102DB00090F82050EDB2012D06D0436A43F4002371
:102DC00043620125284670BD022380F82030026846
:102DD000136823F001031360FFF78AFE0646236899
:102DE0005B6813F0010F0CD0FFF782FE831B0A2BE8
:102DF000F5D9636A43F400336362052384F8203015
:102E0000E0E700256562DDE730B590F820C0046892
:102E1000A4680CF1FF3C5FFA8CFCBCF1010F62D896
:102E200014F0E05F59D0C4F3016C012404FA0CF4EF
:102E30001C608B68002B3DD10D68CB68046843EAA9
:102E400045550CF118031B01E55003680C690CF1A2
:102E5000180E03EB0E135C600B7D012B35D0D1797E
:102E600093791B0443EA0163517943EA01231479FE
:102E70000168234301EB0C11C1F88C31D1789378B0
:102E80001B0443EA0163517843EA01231178026885
:102E90000B4302EB0C12C2F8883102680CF1180CDB
:102EA0004FEA0C1C52F80C3043F0010342F80C308E
:102EB00000201DE04C6843EAC403CC6823430CF1B6
:102EC0001804240105682B51BFE7036803EB0E13B8
:102ED000596841F480715960C1E7436A43F40013B3
:102EE0004362012004E0436A43F4802343620120EB
:102EF00030BD90F820C00CF1FF3C5FFA8CFCBCF1B7
:102F0000010F00F2A58030B451B90468E46814F0F0
:102F1000030F10D1436A43F40013436201207EE0A3
:102F20000468246914F0030F05D1436A43F40013C5
:102F30004362012073E0056801F11B0424012C5950
:102F400004F004049460002C6BD1056801F11B04AB
:102F500024012C59640D1460046801F11B0C4FEA24
:102F60000C1C54F80C4004F00204D4600468A4441F
:102F7000DCF8045015F0080F5BD0082414610468D5
:102F800001F11B0C04EB0C146468C4F30724946176
:102F9000046804EB0C146468240C5461026802EBAE
:102FA0000112D2F8B8211A70026802EB0112D2F8AD
:102FB000B821C2F307225A70026802EB0112D2F85C
:102FC000B821C2F307429A70026802EB0112D2F8EC
:102FD000B821120EDA70026802EB0112D2F8BC219D
:102FE0001A71026802EB0112D2F8BC21C2F3072267
:102FF0005A71026802EB0112D2F8BC21C2F30742F7
:103000009A71026802EB0112D2F8BC21120EDA7139
:10301000C1B90268D36843F02003D360002030BCFC
:103020007047056801F11B0424012C59E408546021
:1030300092E701F11B0504EB0514646804F00F042A
:1030400014619CE70268136943F020031361E5E70C
:10305000436A43F4802343620120704790F8203094
:10306000013BDBB2012B05D9436A43F48023436261
:1030700001207047026853690B4353610020704779
:103080007047704770477047704770477047704788
:1030900070477047704770472DE9F84F0546036841
:1030A0005C69D3F804809F68D3F80CA0D3F8109023
:1030B000D3F818B014F001063BD017F0010616D073
:1030C00001229A6017F0020F08D117F0040F0CD1FB
:1030D00017F0080606D04FF4805608E0FFF7D0FF3F
:1030E000002604E0FFF7CFFF01E04FF4006617F47D
:1030F000807F0DD02B684FF480729A6017F4007FA8
:1031000040F0968017F4806F00F0968046F40056E9
:1031100017F4803F0DD02B684FF480329A6017F47B
:10312000003F40F0938017F4802F00F0938046F426
:10313000004614F0080F07D01AF0100F04D046F420
:1031400000762B681022DA6014F0040F03D01AF016
:10315000080F40F0898014F0020F05D02B68DB685F
:1031600013F0030F40F0878014F0400F07D019F0E0
:10317000100F04D046F480662B6810221A6114F0F8
:10318000200F02D019F0080F79D114F0100F04D0DD
:103190002B681B6913F0030F78D114F4003F02D0A1
:1031A00018F0100F76D114F4803F02D018F0080FF9
:1031B00077D114F4004F37D018F0040F31D014F445
:1031C000807F04D01BF0010F01D046F0010614F4FB
:1031D000007F04D01BF0020F01D046F0020614F469
:1031E000806F04D01BF0040F01D046F0040614F4E5
:1031F000006F16D01BF0700B13D0BBF1400F66D0E0
:1032000056D8BBF1200F5CD0BBF1300F5CD0BBF1C6
:10321000100F01D146F008062A68936923F0700365
:1032200093612B6804225A60002E56D1BDE8F88FB6
:103230002846FFF726FF6BE717F4006F02D046F42D
:10324000804665E72846FFF71FFF61E72846FFF73E
:1032500019FF6EE717F4002F02D046F4803668E7B6
:103260002846FFF712FF64E72B680822DA60284639
:10327000FFF70CFF6FE72846FEF76AF974E72B6843
:1032800008221A612846FFF703FF7EE72846FFF76A
:10329000FEFE82E72B6810225A602846FFF7F9FEEF
:1032A00081E72B6808225A602846FFF7F3FE80E783
:1032B000BBF1500F0ED0BBF1600FADD146F480765C
:1032C000AAE746F01006A7E746F02006A4E746F076
:1032D0004006A1E746F080069EE76B6A33436B62C7
:1032E0002846FFF7D8FEA1E7002807DB00F01F0201
:1032F000400901239340024A42F82030704700BF42
:1033000000E100E0002808DB0901C9B200F16040DB
:1033100000F5614080F80013704700F00F000901CC
:10332000C9B2014B1954704714ED00E000B500F02C
:103330000700C0F1070CBCF1040F28BF4FF0040CCC
:10334000031D062B0FD9C31E4FF0FF3E0EFA0CF0E3
:1033500021EA000199400EFA03FE22EA0E0241EA38
:1033600002005DF804FB0023EEE70000074AD36883
:1033700023F4E0631B041B0C000200F4E060034331
:1033800043F0BF6343F40033D360704700ED00E0C7
:1033900010B50446054BD868C0F30220FFF7C6FFFE
:1033A00001462046FFF7AEFF10BD00BF00ED00E074
:1033B00008B5FFF799FF08BD0138B0F1807F0BD247
:1033C0004FF0E0235861054AF02182F823100020D5
:1033D000986107221A6170470120704700ED00E0F4
:1033E00070B50446866DFFF783FB94F83530DBB289
:1033F000022B06D080236365002384F8343001203B
:1034000070BD05462268136823F016031360226816
:10341000536923F080035361236CE3B1226813687E
:1034200023F0080313602268136823F0010313607C
:1034300023681B6813F0010F11D0FFF759FB431BE2
:10344000052BF5D920236365032084F8350000237C
:1034500084F83430D4E7A36C002BDFD1E3E7E26DCE
:103460003F239340B360012384F83530002084F873
:103470003400C5E790F83530DBB2022B03D080234F
:10348000436501207047052380F8353002681368D2
:1034900023F00103136000207047000000230F2B6E
:1034A00000F2EC8030B583B068E085684FEA430EE7
:1034B000032404FA0EF425EA0405CC6804FA0EF499
:1034C0002C438460446824EA02044A68C2F3001270
:1034D0009A40224342605FE0DC08083450F8242020
:1034E00003F00705AD004FF00F0E0EFA05FE22EABD
:1034F0000E0E0A69AA4042EA0E0240F824205FE05C
:10350000072200E0002202FA0EF22A4302345C4D48
:1035100045F824205B4A94686FEA0C0224EA0C0503
:10352000D1F804E01EF4801F01D04CEA0405554C8C
:10353000A560E46802EA0405D1F804E01EF4001F67
:1035400001D04CEA04054F4CE560646802EA0405CA
:10355000D1F804E01EF4003F01D04CEA0405494CC8
:103560006560246822404D6815F4803F01D04CEA24
:103570000402444C226001330F2B7DD801229A4073
:103580000C6804EA020C32EA0404F4D14C6804F03A
:103590000304013C012C88D94A6802F00302032A83
:1035A00009D0C4685D000322AA4024EA02048A68A4
:1035B000AA402243C2604A6802F00302022A8BD06A
:1035C00004684FEA430E032202FA0EF224EA0204D0
:1035D0004A6802F0030202FA0EF2224302604A68CD
:1035E00012F4403FC7D000220192274A546C44F4A1
:1035F00080445464526C02F480420192019A9C0807
:10360000A51C1F4A52F8255003F0030E4FEA8E0EF8
:103610000F2202FA0EF225EA02051C4A90423FF4FC
:1036200071AF02F5806290421AD002F5806290423A
:1036300018D002F58062904216D002F58062904266
:1036400014D002F58062904212D002F5806290425E
:1036500010D002F5806290423FF452AF082252E748
:10366000012250E702224EE703224CE704224AE7F8
:10367000052248E7062246E703B030BD704700BF89
:1036800000380140003C0140003802400000024088
:103690000AB181617047090481617047002800F018
:1036A000E08170B582B00446036813F0010F3BD08F
:1036B0009F4B9B6803F00C03042B2CD09C4B9B6806
:1036C00003F00C03082B21D06368B3F5803F4FD083
:1036D000B3F5A02F52D0964B1A6822F480321A60AC
:1036E0001A6822F480221A606368002B50D0FFF71A
:1036F000FFF905468E4B1B6813F4003F14D1FFF70A
:10370000F7F9401B6428F5D90320B1E1884B5B68C9
:1037100013F4800FD8D0864B1B6813F4003F03D0FE
:103720006368002B00F09F81236813F0020F54D0D0
:103730007F4B9B6813F00C0F3ED07D4B9B6803F0D2
:103740000C03082B33D0E368002B68D0794B01229F
:103750001A60FFF7CDF90546754B1B6813F0020F91
:1037600054D1FFF7C5F9401B0228F5D903207FE1AA
:103770006F4A136843F480331360B5E76C4B1A68E3
:1037800042F480221A601A6842F480321A60ABE771
:10379000FFF7AEF90546664B1B6813F4003FC3D034
:1037A000FFF7A6F9401B6428F5D9032060E1604BC0
:1037B0005B6813F4800FC6D15D4B1B6813F0020FDA
:1037C00003D0E368012B40F05081594A136823F07D
:1037D000F803216943EAC1031360236813F0080F5B
:1037E00042D063696BB3534B0122C3F8802EFFF7BD
:1037F0007FF905464E4B5B6F13F0020F34D1FFF794
:1038000077F9401B0228F5D9032031E1484A1368B3
:1038100023F0F803216943EAC1031360DDE7454B58
:1038200000221A60FFF764F90546414B1B6813F04C
:10383000020FD2D0FFF75CF9401B0228F5D9032014
:1038400016E13C4B0022C3F8802EFFF751F90546E4
:10385000374B5B6F13F0020F06D0FFF749F9401B9F
:103860000228F5D9032003E1236813F0040F77D071
:103870002F4B1B6C13F0805F33D1002301932C4B33
:103880001A6C42F080521A641B6C03F0805301934F
:10389000019B0125284B1B6813F4807F23D0A3686C
:1038A000012B34D0052B38D0214B1A6F22F00102A6
:1038B0001A671A6F22F004021A67A368002B3DD022
:1038C000FFF716F906461A4B1B6F13F0020F46D18D
:1038D000FFF70EF9801B41F288339842F3D9032099
:1038E000C6E00025D6E7144A136843F480731360DA
:1038F000FFF7FEF80646104B1B6813F4807FCED10D
:10390000FFF7F6F8801B0228F5D90320B0E0084A3B
:10391000136F43F001031367CFE7054B1A6F42F0B3
:1039200004021A671A6F42F001021A67C5E700BF66
:10393000003802400000474200700040FFF7D8F80E
:103940000646524B1B6F13F0020F08D0FFF7D0F85A
:10395000801B41F288339842F3D9032088E0EDB907
:10396000A369002B00F08380484A926802F00C02A1
:10397000082A51D0022B17D0454B00221A66FFF7B8
:10398000B7F80446414B1B6813F0007F42D0FFF7A5
:10399000AFF8001B0228F5D9032069E03B4A136CFD
:1039A00023F080531364DBE7394B00221A66FFF7DC
:1039B0009FF80546354B1B6813F0007F06D0FFF7D4
:1039C00097F8401B0228F5D9032051E0E369226AE9
:1039D0001343626A43EA8213A26A5208013A43EA35
:1039E0000243E26A43EA0263284A5360284B0122F9
:1039F0001A66FFF77DF80446244B1B6813F0007F1E
:103A000006D1FFF775F8001B0228F5D903202FE037
:103A100000202DE000202BE0012B2BD01B4B5B68FE
:103A200003F48001E269914226D103F03F02216A4A
:103A30008A4223D1616A47F6C0721A40B2EB811FF5
:103A40001ED103F44031A26A5208013AB1EB024F91
:103A500018D103F07063E26AB3EB026F14D1002057
:103A600006E001207047012002E0012000E0002074
:103A700002B070BD0120FBE70120F9E70120F7E764
:103A80000120F5E70120F3E70120F1E700380240CB
:103A90000000474208B5264B9B6803F00C03042B3B
:103AA00041D0082B41D1224B5A6802F03F025B689B
:103AB00013F4800F12D01E4B5968C1F388111D48B2
:103AC0000023A1FB0001FDF731F8194B5B68C3F33C
:103AD000014301335B00B0FBF3F008BD144B5868A1
:103AE000C0F388104FEA401CBCEB000C6EEB0E0ECE
:103AF0004FEA8E1343EA9C634FEA8C11B1EB0C0141
:103B000063EB0E03DB0043EA5173C90011EB000CB9
:103B100043F10003990200234FEA8C2041EA9C51B3
:103B2000FDF704F8D1E70348D7E70348D5E700BF1E
:103B30000038024040787D010024F400002800F0A5
:103B40009B8070B50D4604464F4B1B6803F007037E
:103B50008B4208D2CBB24C4A1370136803F00703B0
:103B60008B4240F08B80236813F0020F17D013F0C4
:103B7000040F04D0454A936843F4E05393602368EC
:103B800013F0080F04D0414A936843F460439360F4
:103B90003E4A936823F0F003A1680B4393602368C7
:103BA00013F0010F32D06368012B21D09A1E012A35
:103BB00025D9364A126812F0020F61D033498A685B
:103BC00022F0030213438B60FEF792FF06462F4B51
:103BD0009B6803F00C036268B3EB820F16D0FEF70C
:103BE00087FF801B41F288339842F0D9032042E0DE
:103BF000264A126812F4003FE0D101203BE0234A3C
:103C0000126812F0007FD9D1012034E01E4B1B68EE
:103C100003F00703AB4207D9EAB21B4B1A701B68CB
:103C200003F00703AB422DD1236813F0040F06D035
:103C3000164A936823F4E053E1680B4393602368CA
:103C400013F0080F07D0114A936823F460432169E9
:103C500043EAC1039360FFF71DFF0C4B9B68C3F35E
:103C600003130B4AD35CD8400A4B18600A4B186800
:103C7000FEF7F2FE002070BD012070470120FAE738
:103C80000120F8E70120F6E7003C0240003802403E
:103C9000FCAC00080400002024000020014B186840
:103CA000704700BF0400002008B5FFF7F7FF044B82
:103CB0009B68C3F38223034AD35CD84008BD00BF8E
:103CC00000380240F4AC000808B5FFF7E7FF044BEA
:103CD0009B68C3F34233034AD35CD84008BD00BF9E
:103CE00000380240F4AC0008026802F10C0353E80B
:103CF000003F23F490730C3242E800310029F3D1E5
:103D0000026802F1140353E8003F23F00103143268
:103D100042E800310029F3D1036B012B05D02023A9
:103D200080F84230002303637047026802F10C03FD
:103D300053E8003F23F010030C3242E80031002921
:103D4000F3D1ECE790F84130DBB2212B01D0022017
:103D500070478368B3F5805F17D0036A5A1C02620C
:103D60001A7803685A60C38C9BB2013B9BB2C38430
:103D70004BB90268D36823F08003D3600268D3682C
:103D800043F04003D360002070470369002BE4D167
:103D9000036A1B880268C3F308035360036A023393
:103DA0000362E0E710B504460268136923F4405348
:103DB000C1680B431361836802691A4343691A435C
:103DC000C3691A430168CB6823F4164323F00C033C
:103DD0001343CB600268536923F4407381690B433A
:103DE00053610368314A934206D002F580629342E0
:103DF00002D0FFF759FF01E0FFF766FFE369B3F573
:103E0000004F29D00021031849411B1841F100013E
:103E1000C90041EA5371DB00181863684FEA830256
:103E20004FEA937341F10001FCF780FE204AA2FBA8
:103E300000314909642303FB11031B013233A2FB48
:103E400003235B0903F0F00202EB011203F00F03FE
:103E5000216813448B6010BD0023021843EB03015B
:103E6000121841F10001C90041EA5271D200101844
:103E700041F10001626892185B41FCF757FE0C4A61
:103E8000A2FB00314909642303FB1103DB00323339
:103E9000A2FB03235B095A0002F4F87202EB011241
:103EA00003F00703216813448B60D4E7001001403E
:103EB0001F85EB512DE9F04383B005460E461746AA
:103EC0009946DDF828802B681C6836EA04040CBF8C
:103ED00001240024BC4228D1B8F1FF3FF3D0FEF703
:103EE00007FEA0EB0900404523D8B8F1000F22D00F
:103EF0002B68DA6812F0040FE5D0802EE3D0402E54
:103F0000E1D01A6812F0080FDDD0002401941A687D
:103F100001925B680193019B2846FFF7E5FE0823A9
:103F20006B6485F84040012000E0002003B0BDE84C
:103F3000F0830320FAE70320F8E760B310B50446E6
:103F400090F8413013B3242384F841302268D368B9
:103F500023F40053D3602046FFF724FF226813693F
:103F600023F4904313612268536923F02A035361B9
:103F70002268D36843F40053D36000206064202398
:103F800084F8413084F84230606310BD80F84030DE
:103F9000FEF754FCD7E7012070472DE9F04182B0CD
:103FA0001E4690F84130DBB2202B56D104460D4618
:103FB0009046002955D00AB901204FE00023436400
:103FC000212380F84130FEF793FD0746A4F82480B2
:103FD000A4F82680A368B3F5805F02D04FF00008F4
:103FE00014E023692BB34FF000080FE0202384F87E
:103FF0004130032032E038F8023B2268C3F3080363
:104000005360E28C92B2013A92B2E284E38C9BB2AA
:1040100093B100963B46002280212046FFF74AFFDD
:104020000028E3D1002DE6D015F8012B23685A6053
:10403000E7E7A8460025E9E700963B460022402135
:104040002046FFF737FF18B9202384F8413005E0F8
:10405000202384F84130032000E0022002B0BDE8B4
:10406000F0810120FAE7704708B50168CA6822F0BC
:104070004002CA60202280F84120FFF7F4FF0020B0
:1040800008BD704708B5806B0023C385C384FFF764
:10409000F8FF08BD704790F84230DBB2222B69D19F
:1040A0008368B3F5805F4FD0826AB3F5805F04D038
:1040B000002B56D10369002B53D103685B68137042
:1040C000836A01338362C38D9BB2013B9BB2C3857C
:1040D000002B51D100B583B00268D36823F02003D0
:1040E000D3600268D36823F48073D3600268536995
:1040F00023F001035361202380F8423000234363FF
:10410000036B012B33D100230363026802F10C031C
:1041100053E8003F23F010030C3242E8003100293D
:10412000F3D103681A6812F0100F06D00022019232
:104130001A6801925B680193019B818DFFF7AAFFCA
:10414000002003B05DF804FB0269002AACD1826A4A
:1041500003685B68C3F308031380836A02338362D6
:10416000B1E703685B6803F07F031370A8E7FEF70D
:10417000D9FBE5E7022070470020704710B582B0F8
:10418000044602681368D068516913F00F0F09D113
:1041900013F0200F0CD010F0200F09D02046FFF7AD
:1041A0007AFF16E011F0010115D110F4907F12D1C1
:1041B000216B012979D013F0800F03D010F0800F0C
:1041C00040F0148113F0400F03D010F0400F40F086
:1041D000118102B010BD13F0010F06D010F4807FE2
:1041E00003D0626C42F00102626413F0040F04D049
:1041F00019B1626C42F00202626413F0020F04D043
:1042000019B1626C42F00402626413F0080F07D027
:1042100010F0200F00D119B1626C42F00802626404
:10422000626C002AD5D013F0200F02D010F0200FBE
:1042300029D123685B6903F04003626C12F0080F18
:1042400000D163B32046FFF74FFD23685B6913F08D
:10425000400F20D0226802F1140353E8003F23F0FE
:104260004003143242E800310029F3D1E36B73B10B
:10427000624A1A65E06BFFF7FDF80028A9D0E06BF1
:10428000036D9847A5E72046FFF705FFD1E72046D5
:10429000FFF7F7FE9DE72046FFF7F3FE99E720467C
:1042A000FFF7EFFE0023636493E713F0100F82D053
:1042B00010F0100F3FF47FAF0023019313680193B8
:1042C00053680193019B536913F0400F52D0E26B86
:1042D00013685B689BB2002B3FF47BAFA18D9942C2
:1042E0007FF677AFE385D369B3F5807F37D0226857
:1042F00002F10C0353E8003F23F480730C3242E8D0
:1043000000310029F3D1226802F1140353E8003F81
:1043100023F00103143242E800310029F3D122686E
:1043200002F1140353E8003F23F04003143242E843
:1043300000310029F3D1202384F842300023236385
:10434000226802F10C0353E8003F23F010030C3203
:1043500042E800310029F3D1E06BFFF741F8022376
:104360006363A18DE38D9BB2C91A89B22046FFF722
:1043700091FE2EE7A18DE38D9BB2C91A89B2E38D20
:104380009BB2002B3FF425AF00293FF422AF2268F7
:1043900002F10C0353E8003F23F490730C3242E81F
:1043A00000300028F3D1226802F1140353E8003FE3
:1043B00023F00103143242E800300028F3D1202317
:1043C00084F8423000232363226802F10C0353E88F
:1043D000003F23F010030C3242E800300028F3D1F4
:1043E000022363632046FFF755FEF2E62046FFF7FF
:1043F000A9FCEEE62046FFF737FEEAE68540000816
:1044000090F8413090F842001843704781628285ED
:10441000C28500234364222380F84230036923B11C
:104420000268D36843F48073D3600268536943F031
:10443000010353610268D36843F02003D360002076
:10444000704708B590F84230DBB2202B08D149B153
:104450000AB9012008BD00230363FFF7D7FFF9E77E
:104460000220F7E70120F5E72DE9F047089D0E4609
:1044700004460F46002B4AD194468C45B2FA82F28C
:1044800060D942B1C2F12003974020FA03F30CFA3D
:1044900002FC1F4394404FEA1C4E1FFA8CF6B7FBF8
:1044A000FEF1230C0EFB117743EA074301FB06F0F4
:1044B00098420AD91CEB030301F1FF3780F0158104
:1044C000984240F21281023963441B1AA4B2B3FB32
:1044D000FEF00EFB103344EA034400FB06F6A6424E
:1044E0000AD91CEB040400F1FF3380F00081A642DE
:1044F00040F2FD806444023840EA0140A41B0021E0
:104500001DB1D4400023C5E90043BDE8F0878B42CC
:1045100005D90DB1C5E9000100210846F5E7B3FA58
:1045200083F1002946D1B34202D3824200F2F580E2
:10453000841A66EB030201201746002DE5D0C5E979
:104540000047E2E7002A40F09380A1EB0C034FEA1A
:104550001C471FFA8CFE0121B3FBF7F607FB163050
:10456000230C43EA00430EFB06F0984208D91CEBEB
:10457000030306F1FF3802D2984200F2D08046468B
:104580001B1AA4B2B3FBF7F007FB103344EA034451
:104590000EFB00FEA64508D91CEB040400F1FF3316
:1045A00002D2A64500F2B6801846A4EB0E0440EAFB
:1045B0000640A5E7C1F120078B4022FA07FC4CEA30
:1045C000030C06FA01FE20FA07F426FA07F344EA80
:1045D0000E0400FA01F84FEA1C404FEA1449B3FBFD
:1045E000F0FE1FFA8CF600FB1E3349EA03430EFB74
:1045F00006F9994502FA01F20BD91CEB03030EF1FF
:10460000FF3A80F08580994540F28280AEF1020E3B
:104610006344A3EB0909A4B2B9FBF0F300FB1399BF
:1046200044EA094403FB06F6A64208D91CEB04043D
:1046300003F1FF3068D2A64266D9023B644443EAE4
:104640000E40A41BA0FB02E6B4427346B14652D30F
:104650004FD05DB1B8EB030264EB090404FA07F72D
:1046600022FA01F31F43CC40C5E9007400214CE756
:10467000C2F1200120FA01F30CFA02FC26FA01F142
:10468000964033434FEA1C471FFA8CFEB1FBF7F00C
:1046900007FB1016190C41EA064100FB0EF68E428C
:1046A00004FA02F408D91CEB010100F1FF382DD205
:1046B0008E422BD902386144891B9BB2B1FBF7F6BD
:1046C00007FB161143EA014306FB0EF1994208D994
:1046D0001CEB030306F1FF3814D2994212D9023EB3
:1046E00063445B1A46EA004136E73946EDE6184670
:1046F00002E7F045ADD2BEEB020366EB0C060138D3
:10470000B146A6E74646ECE7034698E74046D3E7BE
:10471000D6467EE76444023847E708460DE7023E86
:1047200063442DE7024A0349034800F0C9B800BFBB
:104730002800002069710008380000200C4B4168F7
:10474000994210B5044601D002F00EFDA168094B54
:10475000994202D0204602F007FDE168064B9942DB
:1047600004D02046BDE8104002F0FEBC10BD00BFE2
:10477000BC0D0020240E00208C0E00202DE9F843F3
:10478000314A324C3249DFF8CC90DFF8CC80334FDD
:104790001160002504232946082204F15C00C4E9C5
:1047A00003352F4EA560C4E90055C4E9055565667B
:1047B00000F05AF904F15800C4E90749C4E909872F
:1047C000E66200F025FA2946264B6367082204F1C9
:1047D000C400C4E91A55C4E91E552567C4F8CC5075
:1047E000C4F8805000F040F904F1680304F1C000FF
:1047F000C4F88430C4E92298C4E9247600F008FAA9
:10480000194BC4F8DC30294604F596700822C4E937
:104810003455C4E93855C4F8D850C4F83451C4F8F4
:10482000E85000F021F904F1D003C4E93D87C4F851
:10483000F09004F59470C4F8FC60C4F8EC30BDE866
:10484000F84300F0E5B900BFF40E0020BC0D0020D5
:1048500025470008D9490008FD4900083D4A0008DD
:10486000614A0008090001001200020010B5044668
:104870000A4800F0D1F9636B23B9094B094A1B6858
:10488000626323B1BDE81040044800F0C7B9FFF7E8
:1048900075FFBDE81040014800F0C0B9040F0020CA
:1048A000F40E00203D470008014800F0B5B900BFF4
:1048B000040F0020014800F0B1B900BF040F002030
:1048C0002DE9F8430746884616464FF00009D6E919
:1048D0000154013D10D4A389012B08D9B4F90E303D
:1048E00001332146384602D0C04749EA0009013D5C
:1048F0006B1C04F16804EED13668002EE7D14846FF
:10490000BDE8F8830FB400B5074983B004AB08686D
:1049100053F8042B8168019300F0A8FD03B05DF803
:1049200004EB04B0704700BF3400002070B50546AA
:1049300088B008460C46FCF723F9224E6A6B0590B6
:1049400001214318CDE9066104A8022104940393D0
:10495000AC68019002916AB3636EB4F90C20D90778
:1049600001D496051FD5900405D442F4005223F4D7
:104970000053A2816366990420D401AA21462846E7
:1049800002F010FD636EC8B90A25DA0702D4A389C4
:104990009B0502D5284608B070BDA06D00F03EF919
:1049A000284608B070BDA06D00F036F9B4F90C20AF
:1049B000636ED8E72846FFF759FFCDE74FF0FF3584
:1049C000E3E700BF20A80008024B01461868FFF784
:1049D000ADBF00BF3400002010B50C46B1F90E1079
:1049E00000F0BCF8002803DB236D0344236510BDF1
:1049F000A38923F48053A38110BD00BF2DE9F041AA
:104A00000C46B1F90C101F46CB05054616460BD4D3
:104A100021F48051A1813B46B4F90E10324628465C
:104A2000BDE8F04100F0B0B8B4F90E100223002246
:104A300000F07EF8B4F90C10EAE700BF10B50C46A0
:104A4000B1F90E1000F074F8B4F90C30421C0EBF2E
:104A500023F4805343F480532065A38110BD00BF2D
:104A6000B1F90E1000F052B8830730B547D0541E8C
:104A7000002A3ED0CAB2034601E0013C39D303F814
:104A8000012B9D07F9D1032C2CD9CDB205EB0525BF
:104A90000F2C05EB054535D9A4F1100222F00F0CBF
:104AA00003F1100EE6444FEA121C1A46C2E9005503
:104AB000C2E9025510327245F8D10CF1010214F02E
:104AC0000C0F03EB021204F00F0C13D0ACF1040333
:104AD00023F003030433134442F8045B9342FBD1F5
:104AE0000CF003042CB1C9B21C4403F8011BA3420F
:104AF000FBD130BD64461346002CF4D1F9E70346E0
:104B00001446C0E71A46A446E0E700BF38B5074D93
:104B10000022044608462A60FDF712FC431C00D020
:104B200038BD2B68002BFBD0236038BDF80E002069
:104B300038B50C46084D8446114620461A460023D7
:104B40002B606446FDF706FC431C00D038BD2B6883
:104B5000002BFBD0236038BDF80E002038B50C4682
:104B6000084D8446114620461A4600232B606446B1
:104B7000FDF7C8FB431C00D038BD2B68002BFBD0D1
:104B8000236038BDF80E002038B50C46084D844629
:104B9000114620461A4600232B606446FDF7C2FBEF
:104BA000431C00D038BD2B68002BFBD0236038BDE0
:104BB000F80E0020014B1868704700BF3400002039
:104BC00070B50F4B0F4DAB42A3EB050607D0B610E7
:104BD000002455F8043B01349847A642F9D805F063
:104BE00005FE094D094B5E1BAB424FEAA60606D0F7
:104BF000002455F8043B01349847A642F9D870BD0B
:104C000054AF000854AF000854AF00085CAF000870
:104C1000704700BF704700BF704700BF704700BFBC
:104C2000024B13B1024800F005B8704700000000C5
:104C300001790008002301461A46184602F0B8BE62
:104C40002DE9F84306460820894602F06DFEDFF89C
:104C50009C800546304600F0FDFBD8F808305F68C0
:104C600027F00307A7F11104A4EB09042C44B4FBBB
:104C7000F5F4013C05FB04F4A54208DC00213046B4
:104C800002F02CFED8F808303B44984205D030465C
:104C900000F0E6FB0020BDE8F8836142304602F0F8
:104CA0001DFE01300FD0124AD8F808303F1B47F0E4
:104CB00001075F60136830461B1B136000F0D0FBD8
:104CC0000120BDE8F8830021304602F007FED8F845
:104CD0000820831A0F2BDADD43F001035360054BE4
:104CE00003491B68C01A0860D1E700BF8801002093
:104CF0000C0F00207C01002000297CD0F8B50C4668
:104D0000064600F0A7FB54F8043C764FA4F10805D2
:104D100023F001016818D7F808C04268844522F0E2
:104D2000030200F08380DB07426000EB020C33D407
:104D300054F8084CDCF804302D1B2144AC6807F112
:104D4000080C644503F0010364D0D5F80CE0C4F806
:104D50000CE0CEF80840002B00F0818041F0010308
:104D60006B600160B1F5007F22D27868CB08012228
:104D7000490901338A40024357F833107A6007EB40
:104D8000C302083AC5E9021247F83350CD603046F5
:104D9000BDE8F84000F064BBDCF80430DB072BD53D
:104DA00041F00103B1F5007F44F8043C0160DCD31D
:104DB000B1F5206F4FEA512353D28B0903F139002B
:104DC00003F13802C300F818FB580838984203D1A1
:104DD00061E09B68984204D05A6822F003028A423C
:104DE000F7D8D868C5E902308560DD603046BDE897
:104DF000F84000F035BB7047114407F1080C836898
:104E000063453FD0C268DA60936041F001036B6094
:104E10006950A7E7002B5FD10A44D0E90213CB60A9
:104E2000996042F001036B60AA50B0E70A44D907C9
:104E300007D454F8083CED1A1A44D5E90213CB60A4
:104E4000996042F001036B60274BBD601B68934281
:104E50009DD8264B30461968FFF7F2FE97E71144BC
:104E6000CDE7142B08D9542B1DD80B0B03F16F0081
:104E700003F16E02C300A6E703F15C0003F15B02DD
:104E8000C300A0E741F00103C7E90455C5E902CC1E
:104E90006B6069507BE779689210012404FA02F292
:104EA0000A437A609EE7B3F5AA7F06D8CB0B03F1DD
:104EB000780003F17702C30085E740F25452934231
:104EC00006D88B0C03F17D0003F17C02C3007AE766
:104ED0004FF47E737E2276E741F001036B60016040
:104EE00055E700BF88010020800100203C0F002012
:104EF0002DE9F04F01F10B05162D83B0064623D89E
:104F0000102900F2AF8000F0A5FA10251823022026
:104F1000B74F3B44A3F108025C68944200F01F8144
:104F20006368E268A16823F00303CA602344304643
:104F300091605A6842F001025A6000F091FA083418
:104F4000204603B0BDE8F08F35F0070500F18A80F8
:104F5000A94200F2878000F07DFAB5F5FC7FC0F031
:104F60006E816B0A00F08280042B00F21E81AB0977
:104F700003F1390003F1380EC3009D4F3B44A3F108
:104F8000080C5C68A44507D10DE0002AE16880F2B6
:104F9000E0808C4507D00C46636823F003035A1B5E
:104FA0000F2AF2DD7046DFF84C823C69444500F080
:104FB000BD80636823F0030CACEB05030F2B00F3FB
:104FC0004281002BC7E9048880F22D81BCF5007F67
:104FD000D7F804E080F0C9804FEADC0101314FEAE4
:104FE0005C1C012303FA0CF357F83120A2604EEA4F
:104FF000030E07EBC103083BE360C7F804E047F882
:105000003140D46083104FF0010C0CFA03FCF445DE
:1050100032D81CEA0E0F08D120F003004FEA4C0CE6
:105020001CEA0E0F00F10400F8D007EBC00AD646C8
:105030008146DEF80C300BE0596821F003014A1B71
:105040000F2A1C46DB6800F3BC80002A80F2DE8059
:105050009E45F1D109F1010919F0030F0EF1080E77
:10506000E7D119E10C233360002469E74FF40073A2
:1050700040204FF03F0E80E7BC68636823F00309CF
:10508000A94503D3A9EB05030F2B52DC5A4B1B6830
:10509000082003F1100804EB0903009302F044FC1C
:1050A000564A13680133A844834605D008F1FF38F7
:1050B0008044434203EA08084146304602F00EFCB1
:1050C000B0F1FF3F4D4A824600F0D88004EB09035F
:1050D000834200F2D1804A4B186840440BF1FF3103
:1050E0001860844640F0FB801AEA010F40F0F78018
:1050F000D7F808A0C84448F00102CAF80420414B80
:105100001968814238BF18603F4B1968814238BF27
:105110001860544622F00308A845A8EB050301D304
:105120000F2B06DC304600F09BF99DE7D7F804E032
:1051300068E7621943F0010345F0010565603046F8
:10514000BA60536000F08CF90834204603B0BDE823
:10515000F08FA2682344D16030468A60E9E6DC68BB
:10516000A3427FF4DDAE02301DE7BCF5206F4FEAAD
:105170005C227AD3142A00F2128102F15C03DB0074
:105180005B32F918FB580839994203D1ECE09B686F
:10519000994204D05A6822F003026245F7D8D968D0
:1051A000C4E902318C60DC602CE7142B69D9542BE4
:1051B00000F2FE802B0B03F16F0003F16E0EC300B3
:1051C000DBE6D4F808C03046661945F00105656095
:1051D000CCF80C30C3F808C042F00103C7E90466FC
:1051E000C6E902887360625000F03AF90834A7E615
:1051F00088010020900100203C0F00207C0100204D
:105200000C0F0020380F0020340F002021443046BE
:105210004A6842F001024A6054F8082FD3609A604D
:1052200000F01EF98CE6A4443046DCF8043043F06C
:105230000103CCF8043000F013F9083480E6E808E4
:1052400005F1080364E6621943F0010145F0010528
:1052500065603046C7E90422C2E90288516044F81B
:105260000C3000F0FDF808346AE64FEA9C1202F1B7
:105270003903DB00383284E7BC4228D0BC6862685E
:1052800048E703F15C0003F15B0EC30075E65AF8D2
:105290000839534540F0DA8010F0030F00F1FF3079
:1052A000F5D17B6823EA0C037B604FEA4C0C9C45EC
:1052B0003FF6E2AEBCF1000F04D1DDE64FEA4C0C44
:1052C00009F104091CEA030FF8D04846ADE6604B2B
:1052D000186808EB000C0BF1FF31C3F800C0106830
:1052E00001306FD004EB0902AAEB020262441A609B
:1052F0001AF00702CDE9002340D0C2F1080292441F
:10530000D04408EA01005A44121A02EA010B594635
:10531000304602F0E3FA421C019B6FD0A0EB0A007A
:1053200000EB0B081868C7F808A048F001025844C1
:10533000BC42CAF8042018603FF4E1AEB9F10F0F87
:1053400043D96168A9F10C0222F0070201F00101C2
:10535000114361604FF0050CA1180F2AC1E901CC7F
:1053600054D8DAF80420CAE692104FF0010C0CFA77
:1053700002F24EEA020EC7F804E011E70AEB080257
:105380000A40ABEB020202EA010B5946304602F03A
:10539000A5FA431C019BC1D1DDF800B0C2E7542A35
:1053A00017D84FEA1C3202F16F03DB006E32E8E6D9
:1053B000B3F5AA7F17D8EB0B03F1780003F1770E52
:1053C000C300DAE5C2F800A092E70123CAF804306E
:1053D000A8E6B2F5AA7F24D84FEADC3202F17803BE
:1053E000DB007732CDE640F25452934224D8AB0C26
:1053F00003F17D0003F17C0EC300BEE5009A083A7C
:105400009044A8EB0A084FF0000B8BE7304604F1FC
:1054100008010093FFF770FC009BD7F808A01868FC
:105420009FE740F254539A420CD84FEA9C4202F153
:105430007D03DB007C32A4E64FF47E737F204FF0C7
:105440007E0E9AE54FF47E737E229AE67B682CE707
:105450000C0F00200148FFF7DFBB00BFFC0E00204F
:105460000148FFF7DBBB00BFFC0E00202DE9F04F29
:10547000DDB0164609911C4683460F9302F02AFAC6
:10548000036818931846FBF77BFB0822179000214E
:105490002CA8FFF7E9FABBF1000F04D0DBF8343099
:1054A000002B01F07380099A536EB2F90C20D807D3
:1054B00002D4910540F17786970406D4099942F405
:1054C000005223F400538A814B669D0401F14A8403
:1054D000099AB2F90C30190740F1CC801269002A00
:1054E00000F0C88003F01A020A2A00F0D2800023DC
:1054F00033AA0024CDE93133CDE91B33129319933C
:1055000020931D930B930023CDE91434309214465D
:10551000B246914BD3F8E45002F0D6F92CAA0346D8
:10552000009228A952465846A847002800F0D0808B
:10553000C0F2C680289A252A034601D09A44E8E79B
:10554000BAEB0607054640F0C78000231A464FF025
:10555000FF318DF897300C930AF1010A9AF8003068
:105560000A9108920AF1010AA3F120025A2A00F2D4
:10557000F580DFE812F03603F300F3002F03F300A9
:10558000F300F3006A00F300F30075026403F30014
:1055900080024803F30041035B005B005B005B009B
:1055A0005B005B005B005B005B00F300F300F3005B
:1055B000F300F300F300F3006D01F3000102EA02CF
:1055C0006D016D016D01F300F300F300F300E302E0
:1055D000F300F3008702F300F300F3001E02F30070
:1055E000BD02F300F300EC06F300F300F300F30058
:1055F000F300F300F300F3006D01F3000102500229
:105600006D016D016D01D0025002FA01F300040337
:10561000F300200312070E03FA01F3001E027C00C0
:10562000E806F300F3001507F3007C00A3F1300255
:1056300000211AF8013B01EB810102EB4101A3F1CA
:105640003002092AF5D90C918EE7584602F042F94A
:1056500043681D931846FBF793FA20900546584679
:1056600002F038F983681B93002D40F006869AF803
:10567000003077E7099D5846294602F00FF80028C8
:1056800041F0B284B5F90C3003F01A020A2A7FF413
:105690002EAF0999B1F90E20002AFFF628AF4A6E05
:1056A000D50702D4980541F12C8109992346324649
:1056B000584601F009FD0B900B985DB0BDE8F08FE6
:1056C000082200212CA8FFF7CFF901239A4420E7F4
:1056D000BAEB0607054610D0329B3B443293319B10
:1056E0000133072BC4E90067319310DC08340B9BAE
:1056F0003B440B93002D7FF428AF329B002B41F0ED
:10570000E980099B0022B3F90C30319218E0099925
:1057100030AA584601F018FD78B933ACE7E709998B
:1057200030AA584601F010FD002800F086800E9B3C
:105730001BB10E995846FFF7DFFA099BB3F90C30FD
:10574000099A526ED00740F106815A0601F114837E
:105750000B985DB0BDE8F08F900500201093002BF2
:10576000CBD000228DF80C310123CDE90D328DF81C
:10577000972006930A9216921392119243AE089BB9
:1057800013F0020302D00699023106910899329D66
:1057900011F0840805D10C9906980F1A002F00F318
:1057A0009E806AB101226260319A013201350DF1A9
:1057B0009701072A32953192216000F3CE83083495
:1057C0006BB1319B26AA013302352260072B4FF0C3
:1057D000020232953193626000F3B4830834B8F169
:1057E000800F00F0C8820A9B0D9A9F1A002F00F3C9
:1057F0000383089BDF0500F128820D9B63601D4435
:10580000319B26600133072B3295319300F33883A7
:105810000834089B5E0705D50C9B069A9E1A002E3D
:1058200000F3A883DDE90B3206998A42ACBF9B18CE
:105830005B180B93002D7FF472AF002331930E9B06
:105840001BB10E995846FFF757FA33AC56465FE640
:1058500010930F9B073323F00703F3E802780F93AD
:1058600028F000431F931E97DDE91E01AF4B4FF058
:10587000FF32CDE91478FBF777FD002840F00D8565
:10588000DDE91E01A94B4FF0FF32FBF74FFD002869
:1058900040F003850022002338464146FBF73CFDDB
:1058A000002841F001829DF89720089BA04E23F02C
:1058B000800308939F4B10994729D8BF1E460023A9
:1058C00003210E9306910D910A931693139311934E
:1058D000002A3FF454AF069B013306934FE7102F85
:1058E000319A41F33B82DFF850C2CDF868C02146BF
:1058F0002846099C21934FF01009654604E0103FAB
:10590000102F01F1080115DD01321030072AC1E91D
:105910000059CDE93120F2DD30AA2146584601F088
:1059200013FC00287FF403AF103F102FDDE9312076
:1059300033A9E9DC219B0C46054601321A99216006
:105940003D44072ACDE93125676000F30F869DF8B5
:105950009720083425E799053FF5F7AE099CA06D1F
:10596000FFF75CF9B4F90C30EFE6089B43F0200335
:1059700008939AF80030F5E50F9A1093432B02F143
:10598000040500F04D85089BDA0600F149850F9B60
:105990001B688DF80C31012306930D9343AE002252
:1059A0000F958DF897200E920A92169213921192EB
:1059B000E5E60F9F109357F8046B00238DF897309E
:1059C000002E00F01C85109B532B00F0F585089BE2
:1059D00013F01003119340F0EF850A9B002BC0F2E7
:1059E000668711991A463046FBF73AF90E9000285F
:1059F00001F09E820E9B11999DF897200F979B1B9B
:105A00000D9323EAE373069373230A91169113917E
:105A10000E9110935CE71093089B9B0640F19E80CB
:105A20000F9B073323F007031A46596852F8083BC7
:105A30000F920A460029C0F201840A990029C0F297
:105A40007282089921F0800553EA020140F06C82CD
:105A50000A9A002A40F06D8208950D925CAE60E1D2
:105A60000F9B53F8042B0C92002A80F2AA830C9A05
:105A70000F9352420C92089B43F0040308939AF848
:105A800000306FE51093089B43F010030893089BC8
:105A900013F0200200F076830F9B073323F00703F7
:105AA00019465A6851F8083B0F91089921F480650E
:105AB000002100200A9E8DF89700002EC0F21A8166
:105AC00025F08000089053EA020040F01281002E79
:105AD00040F06185002940F0DA8415F001030D9350
:105AE00000F09A8330238DF86F310DF26F1618E1B4
:105AF0001093089B43F0100515F0200200F034834A
:105B00000F9B073323F0070319465A6851F8083BE7
