:020000040800F2
:10000000B00400209D010008F717000845170008FC
:10001000F5170008A9020008551B000800000000A1
:10002000000000000000000000000000FB170008B6
:10003000C502000800000000F9170008FD170008BD
:10004000B7010008B7010008B7010008B7010008B0
:10005000B7010008B7010008B7010008B7010008A0
:10006000B7010008B7010008B7010008B701000890
:10007000B7010008B7010008B7010008B701000880
:10008000B7010008B7010008B7010008B90200086D
:10009000AD020008B7010008B7010008B701000869
:1000A000B7010008B7010008B7010008B701000850
:1000B000B7010008B7010008B7010008B701000840
:1000C000B7010008B7010008B7010008B701000830
:1000D000B7010008491B0008B7010008B701000874
:1000E000B7010008B7010008B7010008B701000810
:1000F000B7010008B7010008B7010008B701000800
:10010000B7010008B7010008B7010008B7010008EF
:10011000B7010008B7010008B7010008B7010008DF
:10012000B7010008B7010008B7010008B7010008CF
:10013000B7010008B7010008B7010008B7010008BF
:10014000B7010008B7010008B7010008B7010008AF
:10015000B7010008B7010008B7010008B70100089F
:10016000B7010008B7010008B7010008B70100088F
:10017000B7010008B7010008B7010008000000003F
:10018000B7010008B7010008DFF80CD000F07AF8DA
:10019000004800477D1C0008B00400200648804746
:1001A00006480047FEE7FEE7FEE7FEE7FEE7FEE75C
:1001B000FEE7FEE7FEE7FEE7991800088901000860
:1001C0002DE9F05F0546002092469B46884606468C
:1001D000814640241BE0284641464746224600F01F
:1001E00041F853465A46C01A914110D31146184659
:1001F000224600F028F82D1A67EB01084F462246E8
:100200000120002100F01FF817EB00094E41201ECD
:10021000A4F10104DFDC484631462A464346BDE8E6
:10022000F09FD2B201E000F8012B491EFBD27047CB
:100230000022F6E710B513460A4604461946FFF7B2
:10024000F0FF204610BD202A04DB203A00FA02F11C
:10025000002070479140C2F1200320FA03F31943B4
:1002600090407047202A04DB203A21FA02F0002156
:10027000704721FA02F3D040C2F1200291400843B6
:1002800019467047064C074D06E0E06840F0010350
:1002900094E8070098471034AC42F6D3FFF778FF94
:1002A000FC1D00081C1E0008FEE70000014800F0CD
:1002B0007EB9000040000020014800F078B900003D
:1002C00040000020704772B6FEE790F82020012A17
:1002D00007D0022A05D0416A41F480214162012001
:1002E0007047006842690A43426100207047F0B5D8
:1002F00090F820500468A468012D05D0022D03D089
:10030000416A41F480214DE014F0406F01D1E500D5
:1003100045D5C4F301640125A5401D608D684FF4E7
:10032000C0739DB1CE6835434E6845EAC605066880
:1003300003EB0417F5514FF4C275076805EB04157C
:100340000E697E51097D012905D009E00E88CD682E
:1003500045EA4655EBE701684E5946F480764E5122
:100360001179D2F805504FF4C67641EA05210568A7
:1003700006EB0416A9511178D2F801204FF4C47588
:1003800041EA0221026805EB04155151006803EBB4
:100390000411425842F0010242500020F0BD416A6F
:1003A00041F4001141620120F0BD000010B590F849
:1003B0002020012A07D0022A05D0416A41F4802179
:1003C0004162012010BD3B48D0F8002242F00102FA
:1003D000C0F80022D0F8002222F47C52C0F800229B
:1003E000D0F800224B6A42EA0322C0F800220A7DBC
:1003F00002F01F0301229A40D0F81C329343C0F848
:100400001C32CB69B3B9D0F80C329343C0F80C322C
:100410008C894B6864F31F434C6900EBC404C4F837
:1004200040320C890B6864F31F434C6900EBC40431
:10043000C4F84432CB69012B16D1D0F80C321343E7
:10044000C0F80C320C884B6864F31F434C6900EB16
:10045000C404C4F840320C89CB6864F31F434C6970
:1004600000EBC404C4F844328B69002BD0F804328A
:100470000ED01343C0F804320B69002BD0F81432AD
:1004800008D01343C0F81432096A012904D008E0E7
:100490009343EFE79343F5E7D0F81C121143C0F8FC
:1004A0001C12D0F8001221F00101C0F80012002047
:1004B00010BD000000640040704770B590F8204007
:1004C000012C05D0022C03D0416A41F4802128E0A0
:1004D000046809B32469A40720D04FF4D8740568D0
:1004E00004EB01142D5915F00405956005682D598C
:1004F0001AD0ED08556005682C5904F00204D46048
:100500004FF4DA74056804EB01142E5906F00F0657
:10051000082E0CD308250DE0E468DCE7416A41F4BD
:1005200000114162012070BD6D0D1560E3E72D598A
:1005300005F00F05156105682D59C5F3072595616F
:1005400005682C59240C54614FF4DC72046802EBEA
:100550000112A4581C700468A458240A5C70046832
:10056000A458240C9C700468A258120EDA704FF440
:10057000DE72046802EB0112A4581C710468A458CE
:10058000240A5C710468A458240C9C710468A25865
:10059000120EDA71006829B1016941F02001016190
:1005A000002070BDC16841F02001C160F8E72DE96D
:1005B000F05F0546006800244669D0F8049087681B
:1005C000D0F80CB0D0F810A0D0F81880F10748D0BF
:1005D000F90714D001218160B80703D5284600F03F
:1005E000F4F90CE0780702D54FF4006407E038070F
:1005F00002D54FF4805402E0284600F0E5F9F805F2
:1006000016D529684FF480708860B80503D5284650
:1006100000F0DDF90CE0780502D544F4005407E061
:10062000380502D544F4804402E0284600F0CEF9B3
:10063000F80316D529684FF480308860B80303D5D5
:10064000284600F0C6F90CE0780302D544F40044D3
:1006500007E0380302D544F4803402E0284600F075
:10066000B7F9300707D55FEACB6004D529681020B9
:1006700044F40074C86070074FF0080707D55FEABC
:100680000B7004D52868C760284600F061F9B007F0
:1006900006D52868C068800702D0284600F05AF9BD
:1006A000700607D55FEACA6004D52968102044F4B3
:1006B00080640861B00607D55FEA0A7004D528682F
:1006C0000761284600F050F9F00606D52868006951
:1006D000800702D0284600F048F9B00308D55FEA49
:1006E000C96005D5296810204860284600F03EF909
:1006F000F00307D55FEA097004D5286847602846EB
:1007000000F068F9300446D55FEA497040D5F0053D
:1007100004D55FEAC87001D044F00104B00504D5E7
:100720005FEA887001D544F00204700504D55FEAE1
:10073000487001D544F00404300529D518F0700F35
:1007400026D008F07000402815D006DC102809D00B
:1007500020280AD0302816D10AE050280ED0602870
:1007600011D10EE044F008040DE044F010040AE05A
:1007700044F0200407E044F0400404E044F0800426
:1007800001E044F480742868816921F0700181617E
:10079000296804204860002C05D0686A20436862FC
:1007A0002846FFF789FEBDE8F09F70B5040003D02E
:1007B00094F8200010B104E0012070BD204600F044
:1007C00081F82068016841F00101016000F068FAD9
:1007D0000546052604E000F063FA401B0A2811D8FC
:1007E00020684068C007F6D02068016821F0020147
:1007F000016000F055FA05460BE000F051FA401B8D
:100800000A2806D9606A40F40030606284F82060EB
:10081000D2E7206840688007EFD4207E0128206856
:1008200001683DD021F080010160607E01282068D0
:10083000016838D021F040010160A07E01282068C5
:10084000016833D021F020010160E07E012820689A
:1008500001682ED041F010010160207F012820683E
:10086000016829D021F008010160607F012820681B
:10087000016824D021F004010160D4E90201084399
:10088000D4E90412114308436168491E08432168F2
:10089000C86100206062012084F82000002070BD43
:1008A00041F08001C0E741F04001C5E741F020017F
:1008B000CAE721F01001CFE741F00801D4E741F089
:1008C0000401D9E710B586B0044614216846FFF745
:1008D000AFFC1C492068884231D11B4800210268C6
:1008E00042F000720260006800F000700590164847
:1008F0001038026842F001020260006800F0010056
:1009000005904FF4C05000900220CDE90101032072
:1009100003900920049069460C4800F0C9F80022B1
:100920001146132000F02AFA132000F019FA0022D1
:100930001146142000F022FA142000F011FA06B03B
:1009400010BD00000064004040380240000002403A
:1009500070470000024B034A0021FFF7AEBD0000C4
:1009600008000020240000207047704770470000F6
:1009700070B5044690F82000012804D0606A40F465
:100980000020606218E0022084F8200020680168DE
:1009900021F00101016000F083F905460EE000BF7F
:1009A00000F07EF9401B0A2808D9606A40F4003044
:1009B0006062052084F82000012070BD2068406836
:1009C000C007EDD1606270BD7047704770477047D7
:1009D0007047704770472DE9F0410446876D00F07D
:1009E0005FF9064694F835000025022806D08020DD
:1009F000606584F834500120BDE8F081206801680A
:100A000021F0160101602068416921F080014161F7
:100A1000206C08B9A06C20B12068016821F00801A1
:100A200001602068016821F0010101600CE000F024
:100A300037F9801B052807D920206065032084F83A
:100A4000350084F83450D7E720680068C007EED13D
:100A500094F85C103F208840B860012084F835008D
:100A600084F834500020C7E790F83510022903D0ED
:100A70008021416501207047052180F8351000680C
:100A8000016821F0010101600020704770B5044643
:100A900000F006F90546601C02D0044800780444C2
:100AA00000F0FEF8401BA042FAD370BD10000020F9
:100AB0002DE9F84FDFF8BCA10022012503264FF0F5
:100AC0000F090AF1040BAAF1040E00BF0B6805FA26
:100AD00002F42340A34270D10F7907F00307012FDE
:100AE00001D0022F16D187684FEA420806FA08FCA7
:100AF00027EA0C07D1F80CC00CFA08FC4CEA070CEA
:100B0000C0F808C04768A7430C79C4F300149440A8
:100B10003C4344600C79E443A4070AD0C4684FEA1C
:100B2000420C06FA0CF7BC438F6807FA0CF7274310
:100B3000C7600C7904F00304022C12D1D40800EB36
:100B4000840CDCF820405707FF0E09FA07F824EA66
:100B50000804D1F8108008FA07F848EA0408CCF82D
:100B6000208004684FEA420C06FA0CF7BC430F7968
:100B700007F0030707FA0CF7274307604C6814F4E3
:100B8000403F70D03C4C276847F48047276024687A
:100B900022F0030704F480440094384C07EB040C63
:100BA000DCF8084897074FEA177809FA08F7BC43BA
:100BB000334FB84202D1002724E054E0314FB8420D
:100BC00001D101271EE0304FB84201D1022719E0C0
:100BD0002E4FB84201D1032714E02D4FB84201D166
:100BE00004270FE02B4FB84201D105270AE02A4F16
:100BF000B84201D1062705E0284FB84201D10727A6
:100C000000E0082707FA08F72743CCF80878DAF855
:100C100000405746D1F804C09C435FEACC2C00D575
:100C20001C433C60DBF800405F46D1F804C09C43A5
:100C30005FEA8C2C00D51C433C60DEF80040774610
:100C4000D1F804C09C435FEA8C3C00D51C433C6057
:100C5000084F083F3C68D1F804C09C435FEACC3C95
:100C600000D51C433C60521C102AFFF42FAFBDE896
:100C7000F88F0000083C0140443802400030014039
:100C8000000002400004024000080240000C024044
:100C9000001002400014024000180240001C0240F4
:100CA00001488068704700001000002002488168F9
:100CB0000278114481607047100000200B4810B585
:100CC000016841F400710160016841F480610160D4
:100CD000016841F480710160032000F06FF80F207B
:100CE00000F006F800F024F8002010BD003C02409F
:100CF00070B50D4D04464FF47A712878B1FBF0F0D1
:100D00000A490968B1FBF0F000F00CFB48B9102C5F
:100D100007D200222146501E00F030F800206C60FF
:100D200070BD012070BD0000100000201C000020DC
:100D30000A4808B5016841F480410160006800F488
:100D4000804000900548001F016841F0805101601B
:100D5000006800F08050009008BD00004438024058
:100D6000002809DB00F01F020121914040098000AA
:100D700000F1E020C0F8001170470000F0B40E4B05
:100D80001B680C46C3F30223C3F10705042D00D9E9
:100D90000425191D072901D2002300E0DB1E0126CE
:100DA00006FA05F1491E214099409E40761E1640E4
:100DB0003143F0BC00F0D8BE0CED00E0064900F075
:100DC000070208684FF6FF03184040EA0220034A72
:100DD00010430860704700000CED00E00000FA05C9
:100DE0002DE9F0470E46050065D0DFF81481D8F8EC
:100DF0000000F7B200F00700B04207D288F8007098
:100E0000D8F8000000F00700B04254D128683D4CEB
:100E1000810712D5400703D5206840F4E0502060D8
:100E20002878000703D5206840F4604020602068DF
:100E3000A96820F0F000084320602878C0072DD072
:100E4000304968680839012812D0022813D00328D5
:100E500011D00968890700292DDA216821F00301E2
:100E600001432160FFF71CFF814641F2883A0EE002
:100E700009688903EFE709688901ECE7FFF710FFCC
:100E8000A0EB0901514502D90320BDE8F087206895
:100E9000696800F00C00B0EB810FEFD1D8F80010BA
:100EA000404601F00701B14207D90770006800F021
:100EB0000700B04201D00120E7E72878400705D5B8
:100EC0002068E96820F4E050084320602878000793
:100ED00006D52068296920F4604040EAC1002060FE
:100EE00000F038F82168084AC1F30311515CC8408A
:100EF0000649086006480068FFF7FAFE0020C4E7CC
:100F0000003C024008380240E41D00081C0000209C
:100F1000140000200448054900680968044AC1F328
:100F20008221515CC84070471C00002008380240F4
:100F3000F41D00080448054900680968044AC1F323
:100F40004231515CC84070471C0000200838024004
:100F5000F41D0008154810B5006810F00C02144884
:100F600013D01449042A0FD0082A0ED10F4C241F85
:100F70002268236802F03F025B0207D52068C0F3B5
:100F80008810A0FB010106E0084610BD2168C1F3EE
:100F90008811A1FB00010023FFF712F92168C1F3BA
:100FA0000141491C4900B0FBF1F010BD0838024076
:100FB0000024F40040787D012DE9F84F04006ED044
:100FC0002078DFF84C93C007A9F104054AD009F155
:100FD00004000168C1F38101012908D00068C0F351
:100FE000810002280AD1D9F80000400206D52868FD
:100FF000800337D560680028E1D033E06068B0F541
:10100000803F10D0B0F5A02F286810D020F4803099
:101010002860286820F4802028606068A8B1FFF765
:101020003FFE06460DE0286840F48030F4E740F4C7
:1010300080202860F7E700BFFFF732FE801B64289E
:1010400073D828688003F7D50CE0FFF729FE064621
:1010500005E000BFFFF724FE801B6428F0D8286855
:101060008003F7D42078DFF8AC8280074FF0000AC5
:101070003ED5A748001D016811F00C0F08D000688C
:10108000C0F3810002280BD1D9F80000400207D438
:101090002868800716D5E068012800D112E033E106
:1010A000E068B8B10120C8F80000FFF7F9FD064676
:1010B00005E000BFFFF7F4FD801B0228C0D82868B8
:1010C0008007F7D52868216920F0F80040EAC100C0
:1010D00028600DE0C8F800A0FFF7E2FD064604E036
:1010E000FFF7DEFD801B02281FD828688007F7D491
:1010F0002078000722D5864F87486169703771B123
:1011000001210160FFF7CCFD064604E0FFF7C8FDB2
:10111000801B022809D838688007F7D50EE0C0F890
:1011200000A0FFF7BDFD064605E082E0FFF7B8FD31
:10113000801B02287DD838688007F7D420784007C4
:1011400068D5DFF8CCB100270BF13C0BDBF80000D1
:10115000C0000BD4DBF8001041F08051CBF8001038
:10116000DBF80000012700F0805000906B4E3068E3
:10117000C00510D4306840F480703060FFF790FDF7
:10118000009005E0FFF78CFD0099401A022850D826
:101190003068C005F6D55E4EA0686C3601280FD0C9
:1011A0000528306810D020F001003060306820F051
:1011B00004003060A068B8B1FFF772FD00900FE046
:1011C000306840F00100F4E740F004003060F7E7D9
:1011D000FFF766FD0099411A41F28830814266D8D6
:1011E00030688007F4D50EE0FFF75AFD009007E065
:1011F000FFF756FD0099411A41F28830814256D8D6
:1012000030688007F4D42FB1DBF8001021F0805152
:10121000CBF80010A069C8B33D49091D0968C1F3A6
:10122000810102294AD00228504607D0C8F8600040
:1012300000E03CE0FFF734FD04463BE04746C8F8D9
:101240006000FFF72DFD064605E000BFFFF728FD13
:10125000801B02282BD828688001F7D4D4E9070125
:101260000843A16A2E4A490802EB0141626A41EA39
:101270008211084394F82C1040EA0161C9F800106B
:1012800001203866FFF70CFD044606E03EE000BF93
:10129000FFF706FD001B022809D828688001F7D552
:1012A00034E000BFFFF7FCFC001B022802D903203A
:1012B000BDE8F88F28688001F4D427E00128F7D032
:1012C000D9F80000E26900F4800191421CD1226A41
:1012D00000F03F01914217D147F6C071626A0140A8
:1012E000B1EB821F10D1A26A4FF0FF3300F44031FE
:1012F00003EB5202B1EB024F06D194F82C1000F030
:101300007060B0EB016F01D00120D1E70020CFE782
:101310000438024000004742800E474200700040FF
:101320000000FFFF10B5401EB0F1807F01D3012007
:1013300010BD4FF0E02460610F21601700F014FC35
:101340000020A06107202061002010BD7047704779
:10135000F8B5016804460868CA684B6910F00F0FB9
:101360004FF0000559D003F0010602F4907737439F
:1013700065D0C10705D0D10503D5616C41F00101ED
:101380006164410705D5D90703D0616C41F00201C2
:101390006164810705D5D90703D0616C41F0040170
:1013A0006164010707D502F02001314303D0616C6D
:1013B00041F008016164616C00293AD0800604D5CF
:1013C000900602D5204600F09EFA20684069616CC4
:1013D000C0F38010090700D460B3204600F06CFA17
:1013E00020684069400621D52068143050E8001F6D
:1013F00021F0400140E80012002AF5D1E06BA8B1CD
:101400006E490165E06BFFF72FFB002811D0E06B00
:10141000016D01B0BDE8F040084783060FD5930683
:101420000DD52046BDE8F84000F06DBA2046FFF724
:101430008EFFF8BD2046FFF78AFF6564F8BD266B76
:101440002023012E7DD1C6067BD5D60679D5086826
:101450004868009048694FF00206400641D5E16BAC
:10146000086840680004000CE8D0A28D8242E5D9EB
:10147000E085C869B0F5807F2DD020680C3050E839
:10148000001F21F4807140E80012002AF5D1206885
:10149000143050E8001F21F0010140E80012002A3A
:1014A000F5D12068143050E8001F21F0400140E8D9
:1014B0000012002AF5D184F84230256320680C30F0
:1014C00050E8001F21F0100140E80012002AF5D179
:1014D000E06BFFF780FA6663A08DE18D401A81B260
:1014E0002AE0A08DE18D401A81B2E08D0028A5D0C0
:1014F0000029A3D022680C3252E8000F20F490702B
:1015000042E80007002FF5D12068143050E8002F82
:1015100022F0010240E80027002FF5D184F8423084
:10152000256320680C3050E8002F22F0100240E8BC
:101530000023002BF5D166632046FFF707FFF8BDB7
:10154000FFE705062BD5150629D594F8410021287B
:10155000F5D1A068B0F5805F01D12069B0B1206AF3
:10156000411C2162216800784860E08C401E000424
:10157000000CE084E3D12068C16821F08001C160E3
:101580002068C16841F04001C160D8E7206A008846
:10159000C0F308004860206A801C2062E5E740062E
:1015A000CDD55006CBD5CA68204622F04002CA608D
:1015B00084F8413000F0C5F8C1E70000A918000820
:1015C00070B5040004D094F84100002510B106E085
:1015D000012070BD84F84050204600F023F82420FC
:1015E00084F841002068C16821F40051C1602046A0
:1015F00000F0EAF92068016921F490410161206856
:10160000416921F02A0141612068C16841F400511B
:10161000C1606564202084F8410084F8420065635D
:10162000002070BD10B586B0044614216846FEF750
:10163000FFFD18492068884229D117480021026817
:1016400042F010020260006800F01000059012489D
:101650001438026842F001020260006800F00100E4
:1016600005904FF4C06000900220CDE901010320F5
:1016700003900720049069460848FFF719FA0022F2
:1016800011462520FFF77AFB2520FFF769FB06B0FE
:1016900010BD00000010014044380240000002402C
:1016A00070472DE9F843044690F8410098461646E5
:1016B0000D46202802D00220BDE8F88385B17EB116
:1016C00000206064212084F84100FFF7E9FAA68435
:1016D0008146E684A0682027B0F5805F02D003E051
:1016E0000120E9E7206910B12E4600250EE0002612
:1016F0000CE08021204600F0EDF9A8B9C6B116F83B
:10170000010B21684860E08C401EE084E08C4B4671
:101710004FF00002CDF800800028EAD14FF04001E0
:10172000204600F0D7F940B184F841700320C3E7A8
:1017300035F8020BC0F30800E3E784F8417000209D
:10174000BAE77047FEE70000104810B50E49016087
:101750000C21416000214FF440328160C0E9031246
:101760004FF4801242610122027641768176C27680
:1017700001774177FFF719F8002803D0BDE8104042
:10178000FEF7A1BD10BD0000006400404000002035
:10179000094808B5016841F080010160016801F065
:1017A00080010091016841F001010160006800F0D2
:1017B0000100009008BD0000303802400C4810B510
:1017C0000A4901604FF4E1314160002181600C223F
:1017D000C160C0E904128161C161FFF7F1FE002818
:1017E00003D0BDE81040FEF76EBD10BD00100140F3
:1017F00068000020FEE7FEE770477047FFF756BA23
:1018000030B593B030216846FEF712FD14210CA8C4
:10181000FEF70EFD1E480025016841F08051016071
:10182000006800F0805011901A48016841F480412E
:1018300001600068022400F48040119001200090B3
:10184000000401908001CDE90640192008904FF472
:10185000A870CDE9090404200B906846FFF7ACFBA3
:1018600008B172B6FEE70CA90F2081E831004FF4F1
:10187000A0500F904FF48050109005210CA8FFF756
:10188000AFFA002801D072B6FEE713B030BD0000F9
:1018900040380240007000400248016841F4700185
:1018A0000160704788ED00E010B5806B0021C185B4
:1018B000C184FFF74CFD10BD01680C3151E8002FC9
:1018C00022F4907241E80023002BF5D10168143115
:1018D00051E8002F22F0010241E80023002BF5D14E
:1018E000016B012909D101680C3151E8002F22F068
:1018F000100241E80023002BF5D1202180F842108E
:1019000000210163704708B590F84210222901D0E8
:10191000022008BD82684FF480539A4201D10169C8
:1019200021B1816A9A421BD04AB10AE00268816AF9
:101930005268C2F308020A80816A891C08E00269C1
:1019400072B10268526802F07F020A70816A491C13
:101950008162C18D491E0904090CC18503D01BE0B9
:1019600002685268F1E70168CA6822F02002CA6082
:101970000168CA6822F48072CA6001684A6922F06C
:1019800001024A61202180F8421000214163026B6C
:10199000012A03D0FFF784FE002008BD016301681F
:1019A0000C3151E8002F22F0100241E80023002BF7
:1019B000F5D101680A68D20602D50A684968009123
:1019C000818DFFF7C3FCE7E770B504460068016945
:1019D000E26821F44051114301612169A068E26984
:1019E00008436169114308432168CA6849F20C63DE
:1019F0009A430243CA6020684169A26921F4407198
:101A00001143416131492068884202D030498842FF
:101A100002D1FFF78FFA01E0FFF77CFAE2690023B9
:101A2000192164253226B2F5004F626828D0A0FB48
:101A30000101930F9200FEF7C3FB0146B0FBF5F0E6
:101A40006FF01802504301EB800006EB0010B0FB72
:101A5000F5F000F0F002B1FBF5F002EB0012B1FB83
:101A6000F5F06FF01803584301EB800006EB00100F
:101A7000B0FBF5F000F00F0021681044886070BDE5
:101A8000A0FB010192185B41FEF79AFB0146B0FBF7
:101A9000F5F00201B1FBF5F06FF01803584301EBCC
:101AA000800006EBC000B0FBF5F000F0F80002EBA0
:101AB0004002B1FBF5F0584301EB800006EBC0009B
:101AC000B0FBF5F000F00700D6E700000010014081
:101AD000001401402DE9F843984617460D46044688
:101AE000089E24E0701C22D0FFF7DAF8A0EB080073
:101AF000B0421AD8CEB12068C168490717D5802DE9
:101B000015D0402D13D00168C94309070FD40168CF
:101B10000025406800902046FFF7CEFE0820606454
:101B200084F840500120BDE8F8830320FBE72068DB
:101B3000006835EA000004D00020B842D2D000206E
:101B4000F1E70120F9E700000148FFF701BC0000C0
:101B500068000020FEE70000014A024900F023B8B7
:101B6000651C0008200000200907090E002804DB7E
:101B700000F1E02080F80014704700F00F0000F141
:101B8000E02080F8141D704702E008C8121F08C149
:101B9000002AFAD170477047002001E001C1121FEE
:101BA000002AFBD170472DE9F04116460F46044646
:101BB000002503E03946B047641C6D1C20780028DE
:101BC000F8D12846BDE8F08100B58BB028216846E1
:101BD000FEF72EFB00200121CDE9060108910590BA
:101BE0000490009001900290039069460348FEF72C
:101BF000DDFB002800D001200BB000BD400000201C
:101C000070B588B01E461446002202AB0C9D0692A9
:101C100083E82500CDE900148DF8142006AB324688
:101C200069460648FEF763FB10B1012008B070BD9D
:101C300003A0FFF791FF0020F8E70000400000201C
:101C400043414E31204D6573736167652053656E66
:101C500074205375636365737366756C6C790D0AD4
:101C60000000000013B54FF6FF73012269460248D9
:101C7000FFF717FD00981CBD6800002008B5FFF7AE
:101C80001DF8FFF7BDFDFFF783FDFFF797FDFFF799
:101C90005BFD2148FEF76CFE20B120A0FFF75CFF42
:101CA00072B6FEE722A0FFF757FFFFF78DFF20B1C6
:101CB00026A0FFF751FF72B6FEE72DA0FFF74CFFFD
:101CC00003211548FEF701FB20B133A0FFF744FFC5
:101CD00072B6FEE73AA0FFF73FFF414C00202054C8
:101CE000401CC0B20828FAD3082540F223164FF44E
:101CF0007A7700223A4B314610460095FFF780FF75
:101D00000020215C491C2154401CC0B20828F8D393
:101D10003846FEF7BBFEECE74000002043414E3161
:101D2000205374617274204572726F720D0A000044
:101D300043414E312053746172746564205375635E
:101D40006365737366756C6C790D0A0043414E319F
:101D50002046696C74657220436F6E6669677572A0
:101D60006174696F6E204572726F720D0A00000017
:101D700043414E312046696C74657220436F6E6634
:101D800069677572656420537563636573736675FF
:101D90006C6C790D0A00000043414E31204E6F7487
:101DA000696669636174696F6E2041637469766105
:101DB00074696F6E204572726F720D0A0000000028
:101DC00043414E31204E6F74696669636174696F77
:101DD0006E204163746976617465640D0A000000C9
:101DE00000000020000000000000000001020304C9
:101DF0000607080900000000010203041C1E000879
:101E00000000002024000000881B0008401E00087D
:101E1000240000208C040000981B00080000000033
:101E200000000000000000000000000001000000B1
:101E300010000000000000000024F400000000007A
:040000050800018965
:00000001FF
