:020000040800F2
:100000000000022049080008CD060008CF060008BD
:10001000D1060008D3060008D5060008000000003D
:10002000000000000000000000000000D7060008EB
:10003000D906000800000000DB060008DD06000805
:10004000990800089908000899080008990800080C
:1000500099080008990800089908000899080008FC
:1000600099080008990800089908000899080008EC
:1000700099080008990800089908000899080008DC
:1000800099080008990800089908000899080008CC
:1000900099080008990800089908000899080008BC
:1000A00099080008990800089908000899080008AC
:1000B000990800089908000899080008990800089C
:1000C000990800089908000899080008990800088C
:1000D000990800089908000899080008E506000832
:1000E000990800089908000899080008990800086C
:1000F000990800089908000899080008990800085C
:10010000990800089908000899080008990800084B
:10011000990800089908000899080008990800083B
:10012000990800089908000899080008990800082B
:10013000990800089908000899080008990800081B
:10014000990800089908000899080008990800080B
:1001500099080008990800089908000899080008FB
:1001600099080008990800089908000899080008EB
:100170009908000899080008990800080000000084
:08018000990800089908000825
:1001C00053B94AB9002908BF00281CBF4FF0FF31BE
:1001D0004FF0FF3000F00CB8ADF1080C6DE904CE23
:1001E00001F076FCDDF804E0DDE9022304B070479D
:1001F000704700BF00000000000000000000000089
:1002000030B490F800F020F007016FF0000C10F00F
:10021000070491F820F040F048804FF000046FF0A0
:100220000700D1E9002391F840F000F1080082FABC
:100230004CF2A4FA8CF283FA4CF3A2FA8CF34BBB87
:10024000D1E9022382FA4CF200F10800A4FA8CF200
:1002500083FA4CF3A2FA8CF3E3B9D1E9042382FACE
:100260004CF200F10800A4FA8CF283FA4CF3A2FAE3
:100270008CF37BB9D1E9062301F1200182FA4CF21B
:1002800000F10800A4FA8CF283FA4CF3A2FA8CF382
:10029000002BC6D0002A04BF04301A4612BAB2FAA4
:1002A00082F200EBD20030BC7047D1E9002304F0A9
:1002B0000305C4F100004FEAC50514F0040F91F8DE
:1002C00040F00CFA05F562EA05021CBF63EA05037B
:1002D00062464FF00004AAE70000000000000000A2
:1002E00001F0FF01102A2BDB10F0070F08D010F8E7
:1002F000013B013A8B422DD010F0070F42B3F6D1EB
:10030000F0B441EA012141EA014122F007047FF003
:1003100000070023F0E80256083C85EA010586EA5A
:10032000010685FA47F5A3FA87F586FA47F6A5FA96
:1003300087F68EB9EED1F0BC01F0FF0102F00702A2
:1003400032B110F8013B013A83EA010313B1F8D14D
:100350000020704701387047002D06BF354603382E
:10036000073815F0010F07D1013015F4807F02BF67
:10037000013015F4C03F0130F0BC0138704700BFB8
:10038000844641EA000313F003036DD1403A41D3A0
:1003900051F8043B40F8043B51F8043B40F8043B5F
:1003A00051F8043B40F8043B51F8043B40F8043B4F
:1003B00051F8043B40F8043B51F8043B40F8043B3F
:1003C00051F8043B40F8043B51F8043B40F8043B2F
:1003D00051F8043B40F8043B51F8043B40F8043B1F
:1003E00051F8043B40F8043B51F8043B40F8043B0F
:1003F00051F8043B40F8043B51F8043B40F8043BFF
:1004000051F8043B40F8043B51F8043B40F8043BEE
:10041000403ABDD2303211D351F8043B40F8043B8E
:1004200051F8043B40F8043B51F8043B40F8043BCE
:1004300051F8043B40F8043B103AEDD20C3205D39E
:1004400051F8043B40F8043B043AF9D2043208D096
:10045000D2071CBF11F8013B00F8013B01D30B8808
:1004600003806046704700BF082A13D38B078DD0E6
:1004700010F003038AD0C3F10403D21ADB071CBFB8
:1004800011F8013B00F8013B80D331F8023B20F822
:10049000023B7BE7043AD9D3013A11F8013B00F85B
:1004A000013BF9D20B7803704B7843708B788370E3
:1004B000604670470348044B834202D0034B03B1AC
:1004C00018477047780500207805002000000000DC
:1004D0000548064B1B1AD90F01EBA301491002D0A6
:1004E000034B03B1184770477805002078050020BA
:1004F0000000000010B5064C237843B9FFF7DAFF7F
:10050000044B13B10448AFF300800123237010BDE6
:100510007805002000000000FC36000808B5054BF7
:100520001BB105490548AFF30080BDE80840FFF75F
:10053000CFBF00BF000000007C050020FC36000893
:1005400082B0002100910B4B1A6B42F002021A6339
:100550001A6B02F002020092009A01911A6B42F0AB
:1005600001021A631B6B03F001030193019B02B0AC
:10057000704700BF0038024000B583B001904FF6CD
:10058000FF73012201A9034801F041F8019803B06B
:100590005DF804FB9C05002038B50268094B9A42BF
:1005A00000D038BD084D094C4FF0FF3301222946D9
:1005B000204601F02CF801222946204601F075FA68
:1005C000EFE700BF00480040940500209C05002094
:1005D00072B6FEE700B595B03022002108A801F000
:1005E00063FD0023039304930593069307930193FC
:1005F000184A116C41F080511164126C02F0805263
:100600000192019A0293144A116841F480411160E9
:10061000126802F480420292029A02220892012297
:100620000B9210220C920E9308A800F071FB68B98F
:100630000F2303930021049105910691079103A8CC
:1006400000F0B6FD20B915B05DF804FBFFF7C0FF60
:10065000FFF7BEFF003802400070004008B500F010
:1006600043F9FFF7B7FFFFF76BFF00F093F80122A4
:100670000549064801F019FA054801F0C5FC4FF498
:100680007A7000F05DF9F7E7940500209C050020E2
:100690001437000882B0002100910B4B5A6C42F4D1
:1006A00080425A645A6C02F480420092009A01918E
:1006B0001A6C42F080521A641B6C03F08053019351
:1006C000019B02B0704700BF00380240FEE7FEE722
:1006D000FEE7FEE7FEE770477047704708B500F099
:1006E0001DF908BD08B5024801F082F808BD00BF39
:1006F0009C05002070B50C461646002506E0AFF3B9
:100700000080214601F8010B01350C46B542F6DBAD
:10071000304670BD70B50C461646002504E014F84E
:10072000010BFFF729FF0135B542F8DB304670BDFC
:100730004FF0FF3070474FF400534B60002070477C
:10074000012070470020704710B503460C4A0D4940
:100750000D48006840B10C4800680344521A9342A7
:1007600006D8094A136010BD0748084C0460F2E738
:1007700001F040FD0C2303604FF0FF30F3E700BFB2
:10078000000002200004000098050020000900205D
:100790007047000008B50A480A4B03604FF4E13384
:1007A000436000238360C36003610C224261836164
:1007B000C36100F0FCFE00B908BDFFF709FFFBE7CD
:1007C0009C0500200048004010B588B0002303932A
:1007D00004930593069307930268194B9A4201D03C
:1007E00008B010BD0024019403F5F8331A6C42F4EC
:1007F00080221A641A6C02F480220192019A0294F7
:100800001A6B42F002021A631B6B03F0020302939D
:10081000029B4FF440630393022304930323069344
:100820000723079303A9074800F078F922462146D9
:10083000272000F0EDF8272000F0FAF8D0E700BFFD
:100840000048004000040240DFF834D0FFF7A0FF6A
:100850000C480D490D4A002302E0D458C45004331B
:10086000C4188C42F9D30A4A0A4C002301E01360F1
:100870000432A242FBD301F0C3FCFFF7EFFE704746
:100880000000022000000020780500204837000802
:1008900078050020FC080020FEE7000010B50446A3
:1008A0000E4B1A784FF47A73B3FBF2F30C4A1068CC
:1008B000B0FBF3F000F0C0F868B90F2C01D90120AB
:1008C0000AE0002221464FF0FF3000F0A1F8054B6E
:1008D0001C60002000E0012010BD00BF04000020CB
:1008E000000000200800002008B50B4B1A6842F4F5
:1008F00000721A601A6842F480621A601A6842F440
:1009000080721A60032000F071F80F20FFF7C6FF15
:10091000FFF7C0FE002008BD003C0240034A1168FA
:10092000034B1B780B441360704700BFE4050020A5
:1009300004000020014B1868704700BFE405002048
:1009400038B50446FFF7F6FF0546B4F1FF3F02D085
:10095000044B1B781C44FFF7EDFF401BA042FAD369
:1009600038BD00BF04000020002807DB00F01F0294
:10097000400901239340024A42F82030704700BFEB
:1009800000E100E0002808DB0901C9B200F1604085
:1009900000F5614080F80013704700F00F00090176
:1009A000C9B2014B1954704714ED00E000B500F0D6
:1009B0000700C0F1070CBCF1040F28BF4FF0040C76
:1009C000031D062B0FD9C31E4FF0FF3E0EFA0CF08D
:1009D00021EA000199400EFA03FE22EA0E0241EAE2
:1009E00002005DF804FB0023EEE70000074AD3682D
:1009F00023F4E0631B041B0C000200F4E0600343DB
:100A000043F0BF6343F40033D360704700ED00E070
:100A100010B50446054BD868C0F30220FFF7C6FFA7
:100A200001462046FFF7AEFF10BD00BF00ED00E01D
:100A300008B5FFF799FF08BD0138B0F1807F0BD2F0
:100A40004FF0E0235861054AF02182F8231000207E
:100A5000986107221A6170470120704700ED00E09D
:100A600070B50446866DFFF765FF94F83530DBB24C
:100A7000022B06D080236365002384F834300120E4
:100A800070BD05462268136823F0160313602268C0
:100A9000536923F080035361236CE3B12268136828
:100AA00023F0080313602268136823F00103136026
:100AB00023681B6813F0010F11D0FFF73BFF431BA6
:100AC000052BF5D920236365032084F83500002326
:100AD00084F83430D4E7A36C002BDFD1E3E7E26D78
:100AE0003F239340B360012384F83530002084F81D
:100AF0003400C5E790F83530DBB2022B03D08023F9
:100B0000436501207047052380F83530026813687B
:100B100023F00103136000207047000000230F2B17
:100B200000F2EC8030B583B068E085684FEA430E90
:100B3000032404FA0EF425EA0405CC6804FA0EF442
:100B40002C438460446824EA02044A68C2F3001219
:100B50009A40224342605FE0DC08083450F82420C9
:100B600003F00705AD004FF00F0E0EFA05FE22EA66
:100B70000E0E0A69AA4042EA0E0240F824205FE005
:100B8000072200E0002202FA0EF22A4302345C4DF2
:100B900045F824205B4A94686FEA0C0224EA0C05AD
:100BA000D1F804E01EF4801F01D04CEA0405554C36
:100BB000A560E46802EA0405D1F804E01EF4001F11
:100BC00001D04CEA04054F4CE560646802EA040574
:100BD000D1F804E01EF4003F01D04CEA0405494C72
:100BE0006560246822404D6815F4803F01D04CEACE
:100BF0000402444C226001330F2B7DD801229A401D
:100C00000C6804EA020C32EA0404F4D14C6804F0E3
:100C10000304013C012C88D94A6802F00302032A2C
:100C200009D0C4685D000322AA4024EA02048A684D
:100C3000AA402243C2604A6802F00302022A8BD013
:100C400004684FEA430E032202FA0EF224EA020479
:100C50004A6802F0030202FA0EF2224302604A6876
:100C600012F4403FC7D000220192274A546C44F44A
:100C700080445464526C02F480420192019A9C08B0
:100C8000A51C1F4A52F8255003F0030E4FEA8E0EA2
:100C90000F2202FA0EF225EA02051C4A90423FF4A6
:100CA00071AF02F5806290421AD002F580629042E4
:100CB00018D002F58062904216D002F58062904210
:100CC00014D002F58062904212D002F58062904208
:100CD00010D002F5806290423FF452AF082252E7F2
:100CE000012250E702224EE703224CE704224AE7A2
:100CF000052248E7062246E703B030BD704700BF33
:100D000000380140003C0140003802400000024031
:100D1000002800F0E08170B582B00446036813F04B
:100D2000010F3BD09F4B9B6803F00C03042B2CD08E
:100D30009C4B9B6803F00C03082B21D06368B3F530
:100D4000803F4FD0B3F5A02F52D0964B1A6822F4B3
:100D500080321A601A6822F480221A606368002BBD
:100D600050D0FFF7E7FD05468E4B1B6813F4003F9C
:100D700014D1FFF7DFFD401B6428F5D90320B1E152
:100D8000884B5B6813F4800FD8D0864B1B6813F434
:100D9000003F03D06368002B00F09F81236813F0AD
:100DA000020F54D07F4B9B6813F00C0F3ED07D4B4D
:100DB0009B6803F00C03082B33D0E368002B68D04A
:100DC000794B01221A60FFF7B5FD0546754B1B688C
:100DD00013F0020F54D1FFF7ADFD401B0228F5D9E7
:100DE00003207FE16F4A136843F480331360B5E753
:100DF0006C4B1A6842F480221A601A6842F48032FE
:100E00001A60ABE7FFF796FD0546664B1B6813F4C7
:100E1000003FC3D0FFF78EFD401B6428F5D90320A7
:100E200060E1604B5B6813F4800FC6D15D4B1B68BB
:100E300013F0020F03D0E368012B40F05081594AB0
:100E4000136823F0F803216943EAC10313602368A0
:100E500013F0080F42D063696BB3534B0122C3F800
:100E6000802EFFF767FD05464E4B5B6F13F0020FB8
:100E700034D1FFF75FFD401B0228F5D9032031E193
:100E8000484A136823F0F803216943EAC103136059
:100E9000DDE7454B00221A60FFF74CFD0546414B4C
:100EA0001B6813F0020FD2D0FFF744FD401B02284D
:100EB000F5D9032016E13C4B0022C3F8802EFFF742
:100EC00039FD0546374B5B6F13F0020F06D0FFF775
:100ED00031FD401B0228F5D9032003E1236813F0FC
:100EE000040F77D02F4B1B6C13F0805F33D100239E
:100EF00001932C4B1A6C42F080521A641B6C03F065
:100F000080530193019B0125284B1B6813F4807FBC
:100F100023D0A368012B34D0052B38D0214B1A6F76
:100F200022F001021A671A6F22F004021A67A368FE
:100F3000002B3DD0FFF7FEFC06461A4B1B6F13F04B
:100F4000020F46D1FFF7F6FC801B41F2883398422E
:100F5000F3D90320C6E00025D6E7144A136843F40A
:100F600080731360FFF7E6FC0646104B1B6813F412
:100F7000807FCED1FFF7DEFC801B0228F5D903204D
:100F8000B0E0084A136F43F001031367CFE7054B46
:100F90001A6F42F004021A671A6F42F001021A67D0
:100FA000C5E700BF00380240000047420070004023
:100FB000FFF7C0FC0646524B1B6F13F0020F08D020
:100FC000FFF7B8FC801B41F288339842F3D9032025
:100FD00088E0EDB9A369002B00F08380484A92684D
:100FE00002F00C02082A51D0022B17D0454B0022E8
:100FF0001A66FFF79FFC0446414B1B6813F0007F05
:1010000042D0FFF797FC001B0228F5D9032069E0C6
:101010003B4A136C23F080531364DBE7394B002207
:101020001A66FFF787FC0546354B1B6813F0007FF7
:1010300006D0FFF77FFC401B0228F5D9032051E0C2
:10104000E369226A1343626A43EA8213A26A52087E
:10105000013A43EA0243E26A43EA0263284A5360E0
:10106000284B01221A66FFF765FC0446244B1B68D7
:1010700013F0007F06D1FFF75DFC001B0228F5D9B5
:1010800003202FE000202DE000202BE0012B2BD0AF
:101090001B4B5B6803F48001E269914226D103F0A7
:1010A0003F02216A8A4223D1616A47F6C0721A4020
:1010B000B2EB811F1ED103F44031A26A5208013AFB
:1010C000B1EB024F18D103F07063E26AB3EB026F29
:1010D00014D1002006E001207047012002E0012029
:1010E00000E0002002B070BD0120FBE70120F9E71D
:1010F0000120F7E70120F5E70120F3E70120F1E700
:10110000003802400000474208B5264B9B6803F0B8
:101110000C03042B41D0082B41D1224B5A6802F01A
:101120003F025B6813F4800F12D01E4B5968C1F365
:1011300088111D480023A1FB0001FFF741F8194B5E
:101140005B68C3F3014301335B00B0FBF3F008BD00
:10115000144B5868C0F388104FEA401CBCEB000CDD
:101160006EEB0E0E4FEA8E1343EA9C634FEA8C112E
:10117000B1EB0C0163EB0E03DB0043EA5173C900D2
:1011800011EB000C43F10003990200234FEA8C207D
:1011900041EA9C51FFF714F8D1E70348D7E7034829
:1011A000D5E700BF0038024040787D010024F400FC
:1011B000002800F09B8070B50D4604464F4B1B681D
:1011C00003F007038B4208D2CBB24C4A137013686A
:1011D00003F007038B4240F08B80236813F0020F6B
:1011E00017D013F0040F04D0454A936843F4E0533A
:1011F0009360236813F0080F04D0414A936843F4C6
:10120000604393603E4A936823F0F003A1680B4368
:101210009360236813F0010F32D06368012B21D053
:101220009A1E012A25D9364A126812F0020F61D09F
:1012300033498A6822F0030213438B60FFF77AFB7D
:1012400006462F4B9B6803F00C036268B3EB820FDA
:1012500016D0FFF76FFB801B41F288339842F0D91C
:10126000032042E0264A126812F4003FE0D1012038
:101270003BE0234A126812F0007FD9D1012034E00C
:101280001E4B1B6803F00703AB4207D9EAB21B4BA6
:101290001A701B6803F00703AB422DD1236813F0CB
:1012A000040F06D0164A936823F4E053E1680B4319
:1012B0009360236813F0080F07D0114A936823F452
:1012C0006043216943EAC1039360FFF71DFF0C4BA4
:1012D0009B68C3F303130B4AD35CD8400A4B1860D6
:1012E0000A4B1868FFF7DAFA002070BD012070473A
:1012F0000120FAE70120F8E70120F6E7003C024070
:1013000000380240243700080000002008000020B8
:10131000014B1868704700BF0000002008B5FFF7B8
:10132000F7FF044B9B68C3F38223034AD35CD84086
:1013300008BD00BF003802401C37000808B5FFF7A1
:10134000E7FF044B9B68C3F34233034AD35CD840A6
:1013500008BD00BF003802401C370008026802F1D7
:101360000C0353E8003F23F490730C3242E8003141
:101370000029F3D1026802F1140353E8003F23F07F
:101380000103143242E800310029F3D1036B012B31
:1013900005D0202380F842300023036370470268A1
:1013A00002F10C0353E8003F23F010030C3242E833
:1013B00000310029F3D1ECE790F84130DBB2212B6A
:1013C00001D0022070478368B3F5805F17D0036AAD
:1013D0005A1C02621A7803685A60C38C9BB2013BA4
:1013E0009BB2C3844BB90268D36823F08003D360F7
:1013F0000268D36843F04003D3600020704703695C
:10140000002BE4D1036A1B880268C3F3080353600E
:10141000036A02330362E0E710B504460268136909
:1014200023F44053C1680B431361836802691A4374
:1014300043691A43C3691A430168CB6823F416430E
:1014400023F00C031343CB600268536923F4407309
:1014500081690B4353610368314A934206D002F518
:101460008062934202D0FFF759FF01E0FFF766FF69
:10147000E369B3F5004F29D00021031849411B1837
:1014800041F10001C90041EA5371DB00181863689B
:101490004FEA83024FEA937341F10001FEF790FE99
:1014A000204AA2FB00314909642303FB11031B01FD
:1014B0003233A2FB03235B0903F0F00202EB0112BB
:1014C00003F00F03216813448B6010BD0023021842
:1014D00043EB0301121841F10001C90041EA5271C6
:1014E000D200101841F10001626892185B41FEF7CA
:1014F00067FE0C4AA2FB00314909642303FB110378
:10150000DB003233A2FB03235B095A0002F4F872BA
:1015100002EB011203F00703216813448B60D4E748
:10152000001001401F85EB512DE9F04383B00546C3
:101530000E4617469946DDF828802B681C6836EA67
:1015400004040CBF01240024BC4228D1B8F1FF3FA1
:10155000F3D0FFF7EFF9A0EB0900404523D8B8F12D
:10156000000F22D02B68DA6812F0040FE5D0802E2D
:10157000E3D0402EE1D01A6812F0080FDDD000242D
:1015800001941A6801925B680193019B2846FFF75A
:10159000E5FE08236B6485F84040012000E0002050
:1015A00003B0BDE8F0830320FAE70320F8E760B357
:1015B00010B5044690F8413013B3242384F8413029
:1015C0002268D36823F40053D3602046FFF724FF3A
:1015D0002268136923F4904313612268536923F04E
:1015E0002A0353612268D36843F40053D360002078
:1015F0006064202384F8413084F84230606310BD79
:1016000080F84030FFF7E0F8D7E7012070472DE978
:10161000F04182B01E4690F84130DBB2202B56D10B
:1016200004460D469046002955D00AB901204FE0E6
:1016300000234364212380F84130FFF77BF90746FC
:10164000A4F82480A4F82680A368B3F5805F02D0B4
:101650004FF0000814E023692BB34FF000080FE0AF
:10166000202384F84130032032E038F8023B22681E
:10167000C3F308035360E28C92B2013A92B2E2845F
:10168000E38C9BB293B100963B460022802120461A
:10169000FFF74AFF0028E3D1002DE6D015F8012B13
:1016A00023685A60E7E7A8460025E9E700963B462D
:1016B000002240212046FFF737FF18B9202384F885
:1016C000413005E0202384F84130032000E002206F
:1016D00002B0BDE8F0810120FAE7704708B5016863
:1016E000CA6822F04002CA60202280F84120FFF739
:1016F000F4FF002008BD704708B5806B0023C38548
:10170000C384FFF7F8FF08BD704790F84230DBB2A2
:10171000222B69D18368B3F5805F4FD0826AB3F51D
:10172000805F04D0002B56D10369002B53D103688E
:101730005B681370836A01338362C38D9BB2013B84
:101740009BB2C385002B51D100B583B00268D3682A
:1017500023F02003D3600268D36823F48073D3603E
:101760000268536923F001035361202380F842305B
:1017700000234363036B012B33D10023036302680F
:1017800002F10C0353E8003F23F010030C3242E84F
:1017900000310029F3D103681A6812F0100F06D047
:1017A000002201921A6801925B680193019B818D6E
:1017B000FFF7AAFF002003B05DF804FB0269002ACE
:1017C000ACD1826A03685B68C3F308031380836A41
:1017D00002338362B1E703685B6803F07F03137031
:1017E000A8E7FEF7D9FEE5E7022070470020704722
:1017F00010B582B0044602681368D068516913F0CE
:101800000F0F09D113F0200F0CD010F0200F09D0CA
:101810002046FFF77AFF16E011F0010115D110F410
:10182000907F12D1216B012979D013F0800F03D062
:1018300010F0800F40F0148113F0400F03D010F02F
:10184000400F40F0118102B010BD13F0010F06D01F
:1018500010F4807F03D0626C42F00102626413F0E6
:10186000040F04D019B1626C42F00202626413F0FA
:10187000020F04D019B1626C42F00402626413F0EA
:10188000080F07D010F0200F00D119B1626C42F0A0
:1018900008026264626C002AD5D013F0200F02D0D7
:1018A00010F0200F29D123685B6903F04003626CBC
:1018B00012F0080F00D163B32046FFF74FFD2368F5
:1018C0005B6913F0400F20D0226802F1140353E843
:1018D000003F23F04003143242E800310029F3D1E5
:1018E000E36B73B1624A1A65E06BFFF703F90028F6
:1018F000A9D0E06B036D9847A5E72046FFF705FFE9
:10190000D1E72046FFF7F7FE9DE72046FFF7F3FEFD
:1019100099E72046FFF7EFFE0023636493E713F097
:10192000100F82D010F0100F3FF47FAF002301930F
:101930001368019353680193019B536913F0400F9F
:1019400052D0E26B13685B689BB2002B3FF47BAF15
:10195000A18D99427FF677AFE385D369B3F5807F98
:1019600037D0226802F10C0353E8003F23F4807360
:101970000C3242E800310029F3D1226802F114034D
:1019800053E8003F23F00103143242E800310029FC
:10199000F3D1226802F1140353E8003F23F040031F
:1019A000143242E800310029F3D1202384F8423078
:1019B00000232363226802F10C0353E8003F23F065
:1019C00010030C3242E800310029F3D1E06BFFF73D
:1019D00047F802236363A18DE38D9BB2C91A89B2D4
:1019E0002046FFF791FE2EE7A18DE38D9BB2C91A29
:1019F00089B2E38D9BB2002B3FF425AF00293FF461
:101A000022AF226802F10C0353E8003F23F49073E5
:101A10000C3242E800300028F3D1226802F11403AE
:101A200053E8003F23F00103143242E8003000285D
:101A3000F3D1202384F8423000232363226802F18B
:101A40000C0353E8003F23F010030C3242E800304F
:101A50000028F3D1022363632046FFF755FEF2E628
:101A60002046FFF7A9FCEEE62046FFF737FEEAE640
:101A7000F916000881628285C2850023436422230F
:101A800080F84230036923B10268D36843F480735D
:101A9000D3600268536943F0010353610268D3685D
:101AA00043F02003D3600020704708B590F842301F
:101AB000DBB2202B08D149B10AB9012008BD0023AF
:101AC0000363FFF7D7FFF9E70220F7E70120F5E707
:101AD0002DE9F047089D0E4604460F46002B4AD1DB
:101AE00094468C45B2FA82F260D942B1C2F1200329
:101AF000974020FA03F30CFA02FC1F4394404FEA8C
:101B00001C4E1FFA8CF6B7FBFEF1230C0EFB11776F
:101B100043EA074301FB06F098420AD91CEB030392
:101B200001F1FF3780F01581984240F212810239AD
:101B300063441B1AA4B2B3FBFEF00EFB103344EA5D
:101B4000034400FB06F6A6420AD91CEB040400F18C
:101B5000FF3380F00081A64240F2FD8064440238E9
:101B600040EA0140A41B00211DB1D4400023C5E977
:101B70000043BDE8F0878B4205D90DB1C5E90001EE
:101B800000210846F5E7B3FA83F1002946D1B342B4
:101B900002D3824200F2F580841A66EB0302012030
:101BA0001746002DE5D0C5E90047E2E7002A40F0DE
:101BB0009380A1EB0C034FEA1C471FFA8CFE012116
:101BC000B3FBF7F607FB1630230C43EA00430EFB8A
:101BD00006F0984208D91CEB030306F1FF3802D245
:101BE000984200F2D08046461B1AA4B2B3FBF7F02D
:101BF00007FB103344EA03440EFB00FEA64508D958
:101C00001CEB040400F1FF3302D2A64500F2B680BB
:101C10001846A4EB0E0440EA0640A5E7C1F12007F0
:101C20008B4022FA07FC4CEA030C06FA01FE20FA6C
:101C300007F426FA07F344EA0E0400FA01F84FEA23
:101C40001C404FEA1449B3FBF0FE1FFA8CF600FB70
:101C50001E3349EA03430EFB06F9994502FA01F2E5
:101C60000BD91CEB03030EF1FF3A80F085809945F8
:101C700040F28280AEF1020E6344A3EB0909A4B2E4
:101C8000B9FBF0F300FB139944EA094403FB06F6A1
:101C9000A64208D91CEB040403F1FF3068D2A64227
:101CA00066D9023B644443EA0E40A41BA0FB02E653
:101CB000B4427346B14652D34FD05DB1B8EB030284
:101CC00064EB090404FA07F722FA01F31F43CC403E
:101CD000C5E9007400214CE7C2F1200120FA01F3AC
:101CE0000CFA02FC26FA01F1964033434FEA1C47F6
:101CF0001FFA8CFEB1FBF7F007FB1016190C41EA36
:101D0000064100FB0EF68E4204FA02F408D91CEBE1
:101D1000010100F1FF382DD28E422BD902386144E7
:101D2000891B9BB2B1FBF7F607FB161143EA01438F
:101D300006FB0EF1994208D91CEB030306F1FF38AC
:101D400014D2994212D9023E63445B1A46EA00411A
:101D500036E73946EDE6184602E7F045ADD2BEEB70
:101D6000020366EB0C060138B146A6E74646ECE7EF
:101D7000034698E74046D3E7D6467EE764440238F8
:101D800047E708460DE7023E63442DE7024A034950
:101D9000034800F0C9B800BF0C000020AD2A0008BD
:101DA000200000200C4B4168994210B5044601D038
:101DB00000F07CFEA168094B994202D0204600F059
:101DC00075FEE168064B994204D02046BDE81040FC
:101DD00000F06CBE10BD00BFE805002050060020DA
:101DE000B80600202DE9F843314A324C3249DFF879
:101DF000CC90DFF8CC80334F1160002504232946B6
:101E0000082204F15C00C4E903352F4EA560C4E943
:101E10000055C4E90555656600F046F904F158001F
:101E2000C4E90749C4E90987E66200F011FA2946C6
:101E3000264B6367082204F1C400C4E91A55C4E9BB
:101E40001E552567C4F8CC50C4F8805000F02CF91A
:101E500004F1680304F1C000C4F88430C4E9229896
:101E6000C4E9247600F0F4F9194BC4F8DC302946B3
:101E700004F596700822C4E93455C4E93855C4F80D
:101E8000D850C4F83451C4F8E85000F00DF904F10A
:101E9000D003C4E93D87C4F8F09004F59470C4F809
:101EA000FC60C4F8EC30BDE8F84300F0D1B900BFE5
:101EB00020070020E80500208D1D000819200008DB
:101EC0003D2000087D200008A12000080900010035
:101ED0001200020010B504460A4800F0BDF9636B19
:101EE00023B9094B094A1B68626323B1BDE810405E
:101EF000044800F0B3B9FFF775FFBDE81040014892
:101F000000F0ACB93007002020070020A51D000814
:101F1000014800F0A1B900BF30070020014800F0DF
:101F20009DB900BF300700202DE9F84307468846D9
:101F300016464FF00009D6E90154013D10D4A3899B
:101F4000012B08D9B4F90E3001332146384602D0AE
:101F5000C04749EA0009013D6B1C04F16804EED159
:101F60003668002EE7D14846BDE8F88370B50546CF
:101F700088B008460C46FEF743F9224E6A6B05907E
:101F800001214318CDE9066104A8022104940393BA
:101F9000AC68019002916AB3636EB4F90C20D90762
:101FA00001D496051FD5900405D442F4005223F4C1
:101FB0000053A2816366990420D401AA21462846D1
:101FC00000F092FE636EC8B90A25DA0702D4A3892D
:101FD0009B0502D5284608B070BDA06D00F03EF903
:101FE000284608B070BDA06D00F036F9B4F90C2099
:101FF000636ED8E72846FFF76DFFCDE74FF0FF355A
:10200000E3E700BF18370008024B01461868FFF7E6
:10201000ADBF00BF1800002010B50C46B1F90E107E
:1020200000F0BCF8002803DB236D0344236510BDDA
:10203000A38923F48053A38110BD00BF2DE9F04193
:102040000C46B1F90C101F46CB05054616460BD4BD
:1020500021F48051A1813B46B4F90E103246284646
:10206000BDE8F04100F0B0B8B4F90E100223002230
:1020700000F07EF8B4F90C10EAE700BF10B50C468A
:10208000B1F90E1000F074F8B4F90C30421C0EBF18
:1020900023F4805343F480532065A38110BD00BF17
:1020A000B1F90E1000F052B8830730B547D0541E76
:1020B000002A3ED0CAB2034601E0013C39D303F8FE
:1020C000012B9D07F9D1032C2CD9CDB205EB0525A9
:1020D0000F2C05EB054535D9A4F1100222F00F0CA9
:1020E00003F1100EE6444FEA121C1A46C2E90055ED
:1020F000C2E9025510327245F8D10CF1010214F018
:102100000C0F03EB021204F00F0C13D0ACF104031C
:1021100023F003030433134442F8045B9342FBD1DE
:102120000CF003042CB1C9B21C4403F8011BA342F8
:10213000FBD130BD64461346002CF4D1F9E70346C9
:102140001446C0E71A46A446E0E700BF38B5074D7D
:102150000022044608462A60FEF7EAFA431C00D033
:1021600038BD2B68002BFBD0236038BD240700202E
:1021700038B50C46084D8446114620461A460023C1
:102180002B606446FEF7DEFA431C00D038BD2B6896
:10219000002BFBD0236038BD2407002038B50C4647
:1021A000084D8446114620461A4600232B6064469B
:1021B000FEF7A0FA431C00D038BD2B68002BFBD0E3
:1021C000236038BD2407002038B50C46084D8446EE
:1021D000114620461A4600232B606446FEF79AFA01
:1021E000431C00D038BD2B68002BFBD0236038BDCA
:1021F00024070020014B1868704700BF180000201A
:1022000070B50F4B0F4DAB42A3EB050607D0B610D0
:10221000002455F8043B01349847A642F9D801F050
:102220006DFA094D094B5E1BAB424FEAA60606D07C
:10223000002455F8043B01349847A642F9D870BDF4
:102240003C3700083C3700083C370008443700089A
:10225000704700BF704700BF704700BF704700BFA6
:10226000024B13B1024800F005B8704700000000AF
:10227000C9310008002301461A46184600F0C6BFBF
:102280002DE9F84306460820894600F0B1FFDFF843
:102290009C800546304600F0FDFBD8F808305F68AA
:1022A00027F00307A7F11104A4EB09042C44B4FBA5
:1022B000F5F4013C05FB04F4A54208DC002130469E
:1022C00000F070FFD8F808303B44984205D0304603
:1022D00000F0E6FB0020BDE8F8836142304600F0E4
:1022E00061FF01300FD0124AD8F808303F1B47F089
:1022F00001075F60136830461B1B136000F0D0FBC2
:102300000120BDE8F8830021304600F04BFFD8F8EB
:102310000820831A0F2BDADD43F001035360054BCD
:1023200003491B68C01A0860D1E700BF7001002094
:10233000380700206401002000297CD0F8B50C4645
:10234000064600F0A7FB54F8043C764FA4F10805BC
:1023500023F001016818D7F808C04268844522F0CC
:10236000030200F08380DB07426000EB020C33D4F1
:1023700054F8084CDCF804302D1B2144AC6807F1FC
:10238000080C644503F0010364D0D5F80CE0C4F8F0
:102390000CE0CEF80840002B00F0818041F00103F2
:1023A0006B600160B1F5007F22D27868CB08012212
:1023B000490901338A40024357F833107A6007EB2A
:1023C000C302083AC5E9021247F83350CD603046DF
:1023D000BDE8F84000F064BBDCF80430DB072BD527
:1023E00041F00103B1F5007F44F8043C0160DCD307
:1023F000B1F5206F4FEA512353D28B0903F1390015
:1024000003F13802C300F818FB580838984203D18A
:1024100061E09B68984204D05A6822F003028A4225
:10242000F7D8D868C5E902308560DD603046BDE880
:10243000F84000F035BB7047114407F1080C836881
:1024400063453FD0C268DA60936041F001036B607E
:102450006950A7E7002B5FD10A44D0E90213CB6093
:10246000996042F001036B60AA50B0E70A44D907B3
:1024700007D454F8083CED1A1A44D5E90213CB608E
:10248000996042F001036B60274BBD601B6893426B
:102490009DD8264B30461968FFF7F2FE97E71144A6
:1024A000CDE7142B08D9542B1DD80B0B03F16F006B
:1024B00003F16E02C300A6E703F15C0003F15B02C7
:1024C000C300A0E741F00103C7E90455C5E902CC08
:1024D0006B6069507BE779689210012404FA02F27C
:1024E0000A437A609EE7B3F5AA7F06D8CB0B03F1C7
:1024F000780003F17702C30085E740F2545293421B
:1025000006D88B0C03F17D0003F17C02C3007AE74F
:102510004FF47E737E2276E741F001036B60016029
:1025200055E700BF70010020680100206807002007
:102530002DE9F04F01F10B05162D83B0064623D887
:10254000102900F2AF8000F0A5FA10251823022010
:10255000B74F3B44A3F108025C68944200F01F812E
:102560006368E268A16823F00303CA60234430462D
:1025700091605A6842F001025A6000F091FA083402
:10258000204603B0BDE8F08F35F0070500F18A80E2
:10259000A94200F2878000F07DFAB5F5FC7FC0F01B
:1025A0006E816B0A00F08280042B00F21E81AB0961
:1025B00003F1390003F1380EC3009D4F3B44A3F1F2
:1025C000080C5C68A44507D10DE0002AE16880F2A0
:1025D000E0808C4507D00C46636823F003035A1B48
:1025E0000F2AF2DD7046DFF84C823C69444500F06A
:1025F000BD80636823F0030CACEB05030F2B00F3E5
:102600004281002BC7E9048880F22D81BCF5007F50
:10261000D7F804E080F0C9804FEADC0101314FEACD
:102620005C1C012303FA0CF357F83120A2604EEA38
:10263000030E07EBC103083BE360C7F804E047F86B
:102640003140D46083104FF0010C0CFA03FCF445C8
:1026500032D81CEA0E0F08D120F003004FEA4C0CD0
:102660001CEA0E0F00F10400F8D007EBC00AD646B2
:102670008146DEF80C300BE0596821F003014A1B5B
:102680000F2A1C46DB6800F3BC80002A80F2DE8043
:102690009E45F1D109F1010919F0030F0EF1080E61
:1026A000E7D119E10C233360002469E74FF400738C
:1026B00040204FF03F0E80E7BC68636823F00309B9
:1026C000A94503D3A9EB05030F2B52DC5A4B1B681A
:1026D000082003F1100804EB0903009300F088FDC3
:1026E000564A13680133A844834605D008F1FF38E1
:1026F0008044434203EA08084146304600F052FD58
:10270000B0F1FF3F4D4A824600F0D88004EB090348
:10271000834200F2D1804A4B186840440BF1FF31EC
:102720001860844640F0FB801AEA010F40F0F78001
:10273000D7F808A0C84448F00102CAF80420414B69
:102740001968814238BF18603F4B1968814238BF11
:102750001860544622F00308A845A8EB050301D3EE
:102760000F2B06DC304600F09BF99DE7D7F804E01C
:1027700068E7621943F0010345F0010565603046E2
:10278000BA60536000F08CF90834204603B0BDE80D
:10279000F08FA2682344D16030468A60E9E6DC68A5
:1027A000A3427FF4DDAE02301DE7BCF5206F4FEA97
:1027B0005C227AD3142A00F2128102F15C03DB005E
:1027C0005B32F918FB580839994203D1ECE09B6859
:1027D000994204D05A6822F003026245F7D8D968BA
:1027E000C4E902318C60DC602CE7142B69D9542BCE
:1027F00000F2FE802B0B03F16F0003F16E0EC3009D
:10280000DBE6D4F808C03046661945F0010565607E
:10281000CCF80C30C3F808C042F00103C7E90466E5
:10282000C6E902887360625000F03AF90834A7E6FE
:10283000700100207801002068070020640100205A
:10284000380700206407002060070020214430463C
:102850004A6842F001024A6054F8082FD3609A6037
:1028600000F01EF98CE6A4443046DCF8043043F056
:102870000103CCF8043000F013F9083480E6E808CE
:1028800005F1080364E6621943F0010145F0010512
:1028900065603046C7E90422C2E90288516044F805
:1028A0000C3000F0FDF808346AE64FEA9C1202F1A1
:1028B0003903DB00383284E7BC4228D0BC68626848
:1028C00048E703F15C0003F15B0EC30075E65AF8BC
:1028D0000839534540F0DA8010F0030F00F1FF3063
:1028E000F5D17B6823EA0C037B604FEA4C0C9C45D6
:1028F0003FF6E2AEBCF1000F04D1DDE64FEA4C0C2E
:1029000009F104091CEA030FF8D04846ADE6604B14
:10291000186808EB000C0BF1FF31C3F800C0106819
:1029200001306FD004EB0902AAEB020262441A6084
:102930001AF00702CDE9002340D0C2F10802924408
:10294000D04408EA01005A44121A02EA010B59461F
:10295000304600F027FC421C019B6FD0A0EB0A0020
:1029600000EB0B081868C7F808A048F001025844AB
:10297000BC42CAF8042018603FF4E1AEB9F10F0F71
:1029800043D96168A9F10C0222F0070201F00101AC
:10299000114361604FF0050CA1180F2AC1E901CC69
:1029A00054D8DAF80420CAE692104FF0010C0CFA61
:1029B00002F24EEA020EC7F804E011E70AEB080241
:1029C0000A40ABEB020202EA010B5946304600F026
:1029D000E9FB431C019BC1D1DDF800B0C2E7542ADA
:1029E00017D84FEA1C3202F16F03DB006E32E8E6C3
:1029F000B3F5AA7F17D8EB0B03F1780003F1770E3C
:102A0000C300DAE5C2F800A092E70123CAF8043057
:102A1000A8E6B2F5AA7F24D84FEADC3202F17803A7
:102A2000DB007732CDE640F25452934224D8AB0C0F
:102A300003F17D0003F17C0EC300BEE5009A083A65
:102A40009044A8EB0A084FF0000B8BE7304604F1E6
:102A500008010093FFF770FC009BD7F808A01868E6
:102A60009FE740F254539A420CD84FEA9C4202F13D
:102A70007D03DB007C32A4E64FF47E737F204FF0B1
:102A80007E0E9AE54FF47E737E229AE67B682CE7F1
:102A9000380700200148FFF7DFBB00BF28070020F0
:102AA0000148FFF7DBBB00BF2807002070B50029F5
:102AB0003FD006460C4610B1436B002B3CD0636EF2
:102AC000B4F90C20DD0732D4900538D521463046C4
:102AD00000F04CF8E36A054633B1E16930469847A7
:102AE0000028B8BF4FF0FF35A3891A0639D4216BEF
:102AF00041B104F14003994202D03046FFF71CFC7B
:102B000000232363616C21B13046FFF715FC0023DD
:102B10006364FFF7FDF9636E0022DB07A2811CD519
:102B2000A06DFFF797FBFFF7F9F9284670BD002A63
:102B3000CCD10025284670BDFFF7CCF9BFE7A06DCA
:102B4000FFF78AFBB4F90C30002BBFD1636ED907B5
:102B5000EFD4A06DFFF782FBEBE7A06DFFF77EFBE4
:102B6000DEE721693046FFF7E7FBC0E7B1F90C204B
:102B7000F8B516070C46074649D4496842F4006385
:102B80000029A3815FDDA56A002D3ED0002112F44B
:102B900080523E683960E16961D101233846A84717
:102BA000451C02466BD0B4F90C30A56AE1695807A0
:102BB00005D56368D21A236B0BB1E36BD21A0023DD
:102BC0003846A847411C4CD13968B4F90C301D294E
:102BD0003FD82F4ACA40D2073BD52269226023F44E
:102BE0000062A281DD044FF00002626001D500297D
:102BF00043D0216B3E6041B104F14003994202D0C1
:102C00003846FFF799FB002323630020F8BD0E69C7
:102C1000002EFAD00D680E6092070CBF4B6900239E
:102C2000AD1B8B600CE0D4F824C0E1692B46324622
:102C30003846E047B0F1000CA5EB0C05664406DD14
:102C4000002DF0DCE1E7E16B00299CDCDDE7B4F965
:102C50000C3043F04003A3814FF0FF30F8BD226DEC
:102C6000A5E7B4F90C302269226023F40062A28146
:102C7000DB044FF000026260BBD52065B9E73B681A
:102C8000002B90D01D2B01D0162BE0D13E60BCE76D
:102C90000100402038B50C46054608B1436B03B32C
:102CA000B4F90C0088B1636EDB0701D481050FD540
:102CB00028462146FFF75AFF636EDA07054602D41D
:102CC000A3899B0508D5284638BD0546284638BD4A
:102CD000A06DFFF7C1FAEBE7A06DFFF7BFFA28463A
:102CE00038BDFFF7F7F8DBE79368002B00F0F680BC
:102CF0002DE9F04FB1F90CC01CF0080F83B09046DD
:102D000081460C4631D00B697BB31CF00207D8F822
:102D1000006038D00027D4F824B0E169DFF8BCA205
:102D20003D4655452B463A4628BF53464846C5B111
:102D3000D847002840F3C880D8F808301B1A074449
:102D40002D1AC8F80830002B00F0B48055452B46EA
:102D5000D4F824B0E16928BF53463A464846002DCE
:102D6000E6D1D6E900750836DBE72146484600F093
:102D700037F9002840F0AD80B4F90CC0D8F80060F5
:102D80001CF00207C6D11CF0010A63D12368A168B8
:102D9000574618468B46002F58D01CF4007F00F091
:102DA000B180B9420A4600F2DD801CF4906F2FD04A
:102DB000216962695D1A02EB420202EBD2726B1C5E
:102DC00052103B44934292BF93469B461A461CF4D2
:102DD000806F00F0E68011464846FFF7A9FB002807
:102DE00000F0F5802A4621690190FDF7C9FAA28911
:102DF000019B22F4906242F08002A2815819ABEB51
:102E00000505C4F814B02361A5602060BB463A46AE
:102E10005146019200F046F9A1682368019AA1EB9E
:102E20000B011A443D46A16022600027D8F8083003
:102E30005B1BAA44C8F80830002B3BD02368A1686C
:102E4000B4F90CC018468B46002FA6D1D6E900A7CE
:102E500008369EE73846BB463D46002D40D0002848
:102E600045D03A46D4E904C32068A168AA4228BFE5
:102E70002A46604504D901EB030A524500F38280DB
:102E8000934272DCE169D4F824C05A464846E047D0
:102E9000B0F1000A18DDB7EB0A070FD00120D8F80F
:102EA0000830A3EB0A03D344A5EB0A05C8F80830A1
:102EB000002BD2D1002003B0BDE8F08F2146484658
:102EC000FFF7E8FE0028EAD0B4F90C3043F04003E5
:102ED000A3814FF0FF3003B0BDE8F08F00207047B2
:102EE000756833460836002DFAD0D3F800B02A466C
:102EF0000A215846FDF7F4F9002865D00130A0EB0F
:102F00000B07AEE722699A4214D36269BA4211D81C
:102F10006FF00043BB4228BF3B46656A93FBF2F368
:102F2000E16902FB03F348465246A847051ECBDD84
:102F30007F1B7BE7B94228BF39460D4618460A4633
:102F4000514600F0AFF8A1682368491B2B44A160EB
:102F500023600029ECD121464846FFF79BFE00285C
:102F6000E6D0B1E7BB463A4652E75946019200F037
:102F700099F8019AA3689B1AA360236813442360FD
:102F8000924688E75946524600F08CF8236853442D
:102F9000236021464846FFF77DFE00283FF47BAFC3
:102FA00092E7484600F072F9034600287FF426AF06
:102FB00021694846FFF7C0F9B4F90C300C22C9F872
:102FC000002023F0800381E76A1C17464AE70C22A1
:102FD000B4F90C30C9F8002078E700BF00FCFF7F8F
:102FE00038B52F4B1B6805460C4613B15A6B002AA7
:102FF0004BD0B4F90C3018071CD5226922B313F05A
:10300000010107D0616900204942A060A1613AB185
:10301000002038BD980758BF6169A160002AF7D128
:10302000190658BF1046F4D543F04003A3814FF072
:10303000FF3038BDD9062CD55A0712D4226943F087
:103040000803A381002ADAD103F42071B1F5007FCF
:10305000D5D02146284600F0BBFAB4F90C302269DD
:10306000CDE7216B51B104F14002914204D02846D2
:10307000FFF762F9B4F90C300022226322690021C3
:10308000C4E9002123F02403D9E71846FEF722FF04
:10309000AFE7092243F040032A60A381C7E700BFDE
:1030A0001800002088420ED98B1883420BD900EB00
:1030B000020C002A6ED0624613F801CD02F801CD51
:1030C0009942F9D170470F2A0FD8034602F1FF3C0D
:1030D000002A5FD00CF1010C013B8C4411F8012B4C
:1030E00003F8012F6145F9D1704740EA01039B07BE
:1030F00051D1A2F1100370B501F1200C23F00F059E
:1031000001F1100E00F11004AC441B095EF8105CD4
:1031100044F8105C5EF80C5C44F80C5C5EF8085CEB
:1031200044F8085C5EF8045C44F8045C0EF1100E90
:10313000E64504F11004E9D1013312F00C0F01EB64
:10314000031102F00F0400EB031328D0043C24F019
:1031500003064FEA940C1E441C1F8E465EF8045B67
:1031600044F8045FB442F9D10CF1010402F0030207
:1031700003EB840301EB840102F1FF3C4AB10CF143
:10318000010C013B8C4411F8012B03F8012F614520
:10319000F9D170BD704702F1FF3C03469AE7224621
:1031A000EAE700BF38B5074D0022044608462A600A
:1031B000FDF7CAFA431C00D038BD2B68002BFBD0AA
:1031C000236038BD2407002038B5074D074C2C1B61
:1031D000A41005D0013C55F8043D9847002CF9D1C6
:1031E000BDE8384000F090BA48370008443700087E
:1031F000082802D14FF48050704708B5FEF7FAFF57
:10320000162303604FF0FF3008BD00BF2DE9F843DF
:103210001B4D0646286898460F469146FFF71CF856
:10322000184B1C681CB3286865681F2D22DC4EB93A
:103230006B1C0235636044F82570FFF70FF800201F
:10324000BDE8F88304EB85010123C1F88890D4F828
:103250008821AB401A43022EC4F88821C1F80881A6
:10326000E6D1D4F88C211A43C4F88C21E0E7064C4F
:103270001C60D8E7FEF7F2FF4FF0FF30E0E700BF39
:1032800060010020340700206C0700202DE9F84F72
:103290001646002900F096800C46804606F10B0584
:1032A000FFF7F8FB54F8041C162DA4F1080921F0CF
:1032B000030758D81025AE4258D8AF4260DABE4B4B
:1032C0009A6809EB070C6245DCF8040000F0908076
:1032D00020F0010363445B68DB0768D420F003003F
:1032E0003B189D4247DDCB0712D454F8083CA9EBAC
:1032F000030BDBF8043023F00302104400EB070A51
:10330000554540F3F68007EB020A554540F3CC8063
:1033100031464046FFF70CF90646002800F02081B0
:1033200054F8043C23F001034B44A0F108029342FB
:1033300000F0B4803A1F242A00F2D780132A00F24A
:10334000A28003462246116819605168596092684C
:103350009A6021464046FEF7EFFF4046FFF7A0FB8C
:103360003046BDE8F88F35F00705A4D50C23C8F822
:103370000030002618E01F46DCE90223D3609A6083
:10338000D9F804307A1B0F2A03F0010309EB070078
:103390001DD83B43C9F80430436843F00103436040
:1033A0004046FFF77DFB26463046BDE8F88FC9074B
:1033B000AED454F8083CA9EB030BDBF8043023F03F
:1033C0000302A0E7BDE8F84F1146FFF7B1B809EBDB
:1033D00005012B4342F00102C9F804304A604368FA
:1033E00043F00103436008314046FEF7A5FFD7E7ED
:1033F00020F00300C21905F1100C624580F29180A3
:10340000CA0785D454F8082CA9EB020BDBF804207A
:1034100022F00302104400EB070AD4453FF773AFD4
:103420005E46DBF80C1056F8080F3A1F242AC160DC
:10343000886000F2AE80132A40F2A9802168CBF8A0
:1034400008106168CBF80C101B2A00F2A880083421
:103450000BF110022168116061685160A1689160F0
:103460000BEB0501AAEB050242F0010299604A60EC
:10347000DBF8043003F001032B434046CBF8043063
:10348000FFF70EFB90E723680360636843601B2A25
:103490003CD804F1080200F1080354E750F8043C5A
:1034A00023F003031F446BE73A1F5E46DBF80C3042
:1034B00056F8081F242ACB60996022D8132A1ED9F7
:1034C0002368CBF808306368CBF80C301B2A3BD854
:1034D00008340BF1100322681A6062685A60A2680F
:1034E0009A6034465746D9464AE72146FFF7DAFD47
:1034F0002FE7DCE902133A1FCB609960D5E733462A
:10350000E9E721463046FFF7CDFDEAE7A36883608F
:10351000E368C360242A27D004F1100200F11003ED
:1035200011E709EB05019960531B43F001034B6060
:1035300054F8043C03F001032B43404644F8043C98
:10354000FFF7AEFA26462FE7A368CBF81030E36802
:10355000CBF81430242A10D010340BF11803BAE73A
:103560004046FFF79DFA04E7236903616169416101
:1035700004F1180200F11803E5E62369CBF81830CE
:103580006369CBF81C3018340BF12003A3E73246F3
:1035900060E721463046FFF785FD074B60E7A168ED
:1035A000CBF81010E168CBF81410242A06D01034A0
:1035B0000BF118024EE700BF700100202269CBF822
:1035C00018206269CBF81C2018340BF1200241E767
:1035D0002DE9F041B1F90C300C46990796B008D5A9
:1035E00004F143030122C4E90432236016B0BDE8AC
:1035F000F081B4F90E100029064626DB6A4600F079
:1036000055F800281FDB019D05F47045A5F5005510
:10361000B5FA85F54FF480686D094FF400674146AF
:103620003046FEF785FFE8B1B4F90C30C4F81480D9
:1036300043F0800320602061A3813DBB3B43A38115
:1036400016B0BDE8F081B4F90C3013F0800519D044
:103650004FF040080025414630462F46FEF768FFF0
:103660000028E1D1B4F90C309A05BFD423F003034C
:1036700004F1430243F002030121C4E90421A381C0
:103680002260B3E74FF480682F46C8E7B4F90E1004
:10369000304600F021F810B9B4F90C30CEE7A38918
:1036A00023F0030343F001031BB2C7E770B50C46D8
:1036B000084D03460026204611461C462E60FDF7A5
:1036C0003AF8431C00D070BD2B68002BFBD0236060
:1036D00070BD00BF2407002038B5074D0022044606
:1036E00008462A60FDF72CF8431C00D038BD2B6833
:1036F000002BFBD0236038BD24070020F8B500BFA5
:10370000F8BC08BC9E467047F8B500BFF8BC08BCC2
:043710009E4670471A
:1037140031200D000A000000000000000102030433
:10372400000000000000000001020304060708096D
:08373400CCCAFF7F0100000078
:08373C00612200081D050008D0
:04374400F504000880
:103748000024F40001000000100000000000000048
:1037580003000000E8050020200000200000000011
:1037680000000000E805002050060020B8060020F0
:103778000000000000000000000000000000000041
:103788000000000000000000000000000000000031
:103798000000000000000000000000000000000021
:1037A8000000000000000000000000000000000011
:1037B8000000000000000000000000000000000001
:1037C80000000000000000000000000000000000F1
:1037D80000000000000000000000000000000000E1
:1037E80000000000000000000000000000000000D1
:1037F80000000000000000000100000000000000C0
:103808000E33CDAB34126DE6ECDE05000B00000084
:1038180000000000000000000000000000000000A0
:103828000000000000000000000000000000000090
:103838000000000000000000000000000000000080
:103848000000000000000000000000000000000070
:103858000000000000000000000000000000000060
:103868000000000000000000000000000000000050
:103878000000000000000000000000000000000040
:103888000000000000000000000000000000000030
:103898000000000000000000000000000000000020
:1038A8002C070020FFFFFFFF0000020000000000BF
:1038B80000000000000000007001002070010020DE
:1038C800780100207801002080010020800100207C
:1038D800880100208801002090010020900100202C
:1038E8009801002098010020A0010020A0010020DC
:1038F800A8010020A8010020B0010020B00100208C
:10390800B8010020B8010020C0010020C00100203B
:10391800C8010020C8010020D0010020D0010020EB
:10392800D8010020D8010020E0010020E00100209B
:10393800E8010020E8010020F0010020F00100204B
:10394800F8010020F80100200002002000020020F9
:1039580008020020080200201002002010020020A7
:103968001802002018020020200200202002002057
:103978002802002028020020300200203002002007
:1039880038020020380200204002002040020020B7
:103998004802002048020020500200205002002067
:1039A8005802002058020020600200206002002017
:1039B80068020020680200207002002070020020C7
:1039C8007802002078020020800200208002002077
:1039D8008802002088020020900200209002002027
:1039E8009802002098020020A0020020A0020020D7
:1039F800A8020020A8020020B0020020B002002087
:103A0800B8020020B8020020C0020020C002002036
:103A1800C8020020C8020020D0020020D0020020E6
:103A2800D8020020D8020020E0020020E002002096
:103A3800E8020020E8020020F0020020F002002046
:103A4800F8020020F80200200003002000030020F4
:103A580008030020080300201003002010030020A2
:103A68001803002018030020200300202003002052
:103A78002803002028030020300300203003002002
:103A880038030020380300204003002040030020B2
:103A98004803002048030020500300205003002062
:103AA8005803002058030020600300206003002012
:103AB80068030020680300207003002070030020C2
:103AC8007803002078030020800300208003002072
:103AD8008803002088030020900300209003002022
:103AE8009803002098030020A0030020A0030020D2
:103AF800A8030020A8030020B0030020B003002082
:103B0800B8030020B8030020C0030020C003002031
:103B1800C8030020C8030020D0030020D0030020E1
:103B2800D8030020D8030020E0030020E003002091
:103B3800E8030020E8030020F0030020F003002041
:103B4800F8030020F80300200004002000040020EF
:103B5800080400200804002010040020100400209D
:103B6800180400201804002020040020200400204D
:103B780028040020280400203004002030040020FD
:103B880038040020380400204004002040040020AD
:103B9800480400204804002050040020500400205D
:103BA800580400205804002060040020600400200D
:103BB80068040020680400207004002070040020BD
:103BC800780400207804002080040020800400206D
:103BD800880400208804002090040020900400201D
:103BE8009804002098040020A0040020A0040020CD
:103BF800A8040020A8040020B0040020B00400207D
:103C0800B8040020B8040020C0040020C00400202C
:103C1800C8040020C8040020D0040020D0040020DC
:103C2800D8040020D8040020E0040020E00400208C
:103C3800E8040020E8040020F0040020F00400203C
:103C4800F8040020F80400200005002000050020EA
:103C58000805002008050020100500201005002098
:103C68001805002018050020200500202005002048
:103C780028050020280500203005002030050020F8
:103C880038050020380500204005002040050020A8
:103C98004805002048050020500500205005002058
:103CA8005805002058050020600500206005002008
:083CB8006805002068050020EA
:04000005080008499E
:00000001FF
