:020000040800F2
:100000000000022031130008951100089711000824
:10001000991100089B1100089D11000800000000C4
:100020000000000000000000000000009F11000818
:10003000A111000800000000A3110008A51100088C
:100040008113000881130008811300088113000840
:100050008113000881130008811300088113000830
:100060008113000881130008811300088113000820
:100070008113000881130008811300088113000810
:10008000811300088113000881130008AD110008D6
:10009000BD110008811300088113000881130008B6
:1000A00081130008811300088113000881130008E0
:1000B00081130008811300088113000881130008D0
:1000C00081130008811300088113000881130008C0
:1000D00081130008CD110008811300088113000866
:1000E00081130008811300088113000881130008A0
:1000F0008113000881130008811300088113000890
:10010000811300088113000881130008811300087F
:10011000811300088113000881130008811300086F
:10012000811300088113000881130008811300085F
:10013000811300088113000881130008811300084F
:10014000811300088113000881130008811300083F
:10015000811300088113000881130008811300082F
:10016000811300088113000881130008811300081F
:1001700081130008811300088113000800000000AB
:0801800081130008811300083F
:1001C0004FF0FF0C1CEAD0521EBF1CEAD15392EA3A
:1001D0000C0F93EA0C0F6FD01A4480EA010C400216
:1001E00018BF5FEA41211ED04FF0006343EA501070
:1001F00043EA5111A0FB01310CF00040B1F5000FB2
:100200003EBF490041EAD3715B0040EA010062F160
:100210007F02FD2A1DD8B3F1004F40EBC25008BF4A
:1002200020F00100704790F0000F0CF0004C08BF68
:1002300049024CEA502040EA51207F3AC2BFD2F135
:10024000FF0340EAC250704740F400004FF0000343
:10025000013A5DDC12F1190FDCBF00F0004070477D
:10026000C2F10002410021FA02F1C2F1200200FABB
:1002700002FC5FEA310040F1000053EA4C0308BF82
:1002800020EADC70704792F0000F00F0004C02BFD3
:10029000400010F4000F013AF9D040EA0C0093F04E
:1002A000000F01F0004C02BF490011F4000F013BA8
:1002B000F9D041EA0C018FE70CEAD15392EA0C0F16
:1002C00018BF93EA0C0F0AD030F0004C18BF31F081
:1002D000004CD8D180EA010000F00040704790F057
:1002E000000F17BF90F0004F084691F0000F91F0FB
:1002F000004F14D092EA0C0F01D142020FD193EAC1
:100300000C0F03D14B0218BF084608D180EA010048
:1003100000F0004040F0FE4040F40000704740F024
:10032000FE4040F44000704780F0004002E000BF13
:1003300081F0004142001FBF5FEA410392EA030FD0
:100340007FEA226C7FEA236C6AD04FEA1262D2EB1A
:100350001363C1BFD218414048404140B8BF5B421F
:10036000192B88BF704710F0004F40F4000020F0B8
:100370007F4018BF404211F0004F41F4000121F0CE
:100380007F4118BF494292EA030F3FD0A2F1010218
:1003900041FA03FC10EB0C00C3F1200301FA03F156
:1003A00000F0004302D5494260EB4000B0F5000F79
:1003B00013D3B0F1807F06D340084FEA310102F138
:1003C0000102FE2A51D2B1F1004F40EBC25008BFEA
:1003D00020F0010040EA03007047490040EB0000B4
:1003E000013A28BFB0F5000FEDD2B0FA80FCACF1B5
:1003F000080CB2EB0C0200FA0CF0AABF00EBC250E2
:1004000052421843BCBFD0401843704792F0000FCF
:1004100081F4000106BF80F400000132013BB5E722
:100420004FEA41037FEA226C18BF7FEA236C21D098
:1004300092EA030F04D092F0000F08BF08467047FD
:1004400090EA010F1CBF0020704712F07F4F04D1CB
:10045000400028BF40F00040704712F100723CBFDE
:1004600000F50000704700F0004343F0FE4040F408
:10047000000070477FEA226216BF08467FEA2363C6
:100480000146420206BF5FEA412390EA010F40F4B1
:10049000800070474FF0000304E000BF10F00043FD
:1004A00048BF40425FEA000C08BF704743F09643E4
:1004B00001464FF000001CE050EA010208BF7047FF
:1004C0004FF000030AE000BF50EA010208BF704786
:1004D00011F0004302D5404261EB41015FEA010C9B
:1004E00002BF84460146002043F0B64308BFA3F193
:1004F0008053A3F50003BCFA8CF2083AA3EBC25375
:1005000010DB01FA02FC634400FA02FCC2F1200293
:10051000BCF1004F20FA02F243EB020008BF20F0CA
:100520000100704702F1200201FA02FCC2F1200230
:1005300050EA4C0021FA02F243EB020008BF20EA25
:10054000DC7070474FF0FF3C06E000BF4FF0010C3D
:1005500002E000BF4FF0010C4DF804CD4FEA40021D
:100560004FEA41037FEA226C18BF7FEA236C11D067
:1005700001B052EA530C18BF90EA010F58BFB2EB1A
:10058000030088BFC81738BF6FEAE17018BF40F09A
:10059000010070477FEA226C02D15FEA402C05D14E
:1005A0007FEA236CE4D15FEA412CE1D05DF8040BD3
:1005B000704700BF844608466146FFE70FB5FFF766
:1005C000C9FF002848BF10F1000F0FBD4DF808ED1E
:1005D000FFF7F4FF0CBF012000205DF808FB00BF0F
:1005E0004DF808EDFFF7EAFF34BF012000205DF869
:1005F00008FB00BF4DF808EDFFF7E0FF94BF0120B6
:1006000000205DF808FB00BF4DF808EDFFF7D2FFB2
:1006100094BF012000205DF808FB00BF4DF808EDF5
:10062000FFF7C8FF34BF012000205DF808FB00BFC2
:100630004FEA4002B2F1FE4F0FD34FF09E03B3EBEF
:1006400012620DD94FEA002343F0004310F0004F2F
:1006500023FA02F018BF404270474FF00000704785
:1006600012F1610F01D1420205D110F0004008BF24
:100670006FF0004070474FF00000704753B94AB91F
:10068000002908BF00281CBF4FF0FF314FF0FF309A
:1006900000F00CB8ADF1080C6DE904CE02F050FB8F
:1006A000DDF804E0DDE9022304B07047704700BFC5
:1006B000000000000000000000000000000000003A
:1006C00030B490F800F020F007016FF0000C10F04B
:1006D000070491F820F040F048804FF000046FF0DC
:1006E0000700D1E9002391F840F000F1080082FAF8
:1006F0004CF2A4FA8CF283FA4CF3A2FA8CF34BBBC3
:10070000D1E9022382FA4CF200F10800A4FA8CF23B
:1007100083FA4CF3A2FA8CF3E3B9D1E9042382FA09
:100720004CF200F10800A4FA8CF283FA4CF3A2FA1E
:100730008CF37BB9D1E9062301F1200182FA4CF256
:1007400000F10800A4FA8CF283FA4CF3A2FA8CF3BD
:10075000002BC6D0002A04BF04301A4612BAB2FADF
:1007600082F200EBD20030BC7047D1E9002304F0E4
:100770000305C4F100004FEAC50514F0040F91F819
:1007800040F00CFA05F562EA05021CBF63EA0503B6
:1007900062464FF00004AAE70000000000000000DD
:1007A00001F0FF01102A2BDB10F0070F08D010F822
:1007B000013B013A8B422DD010F0070F42B3F6D126
:1007C000F0B441EA012141EA014122F007047FF03F
:1007D00000070023F0E80256083C85EA010586EA96
:1007E000010685FA47F5A3FA87F586FA47F6A5FAD2
:1007F00087F68EB9EED1F0BC01F0FF0102F00702DE
:1008000032B110F8013B013A83EA010313B1F8D188
:100810000020704701387047002D06BF3546033869
:10082000073815F0010F07D1013015F4807F02BFA2
:10083000013015F4C03F0130F0BC0138704700BFF3
:10084000844641EA000313F003036DD1403A41D3DB
:1008500051F8043B40F8043B51F8043B40F8043B9A
:1008600051F8043B40F8043B51F8043B40F8043B8A
:1008700051F8043B40F8043B51F8043B40F8043B7A
:1008800051F8043B40F8043B51F8043B40F8043B6A
:1008900051F8043B40F8043B51F8043B40F8043B5A
:1008A00051F8043B40F8043B51F8043B40F8043B4A
:1008B00051F8043B40F8043B51F8043B40F8043B3A
:1008C00051F8043B40F8043B51F8043B40F8043B2A
:1008D000403ABDD2303211D351F8043B40F8043BCA
:1008E00051F8043B40F8043B51F8043B40F8043B0A
:1008F00051F8043B40F8043B103AEDD20C3205D3DA
:1009000051F8043B40F8043B043AF9D2043208D0D1
:10091000D2071CBF11F8013B00F8013B01D30B8843
:1009200003806046704700BF082A13D38B078DD021
:1009300010F003038AD0C3F10403D21ADB071CBFF3
:1009400011F8013B00F8013B80D331F8023B20F85D
:10095000023B7BE7043AD9D3013A11F8013B00F896
:10096000013BF9D20B7803704B7843708B7883701E
:10097000604670470348044B834202D0034B03B1E7
:100980001847704778050020780500200000000017
:100990000548064B1B1AD90F01EBA301491002D0E1
:1009A000034B03B1184770477805002078050020F5
:1009B0000000000010B5064C237843B9FFF7DAFFBA
:1009C000044B13B10448AFF300800123237010BD22
:1009D00078050020000000006C49000808B5054BB0
:1009E0001BB105490548AFF30080BDE80840FFF79B
:1009F000CFBF00BF000000007C0500206C4900084C
:100A000000B58BB000230693012207920093019357
:100A10000293039304930E2305930892694600F012
:100A2000BDFD0BB05DF804FB2DE9F04190B004462C
:100A3000002540F2012309930A950B950C95082394
:100A40000D9300F0EBFC4A4B1B68C01AB0F5FA7F1F
:100A50000ED807AB09AA0021204600F0E0FE099B52
:100A6000A3F20123032B14D8DFE803F0120C0E10BD
:100A70004FF400713F4801F0A5FA00F0CFFC3C4B69
:100A80001860E6E7012504E0022502E0032500E006
:100A900000252F46384A05EB4506310102EB0616C4
:100AA000B6F80C80A6F80E809DF81C309DF81D400D
:100AB00044EA0324B4819DF81E009DF81F3043EAE8
:100AC000002353529DF820009DF8213043EA002076
:100AD000FFF7E4FC2949FFF773FB4FF06251FFF782
:100AE0006FFB70609DF82230B372A4EB0808B8F574
:100AF000805F30DD7269013A72611F4B07EB47027C
:100B000003EB0212516904EB4134128AA41A07EB79
:100B1000470703EB07139C610DF1040C184C0FCC35
:100B2000ACE80F0094E803004CF8040B2CF8021B0F
:100B3000090C8CF800104FF0FF33162201A9114860
:100B400001F0C9FE104B1A68536943F00203536168
:100B500010B0BDE8F08118F5805FCEDA05EB4502F4
:100B6000054B03EB02135A6901325A61C5E700BF16
:100B70009405002000140240980500200000A040C9
:100B800084490008180800205806002070B590B06D
:100B9000BDF95050002407944FF400760A960B9448
:100BA0000C940D9408260E968DF83C4041FA06F4FC
:100BB0008DF820408DF8211042FA06F18DF82210B0
:100BC0008DF8232043FA06F28DF824208DF8253085
:100BD0009DF951308DF826308DF8275007AB08AAC3
:100BE0000AA900F0A7FD98B1EC46124C0FCCACE876
:100BF0000F0094E80700ACE80300ACF800204FF0C9
:100C0000FF33192269460C4801F065FE10B070BD33
:100C10006C460A4D0FCD0FC42B6824F8023B1B0C09
:100C200023704FF0FF3312226946034801F053FE50
:100C3000ECE700BF9C49000818080020B8490008EC
:100C400010B588B00DF1040C094C0FCCACE80F00C6
:100C500094E80700ACE803008CF800204FF0FF3365
:100C6000182201A9034801F036FE08B010BD00BFEC
:100C7000CC4900081808002010B586B0EC46094C95
:100C80000FCCACE80F0094E803004CF8040B8CF890
:100C900000104FF0FF3314226946034801F01BFE99
:100CA00006B010BDE84900081808002008B50D4836
:100CB0000D4B03600323436000238360C3604FF444
:100CC000002202614FF4401242610376437683763C
:100CD000C3760377437700F0BBFB00B908BD00F093
:100CE0009DF8FBE7580600200064004010B588B06E
:100CF00000230393049305930693079302681D4B07
:100D00009A4201D008B010BD0024019403F5EA33E3
:100D10001A6C42F000721A641A6C02F000720192AE
:100D2000019A02941A6B42F001021A631B6B03F0E2
:100D300001030293029B4FF4C053039302230493D5
:100D4000032306930923079303A90B4801F03AF8FC
:100D500022462146132000F0AFFF132000F0BCFF15
:100D600022462146142000F0A7FF142000F0B4FF13
:100D7000C8E700BF006400400000024030B589B001
:100D80000024039404940594069407940094194B4A
:100D90001A6B42F020021A631A6B02F020020092D2
:100DA000009A01941A6B42F080021A631A6B02F0E7
:100DB00080020192019A02941A6B42F001021A63B6
:100DC0001B6B03F001030293029B0B4D22464FF471
:100DD0000071284601F0F0F84FF4007303930123EB
:100DE00004930594069403A9284600F0EBFF09B08C
:100DF00030BD00BF003802400014024000B583B08F
:100E000001904FF6FF73012201A9034801F063FD31
:100E1000019803B05DF804FB1808002072B6FEE7E5
:100E200000B595B03022002108A802F075FA002321
:100E30000393049305930693079301931F4A116C40
:100E400041F080511164126C02F080520192019ABB
:100E500002931B4A116841F480411160126802F448
:100E600080420292029A0222089201210B911021E3
:100E70000C910E920F9308231093A82311931292B2
:100E80000423139308A801F0A7F898B90F2303933C
:100E900002230493002305934FF4A05306934FF4C9
:100EA00080530793052103A801F0E6FA20B915B095
:100EB0005DF804FBFFF7B2FFFFF7B0FF0038024018
:100EC00000700040F0B58DB0474B0B9300F080FAF6
:100ED000FFF7A6FFFFF752FFFFF7E8FE00F0CEF99D
:100EE000424C2046FFF78CFD204600F0F5FB08B190
:100EF000FFF794FF03213D4800F046FD28B93C4B25
:100F000040F6C4121A60002520E0FFF787FF642333
:100F1000384C03FB0544204600F012F9A66D00236F
:100F20000693354B05934FF07F53049300230393AF
:100F30004FF4FA5202920193304B009341F28833FE
:100F40004FF4804201212046B0470135032DDEDDFC
:100F500034E0284D642303FB0455254B1868FFF744
:100F60009DFA68602E6E04EB44031B01244AD05E98
:100F7000FFF794FA01462846B0470134032CE8DD18
:100F80001C4B1C6BD3F89450D3F85C71D3F8F80069
:100F9000FFF74EFB06B22846FFF74AFB05B2204694
:100FA000FFF746FB04B23846FFF742FB00B2009061
:100FB00033462A4621460D48FFF7E8FD114B08ACA1
:100FC00093E8070084E807004FF0FF330B22214627
:100FD0000D4801F080FC0D4802F04EF94FF47A7094
:100FE00000F022FA0024C9E703FCFC0358060020A5
:100FF0008006002084060020CDCC4C3D000020411E
:1010000098050020104A000818080020004A00082F
:1010100070B5044615461E460170BDF81400FFF772
:1010200039FA6064049B23643046FFF733FAE063C7
:101030002846FFF72FFAA063BDF91800FFF72EFA34
:10104000A064BDF91C00FFF729FA6060089BE3600B
:10105000099B23610A9B63610023236370BDC16008
:101060000261436170472DE9F84304460D46C36CA5
:10107000036500F0D3F9E064236DC01A84F85400CE
:10108000A561E7692762236B636329466068FFF700
:101090004FF90546E0610021FFF7C0FA00284BD068
:1010A0002946206CFFF79CFA002842D0E1682846C8
:1010B000FFF786F880466062A66A21692846FFF736
:1010C0007FF801463046FFF735F90646A062D4F8AE
:1010D000149039462846FFF72BF901464846FFF79A
:1010E0006FF80746E062E56B29463046FFF796FA4F
:1010F00000B1A56205F100452946A06AFFF770FA24
:1011000000B1A562A16A4046FFF714F901463846CE
:10111000FFF710F92063A56B2946FFF77FFA00B1AE
:10112000256305F100452946206BFFF759FA00B108
:101130002563206BBDE8F88305F10041B1E70000AD
:10114000034B8365034BC365034B0366704700BFC6
:10115000111000085F1000086710000882B000211D
:1011600000910B4B5A6C42F480425A645A6C02F460
:1011700080420092009A01911A6C42F080521A64E7
:101180001B6C03F080530193019B02B0704700BFBA
:1011900000380240FEE7FEE7FEE7FEE7FEE77047A5
:1011A0007047704708B500F02DF908BD08B5024832
:1011B00000F006FC08BD00BF5806002008B5024834
:1011C00000F0FEFB08BD00BF5806002008B502482D
:1011D00001F074FC08BD00BF1808002070B50C4673
:1011E0001646002506E0AFF30080214601F8010B0A
:1011F00001350C46B542F6DB304670BD70B50C4685
:101200001646002504E014F8010BFFF7F7FD013541
:10121000B542F8DB304670BD4FF0FF3070474FF4F9
:1012200000534B600020704701207047002070473A
:1012300010B503460C4A0D490D48006840B10C48F2
:1012400000680344521A934206D8094A136010BD3D
:101250000748084C0460F2E702F004F90C2303602D
:101260004FF0FF30F3E700BF000002200004000051
:1012700014080020780B00207047000008B50A48C9
:101280000A4B03604FF4E133436000238360C36083
:1012900003610C2242618361C36101F0ECFA00B981
:1012A00008BDFFF7BBFDFBE7180800200010014058
:1012B00010B588B000230393049305930693079316
:1012C000026803F1804303F588339A4201D008B0E5
:1012D00010BD0024019403F594335A6C42F01002BF
:1012E0005A645A6C02F010020192019A02941A6B2D
:1012F00042F001021A631B6B03F001030293029B8D
:101300004FF4C0630393022304930323069307233C
:10131000079303A9054800F055FD224621462520E4
:1013200000F0CAFC252000F0D7FCD0E70000024006
:10133000DFF834D0FFF7A0FF0C480D490D4A002319
:1013400002E0D458C4500433C4188C42F9D30A4A7A
:101350000A4C002301E013600432A242FBD302F0E6
:1013600087F8FFF7AFFD7047000002200000002063
:1013700078050020484A000878050020780B0020F6
:10138000FEE7000010B504460E4B1A784FF47A734E
:10139000B3FBF2F30C4A1068B0FBF3F000F0A0FCD2
:1013A00068B90F2C01D901200AE0002221464FF034
:1013B000FF3000F081FC054B1C60002000E00120A4
:1013C00010BD00BF04000020000000200800002025
:1013D00008B50B4B1A6842F400721A601A6842F49E
:1013E00080621A601A6842F480721A60032000F06A
:1013F00051FC0F20FFF7C6FFFFF7B0FE002008BD2D
:10140000003C0240034A1168034B1B780B441360F5
:10141000704700BF6008002004000020014B1868DE
:10142000704700BF6008002038B50446FFF7F6FF9C
:101430000546B4F1FF3F02D0044B1B781C44FFF774
:10144000EDFF401BA042FAD338BD00BF04000020CE
:10145000002800F0A18038B5044690F82030D3B1C0
:101460002268136843F001031360FFF7D7FF0546B6
:1014700023685A6812F0010F10D1FFF7CFFF401B0D
:101480000A28F5D9636A43F400336362052384F8BC
:101490002030012038BDFFF729FCE1E71A6822F06F
:1014A00002021A60FFF7BAFF054623685A6812F075
:1014B000020F0DD0FFF7B2FF401B0A28F5D9636A6F
:1014C00043F400336362052384F820300120E1E710
:1014D000227E012A3DD01A6822F080021A60637EC3
:1014E000012B3BD02268136823F040031360A37ED6
:1014F000012B39D02268136823F020031360E37EA8
:10150000012B37D02268136843F010031360237F48
:10151000012B35D02268136823F008031360637F22
:10152000012B33D02268136823F004031360A368EF
:10153000E268134322691343626913436268013A04
:1015400021681343CB6100206062012384F82030BE
:10155000A0E71A6842F080021A60C0E722681368A8
:1015600043F040031360C2E72268136843F020038E
:101570001360C4E72268136823F010031360C6E702
:101580002268136843F008031360C8E722681368F1
:1015900043F004031360CAE70120704790F820303D
:1015A000013BDBB2012B05D9436A43F4802343623C
:1015B0000120704710B5474BD3F8002242F00102DA
:1015C000C3F80022D3F8002222F47C52C3F8002290
:1015D000D3F80022486A42EA0022C3F800224A698E
:1015E00002F01F02012000FA02F2D3F81C026FEA97
:1015F000020C20EA0200C3F81C02CB69CBB9354BC0
:10160000D3F80C020CEA0000C3F80C028C8848697D
:10161000D1F80CE044EA0E44483043F830408C687E
:10162000088840EA04404C6904F1480E03EBCE03FD
:101630005860CB69012B1ED08B69002B35D1254812
:10164000D0F804320CEA0303C0F804320B699BBBE8
:101650002048D0F814320CEA0303C0F814320B6AA5
:10166000012B30D01B4AD2F8003223F00103C2F81C
:101670000032002010BD174BD3F80C021043C3F802
:101680000C028C884869D1F800E044EA0E444830E6
:1016900043F8304088894C69D1F808E040EA0E40B0
:1016A000483403EBC4035860C6E70A48D0F8043254
:1016B0001343C0F80432C9E70648D0F81432134384
:1016C000C0F81432CBE70349D1F81C321343C1F8F8
:1016D0001C32C7E70064004070B5044690F8205003
:1016E000EDB2012D06D0436A43F400234362012585
:1016F000284670BD022380F820300268136823F06A
:1017000001031360FFF78AFE064623685B6813F047
:10171000010F0CD0FFF782FE831B0A2BF5D9636AF9
:1017200043F400336362052384F82030E0E70025AA
:101730006562DDE730B590F820C00468A4680CF15C
:10174000FF3C5FFA8CFCBCF1010F62D814F0E05F43
:1017500059D0C4F3016C012404FA0CF41C608B68AA
:10176000002B3DD10D68CB68046843EA45550CF168
:1017700018031B01E55003680C690CF1180E03EB0C
:101780000E135C600B7D012B35D0D17993791B044E
:1017900043EA0163517943EA012314790168234341
:1017A00001EB0C11C1F88C31D17893781B0443EA1A
:1017B0000163517843EA0123117802680B4302EB7D
:1017C0000C12C2F8883102680CF1180C4FEA0C1C9C
:1017D00052F80C3043F0010342F80C3000201DE0B9
:1017E0004C6843EAC403CC6823430CF11804240179
:1017F00005682B51BFE7036803EB0E13596841F4EA
:1018000080715960C1E7436A43F4001343620120C9
:1018100004E0436A43F480234362012030BD90F822
:1018200020C00CF1FF3C5FFA8CFCBCF1010F00F210
:10183000A58030B451B90468E46814F0030F10D1E6
:10184000436A43F40013436201207EE00468246984
:1018500014F0030F05D1436A43F4001343620120DF
:1018600073E0056801F11B0424012C5904F0040401
:101870009460002C6BD1056801F11B0424012C59E4
:10188000640D1460046801F11B0C4FEA0C1C54F841
:101890000C4004F00204D4600468A444DCF8045052
:1018A00015F0080F5BD008241461046801F11B0CCB
:1018B00004EB0C146468C4F307249461046804EB1B
:1018C0000C146468240C5461026802EB0112D2F813
:1018D000B8211A70026802EB0112D2F8B821C2F3E3
:1018E00007225A70026802EB0112D2F8B821C2F343
:1018F00007429A70026802EB0112D2F8B821120E68
:10190000DA70026802EB0112D2F8BC211A71026887
:1019100002EB0112D2F8BC21C2F307225A7102680D
:1019200002EB0112D2F8BC21C2F307429A7102689D
:1019300002EB0112D2F8BC21120EDA71C1B90268B1
:10194000D36843F02003D360002030BC70470568A3
:1019500001F11B0424012C59E408546092E701F1C1
:101960001B0504EB0514646804F00F0414619CE784
:101970000268136943F020031361E5E7436A43F407
:10198000802343620120704790F82030013BDBB296
:10199000012B05D9436A43F4802343620120704739
:1019A000026853690B4353610020704770477047CA
:1019B000704770477047704770477047704770476F
:1019C0002DE9F84F054603685C69D3F804809F68E9
:1019D000D3F80CA0D3F81090D3F818B014F0010687
:1019E0003BD017F0010616D001229A6017F0020FC3
:1019F00008D117F0040F0CD117F0080606D04FF4E9
:101A0000805608E0FFF71CF9002604E0FFF7D0FF3E
:101A100001E04FF4006617F4807F0DD02B684FF47F
:101A200080729A6017F4007F40F0968017F4806F00
:101A300000F0968046F4005617F4803F0DD02B68D6
:101A40004FF480329A6017F4003F40F0938017F40F
:101A5000802F00F0938046F4004614F0080F07D062
:101A60001AF0100F04D046F400762B681022DA60CA
:101A700014F0040F03D01AF0080F40F0898014F01E
:101A8000020F05D02B68DB6813F0030F40F087804E
:101A900014F0400F07D019F0100F04D046F4806600
:101AA0002B6810221A6114F0200F02D019F0080FD1
:101AB00079D114F0100F04D02B681B6913F0030FB9
:101AC00078D114F4003F02D018F0100F76D114F43E
:101AD000803F02D018F0080F77D114F4004F37D0B0
:101AE00018F0040F31D014F4807F04D01BF0010FE4
:101AF00001D046F0010614F4007F04D01BF0020F61
:101B000001D046F0020614F4806F04D01BF0040FDD
:101B100001D046F0040614F4006F16D01BF0700BD1
:101B200013D0BBF1400F66D056D8BBF1200F5CD06C
:101B3000BBF1300F5CD0BBF1100F01D146F00806AD
:101B40002A68936923F0700393612B6804225A601A
:101B5000002E56D1BDE8F88F2846FFF727FF6BE728
:101B600017F4006F02D046F4804665E72846FFF779
:101B700020FF61E72846FFF71AFF6EE717F4002FF2
:101B800002D046F4803668E72846FFF713FF64E783
:101B90002B680822DA602846FFF70DFF6FE728461A
:101BA000FEF742FF74E72B6808221A612846FFF708
:101BB00004FF7EE72846FFF7FFFE82E72B6810222E
:101BC0005A602846FFF7FAFE81E72B6808225A6020
:101BD0002846FFF7F4FE80E7BBF1500F0ED0BBF1B3
:101BE000600FADD146F48076AAE746F01006A7E76D
:101BF00046F02006A4E746F04006A1E746F080063E
:101C00009EE76B6A33436B622846FFF735F8A1E71E
:101C1000002807DB00F01F02400901239340024A1D
:101C200042F82030704700BF00E100E0002808DBE8
:101C30000901C9B200F1604000F5614080F800136D
:101C4000704700F00F000901C9B2014B19547047E9
:101C500014ED00E000B500F00700C0F1070CBCF186
:101C6000040F28BF4FF0040C031D062B0FD9C31E11
:101C70004FF0FF3E0EFA0CF021EA000199400EFAF7
:101C800003FE22EA0E0241EA02005DF804FB002393
:101C9000EEE70000074AD36823F4E0631B041B0C43
:101CA000000200F4E060034343F0BF6343F40033F9
:101CB000D360704700ED00E010B50446054BD868CE
:101CC000C0F30220FFF7C6FF01462046FFF7AEFF34
:101CD00010BD00BF00ED00E008B5FFF799FF08BD9B
:101CE0000138B0F1807F0BD24FF0E0235861054AF4
:101CF000F02182F823100020986107221A617047B2
:101D00000120704700ED00E070B50446866DFFF7D6
:101D100085FB94F83530DBB2022B06D08023636557
:101D2000002384F83430012070BD05462268136812
:101D300023F0160313602268536923F08003536174
:101D4000236CE3B12268136823F008031360226850
:101D5000136823F00103136023681B6813F0010F5D
:101D600011D0FFF75BFB431B052BF5D920236365DF
:101D7000032084F83500002384F83430D4E7A36CC2
:101D8000002BDFD1E3E7E26D3F239340B3600123F3
:101D900084F83530002084F83400C5E790F83530F9
:101DA000DBB2022B03D0802343650120704705235B
:101DB00080F835300268136823F0010313600020B7
:101DC0007047000000230F2B00F2EC8030B583B089
:101DD00068E085684FEA430E032404FA0EF425EA0E
:101DE0000405CC6804FA0EF42C438460446824EAA9
:101DF00002044A68C2F300129A40224342605FE044
:101E0000DC08083450F8242003F00705AD004FF03B
:101E10000F0E0EFA05FE22EA0E0E0A69AA4042EAE9
:101E20000E0240F824205FE0072200E0002202FAC0
:101E30000EF22A4302345C4D45F824205B4A946834
:101E40006FEA0C0224EA0C05D1F804E01EF4801FAE
:101E500001D04CEA0405554CA560E46802EA04058B
:101E6000D1F804E01EF4001F01D04CEA04054F4CE9
:101E7000E560646802EA0405D1F804E01EF4003F5E
:101E800001D04CEA0405494C6560246822404D6845
:101E900015F4803F01D04CEA0402444C2260013327
:101EA0000F2B7DD801229A400C6804EA020C32EA1A
:101EB0000404F4D14C6804F00304013C012C88D9DB
:101EC0004A6802F00302032A09D0C4685D000322B5
:101ED000AA4024EA02048A68AA402243C2604A68EF
:101EE00002F00302022A8BD004684FEA430E032259
:101EF00002FA0EF224EA02044A6802F0030202FA2D
:101F00000EF2224302604A6812F4403FC7D000221A
:101F10000192274A546C44F480445464526C02F495
:101F200080420192019A9C08A51C1F4A52F8255034
:101F300003F0030E4FEA8E0E0F2202FA0EF225EA8C
:101F400002051C4A90423FF471AF02F58062904254
:101F50001AD002F58062904218D002F58062904259
:101F600016D002F58062904214D002F58062904251
:101F700012D002F58062904210D002F58062904249
:101F80003FF452AF082252E7012250E702224EE707
:101F900003224CE704224AE7052248E7062246E7E7
:101FA00003B030BD704700BF00380140003C014025
:101FB00000380240000002400AB181617047090404
:101FC00081617047436901EA030221EA030141EAA2
:101FD0000241816170470000002800F0E08170B587
:101FE00082B00446036813F0010F3BD09F4B9B68FF
:101FF00003F00C03042B2CD09C4B9B6803F00C03C8
:10200000082B21D06368B3F5803F4FD0B3F5A02FE4
:1020100052D0964B1A6822F480321A601A6822F461
:1020200080221A606368002B50D0FFF7F7F905464D
:102030008E4B1B6813F4003F14D1FFF7EFF9401BE0
:102040006428F5D90320B1E1884B5B6813F4800F55
:10205000D8D0864B1B6813F4003F03D06368002B75
:1020600000F09F81236813F0020F54D07F4B9B68D0
:1020700013F00C0F3ED07D4B9B6803F00C03082B34
:1020800033D0E368002B68D0794B01221A60FFF748
:10209000C5F90546754B1B6813F0020F54D1FFF7C5
:1020A000BDF9401B0228F5D903207FE16F4A136870
:1020B00043F480331360B5E76C4B1A6842F4802216
:1020C0001A601A6842F480321A60ABE7FFF7A6F98B
:1020D0000546664B1B6813F4003FC3D0FFF79EF91B
:1020E000401B6428F5D9032060E1604B5B6813F462
:1020F000800FC6D15D4B1B6813F0020F03D0E3685D
:10210000012B40F05081594A136823F0F8032169EC
:1021100043EAC1031360236813F0080F42D06369D8
:102120006BB3534B0122C3F8802EFFF777F90546B6
:102130004E4B5B6F13F0020F34D1FFF76FF9401B6A
:102140000228F5D9032031E1484A136823F0F80347
:10215000216943EAC1031360DDE7454B00221A60A1
:10216000FFF75CF90546414B1B6813F0020FD2D014
:10217000FFF754F9401B0228F5D9032016E13C4B28
:102180000022C3F8802EFFF749F90546374B5B6FF5
:1021900013F0020F06D0FFF741F9401B0228F5D9D2
:1021A000032003E1236813F0040F77D02F4B1B6C3F
:1021B00013F0805F33D1002301932C4B1A6C42F053
:1021C00080521A641B6C03F080530193019B01251C
:1021D000284B1B6813F4807F23D0A368012B34D0D5
:1021E000052B38D0214B1A6F22F001021A671A6FA3
:1021F00022F004021A67A368002B3DD0FFF70EF906
:1022000006461A4B1B6F13F0020F46D1FFF706F973
:10221000801B41F288339842F3D90320C6E00025A1
:10222000D6E7144A136843F480731360FFF7F6F897
:102230000646104B1B6813F4807FCED1FFF7EEF8F3
:10224000801B0228F5D90320B0E0084A136F43F041
:1022500001031367CFE7054B1A6F42F004021A67B8
:102260001A6F42F001021A67C5E700BF003802404A
:102270000000474200700040FFF7D0F80646524B7E
:102280001B6F13F0020F08D0FFF7C8F8801B41F254
:1022900088339842F3D9032088E0EDB9A369002B75
:1022A00000F08380484A926802F00C02082A51D05C
:1022B000022B17D0454B00221A66FFF7AFF80446F1
:1022C000414B1B6813F0007F42D0FFF7A7F8001BBB
:1022D0000228F5D9032069E03B4A136C23F08053B0
:1022E0001364DBE7394B00221A66FFF797F80546BF
:1022F000354B1B6813F0007F06D0FFF78FF8401BAB
:102300000228F5D9032051E0E369226A1343626A87
:1023100043EA8213A26A5208013A43EA0243E26A9C
:1023200043EA0263284A5360284B01221A66FFF7EA
:1023300075F80446244B1B6813F0007F06D1FFF7A5
:102340006DF8001B0228F5D903202FE000202DE0B6
:1023500000202BE0012B2BD01B4B5B6803F480018A
:10236000E269914226D103F03F02216A8A4223D1D9
:10237000616A47F6C0721A40B2EB811F1ED103F4A6
:102380004031A26A5208013AB1EB024F18D103F072
:102390007063E26AB3EB026F14D1002006E0012003
:1023A0007047012002E0012000E0002002B070BD73
:1023B0000120FBE70120F9E70120F7E70120F5E71D
:1023C0000120F3E70120F1E7003802400000474216
:1023D00008B5264B9B6803F00C03042B41D0082B57
:1023E00041D1224B5A6802F03F025B6813F4800F20
:1023F00012D01E4B5968C1F388111D480023A1FB60
:102400000001FEF73BF9194B5B68C3F3014301334D
:102410005B00B0FBF3F008BD144B5868C0F38810A4
:102420004FEA401CBCEB000C6EEB0E0E4FEA8E1315
:1024300043EA9C634FEA8C11B1EB0C0163EB0E0392
:10244000DB0043EA5173C90011EB000C43F10003B8
:10245000990200234FEA8C2041EA9C51FEF70EF9C5
:10246000D1E70348D7E70348D5E700BF003802406B
:1024700040787D010024F400002800F09B8070B5B6
:102480000D4604464F4B1B6803F007038B4208D2EE
:10249000CBB24C4A1370136803F007038B4240F031
:1024A0008B80236813F0020F17D013F0040F04D0B1
:1024B000454A936843F4E0539360236813F0080F90
:1024C00004D0414A936843F4604393603E4A936862
:1024D00023F0F003A1680B439360236813F0010F0E
:1024E00032D06368012B21D09A1E012A25D9364AA1
:1024F000126812F0020F61D033498A6822F0030299
:1025000013438B60FEF78AFF06462F4B9B6803F050
:102510000C036268B3EB820F16D0FEF77FFF801BBF
:1025200041F288339842F0D9032042E0264A1268EB
:1025300012F4003FE0D101203BE0234A126812F080
:10254000007FD9D1012034E01E4B1B6803F0070344
:10255000AB4207D9EAB21B4B1A701B6803F00703A2
:10256000AB422DD1236813F0040F06D0164A9368AE
:1025700023F4E053E1680B439360236813F0080FE2
:1025800007D0114A936823F46043216943EAC103E9
:102590009360FFF71DFF0C4B9B68C3F303130B4ABB
:1025A000D35CD8400A4B18600A4B1868FEF7EAFE65
:1025B000002070BD012070470120FAE70120F8E7F4
:1025C0000120F6E7003C024000380240244A00089F
:1025D0000000002008000020014B1868704700BF71
:1025E0000000002008B5FFF7F7FF044B9B68C3F31A
:1025F0008223034AD35CD84008BD00BF00380240A4
:102600001C4A000808B5FFF7E7FF044B9B68C3F3BB
:102610004233034AD35CD84008BD00BF00380240B3
:102620001C4A0008026802F10C0353E8003F23F43F
:1026300090730C3242E800310029F3D1026802F1B4
:10264000140353E8003F23F00103143242E8003141
:102650000029F3D1036B012B05D0202380F84230F1
:10266000002303637047026802F10C0353E8003F44
:1026700023F010030C3242E800310029F3D1ECE7DB
:1026800090F84130DBB2212B01D0022070478368E3
:10269000B3F5805F17D0036A5A1C02621A78036888
:1026A0005A60C38C9BB2013B9BB2C3844BB9026896
:1026B000D36823F08003D3600268D36843F04003FB
:1026C000D360002070470369002BE4D1036A1B88A4
:1026D0000268C3F308035360036A02330362E0E74E
:1026E00010B504460268136923F44053C1680B43D4
:1026F0001361836802691A4343691A43C3691A4321
:102700000168CB6823F4164323F00C031343CB601A
:102710000268536923F4407381690B435361036872
:10272000314A934206D002F58062934202D0FFF70D
:1027300059FF01E0FFF766FFE369B3F5004F29D0C9
:102740000021031849411B1841F10001C90041EA69
:102750005371DB00181863684FEA83024FEA9373E2
:1027600041F10001FDF78AFF204AA2FB003149092F
:10277000642303FB11031B013233A2FB03235B0918
:1027800003F0F00202EB011203F00F03216813447F
:102790008B6010BD0023021843EB0301121841F1B6
:1027A0000001C90041EA5271D200101841F1000144
:1027B000626892185B41FDF761FF0C4AA2FB003191
:1027C0004909642303FB1103DB003233A2FB03231B
:1027D0005B095A0002F4F87202EB011203F00703DE
:1027E000216813448B60D4E7001001401F85EB5132
:1027F0002DE9F04383B005460E4617469946DDF8AD
:1028000028802B681C6836EA04040CBF01240024CD
:10281000BC4228D1B8F1FF3FF3D0FEF7FFFDA0EB9B
:102820000900404523D8B8F1000F22D02B68DA68A0
:1028300012F0040FE5D0802EE3D0402EE1D01A68CC
:1028400012F0080FDDD0002401941A6801925B6831
:102850000193019B2846FFF7E5FE08236B6485F88A
:102860004040012000E0002003B0BDE8F0830320D9
:10287000FAE70320F8E760B310B5044690F841305A
:1028800013B3242384F841302268D36823F400531F
:10289000D3602046FFF724FF2268136923F4904396
:1028A00013612268536923F02A0353612268D368B5
:1028B00043F40053D36000206064202384F8413047
:1028C00084F84230606310BD80F84030FEF7F0FCC1
:1028D000D7E7012070472DE9F04182B01E4690F8FD
:1028E0004130DBB2202B56D104460D4690460029DC
:1028F00055D00AB901204FE000234364212380F81A
:102900004130FEF78BFD0746A4F82480A4F826800A
:10291000A368B3F5805F02D04FF0000814E023698C
:102920002BB34FF000080FE0202384F84130032040
:1029300032E038F8023B2268C3F308035360E28CAC
:1029400092B2013A92B2E284E38C9BB293B10096C8
:102950003B46002280212046FFF74AFF0028E3D1B2
:10296000002DE6D015F8012B23685A60E7E7A8464A
:102970000025E9E700963B46002240212046FFF76C
:1029800037FF18B9202384F8413005E0202384F86C
:102990004130032000E0022002B0BDE8F0810120B8
:1029A000FAE7704708B50168CA6822F04002CA60B9
:1029B000202280F84120FFF7F4FF002008BD704777
:1029C000704708B5806B0023C385C384FFF7F8FF09
:1029D00008BD704790F84230DBB2222B69D1836882
:1029E000B3F5805F4FD0826AB3F5805F04D0002BCF
:1029F00056D10369002B53D103685B681370836A57
:102A000001338362C38D9BB2013B9BB2C385002B14
:102A100051D100B583B00268D36823F02003D3609E
:102A20000268D36823F48073D3600268536923F08B
:102A300001035361202380F8423000234363036B7A
:102A4000012B33D100230363026802F10C0353E826
:102A5000003F23F010030C3242E800310029F3D18B
:102A600003681A6812F0100F06D0002201921A684B
:102A700001925B680193019B818DFFF7AAFF002003
:102A800003B05DF804FB0269002AACD1826A0368D6
:102A90005B68C3F308031380836A02338362B1E780
:102AA00003685B6803F07F031370A8E7FFF787FFF5
:102AB000E5E70220704700207047000010B582B0A3
:102AC000044602681368D068516913F00F0F09D1EA
:102AD00013F0200F0CD010F0200F09D02046FFF784
:102AE00079FF16E011F0010115D110F4907F12D199
:102AF000216B012979D013F0800F03D010F0800FE3
:102B000040F0148113F0400F03D010F0400F40F05C
:102B1000118102B010BD13F0010F06D010F4807FB8
:102B200003D0626C42F00102626413F0040F04D01F
:102B300019B1626C42F00202626413F0020F04D019
:102B400019B1626C42F00402626413F0080F07D0FE
:102B500010F0200F00D119B1626C42F008026264DB
:102B6000626C002AD5D013F0200F02D010F0200F95
:102B700029D123685B6903F04003626C12F0080FEF
:102B800000D163B32046FFF74DFD23685B6913F066
:102B9000400F20D0226802F1140353E8003F23F0D5
:102BA0004003143242E800310029F3D1E36B73B1E2
:102BB000624A1A65E06BFFF7F1F80028A9D0E06BD4
:102BC000036D9847A5E72046FFF704FFD1E72046AD
:102BD000FFF7F6FE9DE72046FFF7F2FE99E7204655
:102BE000FFF7EEFE0023636493E713F0100F82D02B
:102BF00010F0100F3FF47FAF00230193136801938F
:102C000053680193019B536913F0400F52D0E26B5C
:102C100013685B689BB2002B3FF47BAFA18D994298
:102C20007FF677AFE385D369B3F5807F37D022682D
:102C300002F10C0353E8003F23F480730C3242E8A6
:102C400000310029F3D1226802F1140353E8003F58
:102C500023F00103143242E800310029F3D1226845
:102C600002F1140353E8003F23F04003143242E81A
:102C700000310029F3D1202384F84230002323635C
:102C8000226802F10C0353E8003F23F010030C32DA
:102C900042E800310029F3D1E06BFFF735F8022359
:102CA0006363A18DE38D9BB2C91A89B22046FFF7F9
:102CB00090FE2EE7A18DE38D9BB2C91A89B2E38DF8
:102CC0009BB2002B3FF425AF00293FF422AF2268CE
:102CD00002F10C0353E8003F23F490730C3242E8F6
:102CE00000300028F3D1226802F1140353E8003FBA
:102CF00023F00103143242E800300028F3D12023EE
:102D000084F8423000232363226802F10C0353E865
:102D1000003F23F010030C3242E800300028F3D1CA
:102D2000022363632046FFF754FEF2E62046FFF7D6
:102D3000A7FCEEE62046FFF735FEEAE6C3290008C9
:102D40002DE9F047089D0E4604460F46002B4AD158
:102D500094468C45B2FA82F260D942B1C2F12003A6
:102D6000974020FA03F30CFA02FC1F4394404FEA09
:102D70001C4E1FFA8CF6B7FBFEF1230C0EFB1177ED
:102D800043EA074301FB06F098420AD91CEB030310
:102D900001F1FF3780F01581984240F2128102392B
:102DA00063441B1AA4B2B3FBFEF00EFB103344EADB
:102DB000034400FB06F6A6420AD91CEB040400F10A
:102DC000FF3380F00081A64240F2FD806444023867
:102DD00040EA0140A41B00211DB1D4400023C5E9F5
:102DE0000043BDE8F0878B4205D90DB1C5E900016C
:102DF00000210846F5E7B3FA83F1002946D1B34232
:102E000002D3824200F2F580841A66EB03020120AD
:102E10001746002DE5D0C5E90047E2E7002A40F05B
:102E20009380A1EB0C034FEA1C471FFA8CFE012193
:102E3000B3FBF7F607FB1630230C43EA00430EFB07
:102E400006F0984208D91CEB030306F1FF3802D2C2
:102E5000984200F2D08046461B1AA4B2B3FBF7F0AA
:102E600007FB103344EA03440EFB00FEA64508D9D5
:102E70001CEB040400F1FF3302D2A64500F2B68039
:102E80001846A4EB0E0440EA0640A5E7C1F120076E
:102E90008B4022FA07FC4CEA030C06FA01FE20FAEA
:102EA00007F426FA07F344EA0E0400FA01F84FEAA1
:102EB0001C404FEA1449B3FBF0FE1FFA8CF600FBEE
:102EC0001E3349EA03430EFB06F9994502FA01F263
:102ED0000BD91CEB03030EF1FF3A80F08580994576
:102EE00040F28280AEF1020E6344A3EB0909A4B262
:102EF000B9FBF0F300FB139944EA094403FB06F61F
:102F0000A64208D91CEB040403F1FF3068D2A642A4
:102F100066D9023B644443EA0E40A41BA0FB02E6D0
:102F2000B4427346B14652D34FD05DB1B8EB030201
:102F300064EB090404FA07F722FA01F31F43CC40BB
:102F4000C5E9007400214CE7C2F1200120FA01F329
:102F50000CFA02FC26FA01F1964033434FEA1C4773
:102F60001FFA8CFEB1FBF7F007FB1016190C41EAB3
:102F7000064100FB0EF68E4204FA02F408D91CEB5F
:102F8000010100F1FF382DD28E422BD90238614465
:102F9000891B9BB2B1FBF7F607FB161143EA01430D
:102FA00006FB0EF1994208D91CEB030306F1FF382A
:102FB00014D2994212D9023E63445B1A46EA004198
:102FC00036E73946EDE6184602E7F045ADD2BEEBEE
:102FD000020366EB0C060138B146A6E74646ECE76D
:102FE000034698E74046D3E7D6467EE76444023876
:102FF00047E708460DE7023E63442DE7024A0349CE
:10300000034800F0C9B800BF0C0000201D3D0008B7
:10301000200000200C4B4168994210B5044601D0B5
:1030200000F07CFEA168094B994202D0204600F0D6
:1030300075FEE168064B994204D02046BDE8104079
:1030400000F06CBE10BD00BF64080020CC0800205A
:10305000340900202DE9F843314A324C3249DFF877
:10306000CC90DFF8CC80334F116000250423294633
:10307000082204F15C00C4E903352F4EA560C4E9C1
:103080000055C4E90555656600F046F904F158009D
:10309000C4E90749C4E90987E66200F011FA294644
:1030A000264B6367082204F1C400C4E91A55C4E939
:1030B0001E552567C4F8CC50C4F8805000F02CF998
:1030C00004F1680304F1C000C4F88430C4E9229814
:1030D000C4E9247600F0F4F9194BC4F8DC30294631
:1030E00004F596700822C4E93455C4E93855C4F88B
:1030F000D850C4F83451C4F8E85000F00DF904F188
:10310000D003C4E93D87C4F8F09004F59470C4F886
:10311000FC60C4F8EC30BDE8F84300F0D1B900BF62
:103120009C09002064080020FD2F00088932000857
:10313000AD320008ED32000811330008090001002B
:103140001200020010B504460A4800F0BDF9636B96
:1031500023B9094B094A1B68626323B1BDE81040DB
:10316000044800F0B3B9FFF775FFBDE8104001480F
:1031700000F0ACB9AC0900209C0900201530000813
:10318000014800F0A1B900BFAC090020014800F0DF
:103190009DB900BFAC0900202DE9F84307468846D9
:1031A00016464FF00009D6E90154013D10D4A38919
:1031B000012B08D9B4F90E3001332146384602D02C
:1031C000C04749EA0009013D6B1C04F16804EED1D7
:1031D0003668002EE7D14846BDE8F88370B505464D
:1031E00088B008460C46FDF76BFA224E6A6B0590D4
:1031F00001214318CDE9066104A802210494039338
:10320000AC68019002916AB3636EB4F90C20D907DF
:1032100001D496051FD5900405D442F4005223F43E
:103220000053A2816366990420D401AA214628464E
:1032300000F092FE636EC8B90A25DA0702D4A389AA
:103240009B0502D5284608B070BDA06D00F03EF980
:10325000284608B070BDA06D00F036F9B4F90C2016
:10326000636ED8E72846FFF76DFFCDE74FF0FF35D7
:10327000E3E700BFB4490008024B01461868FFF7B6
:10328000ADBF00BF1800002010B50C46B1F90E10FC
:1032900000F0BCF8002803DB236D0344236510BD58
:1032A000A38923F48053A38110BD00BF2DE9F04111
:1032B0000C46B1F90C101F46CB05054616460BD43B
:1032C00021F48051A1813B46B4F90E1032462846C4
:1032D000BDE8F04100F0B0B8B4F90E1002230022AE
:1032E00000F07EF8B4F90C10EAE700BF10B50C4608
:1032F000B1F90E1000F074F8B4F90C30421C0EBF96
:1033000023F4805343F480532065A38110BD00BF94
:10331000B1F90E1000F052B8830730B547D0541EF3
:10332000002A3ED0CAB2034601E0013C39D303F87B
:10333000012B9D07F9D1032C2CD9CDB205EB052526
:103340000F2C05EB054535D9A4F1100222F00F0C26
:1033500003F1100EE6444FEA121C1A46C2E900556A
:10336000C2E9025510327245F8D10CF1010214F095
:103370000C0F03EB021204F00F0C13D0ACF104039A
:1033800023F003030433134442F8045B9342FBD15C
:103390000CF003042CB1C9B21C4403F8011BA34276
:1033A000FBD130BD64461346002CF4D1F9E7034647
:1033B0001446C0E71A46A446E0E700BF38B5074DFB
:1033C0000022044608462A60FDF726FF431C00D071
:1033D00038BD2B68002BFBD0236038BDA00900202E
:1033E00038B50C46084D8446114620461A4600233F
:1033F0002B606446FDF71AFF431C00D038BD2B68D4
:10340000002BFBD0236038BDA009002038B50C4646
:10341000084D8446114620461A4600232B60644618
:10342000FDF7DCFE431C00D038BD2B68002BFBD021
:10343000236038BDA009002038B50C46084D8446ED
:10344000114620461A4600232B606446FDF7D6FE3F
:10345000431C00D038BD2B68002BFBD0236038BD47
:10346000A0090020014B1868704700BF1800002019
:1034700070B50F4B0F4DAB42A3EB050607D0B6104E
:10348000002455F8043B01349847A642F9D801F0CE
:103490006DFA094D094B5E1BAB424FEAA60606D0FA
:1034A000002455F8043B01349847A642F9D870BD72
:1034B0003C4A00083C4A00083C4A0008444A0008CC
:1034C000704700BF704700BF704700BF704700BF24
:1034D000024B13B1024800F005B87047000000002D
:1034E00039440008002301461A46184600F0C6BFBA
:1034F0002DE9F84306460820894600F0B1FFDFF8C1
:103500009C800546304600F0FDFBD8F808305F6827
:1035100027F00307A7F11104A4EB09042C44B4FB22
:10352000F5F4013C05FB04F4A54208DC002130461B
:1035300000F070FFD8F808303B44984205D0304680
:1035400000F0E6FB0020BDE8F8836142304600F061
:1035500061FF01300FD0124AD8F808303F1B47F006
:1035600001075F60136830461B1B136000F0D0FB3F
:103570000120BDE8F8830021304600F04BFFD8F869
:103580000820831A0F2BDADD43F001035360054B4B
:1035900003491B68C01A0860D1E700BF7001002012
:1035A000B40900206401002000297CD0F8B50C4645
:1035B000064600F0A7FB54F8043C764FA4F108053A
:1035C00023F001016818D7F808C04268844522F04A
:1035D000030200F08380DB07426000EB020C33D46F
:1035E00054F8084CDCF804302D1B2144AC6807F17A
:1035F000080C644503F0010364D0D5F80CE0C4F86E
:103600000CE0CEF80840002B00F0818041F001036F
:103610006B600160B1F5007F22D27868CB0801228F
:10362000490901338A40024357F833107A6007EBA7
:10363000C302083AC5E9021247F83350CD6030465C
:10364000BDE8F84000F064BBDCF80430DB072BD5A4
:1036500041F00103B1F5007F44F8043C0160DCD384
:10366000B1F5206F4FEA512353D28B0903F1390092
:1036700003F13802C300F818FB580838984203D108
:1036800061E09B68984204D05A6822F003028A42A3
:10369000F7D8D868C5E902308560DD603046BDE8FE
:1036A000F84000F035BB7047114407F1080C8368FF
:1036B00063453FD0C268DA60936041F001036B60FC
:1036C0006950A7E7002B5FD10A44D0E90213CB6011
:1036D000996042F001036B60AA50B0E70A44D90731
:1036E00007D454F8083CED1A1A44D5E90213CB600C
:1036F000996042F001036B60274BBD601B689342E9
:103700009DD8264B30461968FFF7F2FE97E7114423
:10371000CDE7142B08D9542B1DD80B0B03F16F00E8
:1037200003F16E02C300A6E703F15C0003F15B0244
:10373000C300A0E741F00103C7E90455C5E902CC85
:103740006B6069507BE779689210012404FA02F2F9
:103750000A437A609EE7B3F5AA7F06D8CB0B03F144
:10376000780003F17702C30085E740F25452934298
:1037700006D88B0C03F17D0003F17C02C3007AE7CD
:103780004FF47E737E2276E741F001036B600160A7
:1037900055E700BF7001002068010020E409002007
:1037A0002DE9F04F01F10B05162D83B0064623D805
:1037B000102900F2AF8000F0A5FA1025182302208E
:1037C000B74F3B44A3F108025C68944200F01F81AC
:1037D0006368E268A16823F00303CA6023443046AB
:1037E00091605A6842F001025A6000F091FA083480
:1037F000204603B0BDE8F08F35F0070500F18A8060
:10380000A94200F2878000F07DFAB5F5FC7FC0F098
:103810006E816B0A00F08280042B00F21E81AB09DE
:1038200003F1390003F1380EC3009D4F3B44A3F16F
:10383000080C5C68A44507D10DE0002AE16880F21D
:10384000E0808C4507D00C46636823F003035A1BC5
:103850000F2AF2DD7046DFF84C823C69444500F0E7
:10386000BD80636823F0030CACEB05030F2B00F362
:103870004281002BC7E9048880F22D81BCF5007FCE
:10388000D7F804E080F0C9804FEADC0101314FEA4B
:103890005C1C012303FA0CF357F83120A2604EEAB6
:1038A000030E07EBC103083BE360C7F804E047F8E9
:1038B0003140D46083104FF0010C0CFA03FCF44546
:1038C00032D81CEA0E0F08D120F003004FEA4C0C4E
:1038D0001CEA0E0F00F10400F8D007EBC00AD64630
:1038E0008146DEF80C300BE0596821F003014A1BD9
:1038F0000F2A1C46DB6800F3BC80002A80F2DE80C1
:103900009E45F1D109F1010919F0030F0EF1080EDE
:10391000E7D119E10C233360002469E74FF4007309
:1039200040204FF03F0E80E7BC68636823F0030936
:10393000A94503D3A9EB05030F2B52DC5A4B1B6897
:10394000082003F1100804EB0903009300F088FD40
:10395000564A13680133A844834605D008F1FF385E
:103960008044434203EA08084146304600F052FDD5
:10397000B0F1FF3F4D4A824600F0D88004EB0903C6
:10398000834200F2D1804A4B186840440BF1FF316A
:103990001860844640F0FB801AEA010F40F0F7807F
:1039A000D7F808A0C84448F00102CAF80420414BE7
:1039B0001968814238BF18603F4B1968814238BF8F
:1039C0001860544622F00308A845A8EB050301D36C
:1039D0000F2B06DC304600F09BF99DE7D7F804E09A
:1039E00068E7621943F0010345F001056560304660
:1039F000BA60536000F08CF90834204603B0BDE88B
:103A0000F08FA2682344D16030468A60E9E6DC6822
:103A1000A3427FF4DDAE02301DE7BCF5206F4FEA14
:103A20005C227AD3142A00F2128102F15C03DB00DB
:103A30005B32F918FB580839994203D1ECE09B68D6
:103A4000994204D05A6822F003026245F7D8D96837
:103A5000C4E902318C60DC602CE7142B69D9542B4B
:103A600000F2FE802B0B03F16F0003F16E0EC3001A
:103A7000DBE6D4F808C03046661945F001056560FC
:103A8000CCF80C30C3F808C042F00103C7E9046663
:103A9000C6E902887360625000F03AF90834A7E67C
:103AA0007001002078010020E4090020640100205A
:103AB000B4090020E0090020DC0900202144304640
:103AC0004A6842F001024A6054F8082FD3609A60B5
:103AD00000F01EF98CE6A4443046DCF8043043F0D4
:103AE0000103CCF8043000F013F9083480E6E8084C
:103AF00005F1080364E6621943F0010145F0010590
:103B000065603046C7E90422C2E90288516044F882
:103B10000C3000F0FDF808346AE64FEA9C1202F11E
:103B20003903DB00383284E7BC4228D0BC686268C5
:103B300048E703F15C0003F15B0EC30075E65AF839
:103B40000839534540F0DA8010F0030F00F1FF30E0
:103B5000F5D17B6823EA0C037B604FEA4C0C9C4553
:103B60003FF6E2AEBCF1000F04D1DDE64FEA4C0CAB
:103B700009F104091CEA030FF8D04846ADE6604B92
:103B8000186808EB000C0BF1FF31C3F800C0106897
:103B900001306FD004EB0902AAEB020262441A6002
:103BA0001AF00702CDE9002340D0C2F10802924486
:103BB000D04408EA01005A44121A02EA010B59469D
:103BC000304600F027FC421C019B6FD0A0EB0A009E
:103BD00000EB0B081868C7F808A048F00102584429
:103BE000BC42CAF8042018603FF4E1AEB9F10F0FEF
:103BF00043D96168A9F10C0222F0070201F001012A
:103C0000114361604FF0050CA1180F2AC1E901CCE6
:103C100054D8DAF80420CAE692104FF0010C0CFADE
:103C200002F24EEA020EC7F804E011E70AEB0802BE
:103C30000A40ABEB020202EA010B5946304600F0A3
:103C4000E9FB431C019BC1D1DDF800B0C2E7542A57
:103C500017D84FEA1C3202F16F03DB006E32E8E640
:103C6000B3F5AA7F17D8EB0B03F1780003F1770EB9
:103C7000C300DAE5C2F800A092E70123CAF80430D5
:103C8000A8E6B2F5AA7F24D84FEADC3202F1780325
:103C9000DB007732CDE640F25452934224D8AB0C8D
:103CA00003F17D0003F17C0EC300BEE5009A083AE3
:103CB0009044A8EB0A084FF0000B8BE7304604F164
:103CC00008010093FFF770FC009BD7F808A0186864
:103CD0009FE740F254539A420CD84FEA9C4202F1BB
:103CE0007D03DB007C32A4E64FF47E737F204FF02F
:103CF0007E0E9AE54FF47E737E229AE67B682CE76F
:103D0000B40900200148FFF7DFBB00BFA409002071
:103D10000148FFF7DBBB00BFA409002070B50029F4
:103D20003FD006460C4610B1436B002B3CD0636E6F
:103D3000B4F90C20DD0732D4900538D52146304641
:103D400000F04CF8E36A054633B1E1693046984724
:103D50000028B8BF4FF0FF35A3891A0639D4216B6C
:103D600041B104F14003994202D03046FFF71CFCF8
:103D700000232363616C21B13046FFF715FC00235B
:103D80006364FFF7FDF9636E0022DB07A2811CD597
:103D9000A06DFFF797FBFFF7F9F9284670BD002AE1
:103DA000CCD10025284670BDFFF7CCF9BFE7A06D48
:103DB000FFF78AFBB4F90C30002BBFD1636ED90733
:103DC000EFD4A06DFFF782FBEBE7A06DFFF77EFB62
:103DD000DEE721693046FFF7E7FBC0E7B1F90C20C9
:103DE000F8B516070C46074649D4496842F4006303
:103DF0000029A3815FDDA56A002D3ED0002112F4C9
:103E000080523E683960E16961D101233846A84794
:103E1000451C02466BD0B4F90C30A56AE16958071D
:103E200005D56368D21A236B0BB1E36BD21A00235A
:103E30003846A847411C4CD13968B4F90C301D29CB
:103E40003FD82F4ACA40D2073BD52269226023F4CB
:103E50000062A281DD044FF00002626001D50029FA
:103E600043D0216B3E6041B104F14003994202D03E
:103E70003846FFF799FB002323630020F8BD0E6945
:103E8000002EFAD00D680E6092070CBF4B6900231C
:103E9000AD1B8B600CE0D4F824C0E1692B463246A0
:103EA0003846E047B0F1000CA5EB0C05664406DD92
:103EB000002DF0DCE1E7E16B00299CDCDDE7B4F9E3
:103EC0000C3043F04003A3814FF0FF30F8BD226D6A
:103ED000A5E7B4F90C302269226023F40062A281C4
:103EE000DB044FF000026260BBD52065B9E73B6898
:103EF000002B90D01D2B01D0162BE0D13E60BCE7EB
:103F00000100402038B50C46054608B1436B03B3A9
:103F1000B4F90C0088B1636EDB0701D481050FD5BD
:103F200028462146FFF75AFF636EDA07054602D49A
:103F3000A3899B0508D5284638BD0546284638BDC7
:103F4000A06DFFF7C1FAEBE7A06DFFF7BFFA2846B7
:103F500038BDFFF7F7F8DBE79368002B00F0F68039
:103F60002DE9F04FB1F90CC01CF0080F83B090465A
:103F700081460C4631D00B697BB31CF00207D8F8A0
:103F8000006038D00027D4F824B0E169DFF8BCA283
:103F90003D4655452B463A4628BF53464846C5B18F
:103FA000D847002840F3C880D8F808301B1A0744C7
:103FB0002D1AC8F80830002B00F0B48055452B4668
:103FC000D4F824B0E16928BF53463A464846002D4C
:103FD000E6D1D6E900750836DBE72146484600F011
:103FE00037F9002840F0AD80B4F90CC0D8F8006073
:103FF0001CF00207C6D11CF0010A63D12368A16836
:10400000574618468B46002F58D01CF4007F00F00E
:10401000B180B9420A4600F2DD801CF4906F2FD0C7
:10402000216962695D1A02EB420202EBD2726B1CDB
:1040300052103B44934292BF93469B461A461CF44F
:10404000806F00F0E68011464846FFF7A9FB002884
:1040500000F0F5802A4621690190FCF7F1FBA28966
:10406000019B22F4906242F08002A2815819ABEBCE
:104070000505C4F814B02361A5602060BB463A462C
:104080005146019200F046F9A1682368019AA1EB1C
:104090000B011A443D46A16022600027D8F8083081
:1040A0005B1BAA44C8F80830002B3BD02368A168EA
:1040B000B4F90CC018468B46002FA6D1D6E900A74C
:1040C00008369EE73846BB463D46002D40D00028C6
:1040D00045D03A46D4E904C32068A168AA4228BF63
:1040E0002A46604504D901EB030A524500F3828059
:1040F000934272DCE169D4F824C05A464846E0474E
:10410000B0F1000A18DDB7EB0A070FD00120D8F88C
:104110000830A3EB0A03D344A5EB0A05C8F808301E
:10412000002BD2D1002003B0BDE8F08F21464846D5
:10413000FFF7E8FE0028EAD0B4F90C3043F0400362
:10414000A3814FF0FF3003B0BDE8F08F002070472F
:10415000756833460836002DFAD0D3F800B02A46E9
:104160000A215846FCF71CFB002865D00130A0EB63
:104170000B07AEE722699A4214D36269BA4211D89A
:104180006FF00043BB4228BF3B46656A93FBF2F3E6
:10419000E16902FB03F348465246A847051ECBDD02
:1041A0007F1B7BE7B94228BF39460D4618460A46B1
:1041B000514600F0AFF8A1682368491B2B44A16069
:1041C00023600029ECD121464846FFF79BFE0028DA
:1041D000E6D0B1E7BB463A4652E75946019200F0B5
:1041E00099F8019AA3689B1AA3602368134423607B
:1041F000924688E75946524600F08CF823685344AB
:10420000236021464846FFF77DFE00283FF47BAF40
:1042100092E7484600F072F9034600287FF426AF83
:1042200021694846FFF7C0F9B4F90C300C22C9F8EF
:10423000002023F0800381E76A1C17464AE70C221E
:10424000B4F90C30C9F8002078E700BF00FCFF7F0C
:1042500038B52F4B1B6805460C4613B15A6B002A24
:104260004BD0B4F90C3018071CD5226922B313F0D7
:10427000010107D0616900204942A060A1613AB103
:10428000002038BD980758BF6169A160002AF7D1A6
:10429000190658BF1046F4D543F04003A3814FF0F0
:1042A000FF3038BDD9062CD55A0712D4226943F005
:1042B0000803A381002ADAD103F42071B1F5007F4D
:1042C000D5D02146284600F0BBFAB4F90C3022695B
:1042D000CDE7216B51B104F14002914204D0284650
:1042E000FFF762F9B4F90C30002222632269002141
:1042F000C4E9002123F02403D9E71846FEF722FF82
:10430000AFE7092243F040032A60A381C7E700BF5B
:104310001800002088420ED98B1883420BD900EB7D
:10432000020C002A6ED0624613F801CD02F801CDCE
:104330009942F9D170470F2A0FD8034602F1FF3C8A
:10434000002A5FD00CF1010C013B8C4411F8012BC9
:1043500003F8012F6145F9D1704740EA01039B073B
:1043600051D1A2F1100370B501F1200C23F00F051B
:1043700001F1100E00F11004AC441B095EF8105C52
:1043800044F8105C5EF80C5C44F80C5C5EF8085C69
:1043900044F8085C5EF8045C44F8045C0EF1100E0E
:1043A000E64504F11004E9D1013312F00C0F01EBE2
:1043B000031102F00F0400EB031328D0043C24F097
:1043C00003064FEA940C1E441C1F8E465EF8045BE5
:1043D00044F8045FB442F9D10CF1010402F0030285
:1043E00003EB840301EB840102F1FF3C4AB10CF1C1
:1043F000010C013B8C4411F8012B03F8012F61459E
:10440000F9D170BD704702F1FF3C03469AE722469E
:10441000EAE700BF38B5074D0022044608462A6087
:10442000FCF706FF431C00D038BD2B68002BFBD0E7
:10443000236038BDA009002038B5074D074C2C1B60
:10444000A41005D0013C55F8043D9847002CF9D143
:10445000BDE8384000F090BA484A0008444A0008D5
:10446000082802D14FF48050704708B5FEF7FAFFD4
:10447000162303604FF0FF3008BD00BF2DE9F8435D
:104480001B4D0646286898460F469146FFF71CF8D4
:10449000184B1C681CB3286865681F2D22DC4EB9B8
:1044A0006B1C0235636044F82570FFF70FF800209D
:1044B000BDE8F88304EB85010123C1F88890D4F8A6
:1044C0008821AB401A43022EC4F88821C1F8088124
:1044D000E6D1D4F88C211A43C4F88C21E0E7064CCD
:1044E0001C60D8E7FEF7F2FF4FF0FF30E0E700BFB7
:1044F00060010020B0090020E80900202DE9F84FF4
:104500001646002900F096800C46804606F10B0501
:10451000FFF7F8FB54F8041C162DA4F1080921F04C
:10452000030758D81025AE4258D8AF4260DABE4BC8
:104530009A6809EB070C6245DCF8040000F09080F3
:1045400020F0010363445B68DB0768D420F00300BC
:104550003B189D4247DDCB0712D454F8083CA9EB29
:10456000030BDBF8043023F00302104400EB070ACE
:10457000554540F3F68007EB020A554540F3CC80E1
:1045800031464046FFF70CF90646002800F020812E
:1045900054F8043C23F001034B44A0F10802934279
:1045A00000F0B4803A1F242A00F2D780132A00F2C8
:1045B000A2800346224611681960516859609268CA
:1045C0009A6021464046FEF7EFFF4046FFF7A0FB0A
:1045D0003046BDE8F88F35F00705A4D50C23C8F8A0
:1045E0000030002618E01F46DCE90223D3609A6001
:1045F000D9F804307A1B0F2A03F0010309EB0700F6
:104600001DD83B43C9F80430436843F001034360BD
:104610004046FFF77DFB26463046BDE8F88FC907C8
:10462000AED454F8083CA9EB030BDBF8043023F0BC
:104630000302A0E7BDE8F84F1146FFF7B1B809EB58
:1046400005012B4342F00102C9F804304A60436877
:1046500043F00103436008314046FEF7A5FFD7E76A
:1046600020F00300C21905F1100C624580F2918020
:10467000CA0785D454F8082CA9EB020BDBF80420F8
:1046800022F00302104400EB070AD4453FF773AF52
:104690005E46DBF80C1056F8080F3A1F242AC1605A
:1046A000886000F2AE80132A40F2A9802168CBF81E
:1046B00008106168CBF80C101B2A00F2A88008349F
:1046C0000BF110022168116061685160A16891606E
:1046D0000BEB0501AAEB050242F0010299604A606A
:1046E000DBF8043003F001032B434046CBF80430E1
:1046F000FFF70EFB90E723680360636843601B2AA3
:104700003CD804F1080200F1080354E750F8043CD7
:1047100023F003031F446BE73A1F5E46DBF80C30BF
:1047200056F8081F242ACB60996022D8132A1ED974
:104730002368CBF808306368CBF80C301B2A3BD8D1
:1047400008340BF1100322681A6062685A60A2688C
:104750009A6034465746D9464AE72146FFF7DAFDC4
:104760002FE7DCE902133A1FCB609960D5E73346A7
:10477000E9E721463046FFF7CDFDEAE7A36883600D
:10478000E368C360242A27D004F1100200F110036B
:1047900011E709EB05019960531B43F001034B60DE
:1047A00054F8043C03F001032B43404644F8043C16
:1047B000FFF7AEFA26462FE7A368CBF81030E36880
:1047C000CBF81430242A10D010340BF11803BAE7B8
:1047D0004046FFF79DFA04E723690361616941617F
:1047E00004F1180200F11803E5E62369CBF818304C
:1047F0006369CBF81C3018340BF12003A3E7324671
:1048000060E721463046FFF785FD074B60E7A1686A
:10481000CBF81010E168CBF81410242A06D010341D
:104820000BF118024EE700BF700100202269CBF89F
:1048300018206269CBF81C2018340BF1200241E7E4
:104840002DE9F041B1F90C300C46990796B008D526
:1048500004F143030122C4E90432236016B0BDE829
:10486000F081B4F90E100029064626DB6A4600F0F6
:1048700055F800281FDB019D05F47045A5F500558E
:10488000B5FA85F54FF480686D094FF4006741462D
:104890003046FEF785FFE8B1B4F90C30C4F8148057
:1048A00043F0800320602061A3813DBB3B43A38193
:1048B00016B0BDE8F081B4F90C3013F0800519D0C2
:1048C0004FF040080025414630462F46FEF768FF6E
:1048D0000028E1D1B4F90C309A05BFD423F00303CA
:1048E00004F1430243F002030121C4E90421A3813E
:1048F0002260B3E74FF480682F46C8E7B4F90E1082
:10490000304600F021F810B9B4F90C30CEE7A38995
:1049100023F0030343F001031BB2C7E770B50C4655
:10492000084D03460026204611461C462E60FCF723
:1049300076FC431C00D070BD2B68002BFBD023609D
:1049400070BD00BFA009002038B5074D0022044605
:1049500008462A60FCF768FC431C00D038BD2B6871
:10496000002BFBD0236038BDA0090020F8B500BFA4
:10497000F8BC08BC9E467047F8B500BFF8BC08BC40
:044980009E46704798
:1049840043414E206D65737361676520726563658D
:10499400697665640D0A000043414E207472616EAD
:1049A400736D697373696F6E206661696C65640DFC
:1049B4000A00000043414E206D65737361676520F2
:1049C40073656E740D0A000043414E206D65737368
:1049D4006167652066756C6C792073656E740D0A69
:1049E4000000000043414E206572726F72206F63B5
:1049F4006375727265640D0A000000005072696E7E
:104A0400746620537563636573730D005541525486
:104A140020546573740D0A000000000001020304B1
:104A2400000000000000000001020304060708095A
:084A34008CBCFF7F01000000B3
:084A3C00D1340008DD09000877
:044A4400B5090008A8
:104A48000024F40001000000100000000000000035
:104A5800030000006408002020000020000000007F
:104A68000000000064080020CC0800203409002061
:104A7800000000000000000000000000000000002E
:104A8800000000000000000000000000000000001E
:104A9800000000000000000000000000000000000E
:104AA80000000000000000000000000000000000FE
:104AB80000000000000000000000000000000000EE
:104AC80000000000000000000000000000000000DE
:104AD80000000000000000000000000000000000CE
:104AE80000000000000000000000000000000000BE
:104AF80000000000000000000100000000000000AD
:104B08000E33CDAB34126DE6ECDE05000B00000071
:104B1800000000000000000000000000000000008D
:104B2800000000000000000000000000000000007D
:104B3800000000000000000000000000000000006D
:104B4800000000000000000000000000000000005D
:104B5800000000000000000000000000000000004D
:104B6800000000000000000000000000000000003D
:104B7800000000000000000000000000000000002D
:104B8800000000000000000000000000000000001D
:104B9800000000000000000000000000000000000D
:104BA800A8090020FFFFFFFF00000200000000002E
:104BB80000000000000000007001002070010020CB
:104BC8007801002078010020800100208001002069
:104BD8008801002088010020900100209001002019
:104BE8009801002098010020A0010020A0010020C9
:104BF800A8010020A8010020B0010020B001002079
:104C0800B8010020B8010020C0010020C001002028
:104C1800C8010020C8010020D0010020D0010020D8
:104C2800D8010020D8010020E0010020E001002088
:104C3800E8010020E8010020F0010020F001002038
:104C4800F8010020F80100200002002000020020E6
:104C58000802002008020020100200201002002094
:104C68001802002018020020200200202002002044
:104C780028020020280200203002002030020020F4
:104C880038020020380200204002002040020020A4
:104C98004802002048020020500200205002002054
:104CA8005802002058020020600200206002002004
:104CB80068020020680200207002002070020020B4
:104CC8007802002078020020800200208002002064
:104CD8008802002088020020900200209002002014
:104CE8009802002098020020A0020020A0020020C4
:104CF800A8020020A8020020B0020020B002002074
:104D0800B8020020B8020020C0020020C002002023
:104D1800C8020020C8020020D0020020D0020020D3
:104D2800D8020020D8020020E0020020E002002083
:104D3800E8020020E8020020F0020020F002002033
:104D4800F8020020F80200200003002000030020E1
:104D5800080300200803002010030020100300208F
:104D6800180300201803002020030020200300203F
:104D780028030020280300203003002030030020EF
:104D8800380300203803002040030020400300209F
:104D9800480300204803002050030020500300204F
:104DA80058030020580300206003002060030020FF
:104DB80068030020680300207003002070030020AF
:104DC800780300207803002080030020800300205F
:104DD800880300208803002090030020900300200F
:104DE8009803002098030020A0030020A0030020BF
:104DF800A8030020A8030020B0030020B00300206F
:104E0800B8030020B8030020C0030020C00300201E
:104E1800C8030020C8030020D0030020D0030020CE
:104E2800D8030020D8030020E0030020E00300207E
:104E3800E8030020E8030020F0030020F00300202E
:104E4800F8030020F80300200004002000040020DC
:104E5800080400200804002010040020100400208A
:104E6800180400201804002020040020200400203A
:104E780028040020280400203004002030040020EA
:104E8800380400203804002040040020400400209A
:104E9800480400204804002050040020500400204A
:104EA80058040020580400206004002060040020FA
:104EB80068040020680400207004002070040020AA
:104EC800780400207804002080040020800400205A
:104ED800880400208804002090040020900400200A
:104EE8009804002098040020A0040020A0040020BA
:104EF800A8040020A8040020B0040020B00400206A
:104F0800B8040020B8040020C0040020C004002019
:104F1800C8040020C8040020D0040020D0040020C9
:104F2800D8040020D8040020E0040020E004002079
:104F3800E8040020E8040020F0040020F004002029
:104F4800F8040020F80400200005002000050020D7
:104F58000805002008050020100500201005002085
:104F68001805002018050020200500202005002035
:104F780028050020280500203005002030050020E5
:104F88003805002038050020400500204005002095
:104F98004805002048050020500500205005002045
:104FA80058050020580500206005002060050020F5
:084FB8006805002068050020D7
:0400000508001331AB
:00000001FF
