:020000040800F2
:100000000000022029180008791600087B16000855
:100010007D1600087F160008811600080000000009
:10002000000000000000000000000000831600082F
:1000300085160008000000008716000889160008D1
:10004000791800087918000879180008791800084C
:10005000791800087918000879180008791800083C
:10006000791800087918000879180008791800082C
:100070009116000879180008A116000879180008E0
:10008000791800087918000879180008791800080C
:1000900079180008791800087918000879180008FC
:1000A00079180008791800087918000879180008EC
:1000B000B1160008791800087918000879180008A6
:1000C00079180008791800087918000879180008CC
:1000D00079180008C1160008D1160008E1160008BA
:1000E00079180008791800087918000879180008AC
:1000F000791800087918000879180008791800089C
:10010000791800087918000879180008791800088B
:10011000791800087918000879180008791800087B
:10012000791800087918000849170008791800089C
:10013000791800087918000879180008791800085B
:10014000791800087918000879180008791800084B
:10015000791800087918000859170008791800085C
:10016000791800087918000879180008791800082B
:1001700079180008791800087918000800000000B4
:08018000791800087918000845
:1001C00053B94AB9002908BF00281CBF4FF0FF31BE
:1001D0004FF0FF3000F00CB8ADF1080C6DE904CE23
:1001E00003F0B6FDDDF804E0DDE9022304B070475A
:1001F000704700BF00000000000000000000000089
:1002000030B490F800F020F007016FF0000C10F00F
:10021000070491F820F040F048804FF000046FF0A0
:100220000700D1E9002391F840F000F1080082FABC
:100230004CF2A4FA8CF283FA4CF3A2FA8CF34BBB87
:10024000D1E9022382FA4CF200F10800A4FA8CF200
:1002500083FA4CF3A2FA8CF3E3B9D1E9042382FACE
:100260004CF200F10800A4FA8CF283FA4CF3A2FAE3
:100270008CF37BB9D1E9062301F1200182FA4CF21B
:1002800000F10800A4FA8CF283FA4CF3A2FA8CF382
:10029000002BC6D0002A04BF04301A4612BAB2FAA4
:1002A00082F200EBD20030BC7047D1E9002304F0A9
:1002B0000305C4F100004FEAC50514F0040F91F8DE
:1002C00040F00CFA05F562EA05021CBF63EA05037B
:1002D00062464FF00004AAE70000000000000000A2
:1002E00001F0FF01102A2BDB10F0070F08D010F8E7
:1002F000013B013A8B422DD010F0070F42B3F6D1EB
:10030000F0B441EA012141EA014122F007047FF003
:1003100000070023F0E80256083C85EA010586EA5A
:10032000010685FA47F5A3FA87F586FA47F6A5FA96
:1003300087F68EB9EED1F0BC01F0FF0102F00702A2
:1003400032B110F8013B013A83EA010313B1F8D14D
:100350000020704701387047002D06BF354603382E
:10036000073815F0010F07D1013015F4807F02BF67
:10037000013015F4C03F0130F0BC0138704700BFB8
:10038000844641EA000313F003036DD1403A41D3A0
:1003900051F8043B40F8043B51F8043B40F8043B5F
:1003A00051F8043B40F8043B51F8043B40F8043B4F
:1003B00051F8043B40F8043B51F8043B40F8043B3F
:1003C00051F8043B40F8043B51F8043B40F8043B2F
:1003D00051F8043B40F8043B51F8043B40F8043B1F
:1003E00051F8043B40F8043B51F8043B40F8043B0F
:1003F00051F8043B40F8043B51F8043B40F8043BFF
:1004000051F8043B40F8043B51F8043B40F8043BEE
:10041000403ABDD2303211D351F8043B40F8043B8E
:1004200051F8043B40F8043B51F8043B40F8043BCE
:1004300051F8043B40F8043B103AEDD20C3205D39E
:1004400051F8043B40F8043B043AF9D2043208D096
:10045000D2071CBF11F8013B00F8013B01D30B8808
:1004600003806046704700BF082A13D38B078DD0E6
:1004700010F003038AD0C3F10403D21ADB071CBFB8
:1004800011F8013B00F8013B80D331F8023B20F822
:10049000023B7BE7043AD9D3013A11F8013B00F85B
:1004A000013BF9D20B7803704B7843708B788370E3
:1004B0006046704781F0004102E000BF83F00043D6
:1004C00030B54FEA41044FEA430594EA050F08BFEF
:1004D00090EA020F1FBF54EA000C55EA020C7FEAB3
:1004E000645C7FEA655C00F0E2804FEA5454D4EB30
:1004F0005555B8BF6D420CDD2C4480EA020281EAFA
:10050000030382EA000083EA010180EA020281EA31
:100510000303362D88BF30BD11F0004F4FEA013183
:100520004FF4801C4CEA113102D0404261EB410192
:1005300013F0004F4FEA03334CEA133302D0524218
:1005400063EB430394EA050F00F0A780A4F10104D4
:10055000D5F1200E0DDB02FA0EFC22FA05F280180E
:1005600041F1000103FA0EF2801843FA05F35941F4
:100570000EE0A5F120050EF1200E012A03FA0EFC73
:1005800028BF4CF0020C43FA05F3C01851EBE3719D
:1005900001F0004507D54FF0000EDCF1000C7EEBBA
:1005A00000006EEB0101B1F5801F1BD3B1F5001FF8
:1005B0000CD349085FEA30004FEA3C0C04F1010417
:1005C0004FEA445212F5800F80F09A80BCF1004F40
:1005D00008BF5FEA500C50F1000041EB045141EAC2
:1005E000050130BD5FEA4C0C404141EB0101013C8B
:1005F00028BFB1F5801FE9D291F0000F04BF01467A
:100600000020B1FA81F308BF2033A3F10B03B3F14B
:1006100020020CDA0C3208DD02F1140CC2F10C02DB
:1006200001FA0CF021FA02F10CE002F11402D8BF39
:10063000C2F1200C01FA02F120FA0CFCDCBF41EA05
:100640000C019040E41AA2BF01EB0451294330BDD4
:100650006FEA04041F3C1CDA0C340EDC04F11404B1
:10066000C4F1200220FA04F001FA02F340EA030088
:1006700021FA04F345EA030130BDC4F10C04C4F1CE
:10068000200220FA02F001FA04F340EA03002946AE
:1006900030BD21FA04F0294630BD94F0000F83F4F8
:1006A000801306BF81F480110134013D4EE77FEADB
:1006B000645C18BF7FEA655C29D094EA050F08BF27
:1006C00090EA020F05D054EA000C04BF1946104608
:1006D00030BD91EA030F1EBF0021002030BD5FEA4C
:1006E000545C05D14000494128BF41F0004130BD74
:1006F00014F580043CBF01F5801130BD01F00045C8
:1007000045F0FE4141F470014FF0000030BD7FEA3A
:10071000645C1ABF194610467FEA655C1CBF0B4635
:10072000024650EA013406BF52EA033591EA030F4C
:1007300041F4002130BD00BF90F0000F04BF002144
:10074000704730B54FF4806404F132044FF0000577
:100750004FF0000150E700BF90F0000F04BF0021F0
:10076000704730B54FF4806404F1320410F0004556
:1007700048BF40424FF000013EE700BF42004FEA51
:10078000E2014FEA31014FEA02701FBF12F07F43CE
:1007900093F07F4F81F06051704732F07F4208BF85
:1007A000704793F07F4F04BF41F40021704730B58C
:1007B0004FF4607401F0004521F000411CE700BFD8
:1007C00050EA010208BF704730B54FF000050AE05B
:1007D00050EA010208BF704730B511F0004502D55C
:1007E000404261EB41014FF4806404F132045FEA5E
:1007F000915C3FF4D8AE4FF003025FEADC0C18BF07
:1008000003325FEADC0C18BF033202EBDC02C2F1F8
:10081000200300FA03FC20FA02F001FA03FE40EA8A
:100820000E0021FA02F11444BDE600BF70B54FF08E
:10083000FF0C4CF4E06C1CEA11541DBF1CEA13556C
:1008400094EA0C0F95EA0C0F00F0DEF82C4481EAD4
:10085000030621EA4C5123EA4C5350EA013518BFF4
:1008600052EA033541F4801143F4801338D0A0FBE1
:1008700002CE4FF00005E1FB02E506F00042E0FB8E
:1008800003E54FF00006E1FB03569CF0000F18BF94
:100890004EF0010EA4F1FF04B6F5007F64F540743C
:1008A00004D25FEA4E0E6D4146EB060642EAC621CF
:1008B00041EA55514FEAC52040EA5E504FEACE2E3C
:1008C000B4F1FD0C88BFBCF5E06F1ED8BEF1004F3F
:1008D00008BF5FEA500E50F1000041EB045170BDBB
:1008E00006F0004646EA010140EA020081EA0301FF
:1008F000B4EB5C04C2BFD4EB0C0541EA045170BDFB
:1009000041F480114FF0000E013C00F3AB8014F174
:10091000360FDEBF002001F0004170BDC4F10004BD
:10092000203C35DA0C341BDC04F11404C4F120053E
:1009300000FA05F320FA04F001FA05F240EA020099
:1009400001F0004221F0004110EBD37021FA04F6CF
:1009500042EB06015EEA430E08BF20EAD37070BD89
:10096000C4F10C04C4F1200500FA04F320FA05F0E8
:1009700001FA04F240EA020001F0004110EBD370EA
:1009800041F100015EEA430E08BF20EAD37070BD5A
:10099000C4F1200500FA05F24EEA020E20FA04F333
:1009A00001FA05F243EA020321FA04F001F00041E2
:1009B00021FA04F220EA020000EBD3705EEA430E53
:1009C00008BF20EAD37070BD94F0000F0FD101F082
:1009D0000046400041EB010111F4801F08BF013CBB
:1009E000F7D041EA060195F0000F18BF704703F0F9
:1009F0000046520043EB030313F4801F08BF013D80
:100A0000F7D043EA0603704794EA0C0F0CEA13553B
:100A100018BF95EA0C0F0CD050EA410618BF52EAF5
:100A20004306D1D181EA030101F000414FF00000FB
:100A300070BD50EA410606BF1046194652EA430609
:100A400019D094EA0C0F02D150EA013613D195EA7D
:100A50000C0F05D152EA03361CBF104619460AD1C5
:100A600081EA030101F0004141F0FE4141F47001CF
:100A70004FF0000070BD41F0FE4141F4780170BDBF
:100A800070B54FF0FF0C4CF4E06C1CEA11541DBF24
:100A90001CEA135594EA0C0F95EA0C0F00F0A7F826
:100AA000A4EB050481EA030E52EA03354FEA013153
:100AB00000F088804FEA03334FF0805545EA131366
:100AC00043EA12634FEA022245EA111545EA10652E
:100AD0004FEA00260EF000419D4208BF964244F1C5
:100AE000FD0404F5407402D25B084FEA3202B61AE4
:100AF00065EB03055B084FEA32024FF480104FF4B8
:100B0000002CB6EB020E75EB030E22BFB61A75462B
:100B100040EA0C005B084FEA3202B6EB020E75EBBE
:100B2000030E22BFB61A754640EA5C005B084FEA26
:100B30003202B6EB020E75EB030E22BFB61A7546F3
:100B400040EA9C005B084FEA3202B6EB020E75EBFE
:100B5000030E22BFB61A754640EADC0055EA060EBF
:100B600018D04FEA051545EA16754FEA06164FEA02
:100B7000C30343EA52734FEAC2025FEA1C1CC0D1AE
:100B800011F4801F0BD141EA00014FF000004FF03B
:100B9000004CB6E711F4801F04BF01430020B4F1FC
:100BA000FD0C88BFBCF5E06F3FF6AFAEB5EB030CB4
:100BB00004BFB6EB020C5FEA500C50F1000041EBB1
:100BC000045170BD0EF0004E4EEA113114EB5C047E
:100BD000C2BFD4EB0C0541EA045170BD41F4801151
:100BE0004FF0000E013C90E645EA060E8DE60CEA59
:100BF000135594EA0C0F08BF95EA0C0F3FF43BAF76
:100C000094EA0C0F0AD150EA01347FF434AF95EA2C
:100C10000C0F7FF425AF104619462CE795EA0C0F10
:100C200006D152EA03353FF4FDAE1046194622E7DD
:100C300050EA410618BF52EA43067FF4C5AE50EAB7
:100C400041047FF40DAF52EA43057FF4EBAE12E7A7
:100C50004FF0FF3C06E000BF4FF0010C02E000BF88
:100C60004FF0010C4DF804CD4FEA410C7FEA6C5C6B
:100C70004FEA430C18BF7FEA6C5C1BD001B050EA0E
:100C8000410C0CBF52EA430C91EA030F02BF90EAF9
:100C9000020F0020704710F1000F91EA030F58BFB8
:100CA000994208BF90422CBFD8176FEAE37040F01A
:100CB000010070474FEA410C7FEA6C5C02D150EAB8
:100CC000013C07D14FEA430C7FEA6C5CD6D152EA73
:100CD000033CD3D05DF8040B704700BF8446104638
:100CE00062468C461946634600E000BF01B5FFF737
:100CF000B7FF002848BF10F1000F01BD4DF808ED07
:100D0000FFF7F4FF0CBF012000205DF808FB00BFD7
:100D10004DF808EDFFF7EAFF34BF012000205DF831
:100D200008FB00BF4DF808EDFFF7E0FF94BF01207E
:100D300000205DF808FB00BF4DF808EDFFF7CEFF7F
:100D400094BF012000205DF808FB00BF4DF808EDBE
:100D5000FFF7C4FF34BF012000205DF808FB00BF8F
:100D60004FEA410C7FEA6C5C02D150EA013C0AD1A7
:100D70004FEA430C7FEA6C5C02D152EA033C02D199
:100D80004FF0000070474FF0010070474FEA4102FA
:100D900012F5001215D211D56FF47873B3EB6252CD
:100DA00012D94FEAC12343F0004343EA505311F0F4
:100DB000004F23FA02F018BF404270474FF0000086
:100DC000704750EA013005D111F0004008BF6FF0C4
:100DD000004070474FF00000704700BF0348044BCD
:100DE000834202D0034B03B118477047E40600204A
:100DF000E4060020000000000548064B1B1AD90F2E
:100E000001EBA301491002D0034B03B1184770470F
:100E1000E4060020E40600200000000010B5064CA7
:100E2000237843B9FFF7DAFF044B13B10448AFF35B
:100E300000800123237010BDE406002000000000A4
:100E4000D4A0000808B5054B1BB105490548AFF310
:100E50000080BDE80840FFF7CFBF00BF00000000E2
:100E6000E8060020D4A0000882B0002100910B4BBE
:100E70001A6B42F001021A631A6B02F0010200922F
:100E8000009A01911A6B42F002021A631B6B03F085
:100E900002030193019B02B0704700BF003802407B
:100EA00010B582B0002400941A4B1A6B42F48002F1
:100EB0001A631A6B02F480020092009A01941A6B72
:100EC00042F400121A631B6B03F400130193019B9D
:100ED000224621460C2000F08BFD0C2000F098FDEE
:100EE000224621460E2000F083FD0E2000F090FDEA
:100EF000224621463A2000F07BFD3A2000F088FD92
:100F000022462146462000F073FD462000F080FD79
:100F100002B010BD0038024000B583B001904FF61A
:100F2000FF73012201A9034802F0ADFB019803B051
:100F30005DF804FB5C09002008B502680A4B1B68D9
:100F40009A4200D008BD037F012B07D0022BF9D1B4
:100F5000042101F00CFD054B1860F3E7002101F0BE
:100F600006FD034B1860EDE7EC0900204407002064
:100F70004807002070B504460D46002342E0A15CFE
:100F80000844C0B201320CF102019142F7D8625C10
:100F9000824231D114F80E20012A01D0334631E0CB
:100FA00023441A795979090441EA02619A7941EA9C
:100FB0000221DA791143187A5A7A120442EA00625D
:100FC000987A42EA0022D87A024393F80CC0587B00
:100FD000000440EA0C6093F80EC040EA0C20DB7B72
:100FE0000343154801601548026015480360154821
:100FF00003F0FCF8334605E0134803F059F9334693
:1010000000E00133AB4215D2E25CAA2AF9D1E21822
:101010005278552AF5D103F1030EAE450AD29A1C37
:1010200014F802C09C440CF10306AE4202D872468A
:101030000020A8E770BD00BF48070020440700203B
:1010400040070020F0A0000830A1000800B587B0DC
:10105000AA238DF8043055238DF805300E238DF822
:10106000063001238DF80730214B1B681A0E8DF8CE
:1010700008201A0C8DF809201A0A8DF80A208DF81C
:101080000B301C4B1B681A0E8DF80C201A0C8DF8B7
:101090000D201A0A8DF80E208DF80F30164B1B68A4
:1010A0001A0E8DF810201A0C8DF811201A0A8DF8DE
:1010B00012208DF813300323002207E003F11801FA
:1010C000694411F8141C0A44D2B201330F2BF5DD28
:1010D0008DF814204FF0FF33112201A9074802F0C8
:1010E000D2FA074803F0E4F807B05DF804FB00BF4C
:1010F0004807002044070020400700201409002072
:1011000038A1000872B6FEE708B50A480A4B03602A
:101110004FF4E133436000238360C36003610C221A
:1011200042618361C36102F07EFA00B908BDFFF736
:10113000E9FF00BF5C0900200010014000B591B03C
:1011400000230C930D930E930F9307930893099329
:101150000A930B93039304930593069301930293CD
:101160002C484FF0804202604722426083604FF675
:10117000FF72C2600361836101F032FD00283AD141
:101180004FF480530C930CA9224801F003FF002870
:1011900033D1204801F07CFD002830D1042307938F
:1011A00060230893002309930A930B9307A9194816
:1011B00001F0CBFF28BB0223039304930022059286
:1011C000069203A9134801F073FEE0B900230393CC
:1011D00001230493042203A90E4801F069FEA0B97B
:1011E00000230193029301A90A4802F09BF870B909
:1011F00011B05DF804FBFFF785FFFFF783FFFFF7F2
:1012000081FFFFF77FFFFFF77DFFFFF77BFFFFF712
:1012100079FF00BFEC09002000B58FB000230A93CE
:101220000B930C930D9308930993019302930393EB
:1012300004930593069307931E481F4A02604722B2
:10124000426083606322C2600361836101F0C8FC75
:1012500028BB4FF480530A930AA9164801F09AFE5E
:10126000F8B9144801F0E8FCE8B9002308930993A1
:1012700008A9104802F056F8B8B960230193322348
:10128000029300220392059201A90A4801F064FD2D
:1012900068B9084800F046F90FB05DF804FBFFF7A5
:1012A00031FFFFF72FFFFFF72DFFFFF72BFFFFF7B2
:1012B00029FF00BFA4090020000C004008B50A481F
:1012C0000A4B03604FF4E133436000238360C36043
:1012D00003610C2242618361C36102F0A4F900B989
:1012E00008BDFFF70FFF00BF1409002000440040B5
:1012F00008B50D480D4B03604FF4E1334360002304
:101300008360C36003610C2242618361C36102F0A8
:101310008AF930B9044B1A68D36843F01003D360DC
:1013200008BDFFF7EFFE00BFCC08002000480040DA
:1013300000B595B03022002108A803F009F8002379
:101340000393049305930693079301931E4A116C2C
:1013500041F080511164126C02F080520192019AA6
:1013600002931A4A116841F480411160126802F434
:1013700080420292029A0222089201210B911021CE
:101380000C910E920F9308231093482311931292FD
:101390000423139308A800F0ADFE80B90F23039334
:1013A00002210491002305934FF480520692079383
:1013B00003A801F0EFF820B915B05DF804FBFFF7C2
:1013C000A1FEFFF79FFE00BF003802400070004002
:1013D00008B500F079FAFFF7ABFFFFF745FDFFF71F
:1013E0005FFDFFF791FEFFF7A9FEFFF715FFFFF77F
:1013F00065FFFFF77DFF0E4C0021204601F0DEFE69
:101400000421204601F0DAFE4FF4FA7000F088FA69
:10141000084B1A68084BB3FBF2F308490B60084904
:101420000968084802F0E2FEFFF710FEECE700BF93
:10143000EC0900204407002040420F004007002034
:101440004807002048A1000882B0002100910B4B02
:101450005A6C42F480425A645A6C02F48042009200
:10146000009A01911A6C42F080521A641B6C03F0CE
:1014700080530193019B02B0704700BF00380240C7
:1014800010B588B000230393049305930693079344
:101490000368B3F1804F01D008B010BD002401945F
:1014A00003F50E331A6C42F001021A641A6C02F052
:1014B00001020192019A02941A6B42F001021A632E
:1014C0001B6B03F001030293029B0223039304931B
:1014D0000123079303A9064800F012FD2246214686
:1014E0001C2000F085FA1C2000F092FAD4E700BF1F
:1014F000000002400268094B9A4200D0704782B057
:1015000000230193064B1A6C42F008021A641B6C0C
:1015100003F008030193019B02B07047000C0040E8
:101520000038024000B587B0002301930293039373
:101530000493059302680E4B9A4202D007B05DF8FF
:1015400004FB002300930B4B1A6B42F001021A6359
:101550001B6B03F001030093009B01230193022303
:101560000293059301A9044800F0CAFCE6E700BF16
:10157000000C0040003802400000024030B589B045
:10158000002303930493059306930793026803F1E2
:10159000804303F588339A4201D009B030BD044638
:1015A0000025019503F594335A6C42F010025A64F9
:1015B0005A6C02F010020192019A02951A6B42F0E5
:1015C00001021A631B6B03F001030293029B4FF4A9
:1015D000C063039302230493032306930723079313
:1015E00003A9204800F08CFC1F48204B03604FF0FB
:1015F000006343608560C5604FF4806303614561AB
:101600008561C5610562456200F094FA18BB164B0E
:10161000E3639C631648174B03604FF0006343601D
:10162000402383600023C3604FF480620261436102
:101630008361C3610362436200F07CFA70B90C4BB2
:10164000A3639C6300221146252000F0D1F92520D8
:1016500000F0DEF9A1E7FFF755FDD8E7FFF752FDEF
:10166000EDE700BF000002406C080020406402402B
:101670000C080020B8640240FEE7FEE7FEE7FEE744
:10168000FEE770477047704708B500F037F908BDAE
:1016900008B5024800F046FB08BD00BFAC070020BB
:1016A00008B5024800F03EFB08BD00BF4C07002013
:1016B00008B5024801F078F908BD00BFEC09002028
:1016C00008B5024802F040F908BD00BF5C090020DF
:1016D00008B5024802F038F908BD00BF140900201F
:1016E00030B583B0154B1B681A6812F0100F03D089
:1016F000DA6812F0100F04D1104802F025F903B097
:1017000030BD002201921A6801925B680193019B2F
:101710000B4802F0CDFD094C204602F01AF8E36BAD
:101720001B685968074DC1F140012846FFF722FCAC
:1017300040222946204602F0F7FADDE7CC080020D7
:1017400080A100080007002008B5024800F0EAFA6E
:1017500008BD00BF6C08002008B5024800F0E2FA9E
:1017600008BD00BF0C0800200120704708B502F03A
:1017700095FE162303604FF0FF3008BD08B54FF00B
:10178000FF31FFF7F3FFFEE770B50C461646002564
:1017900006E0AFF30080214601F8010B01350C464D
:1017A000B542F6DB304670BD70B50C4616460025D6
:1017B00004E014F8010BFFF7AFFB0135B542F8DB8D
:1017C000304670BD4FF0FF3070474FF400534B6010
:1017D00000207047012070470020704710B5034675
:1017E0000C4A0D490D48006840B10C48006803449C
:1017F000521A934206D8094A136010BD0748084C94
:101800000460F2E702F04AFE0C2303604FF0FF3061
:10181000F3E700BF0000022000040000340A0020AB
:10182000500D002070470000DFF834D0FFF7FAFFBA
:101830000C480D490D4A002302E0D458C45004332B
:10184000C4188C42F9D30A4A0A4C002301E0136001
:101850000432A242FBD302F027FEFFF7B9FD704726
:101860000000022000000020E4060020B8A50008C7
:10187000E4060020500D0020FEE7000010B50446ED
:101880000E4B1A784FF47A73B3FBF2F30C4A1068DC
:10189000B0FBF3F000F0C0F868B90F2C01D90120BB
:1018A0000AE0002221464FF0FF3000F0A1F8054B7E
:1018B0001C60002000E0012010BD00BF04000020DB
:1018C000000000200800002008B50B4B1A6842F405
:1018D00000721A601A6842F480621A601A6842F450
:1018E00080721A60032000F071F80F20FFF7C6FF26
:1018F000FFF7AAFD002008BD003C0240034A116822
:10190000034B1B780B441360704700BF380A00205C
:1019100004000020014B1868704700BF380A0020FF
:1019200038B50446FFF7F6FF0546B4F1FF3F02D095
:10193000044B1B781C44FFF7EDFF401BA042FAD379
:1019400038BD00BF04000020002807DB00F01F02A4
:10195000400901239340024A42F82030704700BFFB
:1019600000E100E0002808DB0901C9B200F1604095
:1019700000F5614080F80013704700F00F00090186
:10198000C9B2014B1954704714ED00E000B500F0E6
:101990000700C0F1070CBCF1040F28BF4FF0040C86
:1019A000031D062B0FD9C31E4FF0FF3E0EFA0CF09D
:1019B00021EA000199400EFA03FE22EA0E0241EAF2
:1019C00002005DF804FB0023EEE70000074AD3683D
:1019D00023F4E0631B041B0C000200F4E0600343EB
:1019E00043F0BF6343F40033D360704700ED00E081
:1019F00010B50446054BD868C0F30220FFF7C6FFB8
:101A000001462046FFF7AEFF10BD00BF00ED00E02D
:101A100008B5FFF799FF08BD0138B0F1807F0BD200
:101A20004FF0E0235861054AF02182F8231000208E
:101A3000986107221A6170470120704700ED00E0AD
:101A400030B405682C6824F480242C60046863603A
:101A50008368402B05D0036899600368DA6030BC66
:101A6000704703689A600368D960F8E710B40368A8
:101A7000D9B21039094AA2FB01421209084CA25CF2
:101A8000C2655F2906D96FF3090304338365806D4E
:101A900010BC70476FF309038365F8E7ABAAAAAAE5
:101AA0005CA30008836A826992B9012B0AD0022BD9
:101AB00002D00BB100207047C36A13F0807F28D199
:101AC00000207047C36AB3F1C07F24D00020704764
:101AD000B2F5005F09D0022B25D9032B25D1C36AAB
:101AE00013F0807F23D100207047032B03D8DFE859
:101AF00003F01404140A00207047C36A13F0807FB7
:101B00000DD100207047C36AB3F1C07F09D0002017
:101B10007047012070470120704701207047012065
:101B20007047012070470120704700207047012056
:101B30007047000070B50446FFF7ECFE002C5BD048
:101B40000546022384F83530002384F834302268B7
:101B5000136823F00103136023681A6812F0010F61
:101B60000AD0FFF7D7FE431B052BF5D92023636569
:101B7000032084F8350070BD1A682049114062685E
:101B8000A0680243E068024320690243606902439F
:101B9000A0690243E0690243206A02430A43616A82
:101BA00004291ED01A602668756925F00705636A46
:101BB0001D43042B07D1A36A1D43E36A1BB12046D2
:101BC000FFF770FF90B975612046FFF74FFFE26D98
:101BD0003F239340836000206065012384F8353003
:101BE000C9E7E16A206B01430A43DBE740236365F1
:101BF000012084F83500BEE70120BCE73F8010F0EB
:101C000038B50446856D90F8340001282BD00120AA
:101C100084F8340094F83500C0B2012804D00023C1
:101C200084F83430022038BD022084F835000020CA
:101C300060652046FFF704FFE26D3F239340AB60F1
:101C40002268136843F016031360236C23B12268E3
:101C5000136843F0080313602268136843F001031C
:101C600013600020DFE70220DDE770B50446866DD3
:101C7000FFF750FE94F83530DBB2022B06D08023FC
:101C80006365002384F83430012070BD0546226866
:101C9000136823F0160313602268536923F080034E
:101CA0005361236CE3B12268136823F008031360C7
:101CB0002268136823F00103136023681B6813F084
:101CC000010F11D0FFF726FE431B052BF5D920236A
:101CD0006365032084F83500002384F83430D4E7AA
:101CE000A36C002BDFD1E3E7E26D3F239340B360A9
:101CF000012384F83530002084F83400C5E790F8DB
:101D00003530DBB2022B03D08023436501207047BE
:101D1000052380F835300268136823F0010313604F
:101D200000207047F0B583B0044600230193724B46
:101D30001D68724BA3FB0535AD0A876D3E68C26D09
:101D400008239340334210D003681A6812F0040F3E
:101D50000BD01A6822F004021A60C26D0823934067
:101D6000BB60436D43F001034365E26D0123934083
:101D7000334209D02268526912F0800F04D0BB6050
:101D8000636D43F002036365E26D042393403342C5
:101D900009D02268126812F0020F04D0BB60636D94
:101DA00043F004036365E26D10239340334224D073
:101DB0002268126812F0080F1FD0BB6023681A68EF
:101DC00012F4802F0DD01B6813F4002F04D1236C64
:101DD0009BB12046984710E0A36C73B1204698470A
:101DE0000BE01A6812F4807F03D11A6822F008020F
:101DF0001A60236C0BB120469847E26D2023934074
:101E0000334255D02268126812F0100F50D0BB60D8
:101E100094F83530DBB2052B0ED023681A6812F423
:101E2000802F33D01B6813F4002F2AD1636C002B52
:101E30003ED0204698473BE02268136823F0160303
:101E400013602268536923F080035361236CA3B1AC
:101E50002268136823F008031360E26D3F23934068
:101E6000BB60012384F83530002384F83430236DBF
:101E7000002B3FD0204698473CE0A36C002BE7D1D5
:101E8000EBE7E36BA3B12046984711E01A6812F420
:101E9000807F09D11A6822F010021A60012384F8A9
:101EA0003530002384F83430E36B0BB1204698477B
:101EB000636DFBB1636D13F0010F17D0052384F838
:101EC00035302268136823F001031360019B01334E
:101ED0000193AB4204D823681B6813F0010FF5D1BE
:101EE000012384F83530002384F83430E36C0BB1DF
:101EF0002046984703B0F0BD00000020B5814E1B7E
:101F000000230F2B00F2EC8030B583B068E08568C9
:101F10004FEA430E032404FA0EF425EA0405CC68C4
:101F200004FA0EF42C438460446824EA02044A68EC
:101F3000C2F300129A40224342605FE0DC0808349A
:101F400050F8242003F00705AD004FF00F0E0EFAF5
:101F500005FE22EA0E0E0A69AA4042EA0E0240F885
:101F600024205FE0072200E0002202FA0EF22A435A
:101F700002345C4D45F824205B4A94686FEA0C02F9
:101F800024EA0C05D1F804E01EF4801F01D04CEACD
:101F90000405554CA560E46802EA0405D1F804E0A4
:101FA0001EF4001F01D04CEA04054F4CE560646844
:101FB00002EA0405D1F804E01EF4003F01D04CEA27
:101FC0000405494C6560246822404D6815F4803F43
:101FD00001D04CEA0402444C226001330F2B7DD81F
:101FE00001229A400C6804EA020C32EA0404F4D19B
:101FF0004C6804F00304013C012C88D94A6802F0C3
:102000000302032A09D0C4685D000322AA4024EA1F
:1020100002048A68AA402243C2604A6802F00302AE
:10202000022A8BD004684FEA430E032202FA0EF212
:1020300024EA02044A6802F0030202FA0EF2224382
:1020400002604A6812F4403FC7D000220192274A3A
:10205000546C44F480445464526C02F48042019203
:10206000019A9C08A51C1F4A52F8255003F0030E44
:102070004FEA8E0E0F2202FA0EF225EA02051C4AE2
:1020800090423FF471AF02F5806290421AD002F59F
:102090008062904218D002F58062904216D002F51C
:1020A0008062904214D002F58062904212D002F514
:1020B0008062904210D002F5806290423FF452AFAD
:1020C000082252E7012250E702224EE703224CE7A2
:1020D00004224AE7052248E7062246E703B030BD5E
:1020E000704700BF00380140003C0140003802400A
:1020F00000000240002800F0E08170B582B0044684
:10210000036813F0010F3BD09F4B9B6803F00C0357
:10211000042B2CD09C4B9B6803F00C03082B21D084
:102120006368B3F5803F4FD0B3F5A02F52D0964BE4
:102130001A6822F480321A601A6822F480221A6027
:102140006368002B50D0FFF7E5FB05468E4B1B68FC
:1021500013F4003F14D1FFF7DDFB401B6428F5D9D1
:102160000320B1E1884B5B6813F4800FD8D0864B15
:102170001B6813F4003F03D06368002B00F09F81BD
:10218000236813F0020F54D07F4B9B6813F00C0FA1
:102190003ED07D4B9B6803F00C03082B33D0E368E3
:1021A000002B68D0794B01221A60FFF7B3FB05467C
:1021B000754B1B6813F0020F54D1FFF7ABFB401BAC
:1021C0000228F5D903207FE16F4A136843F4803376
:1021D0001360B5E76C4B1A6842F480221A601A68E3
:1021E00042F480321A60ABE7FFF794FB0546664B7A
:1021F0001B6813F4003FC3D0FFF78CFB401B64281F
:10220000F5D9032060E1604B5B6813F4800FC6D101
:102210005D4B1B6813F0020F03D0E368012B40F005
:102220005081594A136823F0F803216943EAC10336
:102230001360236813F0080F42D063696BB3534BEC
:102240000122C3F8802EFFF765FB05464E4B5B6FFE
:1022500013F0020F34D1FFF75DFB401B0228F5D9C4
:10226000032031E1484A136823F0F803216943EA67
:10227000C1031360DDE7454B00221A60FFF74AFBFC
:102280000546414B1B6813F0020FD2D0FFF742FB0B
:10229000401B0228F5D9032016E13C4B0022C3F86D
:1022A000802EFFF737FB0546374B5B6F13F0020FAD
:1022B00006D0FFF72FFB401B0228F5D9032003E1CE
:1022C000236813F0040F77D02F4B1B6C13F0805F43
:1022D00033D1002301932C4B1A6C42F080521A64C4
:1022E0001B6C03F080530193019B0125284B1B6855
:1022F00013F4807F23D0A368012B34D0052B38D072
:10230000214B1A6F22F001021A671A6F22F00402A1
:102310001A67A368002B3DD0FFF7FCFA06461A4B5C
:102320001B6F13F0020F46D1FFF7F4FA801B41F246
:1023300088339842F3D90320C6E00025D6E7144A33
:10234000136843F480731360FFF7E4FA0646104BFA
:102350001B6813F4807FCED1FFF7DCFA801B0228C4
:10236000F5D90320B0E0084A136F43F00103136767
:10237000CFE7054B1A6F42F004021A671A6F42F05A
:1023800001021A67C5E700BF00380240000047425B
:1023900000700040FFF7BEFA0646524B1B6F13F069
:1023A000020F08D0FFF7B6FA801B41F2883398423B
:1023B000F3D9032088E0EDB9A369002B00F08380F6
:1023C000484A926802F00C02082A51D0022B17D01A
:1023D000454B00221A66FFF79DFA0446414B1B68E5
:1023E00013F0007F42D0FFF795FA001B0228F5D9C1
:1023F000032069E03B4A136C23F080531364DBE74E
:10240000394B00221A66FFF785FA0546354B1B68E3
:1024100013F0007F06D0FFF77DFA401B0228F5D9A4
:10242000032051E0E369226A1343626A43EA82139C
:10243000A26A5208013A43EA0243E26A43EA0263AB
:10244000284A5360284B01221A66FFF763FA0446B4
:10245000244B1B6813F0007F06D1FFF75BFA001BCB
:102460000228F5D903202FE000202DE000202BE0EA
:10247000012B2BD01B4B5B6803F48001E269914276
:1024800026D103F03F02216A8A4223D1616A47F6CE
:10249000C0721A40B2EB811F1ED103F44031A26A10
:1024A0005208013AB1EB024F18D103F07063E26AAF
:1024B000B3EB026F14D1002006E001207047012029
:1024C00002E0012000E0002002B070BD0120FBE727
:1024D0000120F9E70120F7E70120F5E70120F3E704
:1024E0000120F1E7003802400000474208B5264BC2
:1024F0009B6803F00C03042B41D0082B41D1224BE5
:102500005A6802F03F025B6813F4800F12D01E4B32
:102510005968C1F388111D480023A1FB0001FDF794
:102520004FFE194B5B68C3F3014301335B00B0FB03
:10253000F3F008BD144B5868C0F388104FEA401CF4
:10254000BCEB000C6EEB0E0E4FEA8E1343EA9C635D
:102550004FEA8C11B1EB0C0163EB0E03DB0043EA95
:102560005173C90011EB000C43F1000399020023E1
:102570004FEA8C2041EA9C51FDF722FED1E7034847
:10258000D7E70348D5E700BF0038024040787D0117
:102590000024F400002800F09B8070B50D4604462E
:1025A0004F4B1B6803F007038B4208D2CBB24C4A57
:1025B0001370136803F007038B4240F08B8023688D
:1025C00013F0020F17D013F0040F04D0454A93689C
:1025D00043F4E0539360236813F0080F04D0414A9A
:1025E000936843F4604393603E4A936823F0F0039A
:1025F000A1680B439360236813F0010F32D0636826
:10260000012B21D09A1E012A25D9364A126812F0D0
:10261000020F61D033498A6822F0030213438B60B2
:10262000FFF778F906462F4B9B6803F00C036268AE
:10263000B3EB820F16D0FFF76DF9801B41F28833A0
:102640009842F0D9032042E0264A126812F4003F73
:10265000E0D101203BE0234A126812F0007FD9D17B
:10266000012034E01E4B1B6803F00703AB4207D97F
:10267000EAB21B4B1A701B6803F00703AB422DD163
:10268000236813F0040F06D0164A936823F4E0532E
:10269000E1680B439360236813F0080F07D0114AD9
:1026A000936823F46043216943EAC1039360FFF711
:1026B0001DFF0C4B9B68C3F303130B4AD35CD8403C
:1026C0000A4B18600A4B1868FFF7D8F8002070BD55
:1026D000012070470120FAE70120F8E70120F6E722
:1026E000003C0240003802404CA3000800000020DB
:1026F00008000020014B1868704700BF0000002050
:1027000008B5FFF7F7FF044B9B68C3F38223034A26
:10271000D35CD84008BD00BF0038024044A3000885
:1027200008B5FFF7E7FF044B9B68C3F34233034A46
:10273000D35CD84008BD00BF0038024044A3000865
:1027400030B4036A026A22F00102026242688469BC
:1027500024F0730C0C6844EA0C0423F0020C8B6820
:1027600043EA0C03114DA84203D005F58065A84249
:1027700005D123F00803CD682B4323F004030B4D50
:10278000A84203D005F58065A84207D122F4407223
:102790004D6945EA020C8A6942EA0C024260846192
:1027A0004A684263036230BC704700BF00000140CA
:1027B00030B4036A026A22F4807202624268C46919
:1027C00024F0730C0C6844EA0C0523F400738C6845
:1027D00043EA0423114CA04203D004F58064A042D4
:1027E00006D123F40063CC6843EA042323F4806316
:1027F0000A4CA04203D004F58064A04207D122F421
:1028000040524C6942EA04128C6942EA0412426066
:10281000C5614A68C263036230BC70470000014072
:1028200030B4036A026A22F4805202624468C269C8
:1028300022F4E6420D6842EA052223F400538D6833
:1028400043EA0533094DA84203D005F58065A84247
:1028500004D124F480444D6944EA85144460C26183
:102860004A680264036230BC704700BF0000014048
:1028700010B4036A046A24F001040462846924F039
:10288000F00C4CEA021223F00A030B43826103624C
:1028900010BC704730B4056A046A24F01004046266
:1028A000846924F4407C4CEA022C2CF4704C1B0309
:1028B0009BB243EA0C0325F0A005090101F0A00139
:1028C00029438361016230BC704710B4036A046A13
:1028D00024F010040462846924F4704C4CEA02323F
:1028E00023F0A00343EA01138261036210BC704726
:1028F00030B4056A046A24F480740462C46924F064
:10290000030C4CEA020C2CF0F00C1B01DBB243EA86
:102910000C0325F42065090201F420612943C361F9
:10292000016230BC704730B4056A046A24F48054F4
:102930000462C46924F4407C4CEA022C2CF4704CF0
:102940001B039BB243EA0C0325F42045090301F461
:1029500020412943C361016230BC7047836823F082
:1029600070030B4343F007038360704770470C29E3
:1029700014D8DFE801F0071313130A1313130D1310
:10298000131310000368586B70470368986B704707
:102990000368D86B70470368186C70470020704755
:1029A000704770477047704770B504460368DE682B
:1029B0001D6915F0020F10D016F0020F0DD06FF048
:1029C00002021A610123037703689B6913F0030F66
:1029D0005ED0FEF7B1FA0023237715F0040F12D072
:1029E00016F0040F0FD023686FF004021A6102235F
:1029F000237723689B6913F4407F4FD02046FEF76E
:102A00009BFA0023237715F0080F12D016F0080F59
:102A10000FD023686FF008021A610423237723681C
:102A2000DB6913F0030F40D02046FEF785FA002340
:102A3000237715F0100F12D016F0100F0FD0236867
:102A40006FF010021A61082323772368DB6913F4FF
:102A5000407F31D02046FEF76FFA0023237715F030
:102A6000010F02D016F0010F2DD115F0800F02D00A
:102A700016F0800F2FD115F0400F02D016F0400F46
:102A800031D115F0200F02D016F0200F33D170BDD8
:102A9000FFF787FF2046FFF785FF9CE72046FFF7FB
:102AA00080FF2046FFF77EFFABE72046FFF779FF68
:102AB0002046FFF777FFBAE72046FFF772FF204670
:102AC000FFF770FFC9E723686FF001021A61204623
:102AD000FFF766FFC9E723686FF080021A6120469E
:102AE00000F067FCC7E723686FF040021A612046D8
:102AF000FFF759FFC5E723686FF020021A612046EF
:102B000000F056FCC3E700000368344A904212D03C
:102B1000B0F1804F0FD0A2F57C4290420BD002F56D
:102B20008062904207D002F58062904203D002F5A5
:102B30007842904203D123F070034A681343274A36
:102B400090422AD0B0F1804F27D0A2F57C4290422B
:102B500023D002F5806290421FD002F5806290423D
:102B60001BD002F57842904217D002F57052904285
:102B700013D002F5806290420FD002F5806290423D
:102B80000BD0A2F59832904207D002F580629042B5
:102B900003D002F58062904203D123F44073CA68E7
:102BA000134323F080034A69134303608B68C362B5
:102BB0000B688362094B984203D003F58063984207
:102BC00001D10B69036301234361036913F0010F12
:102BD00003D0036923F00103036170470000014043
:102BE00040B310B5044690F83D30F3B1022384F8A9
:102BF0003D30214651F8040BFFF786FF012384F88E
:102C0000463084F83E3084F83F3084F8403084F811
:102C1000413084F8423084F8433084F8443084F8FA
:102C2000453084F83D30002010BD80F83C30FEF780
:102C300027FCDBE70120704740B310B5044690F84D
:102C40003D30F3B1022384F83D30214651F8040BA6
:102C5000FFF75AFF012384F8463084F83E3084F8A9
:102C60003F3084F8403084F8413084F8423084F8B2
:102C7000433084F8443084F8453084F83D300020F7
:102C800010BD80F83C30FEF735FCDBE701207047D3
:102C900040B310B5044690F83D30F3B1022384F8F8
:102CA0003D30214651F8040BFFF72EFF012384F835
:102CB000463084F83E3084F83F3084F8403084F861
:102CC000413084F8423084F8433084F8443084F84A
:102CD000453084F83D30002010BD80F83C30FFF7CF
:102CE00045FEDBE70120704730B4036A026A22F038
:102CF000100202624468826922F4E6420D6842EAE8
:102D0000052223F020038D6843EA0513114DA842E4
:102D100003D005F58065A84206D123F08003CD6875
:102D200043EA051323F040030A4DA84203D005F5FA
:102D30008065A84207D124F440644D6944EA8504C3
:102D40008D6944EA8504446082614A688263036253
:102D500030BC70470000014038B590F83C30012B82
:102D600066D004460D46012380F83C300C2A5AD820
:102D7000DFE802F0075959591B5959593059595927
:102D800044000068FFF7DCFC2268936943F0080305
:102D900093612268936923F0040393612268936925
:102DA00029690B43936100203EE00068FFF79CFF18
:102DB0002268936943F4006393612268936923F462
:102DC0008063936122689369296943EA01239361CF
:102DD000002029E00068FFF7EBFC2268D36943F08C
:102DE0000803D3612268D36923F00403D361226806
:102DF000D36929690B43D361002015E00068FFF710
:102E00000FFD2268D36943F40063D3612268D3695C
:102E100023F48063D3612268D369296943EA0123DB
:102E2000D361002000E00120002384F83C3038BD4D
:102E30000220FCE770B49446066A046A24F0010498
:102E400004628469184DA8421CD0B0F1804F19D09B
:102E5000164A904216D002F58062904212D002F5D6
:102E6000806290420ED002F5784290420AD002F57C
:102E70007052904206D0A2F59432904202D044F0B3
:102E8000010203E024F0030242EA0C0222F0F00205
:102E90001B01DBB2134326F00A0201F00A011143C1
:102EA0008361016270BC7047000001400004004073
:102EB00038B590F83C30012B5ED004460D46012316
:102EC00080F83C300C2A52D8DFE802F0075151510B
:102ED000195151512C5151513E00CB684A68096833
:102EE0000068FFF7A7FF2268936923F00C03936142
:102EF00022689369A9680B439361002038E0CB688E
:102F00004A6809680068FFF7C5FC2268936923F4E2
:102F10004063936122689369A96843EA012393613E
:102F2000002025E0CB684A6809680068FFF7E0FCEC
:102F30002268D36923F00C03D3612268D369A9689E
:102F40000B43D361002013E0CB684A68096800682E
:102F5000FFF7E9FC2268D36923F44063D361226858
:102F6000D369A96843EA0123D361002000E001206E
:102F7000002384F83C3038BD0220FCE710B484689C
:102F800024F47F4C42EA03220A4342EA0C028260A4
:102F900010BC704790F83C30012B78D010B5044637
:102FA000012380F83C30022380F83D3002689368AA
:102FB00023F47F4323F0770393600B68602B4CD09E
:102FC00023D8402B54D011D8202B03D00AD80BB1D2
:102FD000102B05D119462068FFF7C0FC002028E01F
:102FE000012026E0302BF5D0012022E0502B0AD121
:102FF000CA6849680068FFF73BFC50212068FFF76A
:10300000ADFC002015E0012013E0B3F5805F3AD05D
:10301000B3F5005F14D0702B37D1CB684A6889684C
:103020000068FFF7ABFF2268936843F07703936073
:103030000020012384F83D30002384F83C3010BD8B
:10304000CB684A6889680068FFF798FF2268936830
:1030500043F4804393600020EBE7CA684968006846
:10306000FFF733FC60212068FFF778FC0020E0E7E1
:10307000CA6849680068FFF7FBFB40212068FFF73A
:103080006DFC0020D5E70020D3E70120D1E7022026
:10309000704710B50468A26822F070024B681343B1
:1030A00023F007030A681A43A2604B68502B30D004
:1030B0000BD9602B34D0702B43D10B698A68C96857
:1030C0000068FFF75BFF002010BD402B0CD02ED80E
:1030D000202B2ED004D873B3102B2ED10020F3E771
:1030E000302B2CD10020EFE70B68052B2BD0036889
:1030F0001C6A1A6A22F001021A620268936923F0BC
:10310000F003096943EA0113936103681C6200201C
:10311000DAE70A6989680068FFF7AAFB0020D3E7AD
:103120000A6989680068FFF7D0FB0020CCE701201E
:10313000CAE70020C8E70020C6E70120C4E7012055
:10314000C2E70120C0E70120BEE790F83C30012B28
:1031500022D010B50446012380F83C30022380F8C9
:103160003D30FFF796FF80B92268D36823F0400313
:10317000D3602268D36823F48043D360012384F8AA
:103180003D30002384F83C3010BD012084F83D0020
:10319000002384F83C30F7E70220704701F01F015C
:1031A0004FF0010C0CFA01FC036A23EA0C030362E2
:1031B000036A8A40134303627047000010B5044657
:1031C0000B46F1B990F83E00C0B253BB94F84220D0
:1031D000D2B2012840F09E80012A40F09C8083BB3F
:1031E000022184F83E1084F842100C2B00F29480E7
:1031F000DFE803F0799292924192929273929292C6
:103200007F00042905D0082907D090F84100C0B2FA
:10321000DBE790F83F00C0B2D7E790F84000C0B2BB
:10322000D3E7042B05D0082B07D094F84520D2B261
:10323000CFE794F84320D2B2CBE794F84420D2B23F
:10324000C7E7042B0CD0082B0ED0022184F84110C4
:10325000042B0DD0082B3DD0022184F84510C4E783
:10326000022184F83F10F3E7022184F84010EFE7D1
:10327000022284F843202168CA6842F00402CA602E
:10328000012219462068FFF789FF2368244A9342E8
:1032900035D0B3F1804F32D0A2F57C4293422ED08C
:1032A00002F5806293422AD002F58062934226D0D2
:1032B00002F57842934222D002F5705293421ED01A
:1032C000A2F5943293421AD01A6842F001021A60B1
:1032D000002020E0022284F844202168CA6842F0DD
:1032E0000802CA60CCE72168CA6842F00202CA60DC
:1032F000C6E72168CA6842F01002CA60C0E79A684F
:1033000002F00702062A09D01A6842F001021A6088
:10331000002000E0012010BD1046FCE70020FAE785
:103320000000014090F83C20012A3CD010B4034634
:10333000012280F83C20022280F83D20026850687B
:10334000946820F0700C086840EA0C0050601A681D
:10335000164882421AD0B2F1804F17D0A0F57C40B7
:10336000824213D000F5806082420FD000F5806069
:1033700082420BD000F57840824207D000F57050B1
:10338000824203D0A0F59430824204D124F080041C
:10339000496821439160012283F83D20002083F891
:1033A0003C0010BC70470220704700BF0000014085
:1033B00070477047026802F10C0353E8003F23F0A6
:1033C000C0030C3242E800310029F3D1202380F8F9
:1033D00041307047026802F10C0353E8003F23F4C8
:1033E00090730C3242E800310029F3D1026802F1F7
:1033F000140353E8003F23F00103143242E8003184
:103400000029F3D1036B012B05D0202380F8423033
:10341000002303637047026802F10C0353E8003F86
:1034200023F010030C3242E800310029F3D1ECE71D
:1034300090F84130DBB2212B01D002207047836825
:10344000B3F5805F17D0036A5A1C02621A780368CA
:103450005A60C38C9BB2013B9BB2C3844BB90268D8
:10346000D36823F08003D3600268D36843F040033D
:10347000D360002070470369002BE4D1036A1B88E6
:103480000268C3F308035360036A02330362E0E790
:1034900010B504460268136923F44053C1680B4316
:1034A0001361836802691A4343691A43C3691A4363
:1034B0000168CB6823F4164323F00C031343CB605D
:1034C0000268536923F4407381690B4353610368B5
:1034D000314A934206D002F58062934202D0FFF750
:1034E0000FF901E0FFF71CF9E369B3F5004F29D0AC
:1034F0000021031849411B1841F10001C90041EAAC
:103500005371DB00181863684FEA83024FEA937324
:1035100041F10001FCF754FE204AA2FB00314909A9
:10352000642303FB11031B013233A2FB03235B095A
:1035300003F0F00202EB011203F00F0321681344C1
:103540008B6010BD0023021843EB0301121841F1F8
:103550000001C90041EA5271D200101841F1000186
:10356000626892185B41FCF72BFE0C4AA2FB00310B
:103570004909642303FB1103DB003233A2FB03235D
:103580005B095A0002F4F87202EB011203F0070320
:10359000216813448B60D4E7001001401F85EB5174
:1035A0002DE9F04383B005460E4617469946DDF8EF
:1035B00028802B681C6836EA04040CBF0124002410
:1035C000BC4228D1B8F1FF3FF3D0FEF7A3F9A0EB3E
:1035D0000900404523D8B8F1000F22D02B68DA68E3
:1035E00012F0040FE5D0802EE3D0402EE1D01A680F
:1035F00012F0080FDDD0002401941A6801925B6874
:103600000193019B2846FFF7E5FE08236B6485F8CC
:103610004040012000E0002003B0BDE8F08303201B
:10362000FAE70320F8E760B310B5044690F841309C
:1036300013B3242384F841302268D36823F4005361
:10364000D3602046FFF724FF2268136923F49043D8
:1036500013612268536923F02A0353612268D368F7
:1036600043F40053D36000206064202384F8413089
:1036700084F84230606310BD80F84030FDF77EFF73
:10368000D7E7012070472DE9F04182B01E4690F83F
:103690004130DBB2202B56D104460D46904600291E
:1036A00055D00AB901204FE000234364212380F85C
:1036B0004130FEF72FF90746A4F82480A4F82680AD
:1036C000A368B3F5805F02D04FF0000814E02369CF
:1036D0002BB34FF000080FE0202384F84130032083
:1036E00032E038F8023B2268C3F308035360E28CEF
:1036F00092B2013A92B2E284E38C9BB293B100960B
:103700003B46002280212046FFF74AFF0028E3D1F4
:10371000002DE6D015F8012B23685A60E7E7A8468C
:103720000025E9E700963B46002240212046FFF7AE
:1037300037FF18B9202384F8413005E0202384F8AE
:103740004130032000E0022002B0BDE8F0810120FA
:10375000FAE710B5044603685A6990F84130DBB2C5
:10376000212B0AD023685A6902F0400294F84230B3
:10377000DBB2222B19D0002010BD02F08002002AFB
:10378000F0D0226802F1140353E8003F23F08003D5
:10379000143242E800310029F3D1A06B08B1FEF7E2
:1037A00064FA2046FFF706FEDCE7002AE3D0226831
:1037B00002F1140353E8003F23F04003143242E8BF
:1037C00000310029F3D1E06B08B1FEF74EFA204634
:1037D000FFF700FECFE7704708B50168CA6822F01E
:1037E0004002CA60202280F84120FFF7F4FF002049
:1037F00008BD70477047704710B5846B23685A69DD
:1038000094F84130DBB2212B10D023685A6902F0C2
:10381000400294F84230DBB2222B11D0636C43F0AB
:10382000100363642046FFF7E6FF10BD02F080023C
:10383000002AEAD00023E3842046FFF7BBFDE4E73B
:10384000002AEBD00023E3852046FFF7C3FDE5E720
:1038500008B5806B0023C385C384FFF7CCFF08BD88
:10386000704790F84230DBB2222B69D18368B3F500
:10387000805F4FD0826AB3F5805F04D0002B56D1B1
:103880000369002B53D103685B681370836A0133AB
:103890008362C38D9BB2013B9BB2C385002B51D188
:1038A00000B583B00268D36823F02003D3600268B8
:1038B000D36823F48073D3600268536923F0010353
:1038C0005361202380F8423000234363036B012BB4
:1038D00033D100230363026802F10C0353E8003F75
:1038E00023F010030C3242E800310029F3D10368C1
:1038F0001A6812F0100F06D0002201921A68019285
:103900005B680193019B818DFFF7AAFF002003B044
:103910005DF804FB0269002AACD1826A03685B6827
:10392000C3F308031380836A02338362B1E7036839
:103930005B6803F07F031370A8E7FFF75AFFE5E722
:10394000022070470020704710B582B0044602681C
:103950001368D068516913F00F0F09D113F0200FCD
:103960000CD010F0200F09D02046FFF77AFF16E0A8
:1039700011F0010115D110F4907F12D1216B0129B2
:1039800079D013F0800F03D010F0800F40F0148135
:1039900013F0400F03D010F0400F40F0118102B03F
:1039A00010BD13F0010F06D010F4807F03D0626CBD
:1039B00042F00102626413F0040F04D019B1626C8A
:1039C00042F00202626413F0020F04D019B1626C7B
:1039D00042F00402626413F0080F07D010F0200FC9
:1039E00000D119B1626C42F008026264626C002A74
:1039F000D5D013F0200F02D010F0200F29D123686A
:103A00005B6903F04003626C12F0080F00D163B3EE
:103A10002046FFF7DFFC23685B6913F0400F20D0DE
:103A2000226802F1140353E8003F23F040031432EC
:103A300042E800310029F3D1E36B73B1624A1A65A1
:103A4000E06BFEF75CF90028A9D0E06B036D9847A6
:103A5000A5E72046FFF705FFD1E72046FFF7CBFE9D
:103A60009DE72046FFF7C7FE99E72046FFF7C3FE14
:103A70000023636493E713F0100F82D010F0100F4F
:103A80003FF47FAF002301931368019353680193C0
:103A9000019B536913F0400F52D0E26B13685B68CF
:103AA0009BB2002B3FF47BAFA18D99427FF677AF9D
:103AB000E385D369B3F5807F37D0226802F10C0328
:103AC00053E8003F23F480730C3242E800310029B0
:103AD000F3D1226802F1140353E8003F23F00103FD
:103AE000143242E800310029F3D1226802F11403B4
:103AF00053E8003F23F04003143242E8003100292C
:103B0000F3D1202384F8423000232363226802F19A
:103B10000C0353E8003F23F010030C3242E800315D
:103B20000029F3D1E06BFEF7A0F802236363A18DB7
:103B3000E38D9BB2C91A89B22046FFF791FE2EE7AA
:103B4000A18DE38D9BB2C91A89B2E38D9BB2002B84
:103B50003FF425AF00293FF422AF226802F10C03A5
:103B600053E8003F23F490730C3242E80030002801
:103B7000F3D1226802F1140353E8003F23F001035C
:103B8000143242E800300028F3D1202384F8423078
:103B900000232363226802F10C0353E8003F23F063
:103BA00010030C3242E800300028F3D10223636393
:103BB0002046FFF755FEF2E62046FFF739FCEEE619
:103BC0002046FFF709FEEAE65138000808B5806B89
:103BD00001234363036B012B02D0FFF70BFE08BDEB
:103BE000818D4908FFF73CFEF9E708B50346806B75
:103BF0001B681B6813F4807F2BD10023C3850268E8
:103C000002F10C0353E8003F23F480730C3242E8C6
:103C100000310029F3D1026802F1140353E8003F98
:103C200023F00103143242E800310029F3D1026885
:103C300002F1140353E8003F23F04003143242E83A
:103C400000310029F3D1202380F84230036B012B8F
:103C500007D000234363036B012B0FD0FFF7C9FD8F
:103C600008BD026802F10C0353E8003F23F0100383
:103C70000C3242E800310029F3D1EAE7818DFFF7E9
:103C8000EFFDEDE730B583B00446134681628285CF
:103C900000254564222280F84220C26B1F48D06371
:103CA000E26B1F481064E26B1E48D064E26B15653E
:103CB00020680A46011DE06BFDF7A2FF019523680D
:103CC0001A6801925B680193019B23695BB12268CA
:103CD00002F10C0353E8003F43F480730C3242E8D6
:103CE00000310029F3D1226802F1140353E8003FA8
:103CF00043F00103143242E800310029F3D1226875
:103D000002F1140353E8003F43F04003143242E849
:103D100000310029F3D1002003B030BDEB3B000897
:103D2000CD3B0008F937000808B590F84230DBB207
:103D3000202B08D149B10AB9012008BD0023036333
:103D4000FFF7A0FFF9E70220F7E70120F5E7000001
:103D50002DE9F047089D0E4604460F46002B4AD138
:103D600094468C45B2FA82F260D942B1C2F1200386
:103D7000974020FA03F30CFA02FC1F4394404FEAE9
:103D80001C4E1FFA8CF6B7FBFEF1230C0EFB1177CD
:103D900043EA074301FB06F098420AD91CEB0303F0
:103DA00001F1FF3780F01581984240F2128102390B
:103DB00063441B1AA4B2B3FBFEF00EFB103344EABB
:103DC000034400FB06F6A6420AD91CEB040400F1EA
:103DD000FF3380F00081A64240F2FD806444023847
:103DE00040EA0140A41B00211DB1D4400023C5E9D5
:103DF0000043BDE8F0878B4205D90DB1C5E900014C
:103E000000210846F5E7B3FA83F1002946D1B34211
:103E100002D3824200F2F580841A66EB030201208D
:103E20001746002DE5D0C5E90047E2E7002A40F03B
:103E30009380A1EB0C034FEA1C471FFA8CFE012173
:103E4000B3FBF7F607FB1630230C43EA00430EFBE7
:103E500006F0984208D91CEB030306F1FF3802D2A2
:103E6000984200F2D08046461B1AA4B2B3FBF7F08A
:103E700007FB103344EA03440EFB00FEA64508D9B5
:103E80001CEB040400F1FF3302D2A64500F2B68019
:103E90001846A4EB0E0440EA0640A5E7C1F120074E
:103EA0008B4022FA07FC4CEA030C06FA01FE20FACA
:103EB00007F426FA07F344EA0E0400FA01F84FEA81
:103EC0001C404FEA1449B3FBF0FE1FFA8CF600FBCE
:103ED0001E3349EA03430EFB06F9994502FA01F243
:103EE0000BD91CEB03030EF1FF3A80F08580994556
:103EF00040F28280AEF1020E6344A3EB0909A4B242
:103F0000B9FBF0F300FB139944EA094403FB06F6FE
:103F1000A64208D91CEB040403F1FF3068D2A64284
:103F200066D9023B644443EA0E40A41BA0FB02E6B0
:103F3000B4427346B14652D34FD05DB1B8EB0302E1
:103F400064EB090404FA07F722FA01F31F43CC409B
:103F5000C5E9007400214CE7C2F1200120FA01F309
:103F60000CFA02FC26FA01F1964033434FEA1C4753
:103F70001FFA8CFEB1FBF7F007FB1016190C41EA93
:103F8000064100FB0EF68E4204FA02F408D91CEB3F
:103F9000010100F1FF382DD28E422BD90238614445
:103FA000891B9BB2B1FBF7F607FB161143EA0143ED
:103FB00006FB0EF1994208D91CEB030306F1FF380A
:103FC00014D2994212D9023E63445B1A46EA004178
:103FD00036E73946EDE6184602E7F045ADD2BEEBCE
:103FE000020366EB0C060138B146A6E74646ECE74D
:103FF000034698E74046D3E7D6467EE76444023856
:1040000047E708460DE7023E63442DE7024A0349AD
:10401000034800F0C9B800BF0C000020516A000836
:10402000200000200C4B4168994210B5044601D095
:1040300002F00EFDA168094B994202D0204602F021
:1040400007FDE168064B994204D02046BDE81040C8
:1040500002F0FEBC10BD00BF3C0A0020A40A0020F4
:104060000C0B00202DE9F843314A324C3249DFF87D
:10407000CC90DFF8CC80334F116000250423294613
:10408000082204F15C00C4E903352F4EA560C4E9A1
:104090000055C4E90555656600F05AF904F1580069
:1040A000C4E90749C4E90987E66200F025FA294610
:1040B000264B6367082204F1C400C4E91A55C4E919
:1040C0001E552567C4F8CC50C4F8805000F040F964
:1040D00004F1680304F1C000C4F88430C4E92298F4
:1040E000C4E9247600F008FA194BC4F8DC302946FC
:1040F00004F596700822C4E93455C4E93855C4F86B
:10410000D850C4F83451C4F8E85000F021F904F153
:10411000D003C4E93D87C4F8F09004F59470C4F866
:10412000FC60C4F8EC30BDE8F84300F0E5B900BF2E
:10413000740B00203C0A00200D400008C14200081A
:10414000E542000825430008494300080900010032
:104150001200020010B504460A4800F0D1F9636B62
:1041600023B9094B094A1B68626323B1BDE81040BB
:10417000044800F0C7B9FFF775FFBDE810400148DB
:1041800000F0C0B9840B0020740B0020254000080B
:10419000014800F0B5B900BF840B0020014800F0D1
:1041A000B1B900BF840B00202DE9F84307468846CB
:1041B00016464FF00009D6E90154013D10D4A389F9
:1041C000012B08D9B4F90E3001332146384602D00C
:1041D000C04749EA0009013D6B1C04F16804EED1B7
:1041E0003668002EE7D14846BDE8F8830FB400B525
:1041F000074983B004AB086853F8042B8168019326
:1042000000F0A8FD03B05DF804EB04B0704700BFF8
:104210001800002070B5054688B008460C46FBF72C
:10422000EFFF224E6A6B059001214318CDE906612C
:1042300004A8022104940393AC68019002916AB32C
:10424000636EB4F90C20D90701D496051FD59004EC
:1042500005D442F4005223F40053A281636699040A
:1042600020D401AA2146284602F010FD636EC8B989
:104270000A25DA0702D4A3899B0502D5284608B08F
:1042800070BDA06D00F03EF9284608B070BDA06D6D
:1042900000F036F9B4F90C20636ED8E72846FFF732
:1042A00059FFCDE74FF0FF35E3E700BF98A10008C5
:1042B000024B01461868FFF7ADBF00BF1800002091
:1042C00010B50C46B1F90E1000F0BCF8002803DB65
:1042D000236D0344236510BDA38923F48053A38178
:1042E00010BD00BF2DE9F0410C46B1F90C101F467E
:1042F000CB05054616460BD421F48051A1813B46DF
:10430000B4F90E1032462846BDE8F04100F0B0B8CE
:10431000B4F90E100223002200F07EF8B4F90C105C
:10432000EAE700BF10B50C46B1F90E1000F074F8C2
:10433000B4F90C30421C0EBF23F4805343F4805375
:104340002065A38110BD00BFB1F90E1000F052B876
:10435000830730B547D0541E002A3ED0CAB2034668
:1043600001E0013C39D303F8012B9D07F9D1032C5F
:104370002CD9CDB205EB05250F2C05EB054535D91C
:10438000A4F1100222F00F0C03F1100EE6444FEAE4
:10439000121C1A46C2E90055C2E902551032724594
:1043A000F8D10CF1010214F00C0F03EB021204F02F
:1043B0000F0C13D0ACF1040323F0030304331344B4
:1043C00042F8045B9342FBD10CF003042CB1C9B258
:1043D0001C4403F8011BA342FBD130BD64461346C5
:1043E000002CF4D1F9E703461446C0E71A46A44668
:1043F000E0E700BF38B5074D0022044608462A60B2
:10440000FDF7E0F9431C00D038BD2B68002BFBD032
:10441000236038BD780B002038B50C46084D844623
:10442000114620461A4600232B606446FDF7D4F956
:10443000431C00D038BD2B68002BFBD0236038BD57
:10444000780B002038B50C46084D844611462046AE
:104450001A4600232B606446FDF796F9431C00D0F2
:1044600038BD2B68002BFBD0236038BD780B0020B3
:1044700038B50C46084D8446114620461A4600239E
:104480002B606446FDF790F9431C00D038BD2B68C3
:10449000002BFBD0236038BD780B0020014B18683F
:1044A000704700BF1800002070B50F4B0F4DAB4296
:1044B000A3EB050607D0B610002455F8043B0134E1
:1044C0009847A642F9D805F005FE094D094B5E1B39
:1044D000AB424FEAA60606D0002455F8043B01344F
:1044E0009847A642F9D870BDACA50008ACA5000855
:1044F000ACA50008B4A50008704700BF704700BF16
:10450000704700BF704700BF024B13B1024800F074
:1045100005B8704700000000E9710008002301465B
:104520001A46184602F0B8BE2DE9F84306460820A0
:10453000894602F06DFEDFF89C800546304600F0AB
:10454000FDFBD8F808305F6827F00307A7F11104D6
:10455000A4EB09042C44B4FBF5F4013C05FB04F482
:10456000A54208DC0021304602F02CFED8F80830C5
:104570003B44984205D0304600F0E6FB0020BDE801
:10458000F8836142304602F01DFE01300FD0124A1E
:10459000D8F808303F1B47F001075F6013683046CA
:1045A0001B1B136000F0D0FB0120BDE8F883002145
:1045B000304602F007FED8F80820831A0F2BDADD08
:1045C00043F001035360054B03491B68C01A0860A0
:1045D000D1E700BF700100208C0B00206401002097
:1045E00000297CD0F8B50C46064600F0A7FB54F82D
:1045F000043C764FA4F1080523F001016818D7F8B0
:1046000008C04268844522F0030200F08380DB0783
:10461000426000EB020C33D454F8084CDCF8043050
:104620002D1B2144AC6807F1080C644503F001031D
:1046300064D0D5F80CE0C4F80CE0CEF80840002BAC
:1046400000F0818041F001036B600160B1F5007FF3
:1046500022D27868CB080122490901338A400243FB
:1046600057F833107A6007EBC302083AC5E9021223
:1046700047F83350CD603046BDE8F84000F064BBE9
:10468000DCF80430DB072BD541F00103B1F5007FE6
:1046900044F8043C0160DCD3B1F5206F4FEA5123AC
:1046A00053D28B0903F1390003F13802C300F81823
:1046B000FB580838984203D161E09B68984204D0C7
:1046C0005A6822F003028A42F7D8D868C5E9023056
:1046D0008560DD603046BDE8F84000F035BB7047CE
:1046E000114407F1080C836863453FD0C268DA6063
:1046F000936041F001036B606950A7E7002B5FD125
:104700000A44D0E90213CB60996042F001036B6068
:10471000AA50B0E70A44D90707D454F8083CED1A68
:104720001A44D5E90213CB60996042F001036B6033
:10473000274BBD601B6893429DD8264B30461968B5
:10474000FFF7F2FE97E71144CDE7142B08D9542B5D
:104750001DD80B0B03F16F0003F16E02C300A6E737
:1047600003F15C0003F15B02C300A0E741F0010329
:10477000C7E90455C5E902CC6B6069507BE77968ED
:104780009210012404FA02F20A437A609EE7B3F51C
:10479000AA7F06D8CB0B03F1780003F17702C300A0
:1047A00085E740F25452934206D88B0C03F17D000A
:1047B00003F17C02C3007AE74FF47E737E2276E732
:1047C00041F001036B60016055E700BF70010020FC
:1047D00068010020BC0B00202DE9F04F01F10B0512
:1047E000162D83B0064623D8102900F2AF8000F0C2
:1047F000A5FA102518230220B74F3B44A3F1080265
:104800005C68944200F01F816368E268A16823F04D
:104810000303CA602344304691605A6842F00102A3
:104820005A6000F091FA0834204603B0BDE8F08FDA
:1048300035F0070500F18A80A94200F2878000F078
:104840007DFAB5F5FC7FC0F06E816B0A00F08280C6
:10485000042B00F21E81AB0903F1390003F1380E7D
:10486000C3009D4F3B44A3F1080C5C68A44507D1ED
:104870000DE0002AE16880F2E0808C4507D00C460C
:10488000636823F003035A1B0F2AF2DD7046DFF83A
:104890004C823C69444500F0BD80636823F0030C02
:1048A000ACEB05030F2B00F34281002BC7E9048812
:1048B00080F22D81BCF5007FD7F804E080F0C9803C
:1048C0004FEADC0101314FEA5C1C012303FA0CF3CF
:1048D00057F83120A2604EEA030E07EBC103083BF4
:1048E000E360C7F804E047F83140D46083104FF02C
:1048F000010C0CFA03FCF44532D81CEA0E0F08D167
:1049000020F003004FEA4C0C1CEA0E0F00F10400EB
:10491000F8D007EBC00AD6468146DEF80C300BE033
:10492000596821F003014A1B0F2A1C46DB6800F37B
:10493000BC80002A80F2DE809E45F1D109F1010998
:1049400019F0030F0EF1080EE7D119E10C233360C3
:10495000002469E74FF4007340204FF03F0E80E7DA
:10496000BC68636823F00309A94503D3A9EB0503D9
:104970000F2B52DC5A4B1B68082003F1100804EB84
:104980000903009302F044FC564A13680133A8441B
:10499000834605D008F1FF388044434203EA080803
:1049A0004146304602F00EFCB0F1FF3F4D4A8246D0
:1049B00000F0D88004EB0903834200F2D1804A4B17
:1049C000186840440BF1FF311860844640F0FB80CA
:1049D0001AEA010F40F0F780D7F808A0C84448F061
:1049E0000102CAF80420414B1968814238BF18609F
:1049F0003F4B1968814238BF1860544622F00308C3
:104A0000A845A8EB050301D30F2B06DC304600F0C8
:104A10009BF99DE7D7F804E068E7621943F00103CA
:104A200045F0010565603046BA60536000F08CF9CE
:104A30000834204603B0BDE8F08FA2682344D1605B
:104A400030468A60E9E6DC68A3427FF4DDAE0230DE
:104A50001DE7BCF5206F4FEA5C227AD3142A00F2DE
:104A6000128102F15C03DB005B32F918FB58083954
:104A7000994203D1ECE09B68994204D05A6822F035
:104A800003026245F7D8D968C4E902318C60DC6062
:104A90002CE7142B69D9542B00F2FE802B0B03F169
:104AA0006F0003F16E0EC300DBE6D4F808C0304699
:104AB000661945F001056560CCF80C30C3F808C0F4
:104AC00042F00103C7E90466C6E9028873606250D8
:104AD00000F03AF90834A7E67001002078010020C0
:104AE000BC0B0020640100208C0B0020B80B0020C0
:104AF000B40B0020214430464A6842F001024A606B
:104B000054F8082FD3609A6000F01EF98CE6A44494
:104B10003046DCF8043043F00103CCF8043000F0F8
:104B200013F9083480E6E80805F1080364E6621921
:104B300043F0010145F0010565603046C7E90422F4
:104B4000C2E90288516044F80C3000F0FDF80834E6
:104B50006AE64FEA9C1202F13903DB00383284E73F
:104B6000BC4228D0BC68626848E703F15C0003F1EE
:104B70005B0EC30075E65AF80839534540F0DA80F9
:104B800010F0030F00F1FF30F5D17B6823EA0C032E
:104B90007B604FEA4C0C9C453FF6E2AEBCF1000F47
:104BA00004D1DDE64FEA4C0C09F104091CEA030FBD
:104BB000F8D04846ADE6604B186808EB000C0BF1E6
:104BC000FF31C3F800C0106801306FD004EB090258
:104BD000AAEB020262441A601AF00702CDE9002330
:104BE00040D0C2F108029244D04408EA01005A447D
:104BF000121A02EA010B5946304602F0E3FA421C4F
:104C0000019B6FD0A0EB0A0000EB0B081868C7F8F7
:104C100008A048F001025844BC42CAF804201860B9
:104C20003FF4E1AEB9F10F0F43D96168A9F10C026D
:104C300022F0070201F00101114361604FF0050C01
:104C4000A1180F2AC1E901CC54D8DAF80420CAE629
:104C500092104FF0010C0CFA02F24EEA020EC7F865
:104C600004E011E70AEB08020A40ABEB020202EA99
:104C7000010B5946304602F0A5FA431C019BC1D1F5
:104C8000DDF800B0C2E7542A17D84FEA1C3202F10F
:104C90006F03DB006E32E8E6B3F5AA7F17D8EB0BA3
:104CA00003F1780003F1770EC300DAE5C2F800A043
:104CB00092E70123CAF80430A8E6B2F5AA7F24D807
:104CC0004FEADC3202F17803DB007732CDE640F2C6
:104CD0005452934224D8AB0C03F17D0003F17C0EB7
:104CE000C300BEE5009A083A9044A8EB0A084FF0CA
:104CF000000B8BE7304604F108010093FFF770FCCE
:104D0000009BD7F808A018689FE740F254539A42D6
:104D10000CD84FEA9C4202F17D03DB007C32A4E612
:104D20004FF47E737F204FF07E0E9AE54FF47E7332
:104D30007E229AE67B682CE78C0B00200148FFF767
:104D4000DFBB00BF7C0B00200148FFF7DBBB00BFCF
:104D50007C0B00202DE9F04FDDB0164609911C4672
:104D600083460F9302F02AFA036818931846FBF75C
:104D700047FA0822179000212CA8FFF7E9FABBF1A7
:104D8000000F04D0DBF83430002B01F07380099A57
:104D9000536EB2F90C20D80702D4910540F1778602
:104DA000970406D4099942F4005223F400538A81EF
:104DB0004B669D0401F14A84099AB2F90C30190737
:104DC00040F1CC801269002A00F0C88003F01A027A
:104DD0000A2A00F0D280002333AA0024CDE931331F
:104DE000CDE91B331293199320931D930B9300234A
:104DF000CDE9143430921446B246914BD3F8E450C6
:104E000002F0D6F92CAA0346009228A95246584629
:104E1000A847002800F0D080C0F2C680289A252A32
:104E2000034601D09A44E8E7BAEB0607054640F08E
:104E3000C78000231A464FF0FF318DF897300C934E
:104E40000AF1010A9AF800300A9108920AF1010A5F
:104E5000A3F120025A2A00F2F580DFE812F03603AF
:104E6000F300F3002F03F300F300F3006A00F300F4
:104E7000F30075026403F30080024803F30041036A
:104E80005B005B005B005B005B005B005B005B004A
:104E90005B00F300F300F300F300F300F300F30012
:104EA0006D01F3000102EA026D016D016D01F30075
:104EB000F300F300F300E302F300F3008702F300D2
:104EC000F300F3001E02F300BD02F300F300EC0652
:104ED000F300F300F300F300F300F300F300F3003A
:104EE0006D01F300010250026D016D016D01D002F0
:104EF0005002FA01F3000403F300200312070E032B
:104F0000FA01F3001E027C00E806F300F300150727
:104F1000F3007C00A3F1300200211AF8013B01EB01
:104F2000810102EB4101A3F13002092AF5D90C916C
:104F30008EE7584602F042F943681D931846FBF786
:104F40005FF920900546584602F038F983681B93B4
:104F5000002D40F006869AF8003077E7099D584604
:104F6000294602F00FF8002841F0B284B5F90C3060
:104F700003F01A020A2A7FF42EAF0999B1F90E2024
:104F8000002AFFF628AF4A6ED50702D4980541F1F2
:104F90002C81099923463246584601F009FD0B90B1
:104FA0000B985DB0BDE8F08F082200212CA8FFF718
:104FB000CFF901239A4420E7BAEB0607054610D043
:104FC000329B3B443293319B0133072BC4E900678A
:104FD000319310DC08340B9B3B440B93002D7FF482
:104FE00028AF329B002B41F0E980099B0022B3F9E6
:104FF0000C30319218E0099930AA584601F018FD9A
:1050000078B933ACE7E7099930AA584601F010FDAA
:10501000002800F086800E9B1BB10E995846FFF7C2
:10502000DFFA099BB3F90C30099A526ED00740F1B0
:1050300006815A0601F114830B985DB0BDE8F08F2C
:10504000780500201093002BCBD000228DF80C3176
:105050000123CDE90D328DF8972006930A9216921E
:105060001392119243AE089B13F0020302D00699EB
:10507000023106910899329D11F0840805D10C99EE
:1050800006980F1A002F00F39E806AB10122626019
:10509000319A013201350DF19701072A329531928B
:1050A000216000F3CE8308346BB1319B26AA013313
:1050B00002352260072B4FF0020232953193626075
:1050C00000F3B4830834B8F1800F00F0C8820A9B63
:1050D0000D9A9F1A002F00F30383089BDF0500F150
:1050E00028820D9B63601D44319B26600133072B92
:1050F0003295319300F338830834089B5E0705D559
:105100000C9B069A9E1A002E00F3A883DDE90B3251
:1051100006998A42ACBF9B185B180B93002D7FF455
:1051200072AF002331930E9B1BB10E995846FFF7C7
:1051300057FA33AC56465FE610930F9B073323F0C4
:105140000703F3E802780F9328F000431F931E979C
:10515000DDE91E01AF4B4FF0FF32CDE91478FBF7CC
:10516000FFFD002840F00D85DDE91E01A94B4FF041
:10517000FF32FBF7D7FD002840F003850022002313
:1051800038464146FBF7C4FD002841F001829DF8F6
:105190009720089BA04E23F0800308939F4B109903
:1051A0004729D8BF1E46002303210E9306910D9177
:1051B0000A93169313931193002A3FF454AF069B5E
:1051C000013306934FE7102F319A41F33B82DFF80A
:1051D00050C2CDF868C021462846099C21934FF063
:1051E0001009654604E0103F102F01F1080115DD9C
:1051F00001321030072AC1E90059CDE93120F2DD32
:1052000030AA2146584601F013FC00287FF403AF72
:10521000103F102FDDE9312033A9E9DC219B0C463A
:10522000054601321A9921603D44072ACDE931250E
:10523000676000F30F869DF89720083425E79905ED
:105240003FF5F7AE099CA06DFFF75CF9B4F90C309F
:10525000EFE6089B43F0200308939AF80030F5E549
:105260000F9A1093432B02F1040500F04D85089B23
:10527000DA0600F149850F9B1B688DF80C3101237C
:1052800006930D9343AE00220F958DF897200E9252
:105290000A92169213921192E5E60F9F109357F817
:1052A000046B00238DF89730002E00F01C85109BB6
:1052B000532B00F0F585089B13F01003119340F079
:1052C000EF850A9B002BC0F2668711991A4630467B
:1052D000FBF706F80E90002801F09E820E9B1199B4
:1052E0009DF897200F979B1B0D9323EAE37306937A
:1052F00073230A91169113910E9110935CE710930A
:10530000089B9B0640F19E800F9B073323F0070309
:105310001A46596852F8083B0F920A460029C0F213
:1053200001840A990029C0F27282089921F080054F
:1053300053EA020140F06C820A9A002A40F06D8222
:1053400008950D925CAE60E10F9B53F8042B0C9214
:10535000002A80F2AA830C9A0F9352420C92089B67
:1053600043F0040308939AF800306FE51093089B0C
:1053700043F010030893089B13F0200200F076839B
:105380000F9B073323F0070319465A6851F8083B6F
:105390000F91089921F48065002100200A9E8DF864
:1053A0009700002EC0F21A8125F08000089053EA81
:1053B000020040F01281002E40F06185002940F08B
:1053C000DA8415F001030D9300F09A8330238DF8F1
:1053D0006F310DF26F1618E11093089B43F0100522
:1053E00015F0200200F034830F9B073323F00703EE
:1053F00019465A6851F8083B0F910121CDE79AF8F8
:105400000030682B00F05B84089A42F0400208925A
:105410001CE500BFFFFFEF7FA0A100089CA10008D2
:1054200074A30008089B43F0080308939AF800301F
:105430000CE51093089B43F010030893089B9B0610
:105440003FF562AF0F9A52F8043B0F92089AD706C5
:1054500000F16383089A560640F15B8343F3C03240
:1054600011461BB25AE79AF800306C2B00F03184D9
:10547000089A42F010020892E8E40F9A089B43F061
:10548000020552F8043B0F9247F63002ADF898201F
:105490007820AD4A19920221002210907DE7089BE6
:1054A0009D0640F14D830F9B0B9A1B681A60D21723
:1054B0005A600F9B04330F9356469DE4089B43F0BC
:1054C000010308939AF80030C0E49DF897209AF8F9
:1054D0000030002A7FF4BAAC20228DF89720B5E482
:1054E000089B43F0800308939AF80030AEE45046DE
:1054F00010F8013B2A2B01F02382A3F13002092A84
:1055000098BF002101F2B18010F8013B01EB81014D
:1055100002EB4101A3F13002092AF5D941EAE17217
:105520000A92824694E42B238DF897309AF8003043
:105530008CE4109B652B40F32281DDE914010022ED
:105540000023FBF7DBFB002800F0C381319B7F4A7F
:105550002260013301350122072B329531936260BD
:1055600000F392840834279B129A934280F2988227
:10557000179B189A1D44C4E90023319B32950133CF
:10558000072B319300F390830834129B5E1E002E8C
:105590007FF7B3AD102E319BDFF8B49140F3DA8082
:1055A000DDF82480102704E00834103E102E40F36C
:1055B000D18001331035072BC4E90097CDE931358F
:1055C000F2DD30AA4146584601F032FA00287FF455
:1055D00022ADDDE9313533ACE7E7089D012900F064
:1055E000178102295CAE1FD1199803F00F011B0926
:1055F000415C06F8011D43EA0273120953EA0201F5
:10560000F3D15CAB9B1B08950D930A990D989DF8FF
:10561000972081424FF00003B8BF01460E930691D8
:10562000169313931193C7E503F00701DB0843EAD0
:105630004273D208303153EA0207304606F8011DA2
:10564000F2D1EB07DDD53029DBD03023023806F864
:10565000013C5CAB1B1A08950D930646D5E70C9BE5
:10566000069A9F1A002F7FF732AD102F319BDFF87B
:10567000E09023DD2A464FF010084D46DDF82490D7
:1056800004E0103F102F04F1080415DD013310323F
:10569000072BC4E90058CDE93132F2DD30AA494682
:1056A000584601F0C5F900287FF4B5AC103F102F23
:1056B000DDE9313233ACE9DCA946154601333D441E
:1056C000072BCDE93135C4F80090676000F3E08224
:1056D0000A9B0D9A9F1A002F04F108047FF7FDAC76
:1056E000102F319BDFF8689021DD2A464FF010081B
:1056F000099D04E0103F102F04F1080416DD01336A
:1057000013491032072BC4E90018CDE93132F1DD1D
:1057100030AA2946584601F08BF900287FF47BAC6B
:10572000103F102FDDE9313233ACE8DC1546013390
:105730003D44072BCDE93135C4F80090676000F394
:105740007B810834C9E400BFACA10008DCA10008DB
:1057500064A3000801333544072BC4F80090666049
:10576000CDE931357FF7C8AC099930AA584601F028
:105770005FF900287FF44FAC329D33ACBDE4129B3F
:10578000319F012B05F1010507F1010704F108081C
:1057900040F30E810123072FCDE931752660636048
:1057A00000F3FA82179B189A01371D44072FC8E9A6
:1057B0000023CDE9317500F3E28208F10808129B5D
:1057C000DDE914015C1E00220023FBF797FA002894
:1057D00040F00781013701362544072FCDE93175A7
:1057E000C8F80060C8F8044000F3EE8008F108082B
:1057F0001C9BC8F8043001371D44072F2AABCDE9A4
:105800003175C8F80030AFDC08F1080475E4089D74
:105810000A2B72F1000180F0CC8230338DF86F31A9
:10582000012308950D930DF26F16EEE6099930AA43
:10583000584601F0FDF800287FF4EDAB329D33AC03
:1058400041E409991A9330AA584601F0F1F800286A
:105850007FF4E1AB329D1A9B33AC25E4102E319BD3
:1058600040F34787DFF8CC92DDF82480CDF86890CC
:10587000102704E0103E102E04F1080415DD01335A
:105880001035072BC4E90097CDE93135F2DD30AA98
:105890004146584601F0CCF800287FF4BCAB103EDE
:1058A000102EDDE9313533ACE9DC01331A9A354489
:1058B000072BC4E90026CDE931357FF727AC0999DC
:1058C00030AA584601F0B4F800287FF4A4AB329D0A
:1058D0001CE42799002940F3ED80DDE91183984508
:1058E000A8BF9846B8F1000F0ADD319B013345444B
:1058F000072BC4E900683295319300F38A86083497
:10590000119FB8F1000FA8BFA7EB0807002F00F305
:105910005D83119B33449846089B590500F18E85A1
:10592000279B129A9342C0F20782089AD20700F18D
:105930000382129AB718D61A4346FF1AB742A8BF75
:105940003746002F0BDD319BC4F8008001333D4406
:10595000072B67603295319300F390860834002F4F
:10596000A8BFF61B002E7FF7C8AB102E319BDFF8C7
:10597000C8917FF7EFAEDDF82480102704E00834EB
:10598000103E102E7FF7E6AE01331035072BC4E929
:105990000097CDE93135F2DD30AA4146584601F095
:1059A00047F800287FF437ABDDE9313533ACE7E762
:1059B000089BDB073FF5EEAE0123072FCDE93175DC
:1059C000266063607FF714AF099930AA584601F04A
:1059D0002FF800287FF41FABDDE931750DF1CC08FD
:1059E00006E7129B012B7FF703AF112BDFF84891DD
:1059F00040F3C182CDF828A01026CA46DDF82490D5
:105A000005E008F10808103C102C40F3B182013782
:105A10001035072FC8E900A6CDE93175F1DD30AAB0
:105A20004946584601F004F800287FF4F4AADDE95D
:105A300031750DF1CC08E6E7099930AA584600F017
:105A4000F7FF00287FF4E7AA329D33ACFFF745BB90
:105A50000F9951F8043B0F9115F0100157D115F033
:105A600040004FD00A469BB2012196E40F9951F8AD
:105A7000043B0F91089911F010017FF48AAC089A49
:105A800012F0400000F0C7829BB20A4681E4099DF3
:105A9000A86DFEF735FDB5F90C206B6EFFF780B9E8
:105AA000089BD8077FF529AB62E50F939AF8003081
:105AB000FFF7CCB9319B214A226001330135012225
:105AC000072B32953193626000F3868508340029F4
:105AD00040F05D82089B129A03F0010313433FF4E8
:105AE0000CAB179B189A1D44C4E90023319B3295D7
:105AF0000133072B319300F36B8304F1080257E263
:105B00005CAE82E515F400721CBFDBB202460121D7
