:020000040800F2
:1000000000000220C10A0008C1090008C309000855
:10001000C5090008C7090008C90900080000000058
:10002000000000000000000000000000CB090008F4
:10003000CD09000800000000CF090008D109000820
:10004000110B0008110B0008110B0008110B000820
:10005000110B0008110B0008110B0008110B000810
:10006000110B0008110B0008110B0008110B000800
:10007000110B0008110B0008110B0008110B0008F0
:10008000110B0008110B0008110B0008D90900081A
:10009000E9090008110B0008110B0008110B0008FA
:1000A000110B0008110B0008110B0008110B0008C0
:1000B000110B0008110B0008110B0008110B0008B0
:1000C000110B0008110B0008110B0008110B0008A0
:1000D000110B0008F9090008110B0008110B0008AA
:1000E000110B0008110B0008110B0008110B000880
:1000F000110B0008110B0008110B0008110B000870
:10010000110B0008110B0008110B0008110B00085F
:10011000110B0008110B0008110B0008110B00084F
:10012000110B0008110B0008110B0008110B00083F
:10013000110B0008110B0008110B0008110B00082F
:10014000110B0008110B0008110B0008110B00081F
:10015000110B0008110B0008110B0008110B00080F
:10016000110B0008110B0008110B0008110B0008FF
:10017000110B0008110B0008110B00080000000013
:08018000110B0008110B00082F
:100188004FF0FF0C1CEAD0521EBF1CEAD15392EA72
:100198000C0F93EA0C0F6FD01A4480EA010C40024E
:1001A80018BF5FEA41211ED04FF0006343EA5010A8
:1001B80043EA5111A0FB01310CF00040B1F5000FEA
:1001C8003EBF490041EAD3715B0040EA010062F199
:1001D8007F02FD2A1DD8B3F1004F40EBC25008BF83
:1001E80020F00100704790F0000F0CF0004C08BFA1
:1001F80049024CEA502040EA51207F3AC2BFD2F16E
:10020800FF0340EAC250704740F400004FF000037B
:10021800013A5DDC12F1190FDCBF00F000407047B5
:10022800C2F10002410021FA02F1C2F1200200FAF3
:1002380002FC5FEA310040F1000053EA4C0308BFBA
:1002480020EADC70704792F0000F00F0004C02BF0B
:10025800400010F4000F013AF9D040EA0C0093F086
:10026800000F01F0004C02BF490011F4000F013BE0
:10027800F9D041EA0C018FE70CEAD15392EA0C0F4E
:1002880018BF93EA0C0F0AD030F0004C18BF31F0B9
:10029800004CD8D180EA010000F00040704790F08F
:1002A800000F17BF90F0004F084691F0000F91F033
:1002B800004F14D092EA0C0F01D142020FD193EAF9
:1002C8000C0F03D14B0218BF084608D180EA010081
:1002D80000F0004040F0FE4040F40000704740F05D
:1002E800FE4040F44000704780F0004002E000BF4C
:1002F80081F0004142001FBF5FEA410392EA030F09
:100308007FEA226C7FEA236C6AD04FEA1262D2EB52
:100318001363C1BFD218414048404140B8BF5B4257
:10032800192B88BF704710F0004F40F4000020F0F0
:100338007F4018BF404211F0004F41F4000121F006
:100348007F4118BF494292EA030F3FD0A2F1010250
:1003580041FA03FC10EB0C00C3F1200301FA03F18E
:1003680000F0004302D5494260EB4000B0F5000FB1
:1003780013D3B0F1807F06D340084FEA310102F170
:100388000102FE2A51D2B1F1004F40EBC25008BF22
:1003980020F0010040EA03007047490040EB0000EC
:1003A800013A28BFB0F5000FEDD2B0FA80FCACF1ED
:1003B800080CB2EB0C0200FA0CF0AABF00EBC2501A
:1003C80052421843BCBFD0401843704792F0000F08
:1003D80081F4000106BF80F400000132013BB5E75B
:1003E8004FEA41037FEA226C18BF7FEA236C21D0D1
:1003F80092EA030F04D092F0000F08BF0846704736
:1004080090EA010F1CBF0020704712F07F4F04D103
:10041800400028BF40F00040704712F100723CBF16
:1004280000F50000704700F0004343F0FE4040F440
:10043800000070477FEA226216BF08467FEA2363FE
:100448000146420206BF5FEA412390EA010F40F4E9
:10045800800070474FF0000304E000BF10F0004335
:1004680048BF40425FEA000C08BF704743F096431C
:1004780001464FF000001CE050EA010208BF704737
:100488004FF000030AE000BF50EA010208BF7047BE
:1004980011F0004302D5404261EB41015FEA010CD3
:1004A80002BF84460146002043F0B64308BFA3F1CB
:1004B8008053A3F50003BCFA8CF2083AA3EBC253AD
:1004C80010DB01FA02FC634400FA02FCC2F12002CC
:1004D800BCF1004F20FA02F243EB020008BF20F003
:1004E8000100704702F1200201FA02FCC2F1200269
:1004F80050EA4C0021FA02F243EB020008BF20EA5E
:10050800DC70704753B94AB9002908BF00281CBFDE
:100518004FF0FF314FF0FF3000F00CB8ADF1080C90
:100528006DE904CE01F05EFFDDF804E0DDE90223A9
:1005380004B07047704700BF0348044B834202D0A1
:10054800034B03B11847704710000020100000202B
:10055800000000000548064B1B1AD90F01EBA30148
:10056800491002D0034B03B1184770471000002010
:10057800100000200000000010B5064C237843B995
:10058800FFF7DAFF044B13B10448AFF300800123EF
:10059800237010BD10000020000000006C28000827
:1005A80008B5054B1BB105490548AFF30080BDE808
:1005B8000840FFF7CFBF00BF000000001400002074
:1005C8006C28000800B58BB000230693012207921F
:1005D800009301930293039304930E2305930892C7
:1005E800694600F09FFB0BB05DF804FB2DE9F04174
:1005F8008AB00446002540F201230393049505952B
:1006080006950823079300F0CDFA3F4B1B68C01AE4
:10061800B0F5FA7F0ED801AB03AA0021204600F0FE
:100628004DFC039BA3F20123032B14D8DFE803F04E
:10063800120C0E104FF40071344801F015F800F058
:10064800B1FA314B1860E6E7012504E0022502E023
:10065800032500E000252F462D4A05EB450631010C
:1006680002EB0616B6F80C80A6F80E809DF804304A
:100678009DF8054044EA0324B4819DF806009DF8DE
:10068800073043EA002353529DF808009DF80930CB
:1006980043EA0020FFF7E2FE1E49FFF771FD4FF025
:1006A8006251FFF76DFD70609DF80A30B372A4EBDC
:1006B8000808B8F5805F1ADD7269013A7261144B57
:1006C80007EB470203EB0212516904EB4134128A2B
:1006D800A41A07EB470703EB07139C610E4B1A6834
:1006E800536943F0020353610AB0BDE8F08118F57D
:1006F800805FE4DA05EB4502054B03EB02135A6908
:1007080001325A61DBE700BF2C00002000140240D0
:10071800300000200000A040F000002008B50D487F
:100728000D4B03600323436000238360C3604FF4D1
:10073800002202614FF440124261037643768376C9
:10074800C3760377437700F047FA00B908BD00F095
:100758008DF8FBE7F00000200064004010B588B079
:1007680000230393049305930693079302681D4B94
:100778009A4201D008B010BD0024019403F5EA3371
:100788001A6C42F000721A641A6C02F0007201923C
:10079800019A02941A6B42F001021A631B6B03F070
:1007A80001030293029B4FF4C05303930223049363
:1007B800032306930923079303A90B4800F054FE6B
:1007C80022462146132000F0C9FD132000F0D6FD73
:1007D80022462146142000F0C1FD142000F0CEFD71
:1007E800C8E700BF006400400000024030B589B08F
:1007F8000024039404940594069407940094194BD8
:100808001A6B42F020021A631A6B02F0200200925F
:10081800009A01941A6B42F080021A631A6B02F074
:1008280080020192019A02941A6B42F001021A6343
:100838001B6B03F001030293029B0B4D22464FF4FE
:100848000071284600F00AFF4FF400730393012358
:1008580004930594069403A9284600F005FE09B000
:1008680030BD00BF003802400014024072B6FEE7F7
:1008780000B595B03022002108A801F011FF00232F
:100888000393049305930693079301931F4A116CEE
:1008980041F080511164126C02F080520192019A69
:1008A80002931B4A116841F480411160126802F4F6
:1008B80080420292029A0222089201210B91102191
:1008C8000C910E920F9308231093A8231193129260
:1008D8000423139308A800F0D1FE98B90F230393BB
:1008E80002230493002305934FF4A05306934FF477
:1008F80080530793052103A801F010F920B915B01A
:100908005DF804FBFFF7B2FFFFF7B0FF00380240C5
:100918000070004000B585B000F01EF9FFF7A8FF91
:10092800FFF764FFFFF7FAFE00F06CF8114C204661
:10093800FFF748FE204600F093FA08B1FFF796FF4C
:1009480002210C4800F06FFB90B90B4B0DF1040C21
:1009580093E807008CE807004FF0FF330B2261464D
:10096800064801F00AFB4FF47A7000F021F9ECE731
:10097800FFF77CFFF0000020842800081801002001
:1009880082B0002100910B4B5A6C42F480425A64A9
:100998005A6C02F480420092009A01911A6C42F05B
:1009A80080521A641B6C03F080530193019B02B0C0
:1009B800704700BF00380240FEE7FEE7FEE7FEE7AB
:1009C800FEE770477047704708B500F0DFF808BDCC
:1009D80008B5024800F045FB08BD00BFF000002044
:1009E80008B5024800F03DFB08BD00BFF00000203C
:1009F80008B5024801F0B4FB08BD00BF180100208B
:100A08007047000008B50A480A4B03604FF4E13309
:100A1800436000238360C36003610C2242618361E9
:100A2800C36101F07AFA00B908BDFFF71FFFFBE7C1
:100A3800180100200010014010B588B0002303936E
:100A48000493059306930793026803F1804303F523
:100A580088339A4201D008B010BD0024019403F5F0
:100A680094335A6C42F010025A645A6C02F0100225
:100A78000192019A02941A6B42F001021A631B6BED
:100A880003F001030293029B4FF4C0630393022314
:100A98000493032306930723079303A9054800F04B
:100AA800E3FC22462146252000F058FC252000F0D2
:100AB80065FCD0E700000240DFF834D0FFF7A0FF64
:100AC8000C480D490D4A002302E0D458C4500433A1
:100AD800C4188C42F9D30A4A0A4C002301E0136077
:100AE8000432A242FBD301F02DFEFFF713FF70473B
:100AF800000002200000002010000020BC28000890
:100B080010000020FC020020FEE7000010B504469B
:100B18000E4B1A784FF47A73B3FBF2F30C4A106851
:100B2800B0FBF3F000F02EFC68B90F2C01D90120BE
:100B38000AE0002221464FF0FF3000F00FFC054B81
:100B48001C60002000E0012010BD00BF0400002050
:100B5800000000200800002008B50B4B1A6842F47A
:100B680000721A601A6842F480621A601A6842F4C5
:100B780080721A60032000F0DFFB0F20FFF7C6FF2A
:100B8800FFF7FEFE002008BD003C0240034A116842
:100B9800034B1B780B441360704700BF60010020B3
:100BA80004000020014B1868704700BF6001002056
:100BB80038B50446FFF7F6FF0546B4F1FF3F02D00B
:100BC800044B1B781C44FFF7EDFF401BA042FAD3EF
:100BD80038BD00BF04000020002800F0A18038B50F
:100BE800044690F82030D3B12268136843F001031B
:100BF8001360FFF7D7FF054623685A6812F0010F04
:100C080010D1FFF7CFFF401B0A28F5D9636A43F4D8
:100C180000336362052384F82030012038BDFFF7D4
:100C28009DFDE1E71A6822F002021A60FFF7BAFF99
:100C3800054623685A6812F0020F0DD0FFF7B2FF7D
:100C4800401B0A28F5D9636A43F40033636205231D
:100C580084F820300120E1E7227E012A3DD01A687D
:100C680022F080021A60637E012B3BD02268136851
:100C780023F040031360A37E012B39D02268136848
:100C880023F020031360E37E012B37D0226813681A
:100C980043F010031360237F012B35D022681368BB
:100CA80023F008031360637F012B33D02268136895
:100CB80023F004031360A368E26813432269134313
:100CC800626913436268013A21681343CB610020CB
:100CD8006062012384F82030A0E71A6842F080029D
:100CE8001A60C0E72268136843F040031360C2E744
:100CF8002268136843F020031360C4E7226813686E
:100D080023F010031360C6E72268136843F0080352
:100D18001360C8E72268136843F004031360CAE746
:100D28000120704790F82030013BDBB2012B05D938
:100D3800436A43F4802343620120704710B5474B50
:100D4800D3F8002242F00102C3F80022D3F80022AF
:100D580022F47C52C3F80022D3F80022486A42EAFF
:100D68000022C3F800224A6902F01F02012000FA9B
:100D780002F2D3F81C026FEA020C20EA0200C3F860
:100D88001C02CB69CBB9354BD3F80C020CEA000036
:100D9800C3F80C028C884869D1F80CE044EA0E4488
:100DA800483043F830408C68088840EA04404C6971
:100DB80004F1480E03EBCE035860CB69012B1ED01B
:100DC8008B69002B35D12548D0F804320CEA03038F
:100DD800C0F804320B699BBB2048D0F814320CEAE7
:100DE8000303C0F814320B6A012B30D01B4AD2F827
:100DF800003223F00103C2F80032002010BD174B67
:100E0800D3F80C021043C3F80C028C884869D1F857
:100E180000E044EA0E44483043F8304088894C6981
:100E2800D1F808E040EA0E40483403EBC4035860A8
:100E3800C6E70A48D0F804321343C0F80432C9E7B9
:100E48000648D0F814321343C0F81432CBE70349EC
:100E5800D1F81C321343C1F81C32C7E700640040C4
:100E680070B5044690F82050EDB2012D06D0436AC3
:100E780043F4002343620125284670BD022380F80D
:100E880020300268136823F001031360FFF78AFE1D
:100E9800064623685B6813F0010F0CD0FFF782FE4B
:100EA800831B0A2BF5D9636A43F400336362052375
:100EB80084F82030E0E700256562DDE790F820C07F
:100EC8000CF1FF3C5FFA8CFCBCF1010F00F2A5802D
:100ED80030B451B90468E46814F0030F10D1436AC0
:100EE80043F40013436201207EE00468246914F08F
:100EF800030F05D1436A43F400134362012073E0F2
:100F0800056801F11B0424012C5904F004049460C1
:100F1800002C6BD1056801F11B0424012C59640DC8
:100F28001460046801F11B0C4FEA0C1C54F80C40C7
:100F380004F00204D4600468A444DCF8045015F0FA
:100F4800080F5BD008241461046801F11B0C04EB42
:100F58000C146468C4F307249461046804EB0C144B
:100F68006468240C5461026802EB0112D2F8B821BB
:100F78001A70026802EB0112D2F8B821C2F30722F4
:100F88005A70026802EB0112D2F8B821C2F3074284
:100F98009A70026802EB0112D2F8B821120EDA70C8
:100FA800026802EB0112D2F8BC211A71026802EB46
:100FB8000112D2F8BC21C2F307225A71026802EB6F
:100FC8000112D2F8BC21C2F307429A71026802EBFF
:100FD8000112D2F8BC21120EDA71C1B90268D368C5
:100FE80043F02003D360002030BC7047056801F14E
:100FF8001B0424012C59E408546092E701F11B05F5
:1010080004EB0514646804F00F0414619CE702689B
:10101800136943F020031361E5E7436A43F480232F
:1010280043620120704790F82030013BDBB2012B6E
:1010380005D9436A43F4802343620120704702685C
:1010480053690B43536100207047704770477047DE
:1010580070477047704770477047704770477047D0
:1010680070472DE9F84F054603685C69D3F804809A
:101078009F68D3F80CA0D3F81090D3F818B014F0E8
:1010880001063BD017F0010616D001229A6017F02E
:10109800020F08D117F0040F0CD117F0080606D07C
:1010A8004FF4805608E0FFF7D0FF002604E0FFF772
:1010B800CFFF01E04FF4006617F4807F0DD02B6856
:1010C8004FF480729A6017F4007F40F0968017F40E
:1010D800806F00F0968046F4005617F4803F0DD0DC
:1010E8002B684FF480329A6017F4003F40F09380E9
:1010F80017F4802F00F0938046F4004614F0080F90
:1011080007D01AF0100F04D046F400762B6810228E
:10111800DA6014F0040F03D01AF0080F40F0898049
:1011280014F0020F05D02B68DB6813F0030F40F0B2
:10113800878014F0400F07D019F0100F04D046F440
:1011480080662B6810221A6114F0200F02D019F063
:10115800080F79D114F0100F04D02B681B6913F015
:10116800030F78D114F4003F02D018F0100F76D195
:1011780014F4803F02D018F0080F77D114F4004F10
:1011880037D018F0040F31D014F4807F04D01BF04E
:10119800010F01D046F0010614F4007F04D01BF0C3
:1011A800020F01D046F0020614F4806F04D01BF041
:1011B800040F01D046F0040614F4006F16D01BF09B
:1011C800700B13D0BBF1400F66D056D8BBF1200F7F
:1011D8005CD0BBF1300F5CD0BBF1100F01D146F0F1
:1011E80008062A68936923F0700393612B68042228
:1011F8005A60002E56D1BDE8F88F2846FFF726FF23
:101208006BE717F4006F02D046F4804665E728467E
:10121800FFF71FFF61E72846FFF719FF6EE717F48E
:10122800002F02D046F4803668E72846FFF712FF01
:1012380064E72B680822DA602846FFF70CFF6FE79F
:101248002846FFF7D3F974E72B6808221A61284665
:10125800FFF703FF7EE72846FFF7FEFE82E72B68CD
:1012680010225A602846FFF7F9FE81E72B6808220A
:101278005A602846FFF7F3FE80E7BBF1500F0ED007
:10128800BBF1600FADD146F48076AAE746F01006B0
:10129800A7E746F02006A4E746F04006A1E746F097
:1012A80080069EE76B6A33436B622846FFF7D8FED9
:1012B800A1E70000002807DB00F01F024009012316
:1012C8009340024A42F82030704700BF00E100E036
:1012D800002808DB0901C9B200F1604000F561404F
:1012E80080F80013704700F00F000901C9B2014BE4
:1012F8001954704714ED00E000B500F00700C0F184
:10130800070CBCF1040F28BF4FF0040C031D062B7B
:101318000FD9C31E4FF0FF3E0EFA0CF021EA000170
:1013280099400EFA03FE22EA0E0241EA02005DF835
:1013380004FB0023EEE70000074AD36823F4E063C8
:101348001B041B0C000200F4E060034343F0BF637E
:1013580043F40033D360704700ED00E010B5044655
:10136800054BD868C0F30220FFF7C6FF01462046A8
:10137800FFF7AEFF10BD00BF00ED00E008B5FFF7B6
:1013880099FF08BD0138B0F1807F0BD24FF0E02300
:101398005861054AF02182F823100020986107223D
:1013A8001A6170470120704700ED00E070B50446EF
:1013B800866DFFF7F7FB94F83530DBB2022B06D0C9
:1013C80080236365002384F83430012070BD05460E
:1013D8002268136823F0160313602268536923F008
:1013E80080035361236CE3B12268136823F0080378
:1013F80013602268136823F00103136023681B68D5
:1014080013F0010F11D0FFF7CDFB431B052BF5D9C6
:1014180020236365032084F83500002384F83430E2
:10142800D4E7A36C002BDFD1E3E7E26D3F239340C1
:10143800B360012384F83530002084F83400C5E710
:1014480090F83530DBB2022B03D0802343650120AE
:101458007047052380F835300268136823F00103CC
:10146800136000207047000000230F2B00F2EC806F
:1014780030B583B068E085684FEA430E032404FA68
:101488000EF425EA0405CC6804FA0EF42C438460B3
:10149800446824EA02044A68C2F300129A402243CC
:1014A80042605FE0DC08083450F8242003F00705A8
:1014B800AD004FF00F0E0EFA05FE22EA0E0E0A6975
:1014C800AA4042EA0E0240F824205FE0072200E02A
:1014D800002202FA0EF22A4302345C4D45F8242019
:1014E8005B4A94686FEA0C0224EA0C05D1F804E020
:1014F8001EF4801F01D04CEA0405554CA560E46831
:1015080002EA0405D1F804E01EF4001F01D04CEAF9
:1015180004054F4CE560646802EA0405D1F804E06C
:101528001EF4003F01D04CEA0405494C656024686C
:1015380022404D6815F4803F01D04CEA0402444C27
:10154800226001330F2B7DD801229A400C6804EAEF
:10155800020C32EA0404F4D14C6804F00304013CA0
:10156800012C88D94A6802F00302032A09D0C4680A
:101578005D000322AA4024EA02048A68AA402243A2
:10158800C2604A6802F00302022A8BD004684FEA5C
:10159800430E032202FA0EF224EA02044A6802F019
:1015A800030202FA0EF2224302604A6812F4403F34
:1015B800C7D000220192274A546C44F480445464F2
:1015C800526C02F480420192019A9C08A51C1F4AA1
:1015D80052F8255003F0030E4FEA8E0E0F2202FA3E
:1015E8000EF225EA02051C4A90423FF471AF02F55B
:1015F800806290421AD002F58062904218D002F5BB
:101608008062904216D002F58062904214D002F5B2
:101618008062904212D002F58062904210D002F5AA
:10162800806290423FF452AF082252E7012250E70D
:1016380002224EE703224CE704224AE7052248E744
:10164800062246E703B030BD704700BF00380140AE
:10165800003C014000380240000002400AB18161AC
:101668007047090481617047436901EA030221EA6E
:10167800030141EA0241816170470000002800F03F
:10168800E08170B582B00446036813F0010F3BD0C7
:101698009F4B9B6803F00C03042B2CD09C4B9B683E
:1016A80003F00C03082B21D06368B3F5803F4FD0BB
:1016B800B3F5A02F52D0964B1A6822F480321A60E4
:1016C8001A6822F480221A606368002B50D0FFF752
:1016D80069FA05468E4B1B6813F4003F14D1FFF7D7
:1016E80061FA401B6428F5D90320B1E1884B5B6897
:1016F80013F4800FD8D0864B1B6813F4003F03D037
:101708006368002B00F09F81236813F0020F54D008
:101718007F4B9B6813F00C0F3ED07D4B9B6803F00A
:101728000C03082B33D0E368002B68D0794B0122D7
:101738001A60FFF737FA0546754B1B6813F0020F5E
:1017480054D1FFF72FFA401B0228F5D903207FE177
:101758006F4A136843F480331360B5E76C4B1A681B
:1017680042F480221A601A6842F480321A60ABE7A9
:10177800FFF718FA0546664B1B6813F4003FC3D001
:10178800FFF710FA401B6428F5D9032060E1604B8D
:101798005B6813F4800FC6D15D4B1B6813F0020F12
:1017A80003D0E368012B40F05081594A136823F0B5
:1017B800F803216943EAC1031360236813F0080F93
:1017C80042D063696BB3534B0122C3F8802EFFF7F5
:1017D800E9F905464E4B5B6F13F0020F34D1FFF762
:1017E800E1F9401B0228F5D9032031E1484A136882
:1017F80023F0F803216943EAC1031360DDE7454B91
:1018080000221A60FFF7CEF90546414B1B6813F01A
:10181800020FD2D0FFF7C6F9401B0228F5D90320E2
:1018280016E13C4B0022C3F8802EFFF7BBF90546B2
:10183800374B5B6F13F0020F06D0FFF7B3F9401B6D
:101848000228F5D9032003E1236813F0040F77D0A9
:101858002F4B1B6C13F0805F33D1002301932C4B6B
:101868001A6C42F080521A641B6C03F08053019387
:10187800019B0125284B1B6813F4807F23D0A368A4
:10188800012B34D0052B38D0214B1A6F22F00102DE
:101898001A671A6F22F004021A67A368002B3DD05A
:1018A800FFF780F906461A4B1B6F13F0020F46D15B
:1018B800FFF778F9801B41F288339842F3D9032067
:1018C800C6E00025D6E7144A136843F48073136012
:1018D800FFF768F90646104B1B6813F4807FCED1DA
:1018E800FFF760F9801B0228F5D90320B0E0084A09
:1018F800136F43F001031367CFE7054B1A6F42F0EC
:1019080004021A671A6F42F001021A67C5E700BF9E
:10191800003802400000474200700040FFF742F9DB
:101928000646524B1B6F13F0020F08D0FFF73AF927
:10193800801B41F288339842F3D9032088E0EDB93F
:10194800A369002B00F08380484A926802F00C02D9
:10195800082A51D0022B17D0454B00221A66FFF7F0
:1019680021F90446414B1B6813F0007F42D0FFF772
:1019780019F9001B0228F5D9032069E03B4A136CCA
:1019880023F080531364DBE7394B00221A66FFF714
:1019980009F90546354B1B6813F0007F06D0FFF7A1
:1019A80001F9401B0228F5D9032051E0E369226AB6
:1019B8001343626A43EA8213A26A5208013A43EA6D
:1019C8000243E26A43EA0263284A5360284B012231
:1019D8001A66FFF7E7F80446244B1B6813F0007FEC
:1019E80006D1FFF7DFF8001B0228F5D903202FE006
:1019F80000202DE000202BE0012B2BD01B4B5B6837
:101A080003F48001E269914226D103F03F02216A82
:101A18008A4223D1616A47F6C0721A40B2EB811F2D
:101A28001ED103F44031A26A5208013AB1EB024FC9
:101A380018D103F07063E26AB3EB026F14D100208F
:101A480006E001207047012002E0012000E00020AC
:101A580002B070BD0120FBE70120F9E70120F7E79C
:101A68000120F5E70120F3E70120F1E70038024003
:101A78000000474208B5264B9B6803F00C03042B73
:101A880041D0082B41D1224B5A6802F03F025B68D3
:101A980013F4800F12D01E4B5968C1F388111D48EA
:101AA8000023A1FB0001FEF72DFD194B5B68C3F372
:101AB800014301335B00B0FBF3F008BD144B5868D9
:101AC800C0F388104FEA401CBCEB000C6EEB0E0E06
:101AD8004FEA8E1343EA9C634FEA8C11B1EB0C0179
:101AE80063EB0E03DB0043EA5173C90011EB000CF2
:101AF80043F10003990200234FEA8C2041EA9C51EC
:101B0800FEF700FDD1E70348D7E70348D5E700BF54
:101B18000038024040787D010024F400002800F0DD
:101B28009B8070B50D4604464F4B1B6803F00703B6
:101B38008B4208D2CBB24C4A1370136803F00703E8
:101B48008B4240F08B80236813F0020F17D013F0FC
:101B5800040F04D0454A936843F4E0539360236824
:101B680013F0080F04D0414A936843F4604393602C
:101B78003E4A936823F0F003A1680B4393602368FF
:101B880013F0010F32D06368012B21D09A1E012A6D
:101B980025D9364A126812F0020F61D033498A6893
:101BA80022F0030213438B60FEF7FCFF06462F4B1F
:101BB8009B6803F00C036268B3EB820F16D0FEF744
:101BC800F1FF801B41F288339842F0D9032042E0AC
:101BD800264A126812F4003FE0D101203BE0234A74
:101BE800126812F0007FD9D1012034E01E4B1B6827
:101BF80003F00703AB4207D9EAB21B4B1A701B6804
:101C080003F00703AB422DD1236813F0040F06D06D
:101C1800164A936823F4E053E1680B439360236802
:101C280013F0080F07D0114A936823F46043216921
:101C380043EAC1039360FFF71DFF0C4B9B68C3F396
:101C480003130B4AD35CD8400A4B18600A4B186838
:101C5800FEF75CFF002070BD012070470120FAE705
:101C68000120F8E70120F6E7003C02400038024076
:101C7800982800080000002008000020014B186880
:101C8800704700BF0000002008B5FFF7F7FF044BBE
:101C98009B68C3F38223034AD35CD84008BD00BFC6
:101CA800003802409028000808B5FFF7E7FF044B0A
:101CB8009B68C3F34233034AD35CD84008BD00BFD6
:101CC8000038024090280008026802F10C0353E82B
:101CD800003F23F490730C3242E800310029F3D11D
:101CE800026802F1140353E8003F23F001031432A1
:101CF80042E800310029F3D1036B012B05D02023E2
:101D080080F84230002303637047026802F10C0335
:101D180053E8003F23F010030C3242E80031002959
:101D2800F3D1ECE790F84130DBB2212B01D002204F
:101D380070478368B3F5805F17D0036A5A1C026244
:101D48001A7803685A60C38C9BB2013B9BB2C38468
:101D58004BB90268D36823F08003D3600268D36864
:101D680043F04003D360002070470369002BE4D19F
:101D7800036A1B880268C3F308035360036A0233CB
:101D88000362E0E710B504460268136923F4405380
:101D9800C1680B431361836802691A4343691A4394
:101DA800C3691A430168CB6823F4164323F00C0374
:101DB8001343CB600268536923F4407381690B4372
:101DC80053610368314A934206D002F58062934218
:101DD80002D0FFF759FF01E0FFF766FFE369B3F5AB
:101DE800004F29D00021031849411B1841F1000177
:101DF800C90041EA5371DB00181863684FEA83028F
:101E08004FEA937341F10001FEF77CFB204AA2FBE5
:101E180000314909642303FB11031B013233A2FB80
:101E280003235B0903F0F00202EB011203F00F0336
:101E3800216813448B6010BD0023021843EB030193
:101E4800121841F10001C90041EA5271D20010187C
:101E580041F10001626892185B41FEF753FB0C4A9E
:101E6800A2FB00314909642303FB1103DB00323371
:101E7800A2FB03235B095A0002F4F87202EB011279
:101E880003F00703216813448B60D4E70010014076
:101E98001F85EB512DE9F04383B005460E461746E2
:101EA8009946DDF828802B681C6836EA04040CBFC4
:101EB80001240024BC4228D1B8F1FF3FF3D0FEF73B
:101EC80071FEA0EB0900404523D8B8F1000F22D0DD
:101ED8002B68DA6812F0040FE5D0802EE3D0402E8C
:101EE800E1D01A6812F0080FDDD0002401941A68B6
:101EF80001925B680193019B2846FFF7E5FE0823E2
:101F08006B6485F84040012000E0002003B0BDE884
:101F1800F0830320FAE70320F8E760B310B504461E
:101F280090F8413013B3242384F841302268D368F1
:101F380023F40053D3602046FFF724FF2268136977
:101F480023F4904313612268536923F02A035361F1
:101F58002268D36843F40053D360002060642023D0
:101F680084F8413084F84230606310BD80F8403016
:101F7800FEF762FDD7E7012070472DE9F04182B0F6
:101F88001E4690F84130DBB2202B56D104460D4650
:101F98009046002955D00AB901204FE00023436438
:101FA800212380F84130FEF7FDFD0746A4F8248080
:101FB800A4F82680A368B3F5805F02D04FF000082C
:101FC80014E023692BB34FF000080FE0202384F8B6
:101FD8004130032032E038F8023B2268C3F308039B
:101FE8005360E28C92B2013A92B2E284E38C9BB2E3
:101FF80093B100963B46002280212046FFF74AFF16
:102008000028E3D1002DE6D015F8012B23685A608B
:10201800E7E7A8460025E9E700963B46002240216D
:102028002046FFF737FF18B9202384F8413005E030
:10203800202384F84130032000E0022002B0BDE8EC
:10204800F0810120FAE7704708B50168CA6822F0F4
:102058004002CA60202280F84120FFF7F4FF0020E8
:1020680008BD7047704708B5806B0023C385C384DB
:10207800FFF7F8FF08BD704790F84230DBB2222B1B
:1020880069D18368B3F5805F4FD0826AB3F5805F0A
:1020980004D0002B56D10369002B53D103685B6829
:1020A8001370836A01338362C38D9BB2013B9BB279
:1020B800C385002B51D100B583B00268D36823F0E3
:1020C8002003D3600268D36823F48073D360026866
:1020D800536923F001035361202380F84230002321
:1020E8004363036B012B33D100230363026802F1BE
:1020F8000C0353E8003F23F010030C3242E8003190
:102108000029F3D103681A6812F0100F06D00022D4
:1021180001921A6801925B680193019B818DFFF718
:10212800AAFF002003B05DF804FB0269002AACD1C5
:10213800826A03685B68C3F308031380836A023307
:102148008362B1E703685B6803F07F031370A8E755
:10215800FFF787FFE5E7022070470020704700007F
:1021680010B582B0044602681368D068516913F04C
:102178000F0F09D113F0200F0CD010F0200F09D049
:102188002046FFF779FF16E011F0010115D110F490
:10219800907F12D1216B012979D013F0800F03D0E1
:1021A80010F0800F40F0148113F0400F03D010F0AE
:1021B800400F40F0118102B010BD13F0010F06D09E
:1021C80010F4807F03D0626C42F00102626413F065
:1021D800040F04D019B1626C42F00202626413F079
:1021E800020F04D019B1626C42F00402626413F069
:1021F800080F07D010F0200F00D119B1626C42F01F
:1022080008026264626C002AD5D013F0200F02D055
:1022180010F0200F29D123685B6903F04003626C3A
:1022280012F0080F00D163B32046FFF74DFD236875
:102238005B6913F0400F20D0226802F1140353E8C1
:10224800003F23F04003143242E800310029F3D163
:10225800E36B73B1624A1A65E06BFFF7F1F8002887
:10226800A9D0E06B036D9847A5E72046FFF704FF68
:10227800D1E72046FFF7F6FE9DE72046FFF7F2FE7E
:1022880099E72046FFF7EEFE0023636493E713F017
:10229800100F82D010F0100F3FF47FAF002301938E
:1022A8001368019353680193019B536913F0400F1E
:1022B80052D0E26B13685B689BB2002B3FF47BAF94
:1022C800A18D99427FF677AFE385D369B3F5807F17
:1022D80037D0226802F10C0353E8003F23F48073DF
:1022E8000C3242E800310029F3D1226802F11403CC
:1022F80053E8003F23F00103143242E8003100297B
:10230800F3D1226802F1140353E8003F23F040039D
:10231800143242E800310029F3D1202384F84230F6
:1023280000232363226802F10C0353E8003F23F0E3
:1023380010030C3242E800310029F3D1E06BFFF7BB
:1023480035F802236363A18DE38D9BB2C91A89B264
:102358002046FFF790FE2EE7A18DE38D9BB2C91AA8
:1023680089B2E38D9BB2002B3FF425AF00293FF4DF
:1023780022AF226802F10C0353E8003F23F4907364
:102388000C3242E800300028F3D1226802F114032D
:1023980053E8003F23F00103143242E800300028DC
:1023A800F3D1202384F8423000232363226802F10A
:1023B8000C0353E8003F23F010030C3242E80030CE
:1023C8000028F3D1022363632046FFF754FEF2E6A8
:1023D8002046FFF7A7FCEEE62046FFF735FEEAE6C3
:1023E8006F2000082DE9F047089D0E4604460F4669
:1023F800002B4AD194468C45B2FA82F260D942B198
:10240800C2F12003974020FA03F30CFA02FC1F43A1
:1024180094404FEA1C4E1FFA8CF6B7FBFEF1230CD2
:102428000EFB117743EA074301FB06F098420AD9ED
:102438001CEB030301F1FF3780F01581984240F24D
:102448001281023963441B1AA4B2B3FBFEF00EFBDF
:10245800103344EA034400FB06F6A6420AD91CEBF3
:10246800040400F1FF3380F00081A64240F2FD80B1
:102478006444023840EA0140A41B00211DB1D44045
:102488000023C5E90043BDE8F0878B4205D90DB1AB
:10249800C5E9000100210846F5E7B3FA83F10029F0
:1024A80046D1B34202D3824200F2F580841A66EB29
:1024B800030201201746002DE5D0C5E90047E2E7F1
:1024C800002A40F09380A1EB0C034FEA1C471FFA47
:1024D8008CFE0121B3FBF7F607FB1630230C43EA09
:1024E80000430EFB06F0984208D91CEB030306F1E3
:1024F800FF3802D2984200F2D08046461B1AA4B296
:10250800B3FBF7F007FB103344EA03440EFB00FE6D
:10251800A64508D91CEB040400F1FF3302D2A645F6
:1025280000F2B6801846A4EB0E0440EA0640A5E780
:10253800C1F120078B4022FA07FC4CEA030C06FA8B
:1025480001FE20FA07F426FA07F344EA0E0400FA1B
:1025580001F84FEA1C404FEA1449B3FBF0FE1FFA9A
:102568008CF600FB1E3349EA03430EFB06F9994536
:1025780002FA01F20BD91CEB03030EF1FF3A80F0CB
:102588008580994540F28280AEF1020E6344A3EB48
:102598000909A4B2B9FBF0F300FB139944EA094412
:1025A80003FB06F6A64208D91CEB040403F1FF302E
:1025B80068D2A64266D9023B644443EA0E40A41B93
:1025C800A0FB02E6B4427346B14652D34FD05DB188
:1025D800B8EB030264EB090404FA07F722FA01F3E3
:1025E8001F43CC40C5E9007400214CE7C2F120012B
:1025F80020FA01F30CFA02FC26FA01F19640334363
:102608004FEA1C471FFA8CFEB1FBF7F007FB1016C8
:10261800190C41EA064100FB0EF68E4204FA02F458
:1026280008D91CEB010100F1FF382DD28E422BD9BD
:1026380002386144891B9BB2B1FBF7F607FB161100
:1026480043EA014306FB0EF1994208D91CEB030348
:1026580006F1FF3814D2994212D9023E63445B1A3C
:1026680046EA004136E73946EDE6184602E7F04506
:10267800ADD2BEEB020366EB0C060138B146A6E705
:102688004646ECE7034698E74046D3E7D6467EE75A
:102698006444023847E708460DE7023E63442DE7E5
:1026A800830730B547D0541E002A3ED0CAB203462D
:1026B80001E0013C39D303F8012B9D07F9D1032C24
:1026C8002CD9CDB205EB05250F2C05EB054535D9E1
:1026D800A4F1100222F00F0C03F1100EE6444FEAA9
:1026E800121C1A46C2E90055C2E902551032724559
:1026F800F8D10CF1010214F00C0F03EB021204F0F4
:102708000F0C13D0ACF1040323F003030433134478
:1027180042F8045B9342FBD10CF003042CB1C9B21C
:102728001C4403F8011BA342FBD130BD6446134689
:10273800002CF4D1F9E703461446C0E71A46A4462C
:10274800E0E700BF70B50F4B0F4DAB42A3EB05069A
:1027580007D0B610002455F8043B01349847A64228
:10276800F9D800F07FF8094D094B5E1BAB424FEAE0
:10277800A60606D0002455F8043B01349847A64223
:10278800F9D870BDB0280008B0280008B0280008A3
:10279800B8280008704700BF704700BF024B13B14C
:1027A800024800F005B8704700000000C52700087F
:1027B800002301461A46184600F014B838B5074DEC
:1027C800074C2C1BA41005D0013C55F8043D984734
:1027D800002CF9D1BDE8384000F04AB8BC28000800
:1027E800B82800082DE9F8431B4D06462868984686
:1027F8000F469146FFF7CEFF184B1C681CB328689C
:1028080065681F2D22DC4EB96B1C0235636044F8E5
:102818002570FFF7C1FF0020BDE8F88304EB8501B0
:102828000123C1F88890D4F88821AB401A43022EBE
:10283800C4F88821C1F80881E6D1D4F88C211A435C
:10284800C4F88C21E0E7064C1C60D8E7FFF7A4FF2A
:102858004FF0FF30E0E700BF0C00002068010020C7
:102868006C010020F8B500BFF8BC08BC9E46704754
:0C287800F8B500BFF8BC08BC9E467047D5
:102884005541525420546573740D0A000000000031
:102894000102030400000000000000000102030420
:0428A4000607080912
:0828A80044FBFF7F010000006A
:0828B000A5270008A905000896
:0428B800810500088E
:1028BC000024F4000100000010000000640100205E
:0400000508000AC124
:00000001FF
